{
	"contracts/vcDORA.sol": {
		"vcDORA": {
			"abi": [
				{
					"inputs": [
						{
							"internalType": "contract ERC20",
							"name": "_token",
							"type": "address"
						},
						{
							"internalType": "string",
							"name": "_name",
							"type": "string"
						},
						{
							"internalType": "string",
							"name": "_symbol",
							"type": "string"
						}
					],
					"stateMutability": "nonpayable",
					"type": "constructor"
				},
				{
					"anonymous": false,
					"inputs": [
						{
							"indexed": true,
							"internalType": "address",
							"name": "provider",
							"type": "address"
						},
						{
							"indexed": false,
							"internalType": "uint256",
							"name": "amount",
							"type": "uint256"
						},
						{
							"indexed": true,
							"internalType": "uint256",
							"name": "locktime",
							"type": "uint256"
						},
						{
							"indexed": false,
							"internalType": "enum vcDORA.LockedType",
							"name": "lockedType",
							"type": "uint8"
						},
						{
							"indexed": false,
							"internalType": "uint256",
							"name": "ts",
							"type": "uint256"
						}
					],
					"name": "Deposit",
					"type": "event"
				},
				{
					"anonymous": false,
					"inputs": [
						{
							"indexed": false,
							"internalType": "uint256",
							"name": "prevSupply",
							"type": "uint256"
						},
						{
							"indexed": false,
							"internalType": "uint256",
							"name": "supply",
							"type": "uint256"
						}
					],
					"name": "Supply",
					"type": "event"
				},
				{
					"anonymous": false,
					"inputs": [
						{
							"indexed": true,
							"internalType": "address",
							"name": "provider",
							"type": "address"
						},
						{
							"indexed": false,
							"internalType": "uint256",
							"name": "value",
							"type": "uint256"
						},
						{
							"indexed": false,
							"internalType": "uint256",
							"name": "ts",
							"type": "uint256"
						}
					],
					"name": "Withdraw",
					"type": "event"
				},
				{
					"inputs": [],
					"name": "admin",
					"outputs": [
						{
							"internalType": "address",
							"name": "",
							"type": "address"
						}
					],
					"stateMutability": "view",
					"type": "function"
				},
				{
					"inputs": [
						{
							"internalType": "address",
							"name": "_user",
							"type": "address"
						}
					],
					"name": "balanceOf",
					"outputs": [
						{
							"internalType": "uint256",
							"name": "",
							"type": "uint256"
						}
					],
					"stateMutability": "view",
					"type": "function"
				},
				{
					"inputs": [
						{
							"internalType": "address",
							"name": "_user",
							"type": "address"
						},
						{
							"internalType": "uint256",
							"name": "_ts",
							"type": "uint256"
						}
					],
					"name": "balanceOfAt",
					"outputs": [
						{
							"internalType": "uint256",
							"name": "",
							"type": "uint256"
						}
					],
					"stateMutability": "view",
					"type": "function"
				},
				{
					"inputs": [
						{
							"internalType": "address",
							"name": "_user",
							"type": "address"
						},
						{
							"internalType": "uint256",
							"name": "_ts",
							"type": "uint256"
						}
					],
					"name": "balanceOfAtFuture",
					"outputs": [
						{
							"internalType": "uint256",
							"name": "",
							"type": "uint256"
						}
					],
					"stateMutability": "view",
					"type": "function"
				},
				{
					"inputs": [
						{
							"internalType": "address",
							"name": "_user",
							"type": "address"
						},
						{
							"internalType": "uint256",
							"name": "_ts",
							"type": "uint256"
						},
						{
							"internalType": "uint256",
							"name": "_uEpoch",
							"type": "uint256"
						}
					],
					"name": "balanceSnapshot",
					"outputs": [],
					"stateMutability": "nonpayable",
					"type": "function"
				},
				{
					"inputs": [
						{
							"internalType": "address",
							"name": "_user",
							"type": "address"
						},
						{
							"internalType": "uint256",
							"name": "_ts",
							"type": "uint256"
						}
					],
					"name": "balanceSnapshot",
					"outputs": [],
					"stateMutability": "nonpayable",
					"type": "function"
				},
				{
					"inputs": [
						{
							"internalType": "uint256",
							"name": "_value",
							"type": "uint256"
						},
						{
							"internalType": "uint256",
							"name": "_unlockTime",
							"type": "uint256"
						}
					],
					"name": "createLock",
					"outputs": [],
					"stateMutability": "nonpayable",
					"type": "function"
				},
				{
					"inputs": [],
					"name": "decimals",
					"outputs": [
						{
							"internalType": "uint256",
							"name": "",
							"type": "uint256"
						}
					],
					"stateMutability": "view",
					"type": "function"
				},
				{
					"inputs": [
						{
							"internalType": "address",
							"name": "_user",
							"type": "address"
						},
						{
							"internalType": "uint256",
							"name": "_value",
							"type": "uint256"
						}
					],
					"name": "depositFor",
					"outputs": [],
					"stateMutability": "nonpayable",
					"type": "function"
				},
				{
					"inputs": [],
					"name": "epoch",
					"outputs": [
						{
							"internalType": "uint256",
							"name": "",
							"type": "uint256"
						}
					],
					"stateMutability": "view",
					"type": "function"
				},
				{
					"inputs": [
						{
							"internalType": "uint256",
							"name": "_value",
							"type": "uint256"
						}
					],
					"name": "increaseAmount",
					"outputs": [],
					"stateMutability": "nonpayable",
					"type": "function"
				},
				{
					"inputs": [
						{
							"internalType": "uint256",
							"name": "_unlockTime",
							"type": "uint256"
						}
					],
					"name": "increaseUnlockTime",
					"outputs": [],
					"stateMutability": "nonpayable",
					"type": "function"
				},
				{
					"inputs": [
						{
							"internalType": "contract ERC20",
							"name": "_token",
							"type": "address"
						},
						{
							"internalType": "string",
							"name": "_name",
							"type": "string"
						},
						{
							"internalType": "string",
							"name": "_symbol",
							"type": "string"
						}
					],
					"name": "init",
					"outputs": [],
					"stateMutability": "nonpayable",
					"type": "function"
				},
				{
					"inputs": [
						{
							"internalType": "address",
							"name": "",
							"type": "address"
						}
					],
					"name": "locked",
					"outputs": [
						{
							"internalType": "uint256",
							"name": "amount",
							"type": "uint256"
						},
						{
							"internalType": "uint256",
							"name": "end",
							"type": "uint256"
						}
					],
					"stateMutability": "view",
					"type": "function"
				},
				{
					"inputs": [],
					"name": "name",
					"outputs": [
						{
							"internalType": "string",
							"name": "",
							"type": "string"
						}
					],
					"stateMutability": "view",
					"type": "function"
				},
				{
					"inputs": [
						{
							"internalType": "uint256",
							"name": "",
							"type": "uint256"
						}
					],
					"name": "pointHistory",
					"outputs": [
						{
							"internalType": "int256",
							"name": "bias",
							"type": "int256"
						},
						{
							"internalType": "int256",
							"name": "slope",
							"type": "int256"
						},
						{
							"internalType": "uint256",
							"name": "ts",
							"type": "uint256"
						}
					],
					"stateMutability": "view",
					"type": "function"
				},
				{
					"inputs": [
						{
							"internalType": "uint256",
							"name": "",
							"type": "uint256"
						}
					],
					"name": "slopeChanges",
					"outputs": [
						{
							"internalType": "int256",
							"name": "",
							"type": "int256"
						}
					],
					"stateMutability": "view",
					"type": "function"
				},
				{
					"inputs": [],
					"name": "supply",
					"outputs": [
						{
							"internalType": "uint256",
							"name": "",
							"type": "uint256"
						}
					],
					"stateMutability": "view",
					"type": "function"
				},
				{
					"inputs": [],
					"name": "symbol",
					"outputs": [
						{
							"internalType": "string",
							"name": "",
							"type": "string"
						}
					],
					"stateMutability": "view",
					"type": "function"
				},
				{
					"inputs": [],
					"name": "token",
					"outputs": [
						{
							"internalType": "contract ERC20",
							"name": "",
							"type": "address"
						}
					],
					"stateMutability": "view",
					"type": "function"
				},
				{
					"inputs": [],
					"name": "totalSupply",
					"outputs": [
						{
							"internalType": "uint256",
							"name": "",
							"type": "uint256"
						}
					],
					"stateMutability": "view",
					"type": "function"
				},
				{
					"inputs": [
						{
							"internalType": "uint256",
							"name": "_ts",
							"type": "uint256"
						}
					],
					"name": "totalSupplyAt",
					"outputs": [
						{
							"internalType": "uint256",
							"name": "",
							"type": "uint256"
						}
					],
					"stateMutability": "view",
					"type": "function"
				},
				{
					"inputs": [
						{
							"internalType": "uint256",
							"name": "_ts",
							"type": "uint256"
						}
					],
					"name": "totalSupplyAtFuture",
					"outputs": [
						{
							"internalType": "uint256",
							"name": "",
							"type": "uint256"
						}
					],
					"stateMutability": "view",
					"type": "function"
				},
				{
					"inputs": [
						{
							"internalType": "address",
							"name": "",
							"type": "address"
						},
						{
							"internalType": "uint256",
							"name": "",
							"type": "uint256"
						}
					],
					"name": "userBalanceSnapshot",
					"outputs": [
						{
							"internalType": "uint256",
							"name": "",
							"type": "uint256"
						}
					],
					"stateMutability": "view",
					"type": "function"
				},
				{
					"inputs": [
						{
							"internalType": "address",
							"name": "",
							"type": "address"
						}
					],
					"name": "userPointEpoch",
					"outputs": [
						{
							"internalType": "uint256",
							"name": "",
							"type": "uint256"
						}
					],
					"stateMutability": "view",
					"type": "function"
				},
				{
					"inputs": [
						{
							"internalType": "address",
							"name": "",
							"type": "address"
						},
						{
							"internalType": "uint256",
							"name": "",
							"type": "uint256"
						}
					],
					"name": "userPointHistory",
					"outputs": [
						{
							"internalType": "int256",
							"name": "bias",
							"type": "int256"
						},
						{
							"internalType": "int256",
							"name": "slope",
							"type": "int256"
						},
						{
							"internalType": "uint256",
							"name": "ts",
							"type": "uint256"
						}
					],
					"stateMutability": "view",
					"type": "function"
				},
				{
					"inputs": [],
					"name": "withdraw",
					"outputs": [],
					"stateMutability": "nonpayable",
					"type": "function"
				}
			],
			"devdoc": {
				"kind": "dev",
				"methods": {},
				"version": 1
			},
			"evm": {
				"assembly": "    /* \"contracts/vcDORA.sol\":536:13695  contract vcDORA {... */\n  mstore(0x40, 0x80)\n    /* \"contracts/vcDORA.sol\":2234:2379  constructor(... */\n  callvalue\n  dup1\n  iszero\n  tag_1\n  jumpi\n  0x00\n  dup1\n  revert\ntag_1:\n  pop\n  mload(0x40)\n  sub(codesize, bytecodeSize)\n  dup1\n  bytecodeSize\n  dup4\n  codecopy\n  dup2\n  dup2\n  add\n  0x40\n  mstore\n  dup2\n  add\n  swap1\n  tag_2\n  swap2\n  swap1\n  tag_3\n  jump\t// in\ntag_2:\n    /* \"contracts/vcDORA.sol\":2344:2372  init(_token, _name, _symbol) */\n  tag_6\n    /* \"contracts/vcDORA.sol\":2349:2355  _token */\n  dup4\n    /* \"contracts/vcDORA.sol\":2357:2362  _name */\n  dup4\n    /* \"contracts/vcDORA.sol\":2364:2371  _symbol */\n  dup4\n    /* \"contracts/vcDORA.sol\":2344:2348  init */\n  shl(0x20, tag_7)\n    /* \"contracts/vcDORA.sol\":2344:2372  init(_token, _name, _symbol) */\n  0x20\n  shr\n  jump\t// in\ntag_6:\n    /* \"contracts/vcDORA.sol\":2234:2379  constructor(... */\n  pop\n  pop\n  pop\n    /* \"contracts/vcDORA.sol\":536:13695  contract vcDORA {... */\n  jump(tag_8)\n    /* \"contracts/vcDORA.sol\":2385:2769  function init(... */\ntag_7:\n    /* \"contracts/vcDORA.sol\":2529:2530  0 */\n  0x00\n    /* \"contracts/vcDORA.sol\":2512:2531  admin == address(0) */\n  0xffffffffffffffffffffffffffffffffffffffff\n  and\n    /* \"contracts/vcDORA.sol\":2512:2517  admin */\n  0x00\n  dup1\n  sload\n  swap1\n  0x0100\n  exp\n  swap1\n  div\n  0xffffffffffffffffffffffffffffffffffffffff\n  and\n    /* \"contracts/vcDORA.sol\":2512:2531  admin == address(0) */\n  0xffffffffffffffffffffffffffffffffffffffff\n  and\n  eq\n    /* \"contracts/vcDORA.sol\":2504:2532  require(admin == address(0)) */\n  tag_10\n  jumpi\n  0x00\n  dup1\n  revert\ntag_10:\n    /* \"contracts/vcDORA.sol\":2550:2560  msg.sender */\n  caller\n    /* \"contracts/vcDORA.sol\":2542:2547  admin */\n  0x00\n  dup1\n    /* \"contracts/vcDORA.sol\":2542:2560  admin = msg.sender */\n  0x0100\n  exp\n  dup2\n  sload\n  dup2\n  0xffffffffffffffffffffffffffffffffffffffff\n  mul\n  not\n  and\n  swap1\n  dup4\n  0xffffffffffffffffffffffffffffffffffffffff\n  and\n  mul\n  or\n  swap1\n  sstore\n  pop\n    /* \"contracts/vcDORA.sol\":2579:2585  _token */\n  dup3\n    /* \"contracts/vcDORA.sol\":2571:2576  token */\n  0x04\n  0x00\n    /* \"contracts/vcDORA.sol\":2571:2585  token = _token */\n  0x0100\n  exp\n  dup2\n  sload\n  dup2\n  0xffffffffffffffffffffffffffffffffffffffff\n  mul\n  not\n  and\n  swap1\n  dup4\n  0xffffffffffffffffffffffffffffffffffffffff\n  and\n  mul\n  or\n  swap1\n  sstore\n  pop\n    /* \"contracts/vcDORA.sol\":2606:2612  _token */\n  dup3\n    /* \"contracts/vcDORA.sol\":2606:2621  _token.decimals */\n  0xffffffffffffffffffffffffffffffffffffffff\n  and\n  0x313ce567\n    /* \"contracts/vcDORA.sol\":2606:2623  _token.decimals() */\n  mload(0x40)\n  dup2\n  0xffffffff\n  and\n  0xe0\n  shl\n  dup2\n  mstore\n  0x04\n  add\n  0x20\n  mload(0x40)\n  dup1\n  dup4\n  sub\n  dup2\n  dup7\n  gas\n  staticcall\n  iszero\n  dup1\n  iszero\n  tag_12\n  jumpi\n  returndatasize\n  0x00\n  dup1\n  returndatacopy\n  revert(0x00, returndatasize)\ntag_12:\n  pop\n  pop\n  pop\n  pop\n  mload(0x40)\n  returndatasize\n  not(0x1f)\n  0x1f\n  dup3\n  add\n  and\n  dup3\n  add\n  dup1\n  0x40\n  mstore\n  pop\n  dup2\n  add\n  swap1\n  tag_13\n  swap2\n  swap1\n  tag_14\n  jump\t// in\ntag_13:\n    /* \"contracts/vcDORA.sol\":2595:2603  decimals */\n  0x03\n    /* \"contracts/vcDORA.sol\":2595:2623  decimals = _token.decimals() */\n  dup2\n  swap1\n  sstore\n  pop\n    /* \"contracts/vcDORA.sol\":2640:2645  _name */\n  dup2\n    /* \"contracts/vcDORA.sol\":2633:2637  name */\n  0x01\n    /* \"contracts/vcDORA.sol\":2633:2645  name = _name */\n  swap1\n  dup1\n  mload\n  swap1\n  0x20\n  add\n  swap1\n  tag_15\n  swap3\n  swap2\n  swap1\n  tag_16\n  jump\t// in\ntag_15:\n  pop\n    /* \"contracts/vcDORA.sol\":2664:2671  _symbol */\n  dup1\n    /* \"contracts/vcDORA.sol\":2655:2661  symbol */\n  0x02\n    /* \"contracts/vcDORA.sol\":2655:2671  symbol = _symbol */\n  swap1\n  dup1\n  mload\n  swap1\n  0x20\n  add\n  swap1\n  tag_17\n  swap3\n  swap2\n  swap1\n  tag_16\n  jump\t// in\ntag_17:\n  pop\n    /* \"contracts/vcDORA.sol\":627:634  1 weeks */\n  0x093a80\n    /* \"contracts/vcDORA.sol\":2690:2705  block.timestamp */\n  timestamp\n    /* \"contracts/vcDORA.sol\":2690:2712  block.timestamp / WEEK */\n  tag_18\n  swap2\n  swap1\n  tag_19\n  jump\t// in\ntag_18:\n    /* \"contracts/vcDORA.sol\":2682:2687  epoch */\n  0x07\n    /* \"contracts/vcDORA.sol\":2682:2712  epoch = block.timestamp / WEEK */\n  dup2\n  swap1\n  sstore\n  pop\n    /* \"contracts/vcDORA.sol\":2747:2762  block.timestamp */\n  timestamp\n    /* \"contracts/vcDORA.sol\":2722:2734  pointHistory */\n  0x08\n    /* \"contracts/vcDORA.sol\":2722:2741  pointHistory[epoch] */\n  0x00\n    /* \"contracts/vcDORA.sol\":2735:2740  epoch */\n  sload(0x07)\n    /* \"contracts/vcDORA.sol\":2722:2741  pointHistory[epoch] */\n  dup2\n  mstore\n  0x20\n  add\n  swap1\n  dup2\n  mstore\n  0x20\n  add\n  0x00\n  keccak256\n    /* \"contracts/vcDORA.sol\":2722:2744  pointHistory[epoch].ts */\n  0x02\n  add\n    /* \"contracts/vcDORA.sol\":2722:2762  pointHistory[epoch].ts = block.timestamp */\n  dup2\n  swap1\n  sstore\n  pop\n    /* \"contracts/vcDORA.sol\":2385:2769  function init(... */\n  pop\n  pop\n  pop\n  jump\t// out\n    /* \"contracts/vcDORA.sol\":536:13695  contract vcDORA {... */\ntag_16:\n  dup3\n  dup1\n  sload\n  tag_20\n  swap1\n  tag_21\n  jump\t// in\ntag_20:\n  swap1\n  0x00\n  mstore\n  keccak256(0x00, 0x20)\n  swap1\n  0x1f\n  add\n  0x20\n  swap1\n  div\n  dup2\n  add\n  swap3\n  dup3\n  tag_23\n  jumpi\n  0x00\n  dup6\n  sstore\n  jump(tag_22)\ntag_23:\n  dup3\n  0x1f\n  lt\n  tag_24\n  jumpi\n  dup1\n  mload\n  not(0xff)\n  and\n  dup4\n  dup1\n  add\n  or\n  dup6\n  sstore\n  jump(tag_22)\ntag_24:\n  dup3\n  dup1\n  add\n  0x01\n  add\n  dup6\n  sstore\n  dup3\n  iszero\n  tag_22\n  jumpi\n  swap2\n  dup3\n  add\ntag_25:\n  dup3\n  dup2\n  gt\n  iszero\n  tag_26\n  jumpi\n  dup3\n  mload\n  dup3\n  sstore\n  swap2\n  0x20\n  add\n  swap2\n  swap1\n  0x01\n  add\n  swap1\n  jump(tag_25)\ntag_26:\ntag_22:\n  pop\n  swap1\n  pop\n  tag_27\n  swap2\n  swap1\n  tag_28\n  jump\t// in\ntag_27:\n  pop\n  swap1\n  jump\t// out\ntag_28:\ntag_29:\n  dup1\n  dup3\n  gt\n  iszero\n  tag_30\n  jumpi\n  0x00\n  dup2\n  0x00\n  swap1\n  sstore\n  pop\n  0x01\n  add\n  jump(tag_29)\ntag_30:\n  pop\n  swap1\n  jump\t// out\n    /* \"#utility.yul\":7:82   */\ntag_31:\n    /* \"#utility.yul\":40:46   */\n  0x00\n    /* \"#utility.yul\":73:75   */\n  0x40\n    /* \"#utility.yul\":67:76   */\n  mload\n    /* \"#utility.yul\":57:76   */\n  swap1\n  pop\n    /* \"#utility.yul\":7:82   */\n  swap1\n  jump\t// out\n    /* \"#utility.yul\":88:205   */\ntag_32:\n    /* \"#utility.yul\":197:198   */\n  0x00\n    /* \"#utility.yul\":194:195   */\n  dup1\n    /* \"#utility.yul\":187:199   */\n  revert\n    /* \"#utility.yul\":211:328   */\ntag_33:\n    /* \"#utility.yul\":320:321   */\n  0x00\n    /* \"#utility.yul\":317:318   */\n  dup1\n    /* \"#utility.yul\":310:322   */\n  revert\n    /* \"#utility.yul\":334:460   */\ntag_34:\n    /* \"#utility.yul\":371:378   */\n  0x00\n    /* \"#utility.yul\":411:453   */\n  0xffffffffffffffffffffffffffffffffffffffff\n    /* \"#utility.yul\":404:409   */\n  dup3\n    /* \"#utility.yul\":400:454   */\n  and\n    /* \"#utility.yul\":389:454   */\n  swap1\n  pop\n    /* \"#utility.yul\":334:460   */\n  swap2\n  swap1\n  pop\n  jump\t// out\n    /* \"#utility.yul\":466:562   */\ntag_35:\n    /* \"#utility.yul\":503:510   */\n  0x00\n    /* \"#utility.yul\":532:556   */\n  tag_61\n    /* \"#utility.yul\":550:555   */\n  dup3\n    /* \"#utility.yul\":532:556   */\n  tag_34\n  jump\t// in\ntag_61:\n    /* \"#utility.yul\":521:556   */\n  swap1\n  pop\n    /* \"#utility.yul\":466:562   */\n  swap2\n  swap1\n  pop\n  jump\t// out\n    /* \"#utility.yul\":568:676   */\ntag_36:\n    /* \"#utility.yul\":617:624   */\n  0x00\n    /* \"#utility.yul\":646:670   */\n  tag_63\n    /* \"#utility.yul\":664:669   */\n  dup3\n    /* \"#utility.yul\":646:670   */\n  tag_35\n  jump\t// in\ntag_63:\n    /* \"#utility.yul\":635:670   */\n  swap1\n  pop\n    /* \"#utility.yul\":568:676   */\n  swap2\n  swap1\n  pop\n  jump\t// out\n    /* \"#utility.yul\":682:828   */\ntag_37:\n    /* \"#utility.yul\":767:803   */\n  tag_65\n    /* \"#utility.yul\":797:802   */\n  dup2\n    /* \"#utility.yul\":767:803   */\n  tag_36\n  jump\t// in\ntag_65:\n    /* \"#utility.yul\":760:765   */\n  dup2\n    /* \"#utility.yul\":757:804   */\n  eq\n    /* \"#utility.yul\":747:822   */\n  tag_66\n  jumpi\n    /* \"#utility.yul\":818:819   */\n  0x00\n    /* \"#utility.yul\":815:816   */\n  dup1\n    /* \"#utility.yul\":808:820   */\n  revert\n    /* \"#utility.yul\":747:822   */\ntag_66:\n    /* \"#utility.yul\":682:828   */\n  pop\n  jump\t// out\n    /* \"#utility.yul\":834:1001   */\ntag_38:\n    /* \"#utility.yul\":903:908   */\n  0x00\n    /* \"#utility.yul\":934:940   */\n  dup2\n    /* \"#utility.yul\":928:941   */\n  mload\n    /* \"#utility.yul\":919:941   */\n  swap1\n  pop\n    /* \"#utility.yul\":950:995   */\n  tag_68\n    /* \"#utility.yul\":989:994   */\n  dup2\n    /* \"#utility.yul\":950:995   */\n  tag_37\n  jump\t// in\ntag_68:\n    /* \"#utility.yul\":834:1001   */\n  swap3\n  swap2\n  pop\n  pop\n  jump\t// out\n    /* \"#utility.yul\":1007:1124   */\ntag_39:\n    /* \"#utility.yul\":1116:1117   */\n  0x00\n    /* \"#utility.yul\":1113:1114   */\n  dup1\n    /* \"#utility.yul\":1106:1118   */\n  revert\n    /* \"#utility.yul\":1130:1247   */\ntag_40:\n    /* \"#utility.yul\":1239:1240   */\n  0x00\n    /* \"#utility.yul\":1236:1237   */\n  dup1\n    /* \"#utility.yul\":1229:1241   */\n  revert\n    /* \"#utility.yul\":1253:1355   */\ntag_41:\n    /* \"#utility.yul\":1294:1300   */\n  0x00\n    /* \"#utility.yul\":1345:1347   */\n  0x1f\n    /* \"#utility.yul\":1341:1348   */\n  not\n    /* \"#utility.yul\":1336:1338   */\n  0x1f\n    /* \"#utility.yul\":1329:1334   */\n  dup4\n    /* \"#utility.yul\":1325:1339   */\n  add\n    /* \"#utility.yul\":1321:1349   */\n  and\n    /* \"#utility.yul\":1311:1349   */\n  swap1\n  pop\n    /* \"#utility.yul\":1253:1355   */\n  swap2\n  swap1\n  pop\n  jump\t// out\n    /* \"#utility.yul\":1361:1541   */\ntag_42:\n    /* \"#utility.yul\":1409:1486   */\n  0x4e487b7100000000000000000000000000000000000000000000000000000000\n    /* \"#utility.yul\":1406:1407   */\n  0x00\n    /* \"#utility.yul\":1399:1487   */\n  mstore\n    /* \"#utility.yul\":1506:1510   */\n  0x41\n    /* \"#utility.yul\":1503:1504   */\n  0x04\n    /* \"#utility.yul\":1496:1511   */\n  mstore\n    /* \"#utility.yul\":1530:1534   */\n  0x24\n    /* \"#utility.yul\":1527:1528   */\n  0x00\n    /* \"#utility.yul\":1520:1535   */\n  revert\n    /* \"#utility.yul\":1547:1828   */\ntag_43:\n    /* \"#utility.yul\":1630:1657   */\n  tag_74\n    /* \"#utility.yul\":1652:1656   */\n  dup3\n    /* \"#utility.yul\":1630:1657   */\n  tag_41\n  jump\t// in\ntag_74:\n    /* \"#utility.yul\":1622:1628   */\n  dup2\n    /* \"#utility.yul\":1618:1658   */\n  add\n    /* \"#utility.yul\":1760:1766   */\n  dup2\n    /* \"#utility.yul\":1748:1758   */\n  dup2\n    /* \"#utility.yul\":1745:1767   */\n  lt\n    /* \"#utility.yul\":1724:1742   */\n  0xffffffffffffffff\n    /* \"#utility.yul\":1712:1722   */\n  dup3\n    /* \"#utility.yul\":1709:1743   */\n  gt\n    /* \"#utility.yul\":1706:1768   */\n  or\n    /* \"#utility.yul\":1703:1791   */\n  iszero\n  tag_75\n  jumpi\n    /* \"#utility.yul\":1771:1789   */\n  tag_76\n  tag_42\n  jump\t// in\ntag_76:\n    /* \"#utility.yul\":1703:1791   */\ntag_75:\n    /* \"#utility.yul\":1811:1821   */\n  dup1\n    /* \"#utility.yul\":1807:1809   */\n  0x40\n    /* \"#utility.yul\":1800:1822   */\n  mstore\n    /* \"#utility.yul\":1590:1828   */\n  pop\n    /* \"#utility.yul\":1547:1828   */\n  pop\n  pop\n  jump\t// out\n    /* \"#utility.yul\":1834:1963   */\ntag_44:\n    /* \"#utility.yul\":1868:1874   */\n  0x00\n    /* \"#utility.yul\":1895:1915   */\n  tag_78\n  tag_31\n  jump\t// in\ntag_78:\n    /* \"#utility.yul\":1885:1915   */\n  swap1\n  pop\n    /* \"#utility.yul\":1924:1957   */\n  tag_79\n    /* \"#utility.yul\":1952:1956   */\n  dup3\n    /* \"#utility.yul\":1944:1950   */\n  dup3\n    /* \"#utility.yul\":1924:1957   */\n  tag_43\n  jump\t// in\ntag_79:\n    /* \"#utility.yul\":1834:1963   */\n  swap2\n  swap1\n  pop\n  jump\t// out\n    /* \"#utility.yul\":1969:2277   */\ntag_45:\n    /* \"#utility.yul\":2031:2035   */\n  0x00\n    /* \"#utility.yul\":2121:2139   */\n  0xffffffffffffffff\n    /* \"#utility.yul\":2113:2119   */\n  dup3\n    /* \"#utility.yul\":2110:2140   */\n  gt\n    /* \"#utility.yul\":2107:2163   */\n  iszero\n  tag_81\n  jumpi\n    /* \"#utility.yul\":2143:2161   */\n  tag_82\n  tag_42\n  jump\t// in\ntag_82:\n    /* \"#utility.yul\":2107:2163   */\ntag_81:\n    /* \"#utility.yul\":2181:2210   */\n  tag_83\n    /* \"#utility.yul\":2203:2209   */\n  dup3\n    /* \"#utility.yul\":2181:2210   */\n  tag_41\n  jump\t// in\ntag_83:\n    /* \"#utility.yul\":2173:2210   */\n  swap1\n  pop\n    /* \"#utility.yul\":2265:2269   */\n  0x20\n    /* \"#utility.yul\":2259:2263   */\n  dup2\n    /* \"#utility.yul\":2255:2270   */\n  add\n    /* \"#utility.yul\":2247:2270   */\n  swap1\n  pop\n    /* \"#utility.yul\":1969:2277   */\n  swap2\n  swap1\n  pop\n  jump\t// out\n    /* \"#utility.yul\":2283:2590   */\ntag_46:\n    /* \"#utility.yul\":2351:2352   */\n  0x00\n    /* \"#utility.yul\":2361:2474   */\ntag_85:\n    /* \"#utility.yul\":2375:2381   */\n  dup4\n    /* \"#utility.yul\":2372:2373   */\n  dup2\n    /* \"#utility.yul\":2369:2382   */\n  lt\n    /* \"#utility.yul\":2361:2474   */\n  iszero\n  tag_87\n  jumpi\n    /* \"#utility.yul\":2460:2461   */\n  dup1\n    /* \"#utility.yul\":2455:2458   */\n  dup3\n    /* \"#utility.yul\":2451:2462   */\n  add\n    /* \"#utility.yul\":2445:2463   */\n  mload\n    /* \"#utility.yul\":2441:2442   */\n  dup2\n    /* \"#utility.yul\":2436:2439   */\n  dup5\n    /* \"#utility.yul\":2432:2443   */\n  add\n    /* \"#utility.yul\":2425:2464   */\n  mstore\n    /* \"#utility.yul\":2397:2399   */\n  0x20\n    /* \"#utility.yul\":2394:2395   */\n  dup2\n    /* \"#utility.yul\":2390:2400   */\n  add\n    /* \"#utility.yul\":2385:2400   */\n  swap1\n  pop\n    /* \"#utility.yul\":2361:2474   */\n  jump(tag_85)\ntag_87:\n    /* \"#utility.yul\":2492:2498   */\n  dup4\n    /* \"#utility.yul\":2489:2490   */\n  dup2\n    /* \"#utility.yul\":2486:2499   */\n  gt\n    /* \"#utility.yul\":2483:2584   */\n  iszero\n  tag_88\n  jumpi\n    /* \"#utility.yul\":2572:2573   */\n  0x00\n    /* \"#utility.yul\":2563:2569   */\n  dup5\n    /* \"#utility.yul\":2558:2561   */\n  dup5\n    /* \"#utility.yul\":2554:2570   */\n  add\n    /* \"#utility.yul\":2547:2574   */\n  mstore\n    /* \"#utility.yul\":2483:2584   */\ntag_88:\n    /* \"#utility.yul\":2332:2590   */\n  pop\n    /* \"#utility.yul\":2283:2590   */\n  pop\n  pop\n  pop\n  jump\t// out\n    /* \"#utility.yul\":2596:3017   */\ntag_47:\n    /* \"#utility.yul\":2685:2690   */\n  0x00\n    /* \"#utility.yul\":2710:2776   */\n  tag_90\n    /* \"#utility.yul\":2726:2775   */\n  tag_91\n    /* \"#utility.yul\":2768:2774   */\n  dup5\n    /* \"#utility.yul\":2726:2775   */\n  tag_45\n  jump\t// in\ntag_91:\n    /* \"#utility.yul\":2710:2776   */\n  tag_44\n  jump\t// in\ntag_90:\n    /* \"#utility.yul\":2701:2776   */\n  swap1\n  pop\n    /* \"#utility.yul\":2799:2805   */\n  dup3\n    /* \"#utility.yul\":2792:2797   */\n  dup2\n    /* \"#utility.yul\":2785:2806   */\n  mstore\n    /* \"#utility.yul\":2837:2841   */\n  0x20\n    /* \"#utility.yul\":2830:2835   */\n  dup2\n    /* \"#utility.yul\":2826:2842   */\n  add\n    /* \"#utility.yul\":2875:2878   */\n  dup5\n    /* \"#utility.yul\":2866:2872   */\n  dup5\n    /* \"#utility.yul\":2861:2864   */\n  dup5\n    /* \"#utility.yul\":2857:2873   */\n  add\n    /* \"#utility.yul\":2854:2879   */\n  gt\n    /* \"#utility.yul\":2851:2963   */\n  iszero\n  tag_92\n  jumpi\n    /* \"#utility.yul\":2882:2961   */\n  tag_93\n  tag_40\n  jump\t// in\ntag_93:\n    /* \"#utility.yul\":2851:2963   */\ntag_92:\n    /* \"#utility.yul\":2972:3011   */\n  tag_94\n    /* \"#utility.yul\":3004:3010   */\n  dup5\n    /* \"#utility.yul\":2999:3002   */\n  dup3\n    /* \"#utility.yul\":2994:2997   */\n  dup6\n    /* \"#utility.yul\":2972:3011   */\n  tag_46\n  jump\t// in\ntag_94:\n    /* \"#utility.yul\":2691:3017   */\n  pop\n    /* \"#utility.yul\":2596:3017   */\n  swap4\n  swap3\n  pop\n  pop\n  pop\n  jump\t// out\n    /* \"#utility.yul\":3037:3392   */\ntag_48:\n    /* \"#utility.yul\":3104:3109   */\n  0x00\n    /* \"#utility.yul\":3153:3156   */\n  dup3\n    /* \"#utility.yul\":3146:3150   */\n  0x1f\n    /* \"#utility.yul\":3138:3144   */\n  dup4\n    /* \"#utility.yul\":3134:3151   */\n  add\n    /* \"#utility.yul\":3130:3157   */\n  slt\n    /* \"#utility.yul\":3120:3242   */\n  tag_96\n  jumpi\n    /* \"#utility.yul\":3161:3240   */\n  tag_97\n  tag_39\n  jump\t// in\ntag_97:\n    /* \"#utility.yul\":3120:3242   */\ntag_96:\n    /* \"#utility.yul\":3271:3277   */\n  dup2\n    /* \"#utility.yul\":3265:3278   */\n  mload\n    /* \"#utility.yul\":3296:3386   */\n  tag_98\n    /* \"#utility.yul\":3382:3385   */\n  dup5\n    /* \"#utility.yul\":3374:3380   */\n  dup3\n    /* \"#utility.yul\":3367:3371   */\n  0x20\n    /* \"#utility.yul\":3359:3365   */\n  dup7\n    /* \"#utility.yul\":3355:3372   */\n  add\n    /* \"#utility.yul\":3296:3386   */\n  tag_47\n  jump\t// in\ntag_98:\n    /* \"#utility.yul\":3287:3386   */\n  swap2\n  pop\n    /* \"#utility.yul\":3110:3392   */\n  pop\n    /* \"#utility.yul\":3037:3392   */\n  swap3\n  swap2\n  pop\n  pop\n  jump\t// out\n    /* \"#utility.yul\":3398:4431   */\ntag_3:\n    /* \"#utility.yul\":3518:3524   */\n  0x00\n    /* \"#utility.yul\":3526:3532   */\n  dup1\n    /* \"#utility.yul\":3534:3540   */\n  0x00\n    /* \"#utility.yul\":3583:3585   */\n  0x60\n    /* \"#utility.yul\":3571:3580   */\n  dup5\n    /* \"#utility.yul\":3562:3569   */\n  dup7\n    /* \"#utility.yul\":3558:3581   */\n  sub\n    /* \"#utility.yul\":3554:3586   */\n  slt\n    /* \"#utility.yul\":3551:3670   */\n  iszero\n  tag_100\n  jumpi\n    /* \"#utility.yul\":3589:3668   */\n  tag_101\n  tag_32\n  jump\t// in\ntag_101:\n    /* \"#utility.yul\":3551:3670   */\ntag_100:\n    /* \"#utility.yul\":3709:3710   */\n  0x00\n    /* \"#utility.yul\":3734:3810   */\n  tag_102\n    /* \"#utility.yul\":3802:3809   */\n  dup7\n    /* \"#utility.yul\":3793:3799   */\n  dup3\n    /* \"#utility.yul\":3782:3791   */\n  dup8\n    /* \"#utility.yul\":3778:3800   */\n  add\n    /* \"#utility.yul\":3734:3810   */\n  tag_38\n  jump\t// in\ntag_102:\n    /* \"#utility.yul\":3724:3810   */\n  swap4\n  pop\n    /* \"#utility.yul\":3680:3820   */\n  pop\n    /* \"#utility.yul\":3880:3882   */\n  0x20\n    /* \"#utility.yul\":3869:3878   */\n  dup5\n    /* \"#utility.yul\":3865:3883   */\n  add\n    /* \"#utility.yul\":3859:3884   */\n  mload\n    /* \"#utility.yul\":3911:3929   */\n  0xffffffffffffffff\n    /* \"#utility.yul\":3903:3909   */\n  dup2\n    /* \"#utility.yul\":3900:3930   */\n  gt\n    /* \"#utility.yul\":3897:4014   */\n  iszero\n  tag_103\n  jumpi\n    /* \"#utility.yul\":3933:4012   */\n  tag_104\n  tag_33\n  jump\t// in\ntag_104:\n    /* \"#utility.yul\":3897:4014   */\ntag_103:\n    /* \"#utility.yul\":4038:4112   */\n  tag_105\n    /* \"#utility.yul\":4104:4111   */\n  dup7\n    /* \"#utility.yul\":4095:4101   */\n  dup3\n    /* \"#utility.yul\":4084:4093   */\n  dup8\n    /* \"#utility.yul\":4080:4102   */\n  add\n    /* \"#utility.yul\":4038:4112   */\n  tag_48\n  jump\t// in\ntag_105:\n    /* \"#utility.yul\":4028:4112   */\n  swap3\n  pop\n    /* \"#utility.yul\":3830:4122   */\n  pop\n    /* \"#utility.yul\":4182:4184   */\n  0x40\n    /* \"#utility.yul\":4171:4180   */\n  dup5\n    /* \"#utility.yul\":4167:4185   */\n  add\n    /* \"#utility.yul\":4161:4186   */\n  mload\n    /* \"#utility.yul\":4213:4231   */\n  0xffffffffffffffff\n    /* \"#utility.yul\":4205:4211   */\n  dup2\n    /* \"#utility.yul\":4202:4232   */\n  gt\n    /* \"#utility.yul\":4199:4316   */\n  iszero\n  tag_106\n  jumpi\n    /* \"#utility.yul\":4235:4314   */\n  tag_107\n  tag_33\n  jump\t// in\ntag_107:\n    /* \"#utility.yul\":4199:4316   */\ntag_106:\n    /* \"#utility.yul\":4340:4414   */\n  tag_108\n    /* \"#utility.yul\":4406:4413   */\n  dup7\n    /* \"#utility.yul\":4397:4403   */\n  dup3\n    /* \"#utility.yul\":4386:4395   */\n  dup8\n    /* \"#utility.yul\":4382:4404   */\n  add\n    /* \"#utility.yul\":4340:4414   */\n  tag_48\n  jump\t// in\ntag_108:\n    /* \"#utility.yul\":4330:4414   */\n  swap2\n  pop\n    /* \"#utility.yul\":4132:4424   */\n  pop\n    /* \"#utility.yul\":3398:4431   */\n  swap3\n  pop\n  swap3\n  pop\n  swap3\n  jump\t// out\n    /* \"#utility.yul\":4437:4514   */\ntag_49:\n    /* \"#utility.yul\":4474:4481   */\n  0x00\n    /* \"#utility.yul\":4503:4508   */\n  dup2\n    /* \"#utility.yul\":4492:4508   */\n  swap1\n  pop\n    /* \"#utility.yul\":4437:4514   */\n  swap2\n  swap1\n  pop\n  jump\t// out\n    /* \"#utility.yul\":4520:4642   */\ntag_50:\n    /* \"#utility.yul\":4593:4617   */\n  tag_111\n    /* \"#utility.yul\":4611:4616   */\n  dup2\n    /* \"#utility.yul\":4593:4617   */\n  tag_49\n  jump\t// in\ntag_111:\n    /* \"#utility.yul\":4586:4591   */\n  dup2\n    /* \"#utility.yul\":4583:4618   */\n  eq\n    /* \"#utility.yul\":4573:4636   */\n  tag_112\n  jumpi\n    /* \"#utility.yul\":4632:4633   */\n  0x00\n    /* \"#utility.yul\":4629:4630   */\n  dup1\n    /* \"#utility.yul\":4622:4634   */\n  revert\n    /* \"#utility.yul\":4573:4636   */\ntag_112:\n    /* \"#utility.yul\":4520:4642   */\n  pop\n  jump\t// out\n    /* \"#utility.yul\":4648:4791   */\ntag_51:\n    /* \"#utility.yul\":4705:4710   */\n  0x00\n    /* \"#utility.yul\":4736:4742   */\n  dup2\n    /* \"#utility.yul\":4730:4743   */\n  mload\n    /* \"#utility.yul\":4721:4743   */\n  swap1\n  pop\n    /* \"#utility.yul\":4752:4785   */\n  tag_114\n    /* \"#utility.yul\":4779:4784   */\n  dup2\n    /* \"#utility.yul\":4752:4785   */\n  tag_50\n  jump\t// in\ntag_114:\n    /* \"#utility.yul\":4648:4791   */\n  swap3\n  swap2\n  pop\n  pop\n  jump\t// out\n    /* \"#utility.yul\":4797:5148   */\ntag_14:\n    /* \"#utility.yul\":4867:4873   */\n  0x00\n    /* \"#utility.yul\":4916:4918   */\n  0x20\n    /* \"#utility.yul\":4904:4913   */\n  dup3\n    /* \"#utility.yul\":4895:4902   */\n  dup5\n    /* \"#utility.yul\":4891:4914   */\n  sub\n    /* \"#utility.yul\":4887:4919   */\n  slt\n    /* \"#utility.yul\":4884:5003   */\n  iszero\n  tag_116\n  jumpi\n    /* \"#utility.yul\":4922:5001   */\n  tag_117\n  tag_32\n  jump\t// in\ntag_117:\n    /* \"#utility.yul\":4884:5003   */\ntag_116:\n    /* \"#utility.yul\":5042:5043   */\n  0x00\n    /* \"#utility.yul\":5067:5131   */\n  tag_118\n    /* \"#utility.yul\":5123:5130   */\n  dup5\n    /* \"#utility.yul\":5114:5120   */\n  dup3\n    /* \"#utility.yul\":5103:5112   */\n  dup6\n    /* \"#utility.yul\":5099:5121   */\n  add\n    /* \"#utility.yul\":5067:5131   */\n  tag_51\n  jump\t// in\ntag_118:\n    /* \"#utility.yul\":5057:5131   */\n  swap2\n  pop\n    /* \"#utility.yul\":5013:5141   */\n  pop\n    /* \"#utility.yul\":4797:5148   */\n  swap3\n  swap2\n  pop\n  pop\n  jump\t// out\n    /* \"#utility.yul\":5154:5334   */\ntag_52:\n    /* \"#utility.yul\":5202:5279   */\n  0x4e487b7100000000000000000000000000000000000000000000000000000000\n    /* \"#utility.yul\":5199:5200   */\n  0x00\n    /* \"#utility.yul\":5192:5280   */\n  mstore\n    /* \"#utility.yul\":5299:5303   */\n  0x12\n    /* \"#utility.yul\":5296:5297   */\n  0x04\n    /* \"#utility.yul\":5289:5304   */\n  mstore\n    /* \"#utility.yul\":5323:5327   */\n  0x24\n    /* \"#utility.yul\":5320:5321   */\n  0x00\n    /* \"#utility.yul\":5313:5328   */\n  revert\n    /* \"#utility.yul\":5526:5711   */\ntag_19:\n    /* \"#utility.yul\":5566:5567   */\n  0x00\n    /* \"#utility.yul\":5583:5603   */\n  tag_122\n    /* \"#utility.yul\":5601:5602   */\n  dup3\n    /* \"#utility.yul\":5583:5603   */\n  tag_49\n  jump\t// in\ntag_122:\n    /* \"#utility.yul\":5578:5603   */\n  swap2\n  pop\n    /* \"#utility.yul\":5617:5637   */\n  tag_123\n    /* \"#utility.yul\":5635:5636   */\n  dup4\n    /* \"#utility.yul\":5617:5637   */\n  tag_49\n  jump\t// in\ntag_123:\n    /* \"#utility.yul\":5612:5637   */\n  swap3\n  pop\n    /* \"#utility.yul\":5656:5657   */\n  dup3\n    /* \"#utility.yul\":5646:5681   */\n  tag_124\n  jumpi\n    /* \"#utility.yul\":5661:5679   */\n  tag_125\n  tag_52\n  jump\t// in\ntag_125:\n    /* \"#utility.yul\":5646:5681   */\ntag_124:\n    /* \"#utility.yul\":5703:5704   */\n  dup3\n    /* \"#utility.yul\":5700:5701   */\n  dup3\n    /* \"#utility.yul\":5696:5705   */\n  div\n    /* \"#utility.yul\":5691:5705   */\n  swap1\n  pop\n    /* \"#utility.yul\":5526:5711   */\n  swap3\n  swap2\n  pop\n  pop\n  jump\t// out\n    /* \"#utility.yul\":5717:5897   */\ntag_54:\n    /* \"#utility.yul\":5765:5842   */\n  0x4e487b7100000000000000000000000000000000000000000000000000000000\n    /* \"#utility.yul\":5762:5763   */\n  0x00\n    /* \"#utility.yul\":5755:5843   */\n  mstore\n    /* \"#utility.yul\":5862:5866   */\n  0x22\n    /* \"#utility.yul\":5859:5860   */\n  0x04\n    /* \"#utility.yul\":5852:5867   */\n  mstore\n    /* \"#utility.yul\":5886:5890   */\n  0x24\n    /* \"#utility.yul\":5883:5884   */\n  0x00\n    /* \"#utility.yul\":5876:5891   */\n  revert\n    /* \"#utility.yul\":5903:6223   */\ntag_21:\n    /* \"#utility.yul\":5947:5953   */\n  0x00\n    /* \"#utility.yul\":5984:5985   */\n  0x02\n    /* \"#utility.yul\":5978:5982   */\n  dup3\n    /* \"#utility.yul\":5974:5986   */\n  div\n    /* \"#utility.yul\":5964:5986   */\n  swap1\n  pop\n    /* \"#utility.yul\":6031:6032   */\n  0x01\n    /* \"#utility.yul\":6025:6029   */\n  dup3\n    /* \"#utility.yul\":6021:6033   */\n  and\n    /* \"#utility.yul\":6052:6070   */\n  dup1\n    /* \"#utility.yul\":6042:6123   */\n  tag_128\n  jumpi\n    /* \"#utility.yul\":6108:6112   */\n  0x7f\n    /* \"#utility.yul\":6100:6106   */\n  dup3\n    /* \"#utility.yul\":6096:6113   */\n  and\n    /* \"#utility.yul\":6086:6113   */\n  swap2\n  pop\n    /* \"#utility.yul\":6042:6123   */\ntag_128:\n    /* \"#utility.yul\":6170:6172   */\n  0x20\n    /* \"#utility.yul\":6162:6168   */\n  dup3\n    /* \"#utility.yul\":6159:6173   */\n  lt\n    /* \"#utility.yul\":6139:6157   */\n  dup2\n    /* \"#utility.yul\":6136:6174   */\n  sub\n    /* \"#utility.yul\":6133:6217   */\n  tag_129\n  jumpi\n    /* \"#utility.yul\":6189:6207   */\n  tag_130\n  tag_54\n  jump\t// in\ntag_130:\n    /* \"#utility.yul\":6133:6217   */\ntag_129:\n    /* \"#utility.yul\":5954:6223   */\n  pop\n    /* \"#utility.yul\":5903:6223   */\n  swap2\n  swap1\n  pop\n  jump\t// out\n    /* \"contracts/vcDORA.sol\":536:13695  contract vcDORA {... */\ntag_8:\n  dataSize(sub_0)\n  dup1\n  dataOffset(sub_0)\n  0x00\n  codecopy\n  0x00\n  return\nstop\n\nsub_0: assembly {\n        /* \"contracts/vcDORA.sol\":536:13695  contract vcDORA {... */\n      mstore(0x40, 0x80)\n      callvalue\n      dup1\n      iszero\n      tag_1\n      jumpi\n      0x00\n      dup1\n      revert\n    tag_1:\n      pop\n      jumpi(tag_2, lt(calldatasize, 0x04))\n      shr(0xe0, calldataload(0x00))\n      dup1\n      0x7db830ff\n      gt\n      tag_30\n      jumpi\n      dup1\n      0xa95dbd8e\n      gt\n      tag_31\n      jumpi\n      dup1\n      0xcbf9fe5f\n      gt\n      tag_32\n      jumpi\n      dup1\n      0xcbf9fe5f\n      eq\n      tag_26\n      jumpi\n      dup1\n      0xf52a36f7\n      eq\n      tag_27\n      jumpi\n      dup1\n      0xf851a440\n      eq\n      tag_28\n      jumpi\n      dup1\n      0xfc0c546a\n      eq\n      tag_29\n      jumpi\n      jump(tag_2)\n    tag_32:\n      dup1\n      0xa95dbd8e\n      eq\n      tag_23\n      jumpi\n      dup1\n      0xb2b45df5\n      eq\n      tag_24\n      jumpi\n      dup1\n      0xb52c05fe\n      eq\n      tag_25\n      jumpi\n      jump(tag_2)\n    tag_31:\n      dup1\n      0x900cf0cf\n      gt\n      tag_33\n      jumpi\n      dup1\n      0x900cf0cf\n      eq\n      tag_19\n      jumpi\n      dup1\n      0x95d89b41\n      eq\n      tag_20\n      jumpi\n      dup1\n      0x981b24d0\n      eq\n      tag_21\n      jumpi\n      dup1\n      0x98ec0955\n      eq\n      tag_22\n      jumpi\n      jump(tag_2)\n    tag_33:\n      dup1\n      0x7db830ff\n      eq\n      tag_16\n      jumpi\n      dup1\n      0x81fc83bb\n      eq\n      tag_17\n      jumpi\n      dup1\n      0x8ad4c447\n      eq\n      tag_18\n      jumpi\n      jump(tag_2)\n    tag_30:\n      dup1\n      0x2f4f21e2\n      gt\n      tag_34\n      jumpi\n      dup1\n      0x3ccfd60b\n      gt\n      tag_35\n      jumpi\n      dup1\n      0x3ccfd60b\n      eq\n      tag_12\n      jumpi\n      dup1\n      0x4ee2cd7e\n      eq\n      tag_13\n      jumpi\n      dup1\n      0x70a08231\n      eq\n      tag_14\n      jumpi\n      dup1\n      0x7c616fe6\n      eq\n      tag_15\n      jumpi\n      jump(tag_2)\n    tag_35:\n      dup1\n      0x2f4f21e2\n      eq\n      tag_9\n      jumpi\n      dup1\n      0x313ce567\n      eq\n      tag_10\n      jumpi\n      dup1\n      0x34d901a4\n      eq\n      tag_11\n      jumpi\n      jump(tag_2)\n    tag_34:\n      dup1\n      0x047fc9aa\n      eq\n      tag_3\n      jumpi\n      dup1\n      0x06fdde03\n      eq\n      tag_4\n      jumpi\n      dup1\n      0x15456eba\n      eq\n      tag_5\n      jumpi\n      dup1\n      0x18160ddd\n      eq\n      tag_6\n      jumpi\n      dup1\n      0x2c80b15e\n      eq\n      tag_7\n      jumpi\n      dup1\n      0x2d8695d1\n      eq\n      tag_8\n      jumpi\n    tag_2:\n      0x00\n      dup1\n      revert\n        /* \"contracts/vcDORA.sol\":1485:1506  uint256 public supply */\n    tag_3:\n      tag_36\n      tag_37\n      jump\t// in\n    tag_36:\n      mload(0x40)\n      tag_38\n      swap2\n      swap1\n      tag_39\n      jump\t// in\n    tag_38:\n      mload(0x40)\n      dup1\n      swap2\n      sub\n      swap1\n      return\n        /* \"contracts/vcDORA.sol\":1380:1398  string public name */\n    tag_4:\n      tag_40\n      tag_41\n      jump\t// in\n    tag_40:\n      mload(0x40)\n      tag_42\n      swap2\n      swap1\n      tag_43\n      jump\t// in\n    tag_42:\n      mload(0x40)\n      dup1\n      swap2\n      sub\n      swap1\n      return\n        /* \"contracts/vcDORA.sol\":8132:8660  function increaseAmount(uint256 _value) external nonReentrant {... */\n    tag_5:\n      tag_44\n      0x04\n      dup1\n      calldatasize\n      sub\n      dup2\n      add\n      swap1\n      tag_45\n      swap2\n      swap1\n      tag_46\n      jump\t// in\n    tag_45:\n      tag_47\n      jump\t// in\n    tag_44:\n      stop\n        /* \"contracts/vcDORA.sol\":12880:13051  function totalSupply() external view returns (uint256) {... */\n    tag_6:\n      tag_48\n      tag_49\n      jump\t// in\n    tag_48:\n      mload(0x40)\n      tag_50\n      swap2\n      swap1\n      tag_39\n      jump\t// in\n    tag_50:\n      mload(0x40)\n      dup1\n      swap2\n      sub\n      swap1\n      return\n        /* \"contracts/vcDORA.sol\":1982:2056  mapping(address => mapping(uint256 => uint256)) public userBalanceSnapshot */\n    tag_7:\n      tag_51\n      0x04\n      dup1\n      calldatasize\n      sub\n      dup2\n      add\n      swap1\n      tag_52\n      swap2\n      swap1\n      tag_53\n      jump\t// in\n    tag_52:\n      tag_54\n      jump\t// in\n    tag_51:\n      mload(0x40)\n      tag_55\n      swap2\n      swap1\n      tag_39\n      jump\t// in\n    tag_55:\n      mload(0x40)\n      dup1\n      swap2\n      sub\n      swap1\n      return\n        /* \"contracts/vcDORA.sol\":13219:13693  function totalSupplyAtFuture(uint256 _ts) public view returns (uint256) {... */\n    tag_8:\n      tag_56\n      0x04\n      dup1\n      calldatasize\n      sub\n      dup2\n      add\n      swap1\n      tag_57\n      swap2\n      swap1\n      tag_46\n      jump\t// in\n    tag_57:\n      tag_58\n      jump\t// in\n    tag_56:\n      mload(0x40)\n      tag_59\n      swap2\n      swap1\n      tag_39\n      jump\t// in\n    tag_59:\n      mload(0x40)\n      dup1\n      swap2\n      sub\n      swap1\n      return\n        /* \"contracts/vcDORA.sol\":6803:7328  function depositFor(address _user, uint256 _value) external nonReentrant {... */\n    tag_9:\n      tag_60\n      0x04\n      dup1\n      calldatasize\n      sub\n      dup2\n      add\n      swap1\n      tag_61\n      swap2\n      swap1\n      tag_53\n      jump\t// in\n    tag_61:\n      tag_62\n      jump\t// in\n    tag_60:\n      stop\n        /* \"contracts/vcDORA.sol\":1430:1453  uint256 public decimals */\n    tag_10:\n      tag_63\n      tag_64\n      jump\t// in\n    tag_63:\n      mload(0x40)\n      tag_65\n      swap2\n      swap1\n      tag_39\n      jump\t// in\n    tag_65:\n      mload(0x40)\n      dup1\n      swap2\n      sub\n      swap1\n      return\n        /* \"contracts/vcDORA.sol\":1821:1890  mapping(address => mapping(uint256 => Point)) public userPointHistory */\n    tag_11:\n      tag_66\n      0x04\n      dup1\n      calldatasize\n      sub\n      dup2\n      add\n      swap1\n      tag_67\n      swap2\n      swap1\n      tag_53\n      jump\t// in\n    tag_67:\n      tag_68\n      jump\t// in\n    tag_66:\n      mload(0x40)\n      tag_69\n      swap4\n      swap3\n      swap2\n      swap1\n      tag_70\n      jump\t// in\n    tag_69:\n      mload(0x40)\n      dup1\n      swap2\n      sub\n      swap1\n      return\n        /* \"contracts/vcDORA.sol\":9416:9994  function withdraw() external nonReentrant {... */\n    tag_12:\n      tag_71\n      tag_72\n      jump\t// in\n    tag_71:\n      stop\n        /* \"contracts/vcDORA.sol\":10894:11812  function balanceOfAt(address _user, uint256 _ts)... */\n    tag_13:\n      tag_73\n      0x04\n      dup1\n      calldatasize\n      sub\n      dup2\n      add\n      swap1\n      tag_74\n      swap2\n      swap1\n      tag_53\n      jump\t// in\n    tag_74:\n      tag_75\n      jump\t// in\n    tag_73:\n      mload(0x40)\n      tag_76\n      swap2\n      swap1\n      tag_39\n      jump\t// in\n    tag_76:\n      mload(0x40)\n      dup1\n      swap2\n      sub\n      swap1\n      return\n        /* \"contracts/vcDORA.sol\":10757:10888  function balanceOf(address _user) external view returns (uint256) {... */\n    tag_14:\n      tag_77\n      0x04\n      dup1\n      calldatasize\n      sub\n      dup2\n      add\n      swap1\n      tag_78\n      swap2\n      swap1\n      tag_79\n      jump\t// in\n    tag_78:\n      tag_80\n      jump\t// in\n    tag_77:\n      mload(0x40)\n      tag_81\n      swap2\n      swap1\n      tag_39\n      jump\t// in\n    tag_81:\n      mload(0x40)\n      dup1\n      swap2\n      sub\n      swap1\n      return\n        /* \"contracts/vcDORA.sol\":8666:9410  function increaseUnlockTime(uint256 _unlockTime) external nonReentrant {... */\n    tag_15:\n      tag_82\n      0x04\n      dup1\n      calldatasize\n      sub\n      dup2\n      add\n      swap1\n      tag_83\n      swap2\n      swap1\n      tag_46\n      jump\t// in\n    tag_83:\n      tag_84\n      jump\t// in\n    tag_82:\n      stop\n        /* \"contracts/vcDORA.sol\":10142:10751  function balanceSnapshot(... */\n    tag_16:\n      tag_85\n      0x04\n      dup1\n      calldatasize\n      sub\n      dup2\n      add\n      swap1\n      tag_86\n      swap2\n      swap1\n      tag_87\n      jump\t// in\n    tag_86:\n      tag_88\n      jump\t// in\n    tag_85:\n      stop\n        /* \"contracts/vcDORA.sol\":1897:1946  mapping(address => uint256) public userPointEpoch */\n    tag_17:\n      tag_89\n      0x04\n      dup1\n      calldatasize\n      sub\n      dup2\n      add\n      swap1\n      tag_90\n      swap2\n      swap1\n      tag_79\n      jump\t// in\n    tag_90:\n      tag_91\n      jump\t// in\n    tag_89:\n      mload(0x40)\n      tag_92\n      swap2\n      swap1\n      tag_39\n      jump\t// in\n    tag_92:\n      mload(0x40)\n      dup1\n      swap2\n      sub\n      swap1\n      return\n        /* \"contracts/vcDORA.sol\":1658:1703  mapping(uint256 => Point) public pointHistory */\n    tag_18:\n      tag_93\n      0x04\n      dup1\n      calldatasize\n      sub\n      dup2\n      add\n      swap1\n      tag_94\n      swap2\n      swap1\n      tag_46\n      jump\t// in\n    tag_94:\n      tag_95\n      jump\t// in\n    tag_93:\n      mload(0x40)\n      tag_96\n      swap4\n      swap3\n      swap2\n      swap1\n      tag_70\n      jump\t// in\n    tag_96:\n      mload(0x40)\n      dup1\n      swap2\n      sub\n      swap1\n      return\n        /* \"contracts/vcDORA.sol\":1600:1620  uint256 public epoch */\n    tag_19:\n      tag_97\n      tag_98\n      jump\t// in\n    tag_97:\n      mload(0x40)\n      tag_99\n      swap2\n      swap1\n      tag_39\n      jump\t// in\n    tag_99:\n      mload(0x40)\n      dup1\n      swap2\n      sub\n      swap1\n      return\n        /* \"contracts/vcDORA.sol\":1404:1424  string public symbol */\n    tag_20:\n      tag_100\n      tag_101\n      jump\t// in\n    tag_100:\n      mload(0x40)\n      tag_102\n      swap2\n      swap1\n      tag_43\n      jump\t// in\n    tag_102:\n      mload(0x40)\n      dup1\n      swap2\n      sub\n      swap1\n      return\n        /* \"contracts/vcDORA.sol\":13057:13213  function totalSupplyAt(uint256 _ts) external view returns (uint256) {... */\n    tag_21:\n      tag_103\n      0x04\n      dup1\n      calldatasize\n      sub\n      dup2\n      add\n      swap1\n      tag_104\n      swap2\n      swap1\n      tag_46\n      jump\t// in\n    tag_104:\n      tag_105\n      jump\t// in\n    tag_103:\n      mload(0x40)\n      tag_106\n      swap2\n      swap1\n      tag_39\n      jump\t// in\n    tag_106:\n      mload(0x40)\n      dup1\n      swap2\n      sub\n      swap1\n      return\n        /* \"contracts/vcDORA.sol\":11818:12223  function balanceOfAtFuture(address _user, uint256 _ts)... */\n    tag_22:\n      tag_107\n      0x04\n      dup1\n      calldatasize\n      sub\n      dup2\n      add\n      swap1\n      tag_108\n      swap2\n      swap1\n      tag_53\n      jump\t// in\n    tag_108:\n      tag_109\n      jump\t// in\n    tag_107:\n      mload(0x40)\n      tag_110\n      swap2\n      swap1\n      tag_39\n      jump\t// in\n    tag_110:\n      mload(0x40)\n      dup1\n      swap2\n      sub\n      swap1\n      return\n        /* \"contracts/vcDORA.sol\":10000:10136  function balanceSnapshot(address _user, uint256 _ts) external {... */\n    tag_23:\n      tag_111\n      0x04\n      dup1\n      calldatasize\n      sub\n      dup2\n      add\n      swap1\n      tag_112\n      swap2\n      swap1\n      tag_53\n      jump\t// in\n    tag_112:\n      tag_113\n      jump\t// in\n    tag_111:\n      stop\n        /* \"contracts/vcDORA.sol\":2385:2769  function init(... */\n    tag_24:\n      tag_114\n      0x04\n      dup1\n      calldatasize\n      sub\n      dup2\n      add\n      swap1\n      tag_115\n      swap2\n      swap1\n      tag_116\n      jump\t// in\n    tag_115:\n      tag_117\n      jump\t// in\n    tag_114:\n      stop\n        /* \"contracts/vcDORA.sol\":7334:8126  function createLock(uint256 _value, uint256 _unlockTime)... */\n    tag_25:\n      tag_118\n      0x04\n      dup1\n      calldatasize\n      sub\n      dup2\n      add\n      swap1\n      tag_119\n      swap2\n      swap1\n      tag_120\n      jump\t// in\n    tag_119:\n      tag_121\n      jump\t// in\n    tag_118:\n      stop\n        /* \"contracts/vcDORA.sol\":1513:1560  mapping(address => LockedBalance) public locked */\n    tag_26:\n      tag_122\n      0x04\n      dup1\n      calldatasize\n      sub\n      dup2\n      add\n      swap1\n      tag_123\n      swap2\n      swap1\n      tag_79\n      jump\t// in\n    tag_123:\n      tag_124\n      jump\t// in\n    tag_122:\n      mload(0x40)\n      tag_125\n      swap3\n      swap2\n      swap1\n      tag_126\n      jump\t// in\n    tag_125:\n      mload(0x40)\n      dup1\n      swap2\n      sub\n      swap1\n      return\n        /* \"contracts/vcDORA.sol\":1733:1779  mapping(uint256 => int256) public slopeChanges */\n    tag_27:\n      tag_127\n      0x04\n      dup1\n      calldatasize\n      sub\n      dup2\n      add\n      swap1\n      tag_128\n      swap2\n      swap1\n      tag_46\n      jump\t// in\n    tag_128:\n      tag_129\n      jump\t// in\n    tag_127:\n      mload(0x40)\n      tag_130\n      swap2\n      swap1\n      tag_131\n      jump\t// in\n    tag_130:\n      mload(0x40)\n      dup1\n      swap2\n      sub\n      swap1\n      return\n        /* \"contracts/vcDORA.sol\":1353:1373  address public admin */\n    tag_28:\n      tag_132\n      tag_133\n      jump\t// in\n    tag_132:\n      mload(0x40)\n      tag_134\n      swap2\n      swap1\n      tag_135\n      jump\t// in\n    tag_134:\n      mload(0x40)\n      dup1\n      swap2\n      sub\n      swap1\n      return\n        /* \"contracts/vcDORA.sol\":1460:1478  ERC20 public token */\n    tag_29:\n      tag_136\n      tag_137\n      jump\t// in\n    tag_136:\n      mload(0x40)\n      tag_138\n      swap2\n      swap1\n      tag_139\n      jump\t// in\n    tag_138:\n      mload(0x40)\n      dup1\n      swap2\n      sub\n      swap1\n      return\n        /* \"contracts/vcDORA.sol\":1485:1506  uint256 public supply */\n    tag_37:\n      sload(0x05)\n      dup2\n      jump\t// out\n        /* \"contracts/vcDORA.sol\":1380:1398  string public name */\n    tag_41:\n      0x01\n      dup1\n      sload\n      tag_140\n      swap1\n      tag_141\n      jump\t// in\n    tag_140:\n      dup1\n      0x1f\n      add\n      0x20\n      dup1\n      swap2\n      div\n      mul\n      0x20\n      add\n      mload(0x40)\n      swap1\n      dup2\n      add\n      0x40\n      mstore\n      dup1\n      swap3\n      swap2\n      swap1\n      dup2\n      dup2\n      mstore\n      0x20\n      add\n      dup3\n      dup1\n      sload\n      tag_142\n      swap1\n      tag_141\n      jump\t// in\n    tag_142:\n      dup1\n      iszero\n      tag_143\n      jumpi\n      dup1\n      0x1f\n      lt\n      tag_144\n      jumpi\n      0x0100\n      dup1\n      dup4\n      sload\n      div\n      mul\n      dup4\n      mstore\n      swap2\n      0x20\n      add\n      swap2\n      jump(tag_143)\n    tag_144:\n      dup3\n      add\n      swap2\n      swap1\n      0x00\n      mstore\n      keccak256(0x00, 0x20)\n      swap1\n    tag_145:\n      dup2\n      sload\n      dup2\n      mstore\n      swap1\n      0x01\n      add\n      swap1\n      0x20\n      add\n      dup1\n      dup4\n      gt\n      tag_145\n      jumpi\n      dup3\n      swap1\n      sub\n      0x1f\n      and\n      dup3\n      add\n      swap2\n    tag_143:\n      pop\n      pop\n      pop\n      pop\n      pop\n      dup2\n      jump\t// out\n        /* \"contracts/vcDORA.sol\":8132:8660  function increaseAmount(uint256 _value) external nonReentrant {... */\n    tag_47:\n        /* \"contracts/vcDORA.sol\":2132:2146  _rentrancyLock */\n      0x0d\n      0x00\n      swap1\n      sload\n      swap1\n      0x0100\n      exp\n      swap1\n      div\n      0xff\n      and\n        /* \"contracts/vcDORA.sol\":2131:2146  !_rentrancyLock */\n      iszero\n        /* \"contracts/vcDORA.sol\":2123:2147  require(!_rentrancyLock) */\n      tag_147\n      jumpi\n      0x00\n      dup1\n      revert\n    tag_147:\n        /* \"contracts/vcDORA.sol\":2174:2178  true */\n      0x01\n        /* \"contracts/vcDORA.sol\":2157:2171  _rentrancyLock */\n      0x0d\n      0x00\n        /* \"contracts/vcDORA.sol\":2157:2178  _rentrancyLock = true */\n      0x0100\n      exp\n      dup2\n      sload\n      dup2\n      0xff\n      mul\n      not\n      and\n      swap1\n      dup4\n      iszero\n      iszero\n      mul\n      or\n      swap1\n      sstore\n      pop\n        /* \"contracts/vcDORA.sol\":8204:8233  LockedBalance storage _locked */\n      0x00\n        /* \"contracts/vcDORA.sol\":8236:8242  locked */\n      0x06\n        /* \"contracts/vcDORA.sol\":8236:8254  locked[msg.sender] */\n      0x00\n        /* \"contracts/vcDORA.sol\":8243:8253  msg.sender */\n      caller\n        /* \"contracts/vcDORA.sol\":8236:8254  locked[msg.sender] */\n      0xffffffffffffffffffffffffffffffffffffffff\n      and\n      0xffffffffffffffffffffffffffffffffffffffff\n      and\n      dup2\n      mstore\n      0x20\n      add\n      swap1\n      dup2\n      mstore\n      0x20\n      add\n      0x00\n      keccak256\n        /* \"contracts/vcDORA.sol\":8204:8254  LockedBalance storage _locked = locked[msg.sender] */\n      swap1\n      pop\n        /* \"contracts/vcDORA.sol\":8282:8283  0 */\n      0x00\n        /* \"contracts/vcDORA.sol\":8273:8279  _value */\n      dup3\n        /* \"contracts/vcDORA.sol\":8273:8283  _value > 0 */\n      gt\n        /* \"contracts/vcDORA.sol\":8265:8301  require(_value > 0, 'invalid value') */\n      tag_149\n      jumpi\n      mload(0x40)\n      0x08c379a000000000000000000000000000000000000000000000000000000000\n      dup2\n      mstore\n      0x04\n      add\n      tag_150\n      swap1\n      tag_151\n      jump\t// in\n    tag_150:\n      mload(0x40)\n      dup1\n      swap2\n      sub\n      swap1\n      revert\n    tag_149:\n        /* \"contracts/vcDORA.sol\":8336:8337  0 */\n      0x00\n        /* \"contracts/vcDORA.sol\":8319:8326  _locked */\n      dup2\n        /* \"contracts/vcDORA.sol\":8319:8333  _locked.amount */\n      0x00\n      add\n      sload\n        /* \"contracts/vcDORA.sol\":8319:8337  _locked.amount > 0 */\n      gt\n        /* \"contracts/vcDORA.sol\":8311:8364  require(_locked.amount > 0, 'No existing lock found') */\n      tag_152\n      jumpi\n      mload(0x40)\n      0x08c379a000000000000000000000000000000000000000000000000000000000\n      dup2\n      mstore\n      0x04\n      add\n      tag_153\n      swap1\n      tag_154\n      jump\t// in\n    tag_153:\n      mload(0x40)\n      dup1\n      swap2\n      sub\n      swap1\n      revert\n    tag_152:\n        /* \"contracts/vcDORA.sol\":8409:8424  block.timestamp */\n      timestamp\n        /* \"contracts/vcDORA.sol\":8395:8402  _locked */\n      dup2\n        /* \"contracts/vcDORA.sol\":8395:8406  _locked.end */\n      0x01\n      add\n      sload\n        /* \"contracts/vcDORA.sol\":8395:8424  _locked.end > block.timestamp */\n      gt\n        /* \"contracts/vcDORA.sol\":8374:8486  require(... */\n      tag_155\n      jumpi\n      mload(0x40)\n      0x08c379a000000000000000000000000000000000000000000000000000000000\n      dup2\n      mstore\n      0x04\n      add\n      tag_156\n      swap1\n      tag_157\n      jump\t// in\n    tag_156:\n      mload(0x40)\n      dup1\n      swap2\n      sub\n      swap1\n      revert\n    tag_155:\n        /* \"contracts/vcDORA.sol\":8497:8653  _depositFor(... */\n      tag_158\n        /* \"contracts/vcDORA.sol\":8522:8532  msg.sender */\n      caller\n        /* \"contracts/vcDORA.sol\":8546:8552  _value */\n      dup4\n        /* \"contracts/vcDORA.sol\":8566:8573  _locked */\n      dup4\n        /* \"contracts/vcDORA.sol\":8566:8577  _locked.end */\n      0x01\n      add\n      sload\n        /* \"contracts/vcDORA.sol\":8591:8598  _locked */\n      dup5\n        /* \"contracts/vcDORA.sol\":8612:8643  LockedType.INCREASE_LOCK_AMOUNT */\n      0x02\n        /* \"contracts/vcDORA.sol\":8497:8508  _depositFor */\n      tag_159\n        /* \"contracts/vcDORA.sol\":8497:8653  _depositFor(... */\n      jump\t// in\n    tag_158:\n        /* \"contracts/vcDORA.sol\":8194:8660  {... */\n      pop\n        /* \"contracts/vcDORA.sol\":2216:2221  false */\n      0x00\n        /* \"contracts/vcDORA.sol\":2199:2213  _rentrancyLock */\n      0x0d\n      0x00\n        /* \"contracts/vcDORA.sol\":2199:2221  _rentrancyLock = false */\n      0x0100\n      exp\n      dup2\n      sload\n      dup2\n      0xff\n      mul\n      not\n      and\n      swap1\n      dup4\n      iszero\n      iszero\n      mul\n      or\n      swap1\n      sstore\n      pop\n        /* \"contracts/vcDORA.sol\":8132:8660  function increaseAmount(uint256 _value) external nonReentrant {... */\n      pop\n      jump\t// out\n        /* \"contracts/vcDORA.sol\":12880:13051  function totalSupply() external view returns (uint256) {... */\n    tag_49:\n        /* \"contracts/vcDORA.sol\":12926:12933  uint256 */\n      0x00\n        /* \"contracts/vcDORA.sol\":12945:12968  Point storage lastPoint */\n      dup1\n        /* \"contracts/vcDORA.sol\":12971:12983  pointHistory */\n      0x08\n        /* \"contracts/vcDORA.sol\":12971:12990  pointHistory[epoch] */\n      0x00\n        /* \"contracts/vcDORA.sol\":12984:12989  epoch */\n      sload(0x07)\n        /* \"contracts/vcDORA.sol\":12971:12990  pointHistory[epoch] */\n      dup2\n      mstore\n      0x20\n      add\n      swap1\n      dup2\n      mstore\n      0x20\n      add\n      0x00\n      keccak256\n        /* \"contracts/vcDORA.sol\":12945:12990  Point storage lastPoint = pointHistory[epoch] */\n      swap1\n      pop\n        /* \"contracts/vcDORA.sol\":13007:13044  _supplyAt(lastPoint, block.timestamp) */\n      tag_161\n        /* \"contracts/vcDORA.sol\":13017:13026  lastPoint */\n      dup2\n        /* \"contracts/vcDORA.sol\":13028:13043  block.timestamp */\n      timestamp\n        /* \"contracts/vcDORA.sol\":13007:13016  _supplyAt */\n      tag_162\n        /* \"contracts/vcDORA.sol\":13007:13044  _supplyAt(lastPoint, block.timestamp) */\n      jump\t// in\n    tag_161:\n        /* \"contracts/vcDORA.sol\":13000:13044  return _supplyAt(lastPoint, block.timestamp) */\n      swap2\n      pop\n      pop\n        /* \"contracts/vcDORA.sol\":12880:13051  function totalSupply() external view returns (uint256) {... */\n      swap1\n      jump\t// out\n        /* \"contracts/vcDORA.sol\":1982:2056  mapping(address => mapping(uint256 => uint256)) public userBalanceSnapshot */\n    tag_54:\n      mstore(0x20, 0x0c)\n      dup2\n      0x00\n      mstore\n      mstore(0x20, keccak256(0x00, 0x40))\n      dup1\n      0x00\n      mstore\n      keccak256(0x00, 0x40)\n      0x00\n      swap2\n      pop\n      swap2\n      pop\n      pop\n      sload\n      dup2\n      jump\t// out\n        /* \"contracts/vcDORA.sol\":13219:13693  function totalSupplyAtFuture(uint256 _ts) public view returns (uint256) {... */\n    tag_58:\n        /* \"contracts/vcDORA.sol\":13282:13289  uint256 */\n      0x00\n        /* \"contracts/vcDORA.sol\":627:634  1 weeks */\n      0x093a80\n        /* \"contracts/vcDORA.sol\":675:678  208 */\n      0xd0\n        /* \"contracts/vcDORA.sol\":675:685  208 * WEEK */\n      tag_164\n      swap2\n      swap1\n      tag_165\n      jump\t// in\n    tag_164:\n        /* \"contracts/vcDORA.sol\":13311:13326  block.timestamp */\n      timestamp\n        /* \"contracts/vcDORA.sol\":13311:13336  block.timestamp + MAXTIME */\n      tag_166\n      swap2\n      swap1\n      tag_167\n      jump\t// in\n    tag_166:\n        /* \"contracts/vcDORA.sol\":13305:13308  _ts */\n      dup3\n        /* \"contracts/vcDORA.sol\":13305:13336  _ts > block.timestamp + MAXTIME */\n      gt\n        /* \"contracts/vcDORA.sol\":13301:13371  if (_ts > block.timestamp + MAXTIME) {... */\n      iszero\n      tag_168\n      jumpi\n        /* \"contracts/vcDORA.sol\":13359:13360  0 */\n      0x00\n        /* \"contracts/vcDORA.sol\":13352:13360  return 0 */\n      swap1\n      pop\n      jump(tag_163)\n        /* \"contracts/vcDORA.sol\":13301:13371  if (_ts > block.timestamp + MAXTIME) {... */\n    tag_168:\n        /* \"contracts/vcDORA.sol\":13380:13399  uint256 targetEpoch */\n      0x00\n        /* \"contracts/vcDORA.sol\":627:634  1 weeks */\n      0x093a80\n        /* \"contracts/vcDORA.sol\":13402:13405  _ts */\n      dup4\n        /* \"contracts/vcDORA.sol\":13402:13412  _ts / WEEK */\n      tag_169\n      swap2\n      swap1\n      tag_170\n      jump\t// in\n    tag_169:\n        /* \"contracts/vcDORA.sol\":13380:13412  uint256 targetEpoch = _ts / WEEK */\n      swap1\n      pop\n        /* \"contracts/vcDORA.sol\":13440:13445  epoch */\n      sload(0x07)\n        /* \"contracts/vcDORA.sol\":13426:13437  targetEpoch */\n      dup2\n        /* \"contracts/vcDORA.sol\":13426:13445  targetEpoch > epoch */\n      gt\n        /* \"contracts/vcDORA.sol\":13422:13491  if (targetEpoch > epoch) {... */\n      iszero\n      tag_171\n      jumpi\n        /* \"contracts/vcDORA.sol\":13475:13480  epoch */\n      sload(0x07)\n        /* \"contracts/vcDORA.sol\":13461:13480  targetEpoch = epoch */\n      swap1\n      pop\n        /* \"contracts/vcDORA.sol\":13422:13491  if (targetEpoch > epoch) {... */\n    tag_171:\n        /* \"contracts/vcDORA.sol\":13500:13525  Point storage targetPoint */\n      0x00\n        /* \"contracts/vcDORA.sol\":13528:13540  pointHistory */\n      0x08\n        /* \"contracts/vcDORA.sol\":13528:13553  pointHistory[targetEpoch] */\n      0x00\n        /* \"contracts/vcDORA.sol\":13541:13552  targetEpoch */\n      dup4\n        /* \"contracts/vcDORA.sol\":13528:13553  pointHistory[targetEpoch] */\n      dup2\n      mstore\n      0x20\n      add\n      swap1\n      dup2\n      mstore\n      0x20\n      add\n      0x00\n      keccak256\n        /* \"contracts/vcDORA.sol\":13500:13553  Point storage targetPoint = pointHistory[targetEpoch] */\n      swap1\n      pop\n        /* \"contracts/vcDORA.sol\":13586:13587  0 */\n      0x00\n        /* \"contracts/vcDORA.sol\":13568:13579  targetPoint */\n      dup2\n        /* \"contracts/vcDORA.sol\":13568:13582  targetPoint.ts */\n      0x02\n      add\n      sload\n        /* \"contracts/vcDORA.sol\":13568:13587  targetPoint.ts == 0 */\n      sub\n        /* \"contracts/vcDORA.sol\":13564:13687  if (targetPoint.ts == 0) {... */\n      tag_172\n      jumpi\n        /* \"contracts/vcDORA.sol\":13610:13611  0 */\n      0x00\n        /* \"contracts/vcDORA.sol\":13603:13611  return 0 */\n      swap3\n      pop\n      pop\n      pop\n      jump(tag_163)\n        /* \"contracts/vcDORA.sol\":13564:13687  if (targetPoint.ts == 0) {... */\n    tag_172:\n        /* \"contracts/vcDORA.sol\":13649:13676  _supplyAt(targetPoint, _ts) */\n      tag_174\n        /* \"contracts/vcDORA.sol\":13659:13670  targetPoint */\n      dup2\n        /* \"contracts/vcDORA.sol\":13672:13675  _ts */\n      dup6\n        /* \"contracts/vcDORA.sol\":13649:13658  _supplyAt */\n      tag_162\n        /* \"contracts/vcDORA.sol\":13649:13676  _supplyAt(targetPoint, _ts) */\n      jump\t// in\n    tag_174:\n        /* \"contracts/vcDORA.sol\":13642:13676  return _supplyAt(targetPoint, _ts) */\n      swap3\n      pop\n      pop\n      pop\n        /* \"contracts/vcDORA.sol\":13219:13693  function totalSupplyAtFuture(uint256 _ts) public view returns (uint256) {... */\n    tag_163:\n      swap2\n      swap1\n      pop\n      jump\t// out\n        /* \"contracts/vcDORA.sol\":6803:7328  function depositFor(address _user, uint256 _value) external nonReentrant {... */\n    tag_62:\n        /* \"contracts/vcDORA.sol\":2132:2146  _rentrancyLock */\n      0x0d\n      0x00\n      swap1\n      sload\n      swap1\n      0x0100\n      exp\n      swap1\n      div\n      0xff\n      and\n        /* \"contracts/vcDORA.sol\":2131:2146  !_rentrancyLock */\n      iszero\n        /* \"contracts/vcDORA.sol\":2123:2147  require(!_rentrancyLock) */\n      tag_176\n      jumpi\n      0x00\n      dup1\n      revert\n    tag_176:\n        /* \"contracts/vcDORA.sol\":2174:2178  true */\n      0x01\n        /* \"contracts/vcDORA.sol\":2157:2171  _rentrancyLock */\n      0x0d\n      0x00\n        /* \"contracts/vcDORA.sol\":2157:2178  _rentrancyLock = true */\n      0x0100\n      exp\n      dup2\n      sload\n      dup2\n      0xff\n      mul\n      not\n      and\n      swap1\n      dup4\n      iszero\n      iszero\n      mul\n      or\n      swap1\n      sstore\n      pop\n        /* \"contracts/vcDORA.sol\":6886:6915  LockedBalance storage _locked */\n      0x00\n        /* \"contracts/vcDORA.sol\":6918:6924  locked */\n      0x06\n        /* \"contracts/vcDORA.sol\":6918:6931  locked[_user] */\n      0x00\n        /* \"contracts/vcDORA.sol\":6925:6930  _user */\n      dup5\n        /* \"contracts/vcDORA.sol\":6918:6931  locked[_user] */\n      0xffffffffffffffffffffffffffffffffffffffff\n      and\n      0xffffffffffffffffffffffffffffffffffffffff\n      and\n      dup2\n      mstore\n      0x20\n      add\n      swap1\n      dup2\n      mstore\n      0x20\n      add\n      0x00\n      keccak256\n        /* \"contracts/vcDORA.sol\":6886:6931  LockedBalance storage _locked = locked[_user] */\n      swap1\n      pop\n        /* \"contracts/vcDORA.sol\":6959:6960  0 */\n      0x00\n        /* \"contracts/vcDORA.sol\":6950:6956  _value */\n      dup3\n        /* \"contracts/vcDORA.sol\":6950:6960  _value > 0 */\n      gt\n        /* \"contracts/vcDORA.sol\":6942:6978  require(_value > 0, 'invalid value') */\n      tag_178\n      jumpi\n      mload(0x40)\n      0x08c379a000000000000000000000000000000000000000000000000000000000\n      dup2\n      mstore\n      0x04\n      add\n      tag_179\n      swap1\n      tag_151\n      jump\t// in\n    tag_179:\n      mload(0x40)\n      dup1\n      swap2\n      sub\n      swap1\n      revert\n    tag_178:\n        /* \"contracts/vcDORA.sol\":7013:7014  0 */\n      0x00\n        /* \"contracts/vcDORA.sol\":6996:7003  _locked */\n      dup2\n        /* \"contracts/vcDORA.sol\":6996:7010  _locked.amount */\n      0x00\n      add\n      sload\n        /* \"contracts/vcDORA.sol\":6996:7014  _locked.amount > 0 */\n      gt\n        /* \"contracts/vcDORA.sol\":6988:7041  require(_locked.amount > 0, 'No existing lock found') */\n      tag_180\n      jumpi\n      mload(0x40)\n      0x08c379a000000000000000000000000000000000000000000000000000000000\n      dup2\n      mstore\n      0x04\n      add\n      tag_181\n      swap1\n      tag_154\n      jump\t// in\n    tag_181:\n      mload(0x40)\n      dup1\n      swap2\n      sub\n      swap1\n      revert\n    tag_180:\n        /* \"contracts/vcDORA.sol\":7086:7101  block.timestamp */\n      timestamp\n        /* \"contracts/vcDORA.sol\":7072:7079  _locked */\n      dup2\n        /* \"contracts/vcDORA.sol\":7072:7083  _locked.end */\n      0x01\n      add\n      sload\n        /* \"contracts/vcDORA.sol\":7072:7101  _locked.end > block.timestamp */\n      gt\n        /* \"contracts/vcDORA.sol\":7051:7163  require(... */\n      tag_182\n      jumpi\n      mload(0x40)\n      0x08c379a000000000000000000000000000000000000000000000000000000000\n      dup2\n      mstore\n      0x04\n      add\n      tag_183\n      swap1\n      tag_157\n      jump\t// in\n    tag_183:\n      mload(0x40)\n      dup1\n      swap2\n      sub\n      swap1\n      revert\n    tag_182:\n        /* \"contracts/vcDORA.sol\":7174:7321  _depositFor(... */\n      tag_184\n        /* \"contracts/vcDORA.sol\":7199:7204  _user */\n      dup4\n        /* \"contracts/vcDORA.sol\":7218:7224  _value */\n      dup4\n        /* \"contracts/vcDORA.sol\":7238:7245  _locked */\n      dup4\n        /* \"contracts/vcDORA.sol\":7238:7249  _locked.end */\n      0x01\n      add\n      sload\n        /* \"contracts/vcDORA.sol\":7263:7270  _locked */\n      dup5\n        /* \"contracts/vcDORA.sol\":7284:7311  LockedType.DEPOSIT_FOR_TYPE */\n      0x00\n        /* \"contracts/vcDORA.sol\":7174:7185  _depositFor */\n      tag_159\n        /* \"contracts/vcDORA.sol\":7174:7321  _depositFor(... */\n      jump\t// in\n    tag_184:\n        /* \"contracts/vcDORA.sol\":6876:7328  {... */\n      pop\n        /* \"contracts/vcDORA.sol\":2216:2221  false */\n      0x00\n        /* \"contracts/vcDORA.sol\":2199:2213  _rentrancyLock */\n      0x0d\n      0x00\n        /* \"contracts/vcDORA.sol\":2199:2221  _rentrancyLock = false */\n      0x0100\n      exp\n      dup2\n      sload\n      dup2\n      0xff\n      mul\n      not\n      and\n      swap1\n      dup4\n      iszero\n      iszero\n      mul\n      or\n      swap1\n      sstore\n      pop\n        /* \"contracts/vcDORA.sol\":6803:7328  function depositFor(address _user, uint256 _value) external nonReentrant {... */\n      pop\n      pop\n      jump\t// out\n        /* \"contracts/vcDORA.sol\":1430:1453  uint256 public decimals */\n    tag_64:\n      sload(0x03)\n      dup2\n      jump\t// out\n        /* \"contracts/vcDORA.sol\":1821:1890  mapping(address => mapping(uint256 => Point)) public userPointHistory */\n    tag_68:\n      mstore(0x20, 0x0a)\n      dup2\n      0x00\n      mstore\n      mstore(0x20, keccak256(0x00, 0x40))\n      dup1\n      0x00\n      mstore\n      keccak256(0x00, 0x40)\n      0x00\n      swap2\n      pop\n      swap2\n      pop\n      pop\n      dup1\n      0x00\n      add\n      sload\n      swap1\n      dup1\n      0x01\n      add\n      sload\n      swap1\n      dup1\n      0x02\n      add\n      sload\n      swap1\n      pop\n      dup4\n      jump\t// out\n        /* \"contracts/vcDORA.sol\":9416:9994  function withdraw() external nonReentrant {... */\n    tag_72:\n        /* \"contracts/vcDORA.sol\":2132:2146  _rentrancyLock */\n      0x0d\n      0x00\n      swap1\n      sload\n      swap1\n      0x0100\n      exp\n      swap1\n      div\n      0xff\n      and\n        /* \"contracts/vcDORA.sol\":2131:2146  !_rentrancyLock */\n      iszero\n        /* \"contracts/vcDORA.sol\":2123:2147  require(!_rentrancyLock) */\n      tag_186\n      jumpi\n      0x00\n      dup1\n      revert\n    tag_186:\n        /* \"contracts/vcDORA.sol\":2174:2178  true */\n      0x01\n        /* \"contracts/vcDORA.sol\":2157:2171  _rentrancyLock */\n      0x0d\n      0x00\n        /* \"contracts/vcDORA.sol\":2157:2178  _rentrancyLock = true */\n      0x0100\n      exp\n      dup2\n      sload\n      dup2\n      0xff\n      mul\n      not\n      and\n      swap1\n      dup4\n      iszero\n      iszero\n      mul\n      or\n      swap1\n      sstore\n      pop\n        /* \"contracts/vcDORA.sol\":9468:9497  LockedBalance storage _locked */\n      0x00\n        /* \"contracts/vcDORA.sol\":9500:9506  locked */\n      0x06\n        /* \"contracts/vcDORA.sol\":9500:9518  locked[msg.sender] */\n      0x00\n        /* \"contracts/vcDORA.sol\":9507:9517  msg.sender */\n      caller\n        /* \"contracts/vcDORA.sol\":9500:9518  locked[msg.sender] */\n      0xffffffffffffffffffffffffffffffffffffffff\n      and\n      0xffffffffffffffffffffffffffffffffffffffff\n      and\n      dup2\n      mstore\n      0x20\n      add\n      swap1\n      dup2\n      mstore\n      0x20\n      add\n      0x00\n      keccak256\n        /* \"contracts/vcDORA.sol\":9468:9518  LockedBalance storage _locked = locked[msg.sender] */\n      swap1\n      pop\n        /* \"contracts/vcDORA.sol\":9556:9563  _locked */\n      dup1\n        /* \"contracts/vcDORA.sol\":9556:9567  _locked.end */\n      0x01\n      add\n      sload\n        /* \"contracts/vcDORA.sol\":9537:9552  block.timestamp */\n      timestamp\n        /* \"contracts/vcDORA.sol\":9537:9567  block.timestamp >= _locked.end */\n      lt\n      iszero\n        /* \"contracts/vcDORA.sol\":9529:9594  require(block.timestamp >= _locked.end, \"The lock didn't expire\") */\n      tag_188\n      jumpi\n      mload(0x40)\n      0x08c379a000000000000000000000000000000000000000000000000000000000\n      dup2\n      mstore\n      0x04\n      add\n      tag_189\n      swap1\n      tag_190\n      jump\t// in\n    tag_189:\n      mload(0x40)\n      dup1\n      swap2\n      sub\n      swap1\n      revert\n    tag_188:\n        /* \"contracts/vcDORA.sol\":9605:9618  uint256 value */\n      0x00\n        /* \"contracts/vcDORA.sol\":9621:9628  _locked */\n      dup2\n        /* \"contracts/vcDORA.sol\":9621:9635  _locked.amount */\n      0x00\n      add\n      sload\n        /* \"contracts/vcDORA.sol\":9605:9635  uint256 value = _locked.amount */\n      swap1\n      pop\n        /* \"contracts/vcDORA.sol\":9646:9664  uint256 prevSupply */\n      0x00\n        /* \"contracts/vcDORA.sol\":9667:9673  supply */\n      sload(0x05)\n        /* \"contracts/vcDORA.sol\":9646:9673  uint256 prevSupply = supply */\n      swap1\n      pop\n        /* \"contracts/vcDORA.sol\":9705:9710  value */\n      dup2\n        /* \"contracts/vcDORA.sol\":9692:9702  prevSupply */\n      dup2\n        /* \"contracts/vcDORA.sol\":9692:9710  prevSupply - value */\n      tag_191\n      swap2\n      swap1\n      tag_192\n      jump\t// in\n    tag_191:\n        /* \"contracts/vcDORA.sol\":9683:9689  supply */\n      0x05\n        /* \"contracts/vcDORA.sol\":9683:9710  supply = prevSupply - value */\n      dup2\n      swap1\n      sstore\n      pop\n        /* \"contracts/vcDORA.sol\":9721:9752  LockedBalance memory _newLocked */\n      0x00\n        /* \"contracts/vcDORA.sol\":9755:9774  LockedBalance(0, 0) */\n      mload(0x40)\n      dup1\n      0x40\n      add\n      0x40\n      mstore\n      dup1\n        /* \"contracts/vcDORA.sol\":9769:9770  0 */\n      0x00\n        /* \"contracts/vcDORA.sol\":9755:9774  LockedBalance(0, 0) */\n      dup2\n      mstore\n      0x20\n      add\n        /* \"contracts/vcDORA.sol\":9772:9773  0 */\n      0x00\n        /* \"contracts/vcDORA.sol\":9755:9774  LockedBalance(0, 0) */\n      dup2\n      mstore\n      pop\n        /* \"contracts/vcDORA.sol\":9721:9774  LockedBalance memory _newLocked = LockedBalance(0, 0) */\n      swap1\n      pop\n        /* \"contracts/vcDORA.sol\":9785:9833  _checkUserPoint(msg.sender, _locked, _newLocked) */\n      tag_193\n        /* \"contracts/vcDORA.sol\":9801:9811  msg.sender */\n      caller\n        /* \"contracts/vcDORA.sol\":9813:9820  _locked */\n      dup6\n        /* \"contracts/vcDORA.sol\":9822:9832  _newLocked */\n      dup4\n        /* \"contracts/vcDORA.sol\":9785:9800  _checkUserPoint */\n      tag_194\n        /* \"contracts/vcDORA.sol\":9785:9833  _checkUserPoint(msg.sender, _locked, _newLocked) */\n      jump\t// in\n    tag_193:\n        /* \"contracts/vcDORA.sol\":9852:9857  token */\n      0x04\n      0x00\n      swap1\n      sload\n      swap1\n      0x0100\n      exp\n      swap1\n      div\n      0xffffffffffffffffffffffffffffffffffffffff\n      and\n        /* \"contracts/vcDORA.sol\":9852:9866  token.transfer */\n      0xffffffffffffffffffffffffffffffffffffffff\n      and\n      0xa9059cbb\n        /* \"contracts/vcDORA.sol\":9867:9877  msg.sender */\n      caller\n        /* \"contracts/vcDORA.sol\":9879:9884  value */\n      dup6\n        /* \"contracts/vcDORA.sol\":9852:9885  token.transfer(msg.sender, value) */\n      mload(0x40)\n      dup4\n      0xffffffff\n      and\n      0xe0\n      shl\n      dup2\n      mstore\n      0x04\n      add\n      tag_195\n      swap3\n      swap2\n      swap1\n      tag_196\n      jump\t// in\n    tag_195:\n      0x20\n      mload(0x40)\n      dup1\n      dup4\n      sub\n      dup2\n      0x00\n      dup8\n      gas\n      call\n      iszero\n      dup1\n      iszero\n      tag_198\n      jumpi\n      returndatasize\n      0x00\n      dup1\n      returndatacopy\n      revert(0x00, returndatasize)\n    tag_198:\n      pop\n      pop\n      pop\n      pop\n      mload(0x40)\n      returndatasize\n      not(0x1f)\n      0x1f\n      dup3\n      add\n      and\n      dup3\n      add\n      dup1\n      0x40\n      mstore\n      pop\n      dup2\n      add\n      swap1\n      tag_199\n      swap2\n      swap1\n      tag_200\n      jump\t// in\n    tag_199:\n        /* \"contracts/vcDORA.sol\":9844:9886  require(token.transfer(msg.sender, value)) */\n      tag_201\n      jumpi\n      0x00\n      dup1\n      revert\n    tag_201:\n        /* \"contracts/vcDORA.sol\":9911:9921  msg.sender */\n      caller\n        /* \"contracts/vcDORA.sol\":9902:9946  Withdraw(msg.sender, value, block.timestamp) */\n      0xffffffffffffffffffffffffffffffffffffffff\n      and\n      0xf279e6a1f5e320cca91135676d9cb6e44ca8a08c0b88342bcdb1144f6511b568\n        /* \"contracts/vcDORA.sol\":9923:9928  value */\n      dup5\n        /* \"contracts/vcDORA.sol\":9930:9945  block.timestamp */\n      timestamp\n        /* \"contracts/vcDORA.sol\":9902:9946  Withdraw(msg.sender, value, block.timestamp) */\n      mload(0x40)\n      tag_202\n      swap3\n      swap2\n      swap1\n      tag_126\n      jump\t// in\n    tag_202:\n      mload(0x40)\n      dup1\n      swap2\n      sub\n      swap1\n      log2\n        /* \"contracts/vcDORA.sol\":9961:9987  Supply(prevSupply, supply) */\n      0x5e2aa66efd74cce82b21852e317e5490d9ecc9e6bb953ae24d90851258cc2f5c\n        /* \"contracts/vcDORA.sol\":9968:9978  prevSupply */\n      dup3\n        /* \"contracts/vcDORA.sol\":9980:9986  supply */\n      sload(0x05)\n        /* \"contracts/vcDORA.sol\":9961:9987  Supply(prevSupply, supply) */\n      mload(0x40)\n      tag_203\n      swap3\n      swap2\n      swap1\n      tag_126\n      jump\t// in\n    tag_203:\n      mload(0x40)\n      dup1\n      swap2\n      sub\n      swap1\n      log1\n        /* \"contracts/vcDORA.sol\":9458:9994  {... */\n      pop\n      pop\n      pop\n      pop\n        /* \"contracts/vcDORA.sol\":2216:2221  false */\n      0x00\n        /* \"contracts/vcDORA.sol\":2199:2213  _rentrancyLock */\n      0x0d\n      0x00\n        /* \"contracts/vcDORA.sol\":2199:2221  _rentrancyLock = false */\n      0x0100\n      exp\n      dup2\n      sload\n      dup2\n      0xff\n      mul\n      not\n      and\n      swap1\n      dup4\n      iszero\n      iszero\n      mul\n      or\n      swap1\n      sstore\n      pop\n        /* \"contracts/vcDORA.sol\":9416:9994  function withdraw() external nonReentrant {... */\n      jump\t// out\n        /* \"contracts/vcDORA.sol\":10894:11812  function balanceOfAt(address _user, uint256 _ts)... */\n    tag_75:\n        /* \"contracts/vcDORA.sol\":10988:10995  uint256 */\n      0x00\n        /* \"contracts/vcDORA.sol\":11025:11040  block.timestamp */\n      timestamp\n        /* \"contracts/vcDORA.sol\":11019:11022  _ts */\n      dup3\n        /* \"contracts/vcDORA.sol\":11019:11040  _ts < block.timestamp */\n      lt\n        /* \"contracts/vcDORA.sol\":11011:11041  require(_ts < block.timestamp) */\n      tag_205\n      jumpi\n      0x00\n      dup1\n      revert\n    tag_205:\n        /* \"contracts/vcDORA.sol\":11052:11068  uint256 snapshot */\n      0x00\n        /* \"contracts/vcDORA.sol\":11071:11090  userBalanceSnapshot */\n      0x0c\n        /* \"contracts/vcDORA.sol\":11071:11097  userBalanceSnapshot[_user] */\n      0x00\n        /* \"contracts/vcDORA.sol\":11091:11096  _user */\n      dup6\n        /* \"contracts/vcDORA.sol\":11071:11097  userBalanceSnapshot[_user] */\n      0xffffffffffffffffffffffffffffffffffffffff\n      and\n      0xffffffffffffffffffffffffffffffffffffffff\n      and\n      dup2\n      mstore\n      0x20\n      add\n      swap1\n      dup2\n      mstore\n      0x20\n      add\n      0x00\n      keccak256\n        /* \"contracts/vcDORA.sol\":11071:11102  userBalanceSnapshot[_user][_ts] */\n      0x00\n        /* \"contracts/vcDORA.sol\":11098:11101  _ts */\n      dup5\n        /* \"contracts/vcDORA.sol\":11071:11102  userBalanceSnapshot[_user][_ts] */\n      dup2\n      mstore\n      0x20\n      add\n      swap1\n      dup2\n      mstore\n      0x20\n      add\n      0x00\n      keccak256\n      sload\n        /* \"contracts/vcDORA.sol\":11052:11102  uint256 snapshot = userBalanceSnapshot[_user][_ts] */\n      swap1\n      pop\n        /* \"contracts/vcDORA.sol\":11127:11128  0 */\n      0x00\n        /* \"contracts/vcDORA.sol\":11116:11124  snapshot */\n      dup2\n        /* \"contracts/vcDORA.sol\":11116:11128  snapshot > 0 */\n      gt\n        /* \"contracts/vcDORA.sol\":11112:11170  if (snapshot > 0) {... */\n      iszero\n      tag_206\n      jumpi\n        /* \"contracts/vcDORA.sol\":11151:11159  snapshot */\n      dup1\n        /* \"contracts/vcDORA.sol\":11144:11159  return snapshot */\n      swap2\n      pop\n      pop\n      jump(tag_204)\n        /* \"contracts/vcDORA.sol\":11112:11170  if (snapshot > 0) {... */\n    tag_206:\n        /* \"contracts/vcDORA.sol\":11180:11231  mapping(uint256 => Point) storage _userPointHistory */\n      0x00\n        /* \"contracts/vcDORA.sol\":11234:11250  userPointHistory */\n      0x0a\n        /* \"contracts/vcDORA.sol\":11234:11279  userPointHistory[... */\n      0x00\n        /* \"contracts/vcDORA.sol\":11264:11269  _user */\n      dup7\n        /* \"contracts/vcDORA.sol\":11234:11279  userPointHistory[... */\n      0xffffffffffffffffffffffffffffffffffffffff\n      and\n      0xffffffffffffffffffffffffffffffffffffffff\n      and\n      dup2\n      mstore\n      0x20\n      add\n      swap1\n      dup2\n      mstore\n      0x20\n      add\n      0x00\n      keccak256\n        /* \"contracts/vcDORA.sol\":11180:11279  mapping(uint256 => Point) storage _userPointHistory = userPointHistory[... */\n      swap1\n      pop\n        /* \"contracts/vcDORA.sol\":11289:11300  uint256 min */\n      0x00\n        /* \"contracts/vcDORA.sol\":11310:11321  uint256 mid */\n      dup1\n        /* \"contracts/vcDORA.sol\":11331:11342  uint256 max */\n      0x00\n        /* \"contracts/vcDORA.sol\":11345:11359  userPointEpoch */\n      0x0b\n        /* \"contracts/vcDORA.sol\":11345:11366  userPointEpoch[_user] */\n      0x00\n        /* \"contracts/vcDORA.sol\":11360:11365  _user */\n      dup10\n        /* \"contracts/vcDORA.sol\":11345:11366  userPointEpoch[_user] */\n      0xffffffffffffffffffffffffffffffffffffffff\n      and\n      0xffffffffffffffffffffffffffffffffffffffff\n      and\n      dup2\n      mstore\n      0x20\n      add\n      swap1\n      dup2\n      mstore\n      0x20\n      add\n      0x00\n      keccak256\n      sload\n        /* \"contracts/vcDORA.sol\":11331:11366  uint256 max = userPointEpoch[_user] */\n      swap1\n      pop\n        /* \"contracts/vcDORA.sol\":11381:11390  uint256 i */\n      0x00\n        /* \"contracts/vcDORA.sol\":11376:11672  for (uint256 i = 0; i < 128; i++) {... */\n    tag_207:\n        /* \"contracts/vcDORA.sol\":11400:11403  128 */\n      0x80\n        /* \"contracts/vcDORA.sol\":11396:11397  i */\n      dup2\n        /* \"contracts/vcDORA.sol\":11396:11403  i < 128 */\n      lt\n        /* \"contracts/vcDORA.sol\":11376:11672  for (uint256 i = 0; i < 128; i++) {... */\n      iszero\n      tag_208\n      jumpi\n        /* \"contracts/vcDORA.sol\":11435:11438  max */\n      dup2\n        /* \"contracts/vcDORA.sol\":11428:11431  min */\n      dup5\n        /* \"contracts/vcDORA.sol\":11428:11438  min >= max */\n      lt\n        /* \"contracts/vcDORA.sol\":11424:11478  if (min >= max) {... */\n      iszero\n        /* \"contracts/vcDORA.sol\":11458:11463  break */\n      tag_208\n        /* \"contracts/vcDORA.sol\":11424:11478  if (min >= max) {... */\n      jumpi\n        /* \"contracts/vcDORA.sol\":11515:11516  2 */\n      0x02\n        /* \"contracts/vcDORA.sol\":11510:11511  1 */\n      0x01\n        /* \"contracts/vcDORA.sol\":11504:11507  max */\n      dup4\n        /* \"contracts/vcDORA.sol\":11498:11501  min */\n      dup7\n        /* \"contracts/vcDORA.sol\":11498:11507  min + max */\n      tag_211\n      swap2\n      swap1\n      tag_167\n      jump\t// in\n    tag_211:\n        /* \"contracts/vcDORA.sol\":11498:11511  min + max + 1 */\n      tag_212\n      swap2\n      swap1\n      tag_167\n      jump\t// in\n    tag_212:\n        /* \"contracts/vcDORA.sol\":11497:11516  (min + max + 1) / 2 */\n      tag_213\n      swap2\n      swap1\n      tag_170\n      jump\t// in\n    tag_213:\n        /* \"contracts/vcDORA.sol\":11491:11516  mid = (min + max + 1) / 2 */\n      swap3\n      pop\n        /* \"contracts/vcDORA.sol\":11563:11566  _ts */\n      dup8\n        /* \"contracts/vcDORA.sol\":11534:11551  _userPointHistory */\n      dup6\n        /* \"contracts/vcDORA.sol\":11534:11556  _userPointHistory[mid] */\n      0x00\n        /* \"contracts/vcDORA.sol\":11552:11555  mid */\n      dup6\n        /* \"contracts/vcDORA.sol\":11534:11556  _userPointHistory[mid] */\n      dup2\n      mstore\n      0x20\n      add\n      swap1\n      dup2\n      mstore\n      0x20\n      add\n      0x00\n      keccak256\n        /* \"contracts/vcDORA.sol\":11534:11559  _userPointHistory[mid].ts */\n      0x02\n      add\n      sload\n        /* \"contracts/vcDORA.sol\":11534:11566  _userPointHistory[mid].ts <= _ts */\n      gt\n        /* \"contracts/vcDORA.sol\":11530:11662  if (_userPointHistory[mid].ts <= _ts) {... */\n      tag_214\n      jumpi\n        /* \"contracts/vcDORA.sol\":11592:11595  mid */\n      dup3\n        /* \"contracts/vcDORA.sol\":11586:11595  min = mid */\n      swap4\n      pop\n        /* \"contracts/vcDORA.sol\":11530:11662  if (_userPointHistory[mid].ts <= _ts) {... */\n      jump(tag_215)\n    tag_214:\n        /* \"contracts/vcDORA.sol\":11646:11647  1 */\n      0x01\n        /* \"contracts/vcDORA.sol\":11640:11643  mid */\n      dup4\n        /* \"contracts/vcDORA.sol\":11640:11647  mid - 1 */\n      tag_216\n      swap2\n      swap1\n      tag_192\n      jump\t// in\n    tag_216:\n        /* \"contracts/vcDORA.sol\":11634:11647  max = mid - 1 */\n      swap2\n      pop\n        /* \"contracts/vcDORA.sol\":11530:11662  if (_userPointHistory[mid].ts <= _ts) {... */\n    tag_215:\n        /* \"contracts/vcDORA.sol\":11405:11408  i++ */\n      dup1\n      dup1\n      tag_217\n      swap1\n      tag_218\n      jump\t// in\n    tag_217:\n      swap2\n      pop\n      pop\n        /* \"contracts/vcDORA.sol\":11376:11672  for (uint256 i = 0; i < 128; i++) {... */\n      jump(tag_207)\n    tag_208:\n      pop\n        /* \"contracts/vcDORA.sol\":11697:11700  max */\n      dup1\n        /* \"contracts/vcDORA.sol\":11690:11693  min */\n      dup4\n        /* \"contracts/vcDORA.sol\":11690:11700  min >= max */\n      lt\n      iszero\n        /* \"contracts/vcDORA.sol\":11682:11701  require(min >= max) */\n      tag_219\n      jumpi\n      0x00\n      dup1\n      revert\n    tag_219:\n        /* \"contracts/vcDORA.sol\":11712:11732  Point storage uPoint */\n      0x00\n        /* \"contracts/vcDORA.sol\":11735:11752  _userPointHistory */\n      dup5\n        /* \"contracts/vcDORA.sol\":11735:11757  _userPointHistory[min] */\n      0x00\n        /* \"contracts/vcDORA.sol\":11753:11756  min */\n      dup6\n        /* \"contracts/vcDORA.sol\":11735:11757  _userPointHistory[min] */\n      dup2\n      mstore\n      0x20\n      add\n      swap1\n      dup2\n      mstore\n      0x20\n      add\n      0x00\n      keccak256\n        /* \"contracts/vcDORA.sol\":11712:11757  Point storage uPoint = _userPointHistory[min] */\n      swap1\n      pop\n        /* \"contracts/vcDORA.sol\":11775:11805  _posInterpolation(uPoint, _ts) */\n      tag_220\n        /* \"contracts/vcDORA.sol\":11793:11799  uPoint */\n      dup2\n        /* \"contracts/vcDORA.sol\":11801:11804  _ts */\n      dup10\n        /* \"contracts/vcDORA.sol\":11775:11792  _posInterpolation */\n      tag_221\n        /* \"contracts/vcDORA.sol\":11775:11805  _posInterpolation(uPoint, _ts) */\n      jump\t// in\n    tag_220:\n        /* \"contracts/vcDORA.sol\":11768:11805  return _posInterpolation(uPoint, _ts) */\n      swap7\n      pop\n      pop\n      pop\n      pop\n      pop\n      pop\n      pop\n        /* \"contracts/vcDORA.sol\":10894:11812  function balanceOfAt(address _user, uint256 _ts)... */\n    tag_204:\n      swap3\n      swap2\n      pop\n      pop\n      jump\t// out\n        /* \"contracts/vcDORA.sol\":10757:10888  function balanceOf(address _user) external view returns (uint256) {... */\n    tag_80:\n        /* \"contracts/vcDORA.sol\":10814:10821  uint256 */\n      0x00\n        /* \"contracts/vcDORA.sol\":10840:10881  balanceOfAtFuture(_user, block.timestamp) */\n      tag_223\n        /* \"contracts/vcDORA.sol\":10858:10863  _user */\n      dup3\n        /* \"contracts/vcDORA.sol\":10865:10880  block.timestamp */\n      timestamp\n        /* \"contracts/vcDORA.sol\":10840:10857  balanceOfAtFuture */\n      tag_109\n        /* \"contracts/vcDORA.sol\":10840:10881  balanceOfAtFuture(_user, block.timestamp) */\n      jump\t// in\n    tag_223:\n        /* \"contracts/vcDORA.sol\":10833:10881  return balanceOfAtFuture(_user, block.timestamp) */\n      swap1\n      pop\n        /* \"contracts/vcDORA.sol\":10757:10888  function balanceOf(address _user) external view returns (uint256) {... */\n      swap2\n      swap1\n      pop\n      jump\t// out\n        /* \"contracts/vcDORA.sol\":8666:9410  function increaseUnlockTime(uint256 _unlockTime) external nonReentrant {... */\n    tag_84:\n        /* \"contracts/vcDORA.sol\":2132:2146  _rentrancyLock */\n      0x0d\n      0x00\n      swap1\n      sload\n      swap1\n      0x0100\n      exp\n      swap1\n      div\n      0xff\n      and\n        /* \"contracts/vcDORA.sol\":2131:2146  !_rentrancyLock */\n      iszero\n        /* \"contracts/vcDORA.sol\":2123:2147  require(!_rentrancyLock) */\n      tag_225\n      jumpi\n      0x00\n      dup1\n      revert\n    tag_225:\n        /* \"contracts/vcDORA.sol\":2174:2178  true */\n      0x01\n        /* \"contracts/vcDORA.sol\":2157:2171  _rentrancyLock */\n      0x0d\n      0x00\n        /* \"contracts/vcDORA.sol\":2157:2178  _rentrancyLock = true */\n      0x0100\n      exp\n      dup2\n      sload\n      dup2\n      0xff\n      mul\n      not\n      and\n      swap1\n      dup4\n      iszero\n      iszero\n      mul\n      or\n      swap1\n      sstore\n      pop\n        /* \"contracts/vcDORA.sol\":8747:8776  LockedBalance storage _locked */\n      0x00\n        /* \"contracts/vcDORA.sol\":8779:8785  locked */\n      0x06\n        /* \"contracts/vcDORA.sol\":8779:8797  locked[msg.sender] */\n      0x00\n        /* \"contracts/vcDORA.sol\":8786:8796  msg.sender */\n      caller\n        /* \"contracts/vcDORA.sol\":8779:8797  locked[msg.sender] */\n      0xffffffffffffffffffffffffffffffffffffffff\n      and\n      0xffffffffffffffffffffffffffffffffffffffff\n      and\n      dup2\n      mstore\n      0x20\n      add\n      swap1\n      dup2\n      mstore\n      0x20\n      add\n      0x00\n      keccak256\n        /* \"contracts/vcDORA.sol\":8747:8797  LockedBalance storage _locked = locked[msg.sender] */\n      swap1\n      pop\n        /* \"contracts/vcDORA.sol\":627:634  1 weeks */\n      0x093a80\n      dup1\n        /* \"contracts/vcDORA.sol\":8823:8834  _unlockTime */\n      dup4\n        /* \"contracts/vcDORA.sol\":8823:8841  _unlockTime / WEEK */\n      tag_227\n      swap2\n      swap1\n      tag_170\n      jump\t// in\n    tag_227:\n        /* \"contracts/vcDORA.sol\":8822:8849  (_unlockTime / WEEK) * WEEK */\n      tag_228\n      swap2\n      swap1\n      tag_165\n      jump\t// in\n    tag_228:\n        /* \"contracts/vcDORA.sol\":8808:8849  _unlockTime = (_unlockTime / WEEK) * WEEK */\n      swap2\n      pop\n        /* \"contracts/vcDORA.sol\":8885:8886  0 */\n      0x00\n        /* \"contracts/vcDORA.sol\":8868:8875  _locked */\n      dup2\n        /* \"contracts/vcDORA.sol\":8868:8882  _locked.amount */\n      0x00\n      add\n      sload\n        /* \"contracts/vcDORA.sol\":8868:8886  _locked.amount > 0 */\n      gt\n        /* \"contracts/vcDORA.sol\":8860:8913  require(_locked.amount > 0, 'No existing lock found') */\n      tag_229\n      jumpi\n      mload(0x40)\n      0x08c379a000000000000000000000000000000000000000000000000000000000\n      dup2\n      mstore\n      0x04\n      add\n      tag_230\n      swap1\n      tag_154\n      jump\t// in\n    tag_230:\n      mload(0x40)\n      dup1\n      swap2\n      sub\n      swap1\n      revert\n    tag_229:\n        /* \"contracts/vcDORA.sol\":8958:8973  block.timestamp */\n      timestamp\n        /* \"contracts/vcDORA.sol\":8944:8951  _locked */\n      dup2\n        /* \"contracts/vcDORA.sol\":8944:8955  _locked.end */\n      0x01\n      add\n      sload\n        /* \"contracts/vcDORA.sol\":8944:8973  _locked.end > block.timestamp */\n      gt\n        /* \"contracts/vcDORA.sol\":8923:9035  require(... */\n      tag_231\n      jumpi\n      mload(0x40)\n      0x08c379a000000000000000000000000000000000000000000000000000000000\n      dup2\n      mstore\n      0x04\n      add\n      tag_232\n      swap1\n      tag_157\n      jump\t// in\n    tag_232:\n      mload(0x40)\n      dup1\n      swap2\n      sub\n      swap1\n      revert\n    tag_231:\n        /* \"contracts/vcDORA.sol\":9067:9074  _locked */\n      dup1\n        /* \"contracts/vcDORA.sol\":9067:9078  _locked.end */\n      0x01\n      add\n      sload\n        /* \"contracts/vcDORA.sol\":9053:9064  _unlockTime */\n      dup3\n        /* \"contracts/vcDORA.sol\":9053:9078  _unlockTime > _locked.end */\n      gt\n        /* \"contracts/vcDORA.sol\":9045:9114  require(_unlockTime > _locked.end, 'Can only increase lock duration') */\n      tag_233\n      jumpi\n      mload(0x40)\n      0x08c379a000000000000000000000000000000000000000000000000000000000\n      dup2\n      mstore\n      0x04\n      add\n      tag_234\n      swap1\n      tag_235\n      jump\t// in\n    tag_234:\n      mload(0x40)\n      dup1\n      swap2\n      sub\n      swap1\n      revert\n    tag_233:\n        /* \"contracts/vcDORA.sol\":627:634  1 weeks */\n      0x093a80\n        /* \"contracts/vcDORA.sol\":675:678  208 */\n      0xd0\n        /* \"contracts/vcDORA.sol\":675:685  208 * WEEK */\n      tag_236\n      swap2\n      swap1\n      tag_165\n      jump\t// in\n    tag_236:\n        /* \"contracts/vcDORA.sol\":9160:9175  block.timestamp */\n      timestamp\n        /* \"contracts/vcDORA.sol\":9160:9185  block.timestamp + MAXTIME */\n      tag_237\n      swap2\n      swap1\n      tag_167\n      jump\t// in\n    tag_237:\n        /* \"contracts/vcDORA.sol\":9145:9156  _unlockTime */\n      dup3\n        /* \"contracts/vcDORA.sol\":9145:9185  _unlockTime <= block.timestamp + MAXTIME */\n      gt\n      iszero\n        /* \"contracts/vcDORA.sol\":9124:9241  require(... */\n      tag_238\n      jumpi\n      mload(0x40)\n      0x08c379a000000000000000000000000000000000000000000000000000000000\n      dup2\n      mstore\n      0x04\n      add\n      tag_239\n      swap1\n      tag_240\n      jump\t// in\n    tag_239:\n      mload(0x40)\n      dup1\n      swap2\n      sub\n      swap1\n      revert\n    tag_238:\n        /* \"contracts/vcDORA.sol\":9252:9403  _depositFor(... */\n      tag_241\n        /* \"contracts/vcDORA.sol\":9277:9287  msg.sender */\n      caller\n        /* \"contracts/vcDORA.sol\":9301:9302  0 */\n      0x00\n        /* \"contracts/vcDORA.sol\":9316:9327  _unlockTime */\n      dup5\n        /* \"contracts/vcDORA.sol\":9341:9348  _locked */\n      dup5\n        /* \"contracts/vcDORA.sol\":9362:9393  LockedType.INCREASE_UNLOCK_TIME */\n      0x03\n        /* \"contracts/vcDORA.sol\":9252:9263  _depositFor */\n      tag_159\n        /* \"contracts/vcDORA.sol\":9252:9403  _depositFor(... */\n      jump\t// in\n    tag_241:\n        /* \"contracts/vcDORA.sol\":8737:9410  {... */\n      pop\n        /* \"contracts/vcDORA.sol\":2216:2221  false */\n      0x00\n        /* \"contracts/vcDORA.sol\":2199:2213  _rentrancyLock */\n      0x0d\n      0x00\n        /* \"contracts/vcDORA.sol\":2199:2221  _rentrancyLock = false */\n      0x0100\n      exp\n      dup2\n      sload\n      dup2\n      0xff\n      mul\n      not\n      and\n      swap1\n      dup4\n      iszero\n      iszero\n      mul\n      or\n      swap1\n      sstore\n      pop\n        /* \"contracts/vcDORA.sol\":8666:9410  function increaseUnlockTime(uint256 _unlockTime) external nonReentrant {... */\n      pop\n      jump\t// out\n        /* \"contracts/vcDORA.sol\":10142:10751  function balanceSnapshot(... */\n    tag_88:\n        /* \"contracts/vcDORA.sol\":10261:10281  uint256 maxUserEpoch */\n      0x00\n        /* \"contracts/vcDORA.sol\":10284:10298  userPointEpoch */\n      0x0b\n        /* \"contracts/vcDORA.sol\":10284:10305  userPointEpoch[_user] */\n      0x00\n        /* \"contracts/vcDORA.sol\":10299:10304  _user */\n      dup6\n        /* \"contracts/vcDORA.sol\":10284:10305  userPointEpoch[_user] */\n      0xffffffffffffffffffffffffffffffffffffffff\n      and\n      0xffffffffffffffffffffffffffffffffffffffff\n      and\n      dup2\n      mstore\n      0x20\n      add\n      swap1\n      dup2\n      mstore\n      0x20\n      add\n      0x00\n      keccak256\n      sload\n        /* \"contracts/vcDORA.sol\":10261:10305  uint256 maxUserEpoch = userPointEpoch[_user] */\n      swap1\n      pop\n        /* \"contracts/vcDORA.sol\":10334:10346  maxUserEpoch */\n      dup1\n        /* \"contracts/vcDORA.sol\":10323:10330  _uEpoch */\n      dup3\n        /* \"contracts/vcDORA.sol\":10323:10346  _uEpoch <= maxUserEpoch */\n      gt\n      iszero\n        /* \"contracts/vcDORA.sol\":10315:10347  require(_uEpoch <= maxUserEpoch) */\n      tag_243\n      jumpi\n      0x00\n      dup1\n      revert\n    tag_243:\n        /* \"contracts/vcDORA.sol\":10358:10371  uint256 maxTs */\n      0x00\n        /* \"contracts/vcDORA.sol\":10374:10389  block.timestamp */\n      timestamp\n        /* \"contracts/vcDORA.sol\":10358:10389  uint256 maxTs = block.timestamp */\n      swap1\n      pop\n        /* \"contracts/vcDORA.sol\":10414:10426  maxUserEpoch */\n      dup2\n        /* \"contracts/vcDORA.sol\":10403:10410  _uEpoch */\n      dup4\n        /* \"contracts/vcDORA.sol\":10403:10426  _uEpoch != maxUserEpoch */\n      eq\n        /* \"contracts/vcDORA.sol\":10399:10537  if (_uEpoch != maxUserEpoch) {... */\n      tag_244\n      jumpi\n        /* \"contracts/vcDORA.sol\":10487:10503  userPointHistory */\n      0x0a\n        /* \"contracts/vcDORA.sol\":10487:10510  userPointHistory[_user] */\n      0x00\n        /* \"contracts/vcDORA.sol\":10504:10509  _user */\n      dup7\n        /* \"contracts/vcDORA.sol\":10487:10510  userPointHistory[_user] */\n      0xffffffffffffffffffffffffffffffffffffffff\n      and\n      0xffffffffffffffffffffffffffffffffffffffff\n      and\n      dup2\n      mstore\n      0x20\n      add\n      swap1\n      dup2\n      mstore\n      0x20\n      add\n      0x00\n      keccak256\n        /* \"contracts/vcDORA.sol\":10487:10523  userPointHistory[_user][_uEpoch + 1] */\n      0x00\n        /* \"contracts/vcDORA.sol\":10521:10522  1 */\n      0x01\n        /* \"contracts/vcDORA.sol\":10511:10518  _uEpoch */\n      dup6\n        /* \"contracts/vcDORA.sol\":10511:10522  _uEpoch + 1 */\n      tag_245\n      swap2\n      swap1\n      tag_167\n      jump\t// in\n    tag_245:\n        /* \"contracts/vcDORA.sol\":10487:10523  userPointHistory[_user][_uEpoch + 1] */\n      dup2\n      mstore\n      0x20\n      add\n      swap1\n      dup2\n      mstore\n      0x20\n      add\n      0x00\n      keccak256\n        /* \"contracts/vcDORA.sol\":10487:10526  userPointHistory[_user][_uEpoch + 1].ts */\n      0x02\n      add\n      sload\n        /* \"contracts/vcDORA.sol\":10479:10526  maxTs = userPointHistory[_user][_uEpoch + 1].ts */\n      swap1\n      pop\n        /* \"contracts/vcDORA.sol\":10399:10537  if (_uEpoch != maxUserEpoch) {... */\n    tag_244:\n        /* \"contracts/vcDORA.sol\":10561:10566  maxTs */\n      dup1\n        /* \"contracts/vcDORA.sol\":10555:10558  _ts */\n      dup5\n        /* \"contracts/vcDORA.sol\":10555:10566  _ts < maxTs */\n      lt\n        /* \"contracts/vcDORA.sol\":10547:10567  require(_ts < maxTs) */\n      tag_246\n      jumpi\n      0x00\n      dup1\n      revert\n    tag_246:\n        /* \"contracts/vcDORA.sol\":10578:10598  Point storage uPoint */\n      0x00\n        /* \"contracts/vcDORA.sol\":10601:10617  userPointHistory */\n      0x0a\n        /* \"contracts/vcDORA.sol\":10601:10624  userPointHistory[_user] */\n      0x00\n        /* \"contracts/vcDORA.sol\":10618:10623  _user */\n      dup8\n        /* \"contracts/vcDORA.sol\":10601:10624  userPointHistory[_user] */\n      0xffffffffffffffffffffffffffffffffffffffff\n      and\n      0xffffffffffffffffffffffffffffffffffffffff\n      and\n      dup2\n      mstore\n      0x20\n      add\n      swap1\n      dup2\n      mstore\n      0x20\n      add\n      0x00\n      keccak256\n        /* \"contracts/vcDORA.sol\":10601:10633  userPointHistory[_user][_uEpoch] */\n      0x00\n        /* \"contracts/vcDORA.sol\":10625:10632  _uEpoch */\n      dup6\n        /* \"contracts/vcDORA.sol\":10601:10633  userPointHistory[_user][_uEpoch] */\n      dup2\n      mstore\n      0x20\n      add\n      swap1\n      dup2\n      mstore\n      0x20\n      add\n      0x00\n      keccak256\n        /* \"contracts/vcDORA.sol\":10578:10633  Point storage uPoint = userPointHistory[_user][_uEpoch] */\n      swap1\n      pop\n        /* \"contracts/vcDORA.sol\":10659:10665  uPoint */\n      dup1\n        /* \"contracts/vcDORA.sol\":10659:10668  uPoint.ts */\n      0x02\n      add\n      sload\n        /* \"contracts/vcDORA.sol\":10652:10655  _ts */\n      dup6\n        /* \"contracts/vcDORA.sol\":10652:10668  _ts >= uPoint.ts */\n      lt\n      iszero\n        /* \"contracts/vcDORA.sol\":10644:10669  require(_ts >= uPoint.ts) */\n      tag_247\n      jumpi\n      0x00\n      dup1\n      revert\n    tag_247:\n        /* \"contracts/vcDORA.sol\":10714:10744  _posInterpolation(uPoint, _ts) */\n      tag_248\n        /* \"contracts/vcDORA.sol\":10732:10738  uPoint */\n      dup2\n        /* \"contracts/vcDORA.sol\":10740:10743  _ts */\n      dup7\n        /* \"contracts/vcDORA.sol\":10714:10731  _posInterpolation */\n      tag_221\n        /* \"contracts/vcDORA.sol\":10714:10744  _posInterpolation(uPoint, _ts) */\n      jump\t// in\n    tag_248:\n        /* \"contracts/vcDORA.sol\":10680:10699  userBalanceSnapshot */\n      0x0c\n        /* \"contracts/vcDORA.sol\":10680:10706  userBalanceSnapshot[_user] */\n      0x00\n        /* \"contracts/vcDORA.sol\":10700:10705  _user */\n      dup9\n        /* \"contracts/vcDORA.sol\":10680:10706  userBalanceSnapshot[_user] */\n      0xffffffffffffffffffffffffffffffffffffffff\n      and\n      0xffffffffffffffffffffffffffffffffffffffff\n      and\n      dup2\n      mstore\n      0x20\n      add\n      swap1\n      dup2\n      mstore\n      0x20\n      add\n      0x00\n      keccak256\n        /* \"contracts/vcDORA.sol\":10680:10711  userBalanceSnapshot[_user][_ts] */\n      0x00\n        /* \"contracts/vcDORA.sol\":10707:10710  _ts */\n      dup8\n        /* \"contracts/vcDORA.sol\":10680:10711  userBalanceSnapshot[_user][_ts] */\n      dup2\n      mstore\n      0x20\n      add\n      swap1\n      dup2\n      mstore\n      0x20\n      add\n      0x00\n      keccak256\n        /* \"contracts/vcDORA.sol\":10680:10744  userBalanceSnapshot[_user][_ts] = _posInterpolation(uPoint, _ts) */\n      dup2\n      swap1\n      sstore\n      pop\n        /* \"contracts/vcDORA.sol\":10251:10751  {... */\n      pop\n      pop\n      pop\n        /* \"contracts/vcDORA.sol\":10142:10751  function balanceSnapshot(... */\n      pop\n      pop\n      pop\n      jump\t// out\n        /* \"contracts/vcDORA.sol\":1897:1946  mapping(address => uint256) public userPointEpoch */\n    tag_91:\n      mstore(0x20, 0x0b)\n      dup1\n      0x00\n      mstore\n      keccak256(0x00, 0x40)\n      0x00\n      swap2\n      pop\n      swap1\n      pop\n      sload\n      dup2\n      jump\t// out\n        /* \"contracts/vcDORA.sol\":1658:1703  mapping(uint256 => Point) public pointHistory */\n    tag_95:\n      mstore(0x20, 0x08)\n      dup1\n      0x00\n      mstore\n      keccak256(0x00, 0x40)\n      0x00\n      swap2\n      pop\n      swap1\n      pop\n      dup1\n      0x00\n      add\n      sload\n      swap1\n      dup1\n      0x01\n      add\n      sload\n      swap1\n      dup1\n      0x02\n      add\n      sload\n      swap1\n      pop\n      dup4\n      jump\t// out\n        /* \"contracts/vcDORA.sol\":1600:1620  uint256 public epoch */\n    tag_98:\n      sload(0x07)\n      dup2\n      jump\t// out\n        /* \"contracts/vcDORA.sol\":1404:1424  string public symbol */\n    tag_101:\n      0x02\n      dup1\n      sload\n      tag_249\n      swap1\n      tag_141\n      jump\t// in\n    tag_249:\n      dup1\n      0x1f\n      add\n      0x20\n      dup1\n      swap2\n      div\n      mul\n      0x20\n      add\n      mload(0x40)\n      swap1\n      dup2\n      add\n      0x40\n      mstore\n      dup1\n      swap3\n      swap2\n      swap1\n      dup2\n      dup2\n      mstore\n      0x20\n      add\n      dup3\n      dup1\n      sload\n      tag_250\n      swap1\n      tag_141\n      jump\t// in\n    tag_250:\n      dup1\n      iszero\n      tag_251\n      jumpi\n      dup1\n      0x1f\n      lt\n      tag_252\n      jumpi\n      0x0100\n      dup1\n      dup4\n      sload\n      div\n      mul\n      dup4\n      mstore\n      swap2\n      0x20\n      add\n      swap2\n      jump(tag_251)\n    tag_252:\n      dup3\n      add\n      swap2\n      swap1\n      0x00\n      mstore\n      keccak256(0x00, 0x20)\n      swap1\n    tag_253:\n      dup2\n      sload\n      dup2\n      mstore\n      swap1\n      0x01\n      add\n      swap1\n      0x20\n      add\n      dup1\n      dup4\n      gt\n      tag_253\n      jumpi\n      dup3\n      swap1\n      sub\n      0x1f\n      and\n      dup3\n      add\n      swap2\n    tag_251:\n      pop\n      pop\n      pop\n      pop\n      pop\n      dup2\n      jump\t// out\n        /* \"contracts/vcDORA.sol\":13057:13213  function totalSupplyAt(uint256 _ts) external view returns (uint256) {... */\n    tag_105:\n        /* \"contracts/vcDORA.sol\":13116:13123  uint256 */\n      0x00\n        /* \"contracts/vcDORA.sol\":13149:13164  block.timestamp */\n      timestamp\n        /* \"contracts/vcDORA.sol\":13143:13146  _ts */\n      dup3\n        /* \"contracts/vcDORA.sol\":13143:13164  _ts < block.timestamp */\n      lt\n        /* \"contracts/vcDORA.sol\":13135:13165  require(_ts < block.timestamp) */\n      tag_255\n      jumpi\n      0x00\n      dup1\n      revert\n    tag_255:\n        /* \"contracts/vcDORA.sol\":13182:13206  totalSupplyAtFuture(_ts) */\n      tag_256\n        /* \"contracts/vcDORA.sol\":13202:13205  _ts */\n      dup3\n        /* \"contracts/vcDORA.sol\":13182:13201  totalSupplyAtFuture */\n      tag_58\n        /* \"contracts/vcDORA.sol\":13182:13206  totalSupplyAtFuture(_ts) */\n      jump\t// in\n    tag_256:\n        /* \"contracts/vcDORA.sol\":13175:13206  return totalSupplyAtFuture(_ts) */\n      swap1\n      pop\n        /* \"contracts/vcDORA.sol\":13057:13213  function totalSupplyAt(uint256 _ts) external view returns (uint256) {... */\n      swap2\n      swap1\n      pop\n      jump\t// out\n        /* \"contracts/vcDORA.sol\":11818:12223  function balanceOfAtFuture(address _user, uint256 _ts)... */\n    tag_109:\n        /* \"contracts/vcDORA.sol\":11918:11925  uint256 */\n      0x00\n        /* \"contracts/vcDORA.sol\":11956:11971  block.timestamp */\n      timestamp\n        /* \"contracts/vcDORA.sol\":11949:11952  _ts */\n      dup3\n        /* \"contracts/vcDORA.sol\":11949:11971  _ts >= block.timestamp */\n      lt\n      iszero\n        /* \"contracts/vcDORA.sol\":11941:11972  require(_ts >= block.timestamp) */\n      tag_258\n      jumpi\n      0x00\n      dup1\n      revert\n    tag_258:\n        /* \"contracts/vcDORA.sol\":11983:11997  uint256 uEpoch */\n      0x00\n        /* \"contracts/vcDORA.sol\":12000:12014  userPointEpoch */\n      0x0b\n        /* \"contracts/vcDORA.sol\":12000:12021  userPointEpoch[_user] */\n      0x00\n        /* \"contracts/vcDORA.sol\":12015:12020  _user */\n      dup6\n        /* \"contracts/vcDORA.sol\":12000:12021  userPointEpoch[_user] */\n      0xffffffffffffffffffffffffffffffffffffffff\n      and\n      0xffffffffffffffffffffffffffffffffffffffff\n      and\n      dup2\n      mstore\n      0x20\n      add\n      swap1\n      dup2\n      mstore\n      0x20\n      add\n      0x00\n      keccak256\n      sload\n        /* \"contracts/vcDORA.sol\":11983:12021  uint256 uEpoch = userPointEpoch[_user] */\n      swap1\n      pop\n        /* \"contracts/vcDORA.sol\":12045:12046  0 */\n      0x00\n        /* \"contracts/vcDORA.sol\":12035:12041  uEpoch */\n      dup2\n        /* \"contracts/vcDORA.sol\":12035:12046  uEpoch == 0 */\n      sub\n        /* \"contracts/vcDORA.sol\":12031:12217  if (uEpoch == 0) {... */\n      tag_259\n      jumpi\n        /* \"contracts/vcDORA.sol\":12069:12070  0 */\n      0x00\n        /* \"contracts/vcDORA.sol\":12062:12070  return 0 */\n      swap2\n      pop\n      pop\n      jump(tag_257)\n        /* \"contracts/vcDORA.sol\":12031:12217  if (uEpoch == 0) {... */\n    tag_259:\n        /* \"contracts/vcDORA.sol\":12101:12121  Point storage uPoint */\n      0x00\n        /* \"contracts/vcDORA.sol\":12124:12140  userPointHistory */\n      0x0a\n        /* \"contracts/vcDORA.sol\":12124:12147  userPointHistory[_user] */\n      0x00\n        /* \"contracts/vcDORA.sol\":12141:12146  _user */\n      dup7\n        /* \"contracts/vcDORA.sol\":12124:12147  userPointHistory[_user] */\n      0xffffffffffffffffffffffffffffffffffffffff\n      and\n      0xffffffffffffffffffffffffffffffffffffffff\n      and\n      dup2\n      mstore\n      0x20\n      add\n      swap1\n      dup2\n      mstore\n      0x20\n      add\n      0x00\n      keccak256\n        /* \"contracts/vcDORA.sol\":12124:12155  userPointHistory[_user][uEpoch] */\n      0x00\n        /* \"contracts/vcDORA.sol\":12148:12154  uEpoch */\n      dup4\n        /* \"contracts/vcDORA.sol\":12124:12155  userPointHistory[_user][uEpoch] */\n      dup2\n      mstore\n      0x20\n      add\n      swap1\n      dup2\n      mstore\n      0x20\n      add\n      0x00\n      keccak256\n        /* \"contracts/vcDORA.sol\":12101:12155  Point storage uPoint = userPointHistory[_user][uEpoch] */\n      swap1\n      pop\n        /* \"contracts/vcDORA.sol\":12176:12206  _posInterpolation(uPoint, _ts) */\n      tag_261\n        /* \"contracts/vcDORA.sol\":12194:12200  uPoint */\n      dup2\n        /* \"contracts/vcDORA.sol\":12202:12205  _ts */\n      dup6\n        /* \"contracts/vcDORA.sol\":12176:12193  _posInterpolation */\n      tag_221\n        /* \"contracts/vcDORA.sol\":12176:12206  _posInterpolation(uPoint, _ts) */\n      jump\t// in\n    tag_261:\n        /* \"contracts/vcDORA.sol\":12169:12206  return _posInterpolation(uPoint, _ts) */\n      swap3\n      pop\n      pop\n      pop\n        /* \"contracts/vcDORA.sol\":11818:12223  function balanceOfAtFuture(address _user, uint256 _ts)... */\n    tag_257:\n      swap3\n      swap2\n      pop\n      pop\n      jump\t// out\n        /* \"contracts/vcDORA.sol\":10000:10136  function balanceSnapshot(address _user, uint256 _ts) external {... */\n    tag_113:\n        /* \"contracts/vcDORA.sol\":10106:10129  balanceOfAt(_user, _ts) */\n      tag_263\n        /* \"contracts/vcDORA.sol\":10118:10123  _user */\n      dup3\n        /* \"contracts/vcDORA.sol\":10125:10128  _ts */\n      dup3\n        /* \"contracts/vcDORA.sol\":10106:10117  balanceOfAt */\n      tag_75\n        /* \"contracts/vcDORA.sol\":10106:10129  balanceOfAt(_user, _ts) */\n      jump\t// in\n    tag_263:\n        /* \"contracts/vcDORA.sol\":10072:10091  userBalanceSnapshot */\n      0x0c\n        /* \"contracts/vcDORA.sol\":10072:10098  userBalanceSnapshot[_user] */\n      0x00\n        /* \"contracts/vcDORA.sol\":10092:10097  _user */\n      dup5\n        /* \"contracts/vcDORA.sol\":10072:10098  userBalanceSnapshot[_user] */\n      0xffffffffffffffffffffffffffffffffffffffff\n      and\n      0xffffffffffffffffffffffffffffffffffffffff\n      and\n      dup2\n      mstore\n      0x20\n      add\n      swap1\n      dup2\n      mstore\n      0x20\n      add\n      0x00\n      keccak256\n        /* \"contracts/vcDORA.sol\":10072:10103  userBalanceSnapshot[_user][_ts] */\n      0x00\n        /* \"contracts/vcDORA.sol\":10099:10102  _ts */\n      dup4\n        /* \"contracts/vcDORA.sol\":10072:10103  userBalanceSnapshot[_user][_ts] */\n      dup2\n      mstore\n      0x20\n      add\n      swap1\n      dup2\n      mstore\n      0x20\n      add\n      0x00\n      keccak256\n        /* \"contracts/vcDORA.sol\":10072:10129  userBalanceSnapshot[_user][_ts] = balanceOfAt(_user, _ts) */\n      dup2\n      swap1\n      sstore\n      pop\n        /* \"contracts/vcDORA.sol\":10000:10136  function balanceSnapshot(address _user, uint256 _ts) external {... */\n      pop\n      pop\n      jump\t// out\n        /* \"contracts/vcDORA.sol\":2385:2769  function init(... */\n    tag_117:\n        /* \"contracts/vcDORA.sol\":2529:2530  0 */\n      0x00\n        /* \"contracts/vcDORA.sol\":2512:2531  admin == address(0) */\n      0xffffffffffffffffffffffffffffffffffffffff\n      and\n        /* \"contracts/vcDORA.sol\":2512:2517  admin */\n      0x00\n      dup1\n      sload\n      swap1\n      0x0100\n      exp\n      swap1\n      div\n      0xffffffffffffffffffffffffffffffffffffffff\n      and\n        /* \"contracts/vcDORA.sol\":2512:2531  admin == address(0) */\n      0xffffffffffffffffffffffffffffffffffffffff\n      and\n      eq\n        /* \"contracts/vcDORA.sol\":2504:2532  require(admin == address(0)) */\n      tag_265\n      jumpi\n      0x00\n      dup1\n      revert\n    tag_265:\n        /* \"contracts/vcDORA.sol\":2550:2560  msg.sender */\n      caller\n        /* \"contracts/vcDORA.sol\":2542:2547  admin */\n      0x00\n      dup1\n        /* \"contracts/vcDORA.sol\":2542:2560  admin = msg.sender */\n      0x0100\n      exp\n      dup2\n      sload\n      dup2\n      0xffffffffffffffffffffffffffffffffffffffff\n      mul\n      not\n      and\n      swap1\n      dup4\n      0xffffffffffffffffffffffffffffffffffffffff\n      and\n      mul\n      or\n      swap1\n      sstore\n      pop\n        /* \"contracts/vcDORA.sol\":2579:2585  _token */\n      dup3\n        /* \"contracts/vcDORA.sol\":2571:2576  token */\n      0x04\n      0x00\n        /* \"contracts/vcDORA.sol\":2571:2585  token = _token */\n      0x0100\n      exp\n      dup2\n      sload\n      dup2\n      0xffffffffffffffffffffffffffffffffffffffff\n      mul\n      not\n      and\n      swap1\n      dup4\n      0xffffffffffffffffffffffffffffffffffffffff\n      and\n      mul\n      or\n      swap1\n      sstore\n      pop\n        /* \"contracts/vcDORA.sol\":2606:2612  _token */\n      dup3\n        /* \"contracts/vcDORA.sol\":2606:2621  _token.decimals */\n      0xffffffffffffffffffffffffffffffffffffffff\n      and\n      0x313ce567\n        /* \"contracts/vcDORA.sol\":2606:2623  _token.decimals() */\n      mload(0x40)\n      dup2\n      0xffffffff\n      and\n      0xe0\n      shl\n      dup2\n      mstore\n      0x04\n      add\n      0x20\n      mload(0x40)\n      dup1\n      dup4\n      sub\n      dup2\n      dup7\n      gas\n      staticcall\n      iszero\n      dup1\n      iszero\n      tag_267\n      jumpi\n      returndatasize\n      0x00\n      dup1\n      returndatacopy\n      revert(0x00, returndatasize)\n    tag_267:\n      pop\n      pop\n      pop\n      pop\n      mload(0x40)\n      returndatasize\n      not(0x1f)\n      0x1f\n      dup3\n      add\n      and\n      dup3\n      add\n      dup1\n      0x40\n      mstore\n      pop\n      dup2\n      add\n      swap1\n      tag_268\n      swap2\n      swap1\n      tag_269\n      jump\t// in\n    tag_268:\n        /* \"contracts/vcDORA.sol\":2595:2603  decimals */\n      0x03\n        /* \"contracts/vcDORA.sol\":2595:2623  decimals = _token.decimals() */\n      dup2\n      swap1\n      sstore\n      pop\n        /* \"contracts/vcDORA.sol\":2640:2645  _name */\n      dup2\n        /* \"contracts/vcDORA.sol\":2633:2637  name */\n      0x01\n        /* \"contracts/vcDORA.sol\":2633:2645  name = _name */\n      swap1\n      dup1\n      mload\n      swap1\n      0x20\n      add\n      swap1\n      tag_270\n      swap3\n      swap2\n      swap1\n      tag_271\n      jump\t// in\n    tag_270:\n      pop\n        /* \"contracts/vcDORA.sol\":2664:2671  _symbol */\n      dup1\n        /* \"contracts/vcDORA.sol\":2655:2661  symbol */\n      0x02\n        /* \"contracts/vcDORA.sol\":2655:2671  symbol = _symbol */\n      swap1\n      dup1\n      mload\n      swap1\n      0x20\n      add\n      swap1\n      tag_272\n      swap3\n      swap2\n      swap1\n      tag_271\n      jump\t// in\n    tag_272:\n      pop\n        /* \"contracts/vcDORA.sol\":627:634  1 weeks */\n      0x093a80\n        /* \"contracts/vcDORA.sol\":2690:2705  block.timestamp */\n      timestamp\n        /* \"contracts/vcDORA.sol\":2690:2712  block.timestamp / WEEK */\n      tag_273\n      swap2\n      swap1\n      tag_170\n      jump\t// in\n    tag_273:\n        /* \"contracts/vcDORA.sol\":2682:2687  epoch */\n      0x07\n        /* \"contracts/vcDORA.sol\":2682:2712  epoch = block.timestamp / WEEK */\n      dup2\n      swap1\n      sstore\n      pop\n        /* \"contracts/vcDORA.sol\":2747:2762  block.timestamp */\n      timestamp\n        /* \"contracts/vcDORA.sol\":2722:2734  pointHistory */\n      0x08\n        /* \"contracts/vcDORA.sol\":2722:2741  pointHistory[epoch] */\n      0x00\n        /* \"contracts/vcDORA.sol\":2735:2740  epoch */\n      sload(0x07)\n        /* \"contracts/vcDORA.sol\":2722:2741  pointHistory[epoch] */\n      dup2\n      mstore\n      0x20\n      add\n      swap1\n      dup2\n      mstore\n      0x20\n      add\n      0x00\n      keccak256\n        /* \"contracts/vcDORA.sol\":2722:2744  pointHistory[epoch].ts */\n      0x02\n      add\n        /* \"contracts/vcDORA.sol\":2722:2762  pointHistory[epoch].ts = block.timestamp */\n      dup2\n      swap1\n      sstore\n      pop\n        /* \"contracts/vcDORA.sol\":2385:2769  function init(... */\n      pop\n      pop\n      pop\n      jump\t// out\n        /* \"contracts/vcDORA.sol\":7334:8126  function createLock(uint256 _value, uint256 _unlockTime)... */\n    tag_121:\n        /* \"contracts/vcDORA.sol\":2132:2146  _rentrancyLock */\n      0x0d\n      0x00\n      swap1\n      sload\n      swap1\n      0x0100\n      exp\n      swap1\n      div\n      0xff\n      and\n        /* \"contracts/vcDORA.sol\":2131:2146  !_rentrancyLock */\n      iszero\n        /* \"contracts/vcDORA.sol\":2123:2147  require(!_rentrancyLock) */\n      tag_275\n      jumpi\n      0x00\n      dup1\n      revert\n    tag_275:\n        /* \"contracts/vcDORA.sol\":2174:2178  true */\n      0x01\n        /* \"contracts/vcDORA.sol\":2157:2171  _rentrancyLock */\n      0x0d\n      0x00\n        /* \"contracts/vcDORA.sol\":2157:2178  _rentrancyLock = true */\n      0x0100\n      exp\n      dup2\n      sload\n      dup2\n      0xff\n      mul\n      not\n      and\n      swap1\n      dup4\n      iszero\n      iszero\n      mul\n      or\n      swap1\n      sstore\n      pop\n        /* \"contracts/vcDORA.sol\":7451:7477  msg.sender.isNotContract() */\n      tag_277\n        /* \"contracts/vcDORA.sol\":7451:7461  msg.sender */\n      caller\n        /* \"contracts/vcDORA.sol\":7451:7475  msg.sender.isNotContract */\n      0xffffffffffffffffffffffffffffffffffffffff\n      and\n      tag_278\n        /* \"contracts/vcDORA.sol\":7451:7477  msg.sender.isNotContract() */\n      jump\t// in\n    tag_277:\n        /* \"contracts/vcDORA.sol\":7443:7478  require(msg.sender.isNotContract()) */\n      tag_279\n      jumpi\n      0x00\n      dup1\n      revert\n    tag_279:\n        /* \"contracts/vcDORA.sol\":627:634  1 weeks */\n      0x093a80\n      dup1\n        /* \"contracts/vcDORA.sol\":7504:7515  _unlockTime */\n      dup3\n        /* \"contracts/vcDORA.sol\":7504:7522  _unlockTime / WEEK */\n      tag_280\n      swap2\n      swap1\n      tag_170\n      jump\t// in\n    tag_280:\n        /* \"contracts/vcDORA.sol\":7503:7530  (_unlockTime / WEEK) * WEEK */\n      tag_281\n      swap2\n      swap1\n      tag_165\n      jump\t// in\n    tag_281:\n        /* \"contracts/vcDORA.sol\":7489:7530  _unlockTime = (_unlockTime / WEEK) * WEEK */\n      swap1\n      pop\n        /* \"contracts/vcDORA.sol\":7541:7570  LockedBalance storage _locked */\n      0x00\n        /* \"contracts/vcDORA.sol\":7573:7579  locked */\n      0x06\n        /* \"contracts/vcDORA.sol\":7573:7591  locked[msg.sender] */\n      0x00\n        /* \"contracts/vcDORA.sol\":7580:7590  msg.sender */\n      caller\n        /* \"contracts/vcDORA.sol\":7573:7591  locked[msg.sender] */\n      0xffffffffffffffffffffffffffffffffffffffff\n      and\n      0xffffffffffffffffffffffffffffffffffffffff\n      and\n      dup2\n      mstore\n      0x20\n      add\n      swap1\n      dup2\n      mstore\n      0x20\n      add\n      0x00\n      keccak256\n        /* \"contracts/vcDORA.sol\":7541:7591  LockedBalance storage _locked = locked[msg.sender] */\n      swap1\n      pop\n        /* \"contracts/vcDORA.sol\":7619:7620  0 */\n      0x00\n        /* \"contracts/vcDORA.sol\":7610:7616  _value */\n      dup4\n        /* \"contracts/vcDORA.sol\":7610:7620  _value > 0 */\n      gt\n        /* \"contracts/vcDORA.sol\":7602:7638  require(_value > 0, 'invalid value') */\n      tag_282\n      jumpi\n      mload(0x40)\n      0x08c379a000000000000000000000000000000000000000000000000000000000\n      dup2\n      mstore\n      0x04\n      add\n      tag_283\n      swap1\n      tag_151\n      jump\t// in\n    tag_283:\n      mload(0x40)\n      dup1\n      swap2\n      sub\n      swap1\n      revert\n    tag_282:\n        /* \"contracts/vcDORA.sol\":7674:7675  0 */\n      0x00\n        /* \"contracts/vcDORA.sol\":7656:7663  _locked */\n      dup2\n        /* \"contracts/vcDORA.sol\":7656:7670  _locked.amount */\n      0x00\n      add\n      sload\n        /* \"contracts/vcDORA.sol\":7656:7675  _locked.amount == 0 */\n      eq\n        /* \"contracts/vcDORA.sol\":7648:7705  require(_locked.amount == 0, 'Withdraw old tokens first') */\n      tag_284\n      jumpi\n      mload(0x40)\n      0x08c379a000000000000000000000000000000000000000000000000000000000\n      dup2\n      mstore\n      0x04\n      add\n      tag_285\n      swap1\n      tag_286\n      jump\t// in\n    tag_285:\n      mload(0x40)\n      dup1\n      swap2\n      sub\n      swap1\n      revert\n    tag_284:\n        /* \"contracts/vcDORA.sol\":7750:7765  block.timestamp */\n      timestamp\n        /* \"contracts/vcDORA.sol\":7736:7747  _unlockTime */\n      dup3\n        /* \"contracts/vcDORA.sol\":7736:7765  _unlockTime > block.timestamp */\n      gt\n        /* \"contracts/vcDORA.sol\":7715:7829  require(... */\n      tag_287\n      jumpi\n      mload(0x40)\n      0x08c379a000000000000000000000000000000000000000000000000000000000\n      dup2\n      mstore\n      0x04\n      add\n      tag_288\n      swap1\n      tag_289\n      jump\t// in\n    tag_288:\n      mload(0x40)\n      dup1\n      swap2\n      sub\n      swap1\n      revert\n    tag_287:\n        /* \"contracts/vcDORA.sol\":627:634  1 weeks */\n      0x093a80\n        /* \"contracts/vcDORA.sol\":675:678  208 */\n      0xd0\n        /* \"contracts/vcDORA.sol\":675:685  208 * WEEK */\n      tag_290\n      swap2\n      swap1\n      tag_165\n      jump\t// in\n    tag_290:\n        /* \"contracts/vcDORA.sol\":7875:7890  block.timestamp */\n      timestamp\n        /* \"contracts/vcDORA.sol\":7875:7900  block.timestamp + MAXTIME */\n      tag_291\n      swap2\n      swap1\n      tag_167\n      jump\t// in\n    tag_291:\n        /* \"contracts/vcDORA.sol\":7860:7871  _unlockTime */\n      dup3\n        /* \"contracts/vcDORA.sol\":7860:7900  _unlockTime <= block.timestamp + MAXTIME */\n      gt\n      iszero\n        /* \"contracts/vcDORA.sol\":7839:7956  require(... */\n      tag_292\n      jumpi\n      mload(0x40)\n      0x08c379a000000000000000000000000000000000000000000000000000000000\n      dup2\n      mstore\n      0x04\n      add\n      tag_293\n      swap1\n      tag_240\n      jump\t// in\n    tag_293:\n      mload(0x40)\n      dup1\n      swap2\n      sub\n      swap1\n      revert\n    tag_292:\n        /* \"contracts/vcDORA.sol\":7967:8119  _depositFor(... */\n      tag_294\n        /* \"contracts/vcDORA.sol\":7992:8002  msg.sender */\n      caller\n        /* \"contracts/vcDORA.sol\":8016:8022  _value */\n      dup5\n        /* \"contracts/vcDORA.sol\":8036:8047  _unlockTime */\n      dup5\n        /* \"contracts/vcDORA.sol\":8061:8068  _locked */\n      dup5\n        /* \"contracts/vcDORA.sol\":8082:8109  LockedType.CREATE_LOCK_TYPE */\n      0x01\n        /* \"contracts/vcDORA.sol\":7967:7978  _depositFor */\n      tag_159\n        /* \"contracts/vcDORA.sol\":7967:8119  _depositFor(... */\n      jump\t// in\n    tag_294:\n        /* \"contracts/vcDORA.sol\":7433:8126  {... */\n      pop\n        /* \"contracts/vcDORA.sol\":2216:2221  false */\n      0x00\n        /* \"contracts/vcDORA.sol\":2199:2213  _rentrancyLock */\n      0x0d\n      0x00\n        /* \"contracts/vcDORA.sol\":2199:2221  _rentrancyLock = false */\n      0x0100\n      exp\n      dup2\n      sload\n      dup2\n      0xff\n      mul\n      not\n      and\n      swap1\n      dup4\n      iszero\n      iszero\n      mul\n      or\n      swap1\n      sstore\n      pop\n        /* \"contracts/vcDORA.sol\":7334:8126  function createLock(uint256 _value, uint256 _unlockTime)... */\n      pop\n      pop\n      jump\t// out\n        /* \"contracts/vcDORA.sol\":1513:1560  mapping(address => LockedBalance) public locked */\n    tag_124:\n      mstore(0x20, 0x06)\n      dup1\n      0x00\n      mstore\n      keccak256(0x00, 0x40)\n      0x00\n      swap2\n      pop\n      swap1\n      pop\n      dup1\n      0x00\n      add\n      sload\n      swap1\n      dup1\n      0x01\n      add\n      sload\n      swap1\n      pop\n      dup3\n      jump\t// out\n        /* \"contracts/vcDORA.sol\":1733:1779  mapping(uint256 => int256) public slopeChanges */\n    tag_129:\n      mstore(0x20, 0x09)\n      dup1\n      0x00\n      mstore\n      keccak256(0x00, 0x40)\n      0x00\n      swap2\n      pop\n      swap1\n      pop\n      sload\n      dup2\n      jump\t// out\n        /* \"contracts/vcDORA.sol\":1353:1373  address public admin */\n    tag_133:\n      0x00\n      dup1\n      sload\n      swap1\n      0x0100\n      exp\n      swap1\n      div\n      0xffffffffffffffffffffffffffffffffffffffff\n      and\n      dup2\n      jump\t// out\n        /* \"contracts/vcDORA.sol\":1460:1478  ERC20 public token */\n    tag_137:\n      0x04\n      0x00\n      swap1\n      sload\n      swap1\n      0x0100\n      exp\n      swap1\n      div\n      0xffffffffffffffffffffffffffffffffffffffff\n      and\n      dup2\n      jump\t// out\n        /* \"contracts/vcDORA.sol\":5549:6797  function _depositFor(... */\n    tag_159:\n        /* \"contracts/vcDORA.sol\":5736:5754  uint256 prevSupply */\n      0x00\n        /* \"contracts/vcDORA.sol\":5757:5763  supply */\n      sload(0x05)\n        /* \"contracts/vcDORA.sol\":5736:5763  uint256 prevSupply = supply */\n      swap1\n      pop\n        /* \"contracts/vcDORA.sol\":5795:5801  _value */\n      dup5\n        /* \"contracts/vcDORA.sol\":5782:5792  prevSupply */\n      dup2\n        /* \"contracts/vcDORA.sol\":5782:5801  prevSupply + _value */\n      tag_296\n      swap2\n      swap1\n      tag_167\n      jump\t// in\n    tag_296:\n        /* \"contracts/vcDORA.sol\":5773:5779  supply */\n      0x05\n        /* \"contracts/vcDORA.sol\":5773:5801  supply = prevSupply + _value */\n      dup2\n      swap1\n      sstore\n      pop\n        /* \"contracts/vcDORA.sol\":5812:5826  uint256 amount */\n      0x00\n        /* \"contracts/vcDORA.sol\":5846:5852  _value */\n      dup6\n        /* \"contracts/vcDORA.sol\":5829:5836  _locked */\n      dup5\n        /* \"contracts/vcDORA.sol\":5829:5843  _locked.amount */\n      0x00\n      add\n      sload\n        /* \"contracts/vcDORA.sol\":5829:5852  _locked.amount + _value */\n      tag_297\n      swap2\n      swap1\n      tag_167\n      jump\t// in\n    tag_297:\n        /* \"contracts/vcDORA.sol\":5812:5852  uint256 amount = _locked.amount + _value */\n      swap1\n      pop\n        /* \"contracts/vcDORA.sol\":5862:5892  LockedBalance memory newLocked */\n      0x00\n        /* \"contracts/vcDORA.sol\":5895:5929  LockedBalance(amount, _unlockTime) */\n      mload(0x40)\n      dup1\n      0x40\n      add\n      0x40\n      mstore\n      dup1\n        /* \"contracts/vcDORA.sol\":5909:5915  amount */\n      dup4\n        /* \"contracts/vcDORA.sol\":5895:5929  LockedBalance(amount, _unlockTime) */\n      dup2\n      mstore\n      0x20\n      add\n        /* \"contracts/vcDORA.sol\":5917:5928  _unlockTime */\n      dup8\n        /* \"contracts/vcDORA.sol\":5895:5929  LockedBalance(amount, _unlockTime) */\n      dup2\n      mstore\n      pop\n        /* \"contracts/vcDORA.sol\":5862:5929  LockedBalance memory newLocked = LockedBalance(amount, _unlockTime) */\n      swap1\n      pop\n        /* \"contracts/vcDORA.sol\":5940:5982  _checkUserPoint(_user, _locked, newLocked) */\n      tag_298\n        /* \"contracts/vcDORA.sol\":5956:5961  _user */\n      dup9\n        /* \"contracts/vcDORA.sol\":5963:5970  _locked */\n      dup7\n        /* \"contracts/vcDORA.sol\":5972:5981  newLocked */\n      dup4\n        /* \"contracts/vcDORA.sol\":5940:5955  _checkUserPoint */\n      tag_194\n        /* \"contracts/vcDORA.sol\":5940:5982  _checkUserPoint(_user, _locked, newLocked) */\n      jump\t// in\n    tag_298:\n        /* \"contracts/vcDORA.sol\":6007:6008  0 */\n      0x00\n        /* \"contracts/vcDORA.sol\":5997:6003  _value */\n      dup8\n        /* \"contracts/vcDORA.sol\":5997:6008  _value != 0 */\n      eq\n        /* \"contracts/vcDORA.sol\":5993:6675  if (_value != 0) {... */\n      tag_299\n      jumpi\n        /* \"contracts/vcDORA.sol\":6488:6493  token */\n      0x04\n      0x00\n      swap1\n      sload\n      swap1\n      0x0100\n      exp\n      swap1\n      div\n      0xffffffffffffffffffffffffffffffffffffffff\n      and\n        /* \"contracts/vcDORA.sol\":6488:6506  token.transferFrom */\n      0xffffffffffffffffffffffffffffffffffffffff\n      and\n      0x23b872dd\n        /* \"contracts/vcDORA.sol\":6507:6517  msg.sender */\n      caller\n        /* \"contracts/vcDORA.sol\":6527:6531  this */\n      address\n        /* \"contracts/vcDORA.sol\":6534:6540  _value */\n      dup11\n        /* \"contracts/vcDORA.sol\":6488:6541  token.transferFrom(msg.sender, address(this), _value) */\n      mload(0x40)\n      dup5\n      0xffffffff\n      and\n      0xe0\n      shl\n      dup2\n      mstore\n      0x04\n      add\n      tag_300\n      swap4\n      swap3\n      swap2\n      swap1\n      tag_301\n      jump\t// in\n    tag_300:\n      0x20\n      mload(0x40)\n      dup1\n      dup4\n      sub\n      dup2\n      0x00\n      dup8\n      gas\n      call\n      iszero\n      dup1\n      iszero\n      tag_303\n      jumpi\n      returndatasize\n      0x00\n      dup1\n      returndatacopy\n      revert(0x00, returndatasize)\n    tag_303:\n      pop\n      pop\n      pop\n      pop\n      mload(0x40)\n      returndatasize\n      not(0x1f)\n      0x1f\n      dup3\n      add\n      and\n      dup3\n      add\n      dup1\n      0x40\n      mstore\n      pop\n      dup2\n      add\n      swap1\n      tag_304\n      swap2\n      swap1\n      tag_200\n      jump\t// in\n    tag_304:\n        /* \"contracts/vcDORA.sol\":6024:6664  require(... */\n      tag_305\n      jumpi\n      mload(0x40)\n      0x08c379a000000000000000000000000000000000000000000000000000000000\n      dup2\n      mstore\n      0x04\n      add\n      tag_306\n      swap1\n      tag_307\n      jump\t// in\n    tag_306:\n      mload(0x40)\n      dup1\n      swap2\n      sub\n      swap1\n      revert\n    tag_305:\n        /* \"contracts/vcDORA.sol\":5993:6675  if (_value != 0) {... */\n    tag_299:\n        /* \"contracts/vcDORA.sol\":6713:6724  _unlockTime */\n      dup6\n        /* \"contracts/vcDORA.sol\":6698:6703  _user */\n      dup9\n        /* \"contracts/vcDORA.sol\":6690:6749  Deposit(_user, amount, _unlockTime, _type, block.timestamp) */\n      0xffffffffffffffffffffffffffffffffffffffff\n      and\n      0xbe9cf0e939c614fad640a623a53ba0a807c8cb503c4c4c8dacabe27b86ff2dd5\n        /* \"contracts/vcDORA.sol\":6705:6711  amount */\n      dup5\n        /* \"contracts/vcDORA.sol\":6726:6731  _type */\n      dup8\n        /* \"contracts/vcDORA.sol\":6733:6748  block.timestamp */\n      timestamp\n        /* \"contracts/vcDORA.sol\":6690:6749  Deposit(_user, amount, _unlockTime, _type, block.timestamp) */\n      mload(0x40)\n      tag_308\n      swap4\n      swap3\n      swap2\n      swap1\n      tag_309\n      jump\t// in\n    tag_308:\n      mload(0x40)\n      dup1\n      swap2\n      sub\n      swap1\n      log3\n        /* \"contracts/vcDORA.sol\":6764:6790  Supply(prevSupply, supply) */\n      0x5e2aa66efd74cce82b21852e317e5490d9ecc9e6bb953ae24d90851258cc2f5c\n        /* \"contracts/vcDORA.sol\":6771:6781  prevSupply */\n      dup4\n        /* \"contracts/vcDORA.sol\":6783:6789  supply */\n      sload(0x05)\n        /* \"contracts/vcDORA.sol\":6764:6790  Supply(prevSupply, supply) */\n      mload(0x40)\n      tag_310\n      swap3\n      swap2\n      swap1\n      tag_126\n      jump\t// in\n    tag_310:\n      mload(0x40)\n      dup1\n      swap2\n      sub\n      swap1\n      log1\n        /* \"contracts/vcDORA.sol\":5726:6797  {... */\n      pop\n      pop\n      pop\n        /* \"contracts/vcDORA.sol\":5549:6797  function _depositFor(... */\n      pop\n      pop\n      pop\n      pop\n      pop\n      jump\t// out\n        /* \"contracts/vcDORA.sol\":12229:12874  function _supplyAt(Point storage _p, uint256 _ts)... */\n    tag_162:\n        /* \"contracts/vcDORA.sol\":12326:12333  uint256 */\n      0x00\n        /* \"contracts/vcDORA.sol\":12349:12360  int256 bias */\n      dup1\n        /* \"contracts/vcDORA.sol\":12363:12365  _p */\n      dup4\n        /* \"contracts/vcDORA.sol\":12363:12370  _p.bias */\n      0x00\n      add\n      sload\n        /* \"contracts/vcDORA.sol\":12349:12370  int256 bias = _p.bias */\n      swap1\n      pop\n        /* \"contracts/vcDORA.sol\":12380:12392  int256 slope */\n      0x00\n        /* \"contracts/vcDORA.sol\":12395:12397  _p */\n      dup5\n        /* \"contracts/vcDORA.sol\":12395:12403  _p.slope */\n      0x01\n      add\n      sload\n        /* \"contracts/vcDORA.sol\":12380:12403  int256 slope = _p.slope */\n      swap1\n      pop\n        /* \"contracts/vcDORA.sol\":12413:12423  uint256 ts */\n      0x00\n        /* \"contracts/vcDORA.sol\":12426:12428  _p */\n      dup6\n        /* \"contracts/vcDORA.sol\":12426:12431  _p.ts */\n      0x02\n      add\n      sload\n        /* \"contracts/vcDORA.sol\":12413:12431  uint256 ts = _p.ts */\n      swap1\n      pop\n        /* \"contracts/vcDORA.sol\":12442:12452  uint256 ti */\n      0x00\n        /* \"contracts/vcDORA.sol\":627:634  1 weeks */\n      0x093a80\n      dup1\n        /* \"contracts/vcDORA.sol\":12456:12458  ts */\n      dup4\n        /* \"contracts/vcDORA.sol\":12456:12465  ts / WEEK */\n      tag_312\n      swap2\n      swap1\n      tag_170\n      jump\t// in\n    tag_312:\n        /* \"contracts/vcDORA.sol\":12455:12473  (ts / WEEK) * WEEK */\n      tag_313\n      swap2\n      swap1\n      tag_165\n      jump\t// in\n    tag_313:\n        /* \"contracts/vcDORA.sol\":12442:12473  uint256 ti = (ts / WEEK) * WEEK */\n      swap1\n      pop\n        /* \"contracts/vcDORA.sol\":12488:12497  uint256 i */\n      0x00\n        /* \"contracts/vcDORA.sol\":12483:12837  for (uint256 i = 0; i < 255; i++) {... */\n    tag_314:\n        /* \"contracts/vcDORA.sol\":12507:12510  255 */\n      0xff\n        /* \"contracts/vcDORA.sol\":12503:12504  i */\n      dup2\n        /* \"contracts/vcDORA.sol\":12503:12510  i < 255 */\n      lt\n        /* \"contracts/vcDORA.sol\":12483:12837  for (uint256 i = 0; i < 255; i++) {... */\n      iszero\n      tag_315\n      jumpi\n        /* \"contracts/vcDORA.sol\":627:634  1 weeks */\n      0x093a80\n        /* \"contracts/vcDORA.sol\":12531:12541  ti += WEEK */\n      dup3\n      tag_317\n      swap2\n      swap1\n      tag_167\n      jump\t// in\n    tag_317:\n      swap2\n      pop\n        /* \"contracts/vcDORA.sol\":12564:12567  _ts */\n      dup7\n        /* \"contracts/vcDORA.sol\":12559:12561  ti */\n      dup3\n        /* \"contracts/vcDORA.sol\":12559:12567  ti > _ts */\n      gt\n        /* \"contracts/vcDORA.sol\":12555:12639  if (ti > _ts) {... */\n      iszero\n      tag_318\n      jumpi\n        /* \"contracts/vcDORA.sol\":12621:12624  _ts */\n      dup7\n        /* \"contracts/vcDORA.sol\":12616:12624  ti = _ts */\n      swap2\n      pop\n        /* \"contracts/vcDORA.sol\":12555:12639  if (ti > _ts) {... */\n    tag_318:\n        /* \"contracts/vcDORA.sol\":12689:12691  ts */\n      dup3\n        /* \"contracts/vcDORA.sol\":12676:12678  ti */\n      dup3\n        /* \"contracts/vcDORA.sol\":12669:12692  int256(ti) - int256(ts) */\n      tag_319\n      swap2\n      swap1\n      tag_320\n      jump\t// in\n    tag_319:\n        /* \"contracts/vcDORA.sol\":12660:12665  slope */\n      dup5\n        /* \"contracts/vcDORA.sol\":12660:12693  slope * (int256(ti) - int256(ts)) */\n      tag_321\n      swap2\n      swap1\n      tag_322\n      jump\t// in\n    tag_321:\n        /* \"contracts/vcDORA.sol\":12652:12693  bias -= slope * (int256(ti) - int256(ts)) */\n      dup6\n      tag_323\n      swap2\n      swap1\n      tag_320\n      jump\t// in\n    tag_323:\n      swap5\n      pop\n        /* \"contracts/vcDORA.sol\":12717:12720  _ts */\n      dup7\n        /* \"contracts/vcDORA.sol\":12711:12713  ti */\n      dup3\n        /* \"contracts/vcDORA.sol\":12711:12720  ti == _ts */\n      sub\n        /* \"contracts/vcDORA.sol\":12707:12760  if (ti == _ts) {... */\n      iszero\n        /* \"contracts/vcDORA.sol\":12740:12745  break */\n      tag_315\n        /* \"contracts/vcDORA.sol\":12707:12760  if (ti == _ts) {... */\n      jumpi\n        /* \"contracts/vcDORA.sol\":12782:12794  slopeChanges */\n      0x09\n        /* \"contracts/vcDORA.sol\":12782:12805  slopeChanges[ti / WEEK] */\n      0x00\n        /* \"contracts/vcDORA.sol\":627:634  1 weeks */\n      0x093a80\n        /* \"contracts/vcDORA.sol\":12795:12797  ti */\n      dup5\n        /* \"contracts/vcDORA.sol\":12795:12804  ti / WEEK */\n      tag_325\n      swap2\n      swap1\n      tag_170\n      jump\t// in\n    tag_325:\n        /* \"contracts/vcDORA.sol\":12782:12805  slopeChanges[ti / WEEK] */\n      dup2\n      mstore\n      0x20\n      add\n      swap1\n      dup2\n      mstore\n      0x20\n      add\n      0x00\n      keccak256\n      sload\n        /* \"contracts/vcDORA.sol\":12773:12805  slope += slopeChanges[ti / WEEK] */\n      dup5\n      tag_326\n      swap2\n      swap1\n      tag_327\n      jump\t// in\n    tag_326:\n      swap4\n      pop\n        /* \"contracts/vcDORA.sol\":12824:12826  ti */\n      dup2\n        /* \"contracts/vcDORA.sol\":12819:12826  ts = ti */\n      swap3\n      pop\n        /* \"contracts/vcDORA.sol\":12512:12515  i++ */\n      dup1\n      dup1\n      tag_328\n      swap1\n      tag_218\n      jump\t// in\n    tag_328:\n      swap2\n      pop\n      pop\n        /* \"contracts/vcDORA.sol\":12483:12837  for (uint256 i = 0; i < 255; i++) {... */\n      jump(tag_314)\n    tag_315:\n      pop\n        /* \"contracts/vcDORA.sol\":12862:12866  bias */\n      dup4\n        /* \"contracts/vcDORA.sol\":12847:12867  return uint256(bias) */\n      swap5\n      pop\n      pop\n      pop\n      pop\n      pop\n        /* \"contracts/vcDORA.sol\":12229:12874  function _supplyAt(Point storage _p, uint256 _ts)... */\n      swap3\n      swap2\n      pop\n      pop\n      jump\t// out\n        /* \"contracts/vcDORA.sol\":3885:5543  function _checkUserPoint(... */\n    tag_194:\n        /* \"contracts/vcDORA.sol\":4041:4063  Point storage pointNow */\n      0x00\n        /* \"contracts/vcDORA.sol\":4066:4079  _checkPoint() */\n      tag_330\n        /* \"contracts/vcDORA.sol\":4066:4077  _checkPoint */\n      tag_331\n        /* \"contracts/vcDORA.sol\":4066:4079  _checkPoint() */\n      jump\t// in\n    tag_330:\n        /* \"contracts/vcDORA.sol\":4041:4079  Point storage pointNow = _checkPoint() */\n      swap1\n      pop\n        /* \"contracts/vcDORA.sol\":4148:4156  pointNow */\n      dup1\n        /* \"contracts/vcDORA.sol\":4148:4159  pointNow.ts */\n      0x02\n      add\n      sload\n        /* \"contracts/vcDORA.sol\":4130:4145  block.timestamp */\n      timestamp\n        /* \"contracts/vcDORA.sol\":4130:4159  block.timestamp - pointNow.ts */\n      tag_332\n      swap2\n      swap1\n      tag_192\n      jump\t// in\n    tag_332:\n        /* \"contracts/vcDORA.sol\":4106:4114  pointNow */\n      dup2\n        /* \"contracts/vcDORA.sol\":4106:4120  pointNow.slope */\n      0x01\n      add\n      sload\n        /* \"contracts/vcDORA.sol\":4106:4160  pointNow.slope * int256(block.timestamp - pointNow.ts) */\n      tag_333\n      swap2\n      swap1\n      tag_322\n      jump\t// in\n    tag_333:\n        /* \"contracts/vcDORA.sol\":4089:4097  pointNow */\n      dup2\n        /* \"contracts/vcDORA.sol\":4089:4102  pointNow.bias */\n      0x00\n      add\n      0x00\n        /* \"contracts/vcDORA.sol\":4089:4160  pointNow.bias -= pointNow.slope * int256(block.timestamp - pointNow.ts) */\n      dup3\n      dup3\n      sload\n      tag_334\n      swap2\n      swap1\n      tag_320\n      jump\t// in\n    tag_334:\n      swap3\n      pop\n      pop\n      dup2\n      swap1\n      sstore\n      pop\n        /* \"contracts/vcDORA.sol\":4184:4199  block.timestamp */\n      timestamp\n        /* \"contracts/vcDORA.sol\":4170:4178  pointNow */\n      dup2\n        /* \"contracts/vcDORA.sol\":4170:4181  pointNow.ts */\n      0x02\n      add\n        /* \"contracts/vcDORA.sol\":4170:4199  pointNow.ts = block.timestamp */\n      dup2\n      swap1\n      sstore\n      pop\n        /* \"contracts/vcDORA.sol\":4523:4538  block.timestamp */\n      timestamp\n        /* \"contracts/vcDORA.sol\":4506:4516  _oldLocked */\n      dup4\n        /* \"contracts/vcDORA.sol\":4506:4520  _oldLocked.end */\n      0x01\n      add\n      sload\n        /* \"contracts/vcDORA.sol\":4506:4538  _oldLocked.end > block.timestamp */\n      gt\n        /* \"contracts/vcDORA.sol\":4502:4893  if (_oldLocked.end > block.timestamp) {... */\n      iszero\n      tag_335\n      jumpi\n        /* \"contracts/vcDORA.sol\":4590:4605  int256 oldSlope */\n      0x00\n        /* \"contracts/vcDORA.sol\":627:634  1 weeks */\n      0x093a80\n        /* \"contracts/vcDORA.sol\":675:678  208 */\n      0xd0\n        /* \"contracts/vcDORA.sol\":675:685  208 * WEEK */\n      tag_336\n      swap2\n      swap1\n      tag_165\n      jump\t// in\n    tag_336:\n        /* \"contracts/vcDORA.sol\":4615:4625  _oldLocked */\n      dup5\n        /* \"contracts/vcDORA.sol\":4615:4632  _oldLocked.amount */\n      0x00\n      add\n      sload\n        /* \"contracts/vcDORA.sol\":4615:4642  _oldLocked.amount / MAXTIME */\n      tag_337\n      swap2\n      swap1\n      tag_170\n      jump\t// in\n    tag_337:\n        /* \"contracts/vcDORA.sol\":4590:4643  int256 oldSlope = int256(_oldLocked.amount / MAXTIME) */\n      swap1\n      pop\n        /* \"contracts/vcDORA.sol\":4657:4671  int256 oldBias */\n      0x00\n        /* \"contracts/vcDORA.sol\":4725:4740  block.timestamp */\n      timestamp\n        /* \"contracts/vcDORA.sol\":4708:4718  _oldLocked */\n      dup6\n        /* \"contracts/vcDORA.sol\":4708:4722  _oldLocked.end */\n      0x01\n      add\n      sload\n        /* \"contracts/vcDORA.sol\":4708:4740  _oldLocked.end - block.timestamp */\n      tag_338\n      swap2\n      swap1\n      tag_192\n      jump\t// in\n    tag_338:\n        /* \"contracts/vcDORA.sol\":4674:4682  oldSlope */\n      dup3\n        /* \"contracts/vcDORA.sol\":4674:4741  oldSlope *... */\n      tag_339\n      swap2\n      swap1\n      tag_322\n      jump\t// in\n    tag_339:\n        /* \"contracts/vcDORA.sol\":4657:4741  int256 oldBias = oldSlope *... */\n      swap1\n      pop\n        /* \"contracts/vcDORA.sol\":4773:4780  oldBias */\n      dup1\n        /* \"contracts/vcDORA.sol\":4756:4764  pointNow */\n      dup4\n        /* \"contracts/vcDORA.sol\":4756:4769  pointNow.bias */\n      0x00\n      add\n      0x00\n        /* \"contracts/vcDORA.sol\":4756:4780  pointNow.bias -= oldBias */\n      dup3\n      dup3\n      sload\n      tag_340\n      swap2\n      swap1\n      tag_320\n      jump\t// in\n    tag_340:\n      swap3\n      pop\n      pop\n      dup2\n      swap1\n      sstore\n      pop\n        /* \"contracts/vcDORA.sol\":4812:4820  oldSlope */\n      dup2\n        /* \"contracts/vcDORA.sol\":4794:4802  pointNow */\n      dup4\n        /* \"contracts/vcDORA.sol\":4794:4808  pointNow.slope */\n      0x01\n      add\n      0x00\n        /* \"contracts/vcDORA.sol\":4794:4820  pointNow.slope -= oldSlope */\n      dup3\n      dup3\n      sload\n      tag_341\n      swap2\n      swap1\n      tag_320\n      jump\t// in\n    tag_341:\n      swap3\n      pop\n      pop\n      dup2\n      swap1\n      sstore\n      pop\n        /* \"contracts/vcDORA.sol\":4874:4882  oldSlope */\n      dup2\n        /* \"contracts/vcDORA.sol\":4835:4847  slopeChanges */\n      0x09\n        /* \"contracts/vcDORA.sol\":4835:4870  slopeChanges[_oldLocked.end / WEEK] */\n      0x00\n        /* \"contracts/vcDORA.sol\":627:634  1 weeks */\n      0x093a80\n        /* \"contracts/vcDORA.sol\":4848:4858  _oldLocked */\n      dup9\n        /* \"contracts/vcDORA.sol\":4848:4862  _oldLocked.end */\n      0x01\n      add\n      sload\n        /* \"contracts/vcDORA.sol\":4848:4869  _oldLocked.end / WEEK */\n      tag_342\n      swap2\n      swap1\n      tag_170\n      jump\t// in\n    tag_342:\n        /* \"contracts/vcDORA.sol\":4835:4870  slopeChanges[_oldLocked.end / WEEK] */\n      dup2\n      mstore\n      0x20\n      add\n      swap1\n      dup2\n      mstore\n      0x20\n      add\n      0x00\n      keccak256\n      0x00\n        /* \"contracts/vcDORA.sol\":4835:4882  slopeChanges[_oldLocked.end / WEEK] += oldSlope */\n      dup3\n      dup3\n      sload\n      tag_343\n      swap2\n      swap1\n      tag_327\n      jump\t// in\n    tag_343:\n      swap3\n      pop\n      pop\n      dup2\n      swap1\n      sstore\n      pop\n        /* \"contracts/vcDORA.sol\":4540:4893  {... */\n      pop\n      pop\n        /* \"contracts/vcDORA.sol\":4502:4893  if (_oldLocked.end > block.timestamp) {... */\n    tag_335:\n        /* \"contracts/vcDORA.sol\":4903:4918  int256 newSlope */\n      0x00\n        /* \"contracts/vcDORA.sol\":4928:4942  int256 newBias */\n      dup1\n        /* \"contracts/vcDORA.sol\":4973:4988  block.timestamp */\n      timestamp\n        /* \"contracts/vcDORA.sol\":4956:4966  _newLocked */\n      dup5\n        /* \"contracts/vcDORA.sol\":4956:4970  _newLocked.end */\n      0x20\n      add\n      mload\n        /* \"contracts/vcDORA.sol\":4956:4988  _newLocked.end > block.timestamp */\n      gt\n        /* \"contracts/vcDORA.sol\":4952:5277  if (_newLocked.end > block.timestamp) {... */\n      iszero\n      tag_344\n      jumpi\n        /* \"contracts/vcDORA.sol\":627:634  1 weeks */\n      0x093a80\n        /* \"contracts/vcDORA.sol\":675:678  208 */\n      0xd0\n        /* \"contracts/vcDORA.sol\":675:685  208 * WEEK */\n      tag_345\n      swap2\n      swap1\n      tag_165\n      jump\t// in\n    tag_345:\n        /* \"contracts/vcDORA.sol\":5022:5032  _newLocked */\n      dup5\n        /* \"contracts/vcDORA.sol\":5022:5039  _newLocked.amount */\n      0x00\n      add\n      mload\n        /* \"contracts/vcDORA.sol\":5022:5049  _newLocked.amount / MAXTIME */\n      tag_346\n      swap2\n      swap1\n      tag_170\n      jump\t// in\n    tag_346:\n        /* \"contracts/vcDORA.sol\":5004:5050  newSlope = int256(_newLocked.amount / MAXTIME) */\n      swap2\n      pop\n        /* \"contracts/vcDORA.sol\":5109:5124  block.timestamp */\n      timestamp\n        /* \"contracts/vcDORA.sol\":5092:5102  _newLocked */\n      dup5\n        /* \"contracts/vcDORA.sol\":5092:5106  _newLocked.end */\n      0x20\n      add\n      mload\n        /* \"contracts/vcDORA.sol\":5092:5124  _newLocked.end - block.timestamp */\n      tag_347\n      swap2\n      swap1\n      tag_192\n      jump\t// in\n    tag_347:\n        /* \"contracts/vcDORA.sol\":5074:5082  newSlope */\n      dup3\n        /* \"contracts/vcDORA.sol\":5074:5125  newSlope * int256(_newLocked.end - block.timestamp) */\n      tag_348\n      swap2\n      swap1\n      tag_322\n      jump\t// in\n    tag_348:\n        /* \"contracts/vcDORA.sol\":5064:5125  newBias = newSlope * int256(_newLocked.end - block.timestamp) */\n      swap1\n      pop\n        /* \"contracts/vcDORA.sol\":5157:5164  newBias */\n      dup1\n        /* \"contracts/vcDORA.sol\":5140:5148  pointNow */\n      dup4\n        /* \"contracts/vcDORA.sol\":5140:5153  pointNow.bias */\n      0x00\n      add\n      0x00\n        /* \"contracts/vcDORA.sol\":5140:5164  pointNow.bias += newBias */\n      dup3\n      dup3\n      sload\n      tag_349\n      swap2\n      swap1\n      tag_327\n      jump\t// in\n    tag_349:\n      swap3\n      pop\n      pop\n      dup2\n      swap1\n      sstore\n      pop\n        /* \"contracts/vcDORA.sol\":5196:5204  newSlope */\n      dup2\n        /* \"contracts/vcDORA.sol\":5178:5186  pointNow */\n      dup4\n        /* \"contracts/vcDORA.sol\":5178:5192  pointNow.slope */\n      0x01\n      add\n      0x00\n        /* \"contracts/vcDORA.sol\":5178:5204  pointNow.slope += newSlope */\n      dup3\n      dup3\n      sload\n      tag_350\n      swap2\n      swap1\n      tag_327\n      jump\t// in\n    tag_350:\n      swap3\n      pop\n      pop\n      dup2\n      swap1\n      sstore\n      pop\n        /* \"contracts/vcDORA.sol\":5258:5266  newSlope */\n      dup2\n        /* \"contracts/vcDORA.sol\":5219:5231  slopeChanges */\n      0x09\n        /* \"contracts/vcDORA.sol\":5219:5254  slopeChanges[_newLocked.end / WEEK] */\n      0x00\n        /* \"contracts/vcDORA.sol\":627:634  1 weeks */\n      0x093a80\n        /* \"contracts/vcDORA.sol\":5232:5242  _newLocked */\n      dup8\n        /* \"contracts/vcDORA.sol\":5232:5246  _newLocked.end */\n      0x20\n      add\n      mload\n        /* \"contracts/vcDORA.sol\":5232:5253  _newLocked.end / WEEK */\n      tag_351\n      swap2\n      swap1\n      tag_170\n      jump\t// in\n    tag_351:\n        /* \"contracts/vcDORA.sol\":5219:5254  slopeChanges[_newLocked.end / WEEK] */\n      dup2\n      mstore\n      0x20\n      add\n      swap1\n      dup2\n      mstore\n      0x20\n      add\n      0x00\n      keccak256\n      0x00\n        /* \"contracts/vcDORA.sol\":5219:5266  slopeChanges[_newLocked.end / WEEK] -= newSlope */\n      dup3\n      dup3\n      sload\n      tag_352\n      swap2\n      swap1\n      tag_320\n      jump\t// in\n    tag_352:\n      swap3\n      pop\n      pop\n      dup2\n      swap1\n      sstore\n      pop\n        /* \"contracts/vcDORA.sol\":4952:5277  if (_newLocked.end > block.timestamp) {... */\n    tag_344:\n        /* \"contracts/vcDORA.sol\":5303:5313  _newLocked */\n      dup4\n        /* \"contracts/vcDORA.sol\":5287:5293  locked */\n      0x06\n        /* \"contracts/vcDORA.sol\":5287:5300  locked[_user] */\n      0x00\n        /* \"contracts/vcDORA.sol\":5294:5299  _user */\n      dup9\n        /* \"contracts/vcDORA.sol\":5287:5300  locked[_user] */\n      0xffffffffffffffffffffffffffffffffffffffff\n      and\n      0xffffffffffffffffffffffffffffffffffffffff\n      and\n      dup2\n      mstore\n      0x20\n      add\n      swap1\n      dup2\n      mstore\n      0x20\n      add\n      0x00\n      keccak256\n        /* \"contracts/vcDORA.sol\":5287:5313  locked[_user] = _newLocked */\n      0x00\n      dup3\n      add\n      mload\n      dup2\n      0x00\n      add\n      sstore\n      0x20\n      dup3\n      add\n      mload\n      dup2\n      0x01\n      add\n      sstore\n      swap1\n      pop\n      pop\n        /* \"contracts/vcDORA.sol\":5323:5337  uint256 uEpoch */\n      0x00\n        /* \"contracts/vcDORA.sol\":5364:5365  1 */\n      0x01\n        /* \"contracts/vcDORA.sol\":5340:5354  userPointEpoch */\n      0x0b\n        /* \"contracts/vcDORA.sol\":5340:5361  userPointEpoch[_user] */\n      0x00\n        /* \"contracts/vcDORA.sol\":5355:5360  _user */\n      dup10\n        /* \"contracts/vcDORA.sol\":5340:5361  userPointEpoch[_user] */\n      0xffffffffffffffffffffffffffffffffffffffff\n      and\n      0xffffffffffffffffffffffffffffffffffffffff\n      and\n      dup2\n      mstore\n      0x20\n      add\n      swap1\n      dup2\n      mstore\n      0x20\n      add\n      0x00\n      keccak256\n      sload\n        /* \"contracts/vcDORA.sol\":5340:5365  userPointEpoch[_user] + 1 */\n      tag_353\n      swap2\n      swap1\n      tag_167\n      jump\t// in\n    tag_353:\n        /* \"contracts/vcDORA.sol\":5323:5365  uint256 uEpoch = userPointEpoch[_user] + 1 */\n      swap1\n      pop\n        /* \"contracts/vcDORA.sol\":5399:5405  uEpoch */\n      dup1\n        /* \"contracts/vcDORA.sol\":5375:5389  userPointEpoch */\n      0x0b\n        /* \"contracts/vcDORA.sol\":5375:5396  userPointEpoch[_user] */\n      0x00\n        /* \"contracts/vcDORA.sol\":5390:5395  _user */\n      dup10\n        /* \"contracts/vcDORA.sol\":5375:5396  userPointEpoch[_user] */\n      0xffffffffffffffffffffffffffffffffffffffff\n      and\n      0xffffffffffffffffffffffffffffffffffffffff\n      and\n      dup2\n      mstore\n      0x20\n      add\n      swap1\n      dup2\n      mstore\n      0x20\n      add\n      0x00\n      keccak256\n        /* \"contracts/vcDORA.sol\":5375:5405  userPointEpoch[_user] = uEpoch */\n      dup2\n      swap1\n      sstore\n      pop\n        /* \"contracts/vcDORA.sol\":5449:5536  Point(... */\n      mload(0x40)\n      dup1\n      0x60\n      add\n      0x40\n      mstore\n      dup1\n        /* \"contracts/vcDORA.sol\":5468:5475  newBias */\n      dup4\n        /* \"contracts/vcDORA.sol\":5449:5536  Point(... */\n      dup2\n      mstore\n      0x20\n      add\n        /* \"contracts/vcDORA.sol\":5489:5497  newSlope */\n      dup5\n        /* \"contracts/vcDORA.sol\":5449:5536  Point(... */\n      dup2\n      mstore\n      0x20\n      add\n        /* \"contracts/vcDORA.sol\":5511:5526  block.timestamp */\n      timestamp\n        /* \"contracts/vcDORA.sol\":5449:5536  Point(... */\n      dup2\n      mstore\n      pop\n        /* \"contracts/vcDORA.sol\":5415:5431  userPointHistory */\n      0x0a\n        /* \"contracts/vcDORA.sol\":5415:5438  userPointHistory[_user] */\n      0x00\n        /* \"contracts/vcDORA.sol\":5432:5437  _user */\n      dup10\n        /* \"contracts/vcDORA.sol\":5415:5438  userPointHistory[_user] */\n      0xffffffffffffffffffffffffffffffffffffffff\n      and\n      0xffffffffffffffffffffffffffffffffffffffff\n      and\n      dup2\n      mstore\n      0x20\n      add\n      swap1\n      dup2\n      mstore\n      0x20\n      add\n      0x00\n      keccak256\n        /* \"contracts/vcDORA.sol\":5415:5446  userPointHistory[_user][uEpoch] */\n      0x00\n        /* \"contracts/vcDORA.sol\":5439:5445  uEpoch */\n      dup4\n        /* \"contracts/vcDORA.sol\":5415:5446  userPointHistory[_user][uEpoch] */\n      dup2\n      mstore\n      0x20\n      add\n      swap1\n      dup2\n      mstore\n      0x20\n      add\n      0x00\n      keccak256\n        /* \"contracts/vcDORA.sol\":5415:5536  userPointHistory[_user][uEpoch] = Point(... */\n      0x00\n      dup3\n      add\n      mload\n      dup2\n      0x00\n      add\n      sstore\n      0x20\n      dup3\n      add\n      mload\n      dup2\n      0x01\n      add\n      sstore\n      0x40\n      dup3\n      add\n      mload\n      dup2\n      0x02\n      add\n      sstore\n      swap1\n      pop\n      pop\n        /* \"contracts/vcDORA.sol\":4031:5543  {... */\n      pop\n      pop\n      pop\n      pop\n        /* \"contracts/vcDORA.sol\":3885:5543  function _checkUserPoint(... */\n      pop\n      pop\n      pop\n      jump\t// out\n        /* \"contracts/vcDORA.sol\":2775:3070  function _posInterpolation(Point storage _p, uint256 _t)... */\n    tag_221:\n        /* \"contracts/vcDORA.sol\":2879:2886  uint256 */\n      0x00\n        /* \"contracts/vcDORA.sol\":2902:2910  int256 v */\n      dup1\n        /* \"contracts/vcDORA.sol\":2955:2957  _p */\n      dup4\n        /* \"contracts/vcDORA.sol\":2955:2960  _p.ts */\n      0x02\n      add\n      sload\n        /* \"contracts/vcDORA.sol\":2942:2944  _t */\n      dup4\n        /* \"contracts/vcDORA.sol\":2935:2961  int256(_t) - int256(_p.ts) */\n      tag_355\n      swap2\n      swap1\n      tag_320\n      jump\t// in\n    tag_355:\n        /* \"contracts/vcDORA.sol\":2923:2925  _p */\n      dup5\n        /* \"contracts/vcDORA.sol\":2923:2931  _p.slope */\n      0x01\n      add\n      sload\n        /* \"contracts/vcDORA.sol\":2923:2962  _p.slope * (int256(_t) - int256(_p.ts)) */\n      tag_356\n      swap2\n      swap1\n      tag_322\n      jump\t// in\n    tag_356:\n        /* \"contracts/vcDORA.sol\":2913:2915  _p */\n      dup5\n        /* \"contracts/vcDORA.sol\":2913:2920  _p.bias */\n      0x00\n      add\n      sload\n        /* \"contracts/vcDORA.sol\":2913:2962  _p.bias - _p.slope * (int256(_t) - int256(_p.ts)) */\n      tag_357\n      swap2\n      swap1\n      tag_320\n      jump\t// in\n    tag_357:\n        /* \"contracts/vcDORA.sol\":2902:2962  int256 v = _p.bias - _p.slope * (int256(_t) - int256(_p.ts)) */\n      swap1\n      pop\n        /* \"contracts/vcDORA.sol\":2980:2981  0 */\n      0x00\n        /* \"contracts/vcDORA.sol\":2976:2977  v */\n      dup2\n        /* \"contracts/vcDORA.sol\":2976:2981  v < 0 */\n      slt\n        /* \"contracts/vcDORA.sol\":2972:3064  if (v < 0) {... */\n      iszero\n      tag_358\n      jumpi\n        /* \"contracts/vcDORA.sol\":3004:3005  0 */\n      0x00\n        /* \"contracts/vcDORA.sol\":2997:3005  return 0 */\n      swap2\n      pop\n      pop\n      jump(tag_354)\n        /* \"contracts/vcDORA.sol\":2972:3064  if (v < 0) {... */\n    tag_358:\n        /* \"contracts/vcDORA.sol\":3051:3052  v */\n      dup1\n        /* \"contracts/vcDORA.sol\":3036:3053  return uint256(v) */\n      swap2\n      pop\n      pop\n        /* \"contracts/vcDORA.sol\":2775:3070  function _posInterpolation(Point storage _p, uint256 _t)... */\n    tag_354:\n      swap3\n      swap2\n      pop\n      pop\n      jump\t// out\n        /* \"contracts/vcDORA.sol\":91:279  function isNotContract(address addr) internal view returns (bool) {... */\n    tag_278:\n        /* \"contracts/vcDORA.sol\":151:155  bool */\n      0x00\n        /* \"contracts/vcDORA.sol\":167:179  uint256 size */\n      dup1\n        /* \"contracts/vcDORA.sol\":232:236  addr */\n      dup3\n        /* \"contracts/vcDORA.sol\":220:237  extcodesize(addr) */\n      extcodesize\n        /* \"contracts/vcDORA.sol\":212:237  size := extcodesize(addr) */\n      swap1\n      pop\n        /* \"contracts/vcDORA.sol\":271:272  0 */\n      0x00\n        /* \"contracts/vcDORA.sol\":263:267  size */\n      dup2\n        /* \"contracts/vcDORA.sol\":263:272  size == 0 */\n      eq\n        /* \"contracts/vcDORA.sol\":256:272  return size == 0 */\n      swap2\n      pop\n      pop\n        /* \"contracts/vcDORA.sol\":91:279  function isNotContract(address addr) internal view returns (bool) {... */\n      swap2\n      swap1\n      pop\n      jump\t// out\n        /* \"contracts/vcDORA.sol\":3076:3879  function _checkPoint() internal returns (Point storage pointNow) {... */\n    tag_331:\n        /* \"contracts/vcDORA.sol\":3117:3139  Point storage pointNow */\n      0x00\n        /* \"contracts/vcDORA.sol\":3151:3174  Point storage lastPoint */\n      dup1\n        /* \"contracts/vcDORA.sol\":3177:3189  pointHistory */\n      0x08\n        /* \"contracts/vcDORA.sol\":3177:3196  pointHistory[epoch] */\n      0x00\n        /* \"contracts/vcDORA.sol\":3190:3195  epoch */\n      sload(0x07)\n        /* \"contracts/vcDORA.sol\":3177:3196  pointHistory[epoch] */\n      dup2\n      mstore\n      0x20\n      add\n      swap1\n      dup2\n      mstore\n      0x20\n      add\n      0x00\n      keccak256\n        /* \"contracts/vcDORA.sol\":3151:3196  Point storage lastPoint = pointHistory[epoch] */\n      swap1\n      pop\n        /* \"contracts/vcDORA.sol\":3207:3226  uint256 latestEpoch */\n      0x00\n        /* \"contracts/vcDORA.sol\":627:634  1 weeks */\n      0x093a80\n        /* \"contracts/vcDORA.sol\":3229:3244  block.timestamp */\n      timestamp\n        /* \"contracts/vcDORA.sol\":3229:3251  block.timestamp / WEEK */\n      tag_362\n      swap2\n      swap1\n      tag_170\n      jump\t// in\n    tag_362:\n        /* \"contracts/vcDORA.sol\":3207:3251  uint256 latestEpoch = block.timestamp / WEEK */\n      swap1\n      pop\n        /* \"contracts/vcDORA.sol\":3267:3276  uint256 i */\n      0x00\n        /* \"contracts/vcDORA.sol\":3262:3846  for (uint256 i = 0; i < 255; i++) {... */\n    tag_363:\n        /* \"contracts/vcDORA.sol\":3286:3289  255 */\n      0xff\n        /* \"contracts/vcDORA.sol\":3282:3283  i */\n      dup2\n        /* \"contracts/vcDORA.sol\":3282:3289  i < 255 */\n      lt\n        /* \"contracts/vcDORA.sol\":3262:3846  for (uint256 i = 0; i < 255; i++) {... */\n      iszero\n      tag_364\n      jumpi\n        /* \"contracts/vcDORA.sol\":3323:3334  latestEpoch */\n      dup2\n        /* \"contracts/vcDORA.sol\":3314:3319  epoch */\n      sload(0x07)\n        /* \"contracts/vcDORA.sol\":3314:3334  epoch >= latestEpoch */\n      lt\n        /* \"contracts/vcDORA.sol\":3310:3421  if (epoch >= latestEpoch) {... */\n      iszero\n        /* \"contracts/vcDORA.sol\":3401:3406  break */\n      tag_364\n        /* \"contracts/vcDORA.sol\":3310:3421  if (epoch >= latestEpoch) {... */\n      jumpi\n        /* \"contracts/vcDORA.sol\":3434:3439  epoch */\n      0x07\n      0x00\n        /* \"contracts/vcDORA.sol\":3434:3441  epoch++ */\n      dup2\n      sload\n      dup1\n      swap3\n      swap2\n      swap1\n      tag_367\n      swap1\n      tag_218\n      jump\t// in\n    tag_367:\n      swap2\n      swap1\n      pop\n      sstore\n      pop\n        /* \"contracts/vcDORA.sol\":3456:3471  int256 prevBias */\n      0x00\n        /* \"contracts/vcDORA.sol\":3474:3483  lastPoint */\n      dup4\n        /* \"contracts/vcDORA.sol\":3474:3488  lastPoint.bias */\n      0x00\n      add\n      sload\n        /* \"contracts/vcDORA.sol\":3456:3488  int256 prevBias = lastPoint.bias */\n      swap1\n      pop\n        /* \"contracts/vcDORA.sol\":3502:3518  int256 prevSlope */\n      0x00\n        /* \"contracts/vcDORA.sol\":3521:3530  lastPoint */\n      dup5\n        /* \"contracts/vcDORA.sol\":3521:3536  lastPoint.slope */\n      0x01\n      add\n      sload\n        /* \"contracts/vcDORA.sol\":3502:3536  int256 prevSlope = lastPoint.slope */\n      swap1\n      pop\n        /* \"contracts/vcDORA.sol\":3551:3564  uint256 newTs */\n      0x00\n        /* \"contracts/vcDORA.sol\":627:634  1 weeks */\n      0x093a80\n        /* \"contracts/vcDORA.sol\":3567:3572  epoch */\n      sload(0x07)\n        /* \"contracts/vcDORA.sol\":3567:3579  epoch * WEEK */\n      tag_368\n      swap2\n      swap1\n      tag_165\n      jump\t// in\n    tag_368:\n        /* \"contracts/vcDORA.sol\":3551:3579  uint256 newTs = epoch * WEEK */\n      swap1\n      pop\n        /* \"contracts/vcDORA.sol\":3593:3604  uint256 dTs */\n      0x00\n        /* \"contracts/vcDORA.sol\":3615:3624  lastPoint */\n      dup7\n        /* \"contracts/vcDORA.sol\":3615:3627  lastPoint.ts */\n      0x02\n      add\n      sload\n        /* \"contracts/vcDORA.sol\":3607:3612  newTs */\n      dup3\n        /* \"contracts/vcDORA.sol\":3607:3627  newTs - lastPoint.ts */\n      tag_369\n      swap2\n      swap1\n      tag_192\n      jump\t// in\n    tag_369:\n        /* \"contracts/vcDORA.sol\":3593:3627  uint256 dTs = newTs - lastPoint.ts */\n      swap1\n      pop\n        /* \"contracts/vcDORA.sol\":3654:3666  pointHistory */\n      0x08\n        /* \"contracts/vcDORA.sol\":3654:3673  pointHistory[epoch] */\n      0x00\n        /* \"contracts/vcDORA.sol\":3667:3672  epoch */\n      sload(0x07)\n        /* \"contracts/vcDORA.sol\":3654:3673  pointHistory[epoch] */\n      dup2\n      mstore\n      0x20\n      add\n      swap1\n      dup2\n      mstore\n      0x20\n      add\n      0x00\n      keccak256\n        /* \"contracts/vcDORA.sol\":3642:3673  lastPoint = pointHistory[epoch] */\n      swap7\n      pop\n        /* \"contracts/vcDORA.sol\":3734:3737  dTs */\n      dup1\n        /* \"contracts/vcDORA.sol\":3715:3724  prevSlope */\n      dup4\n        /* \"contracts/vcDORA.sol\":3715:3738  prevSlope * int256(dTs) */\n      tag_370\n      swap2\n      swap1\n      tag_322\n      jump\t// in\n    tag_370:\n        /* \"contracts/vcDORA.sol\":3704:3712  prevBias */\n      dup5\n        /* \"contracts/vcDORA.sol\":3704:3738  prevBias - prevSlope * int256(dTs) */\n      tag_371\n      swap2\n      swap1\n      tag_320\n      jump\t// in\n    tag_371:\n        /* \"contracts/vcDORA.sol\":3687:3696  lastPoint */\n      dup8\n        /* \"contracts/vcDORA.sol\":3687:3701  lastPoint.bias */\n      0x00\n      add\n        /* \"contracts/vcDORA.sol\":3687:3738  lastPoint.bias = prevBias - prevSlope * int256(dTs) */\n      dup2\n      swap1\n      sstore\n      pop\n        /* \"contracts/vcDORA.sol\":3782:3794  slopeChanges */\n      0x09\n        /* \"contracts/vcDORA.sol\":3782:3801  slopeChanges[epoch] */\n      0x00\n        /* \"contracts/vcDORA.sol\":3795:3800  epoch */\n      sload(0x07)\n        /* \"contracts/vcDORA.sol\":3782:3801  slopeChanges[epoch] */\n      dup2\n      mstore\n      0x20\n      add\n      swap1\n      dup2\n      mstore\n      0x20\n      add\n      0x00\n      keccak256\n      sload\n        /* \"contracts/vcDORA.sol\":3770:3779  prevSlope */\n      dup4\n        /* \"contracts/vcDORA.sol\":3770:3801  prevSlope + slopeChanges[epoch] */\n      tag_372\n      swap2\n      swap1\n      tag_327\n      jump\t// in\n    tag_372:\n        /* \"contracts/vcDORA.sol\":3752:3761  lastPoint */\n      dup8\n        /* \"contracts/vcDORA.sol\":3752:3767  lastPoint.slope */\n      0x01\n      add\n        /* \"contracts/vcDORA.sol\":3752:3801  lastPoint.slope = prevSlope + slopeChanges[epoch] */\n      dup2\n      swap1\n      sstore\n      pop\n        /* \"contracts/vcDORA.sol\":3830:3835  newTs */\n      dup2\n        /* \"contracts/vcDORA.sol\":3815:3824  lastPoint */\n      dup8\n        /* \"contracts/vcDORA.sol\":3815:3827  lastPoint.ts */\n      0x02\n      add\n        /* \"contracts/vcDORA.sol\":3815:3835  lastPoint.ts = newTs */\n      dup2\n      swap1\n      sstore\n      pop\n        /* \"contracts/vcDORA.sol\":3296:3846  {... */\n      pop\n      pop\n      pop\n      pop\n        /* \"contracts/vcDORA.sol\":3291:3294  i++ */\n      dup1\n      dup1\n      tag_373\n      swap1\n      tag_218\n      jump\t// in\n    tag_373:\n      swap2\n      pop\n      pop\n        /* \"contracts/vcDORA.sol\":3262:3846  for (uint256 i = 0; i < 255; i++) {... */\n      jump(tag_363)\n    tag_364:\n      pop\n        /* \"contracts/vcDORA.sol\":3863:3872  lastPoint */\n      dup2\n        /* \"contracts/vcDORA.sol\":3856:3872  return lastPoint */\n      swap3\n      pop\n      pop\n      pop\n        /* \"contracts/vcDORA.sol\":3076:3879  function _checkPoint() internal returns (Point storage pointNow) {... */\n      swap1\n      jump\t// out\n    tag_271:\n      dup3\n      dup1\n      sload\n      tag_374\n      swap1\n      tag_141\n      jump\t// in\n    tag_374:\n      swap1\n      0x00\n      mstore\n      keccak256(0x00, 0x20)\n      swap1\n      0x1f\n      add\n      0x20\n      swap1\n      div\n      dup2\n      add\n      swap3\n      dup3\n      tag_376\n      jumpi\n      0x00\n      dup6\n      sstore\n      jump(tag_375)\n    tag_376:\n      dup3\n      0x1f\n      lt\n      tag_377\n      jumpi\n      dup1\n      mload\n      not(0xff)\n      and\n      dup4\n      dup1\n      add\n      or\n      dup6\n      sstore\n      jump(tag_375)\n    tag_377:\n      dup3\n      dup1\n      add\n      0x01\n      add\n      dup6\n      sstore\n      dup3\n      iszero\n      tag_375\n      jumpi\n      swap2\n      dup3\n      add\n    tag_378:\n      dup3\n      dup2\n      gt\n      iszero\n      tag_379\n      jumpi\n      dup3\n      mload\n      dup3\n      sstore\n      swap2\n      0x20\n      add\n      swap2\n      swap1\n      0x01\n      add\n      swap1\n      jump(tag_378)\n    tag_379:\n    tag_375:\n      pop\n      swap1\n      pop\n      tag_380\n      swap2\n      swap1\n      tag_381\n      jump\t// in\n    tag_380:\n      pop\n      swap1\n      jump\t// out\n    tag_381:\n    tag_382:\n      dup1\n      dup3\n      gt\n      iszero\n      tag_383\n      jumpi\n      0x00\n      dup2\n      0x00\n      swap1\n      sstore\n      pop\n      0x01\n      add\n      jump(tag_382)\n    tag_383:\n      pop\n      swap1\n      jump\t// out\n        /* \"#utility.yul\":7:84   */\n    tag_384:\n        /* \"#utility.yul\":44:51   */\n      0x00\n        /* \"#utility.yul\":73:78   */\n      dup2\n        /* \"#utility.yul\":62:78   */\n      swap1\n      pop\n        /* \"#utility.yul\":7:84   */\n      swap2\n      swap1\n      pop\n      jump\t// out\n        /* \"#utility.yul\":90:208   */\n    tag_385:\n        /* \"#utility.yul\":177:201   */\n      tag_453\n        /* \"#utility.yul\":195:200   */\n      dup2\n        /* \"#utility.yul\":177:201   */\n      tag_384\n      jump\t// in\n    tag_453:\n        /* \"#utility.yul\":172:175   */\n      dup3\n        /* \"#utility.yul\":165:202   */\n      mstore\n        /* \"#utility.yul\":90:208   */\n      pop\n      pop\n      jump\t// out\n        /* \"#utility.yul\":214:436   */\n    tag_39:\n        /* \"#utility.yul\":307:311   */\n      0x00\n        /* \"#utility.yul\":345:347   */\n      0x20\n        /* \"#utility.yul\":334:343   */\n      dup3\n        /* \"#utility.yul\":330:348   */\n      add\n        /* \"#utility.yul\":322:348   */\n      swap1\n      pop\n        /* \"#utility.yul\":358:429   */\n      tag_455\n        /* \"#utility.yul\":426:427   */\n      0x00\n        /* \"#utility.yul\":415:424   */\n      dup4\n        /* \"#utility.yul\":411:428   */\n      add\n        /* \"#utility.yul\":402:408   */\n      dup5\n        /* \"#utility.yul\":358:429   */\n      tag_385\n      jump\t// in\n    tag_455:\n        /* \"#utility.yul\":214:436   */\n      swap3\n      swap2\n      pop\n      pop\n      jump\t// out\n        /* \"#utility.yul\":442:541   */\n    tag_386:\n        /* \"#utility.yul\":494:500   */\n      0x00\n        /* \"#utility.yul\":528:533   */\n      dup2\n        /* \"#utility.yul\":522:534   */\n      mload\n        /* \"#utility.yul\":512:534   */\n      swap1\n      pop\n        /* \"#utility.yul\":442:541   */\n      swap2\n      swap1\n      pop\n      jump\t// out\n        /* \"#utility.yul\":547:716   */\n    tag_387:\n        /* \"#utility.yul\":631:642   */\n      0x00\n        /* \"#utility.yul\":665:671   */\n      dup3\n        /* \"#utility.yul\":660:663   */\n      dup3\n        /* \"#utility.yul\":653:672   */\n      mstore\n        /* \"#utility.yul\":705:709   */\n      0x20\n        /* \"#utility.yul\":700:703   */\n      dup3\n        /* \"#utility.yul\":696:710   */\n      add\n        /* \"#utility.yul\":681:710   */\n      swap1\n      pop\n        /* \"#utility.yul\":547:716   */\n      swap3\n      swap2\n      pop\n      pop\n      jump\t// out\n        /* \"#utility.yul\":722:1029   */\n    tag_388:\n        /* \"#utility.yul\":790:791   */\n      0x00\n        /* \"#utility.yul\":800:913   */\n    tag_459:\n        /* \"#utility.yul\":814:820   */\n      dup4\n        /* \"#utility.yul\":811:812   */\n      dup2\n        /* \"#utility.yul\":808:821   */\n      lt\n        /* \"#utility.yul\":800:913   */\n      iszero\n      tag_461\n      jumpi\n        /* \"#utility.yul\":899:900   */\n      dup1\n        /* \"#utility.yul\":894:897   */\n      dup3\n        /* \"#utility.yul\":890:901   */\n      add\n        /* \"#utility.yul\":884:902   */\n      mload\n        /* \"#utility.yul\":880:881   */\n      dup2\n        /* \"#utility.yul\":875:878   */\n      dup5\n        /* \"#utility.yul\":871:882   */\n      add\n        /* \"#utility.yul\":864:903   */\n      mstore\n        /* \"#utility.yul\":836:838   */\n      0x20\n        /* \"#utility.yul\":833:834   */\n      dup2\n        /* \"#utility.yul\":829:839   */\n      add\n        /* \"#utility.yul\":824:839   */\n      swap1\n      pop\n        /* \"#utility.yul\":800:913   */\n      jump(tag_459)\n    tag_461:\n        /* \"#utility.yul\":931:937   */\n      dup4\n        /* \"#utility.yul\":928:929   */\n      dup2\n        /* \"#utility.yul\":925:938   */\n      gt\n        /* \"#utility.yul\":922:1023   */\n      iszero\n      tag_462\n      jumpi\n        /* \"#utility.yul\":1011:1012   */\n      0x00\n        /* \"#utility.yul\":1002:1008   */\n      dup5\n        /* \"#utility.yul\":997:1000   */\n      dup5\n        /* \"#utility.yul\":993:1009   */\n      add\n        /* \"#utility.yul\":986:1013   */\n      mstore\n        /* \"#utility.yul\":922:1023   */\n    tag_462:\n        /* \"#utility.yul\":771:1029   */\n      pop\n        /* \"#utility.yul\":722:1029   */\n      pop\n      pop\n      pop\n      jump\t// out\n        /* \"#utility.yul\":1035:1137   */\n    tag_389:\n        /* \"#utility.yul\":1076:1082   */\n      0x00\n        /* \"#utility.yul\":1127:1129   */\n      0x1f\n        /* \"#utility.yul\":1123:1130   */\n      not\n        /* \"#utility.yul\":1118:1120   */\n      0x1f\n        /* \"#utility.yul\":1111:1116   */\n      dup4\n        /* \"#utility.yul\":1107:1121   */\n      add\n        /* \"#utility.yul\":1103:1131   */\n      and\n        /* \"#utility.yul\":1093:1131   */\n      swap1\n      pop\n        /* \"#utility.yul\":1035:1137   */\n      swap2\n      swap1\n      pop\n      jump\t// out\n        /* \"#utility.yul\":1143:1507   */\n    tag_390:\n        /* \"#utility.yul\":1231:1234   */\n      0x00\n        /* \"#utility.yul\":1259:1298   */\n      tag_465\n        /* \"#utility.yul\":1292:1297   */\n      dup3\n        /* \"#utility.yul\":1259:1298   */\n      tag_386\n      jump\t// in\n    tag_465:\n        /* \"#utility.yul\":1314:1385   */\n      tag_466\n        /* \"#utility.yul\":1378:1384   */\n      dup2\n        /* \"#utility.yul\":1373:1376   */\n      dup6\n        /* \"#utility.yul\":1314:1385   */\n      tag_387\n      jump\t// in\n    tag_466:\n        /* \"#utility.yul\":1307:1385   */\n      swap4\n      pop\n        /* \"#utility.yul\":1394:1446   */\n      tag_467\n        /* \"#utility.yul\":1439:1445   */\n      dup2\n        /* \"#utility.yul\":1434:1437   */\n      dup6\n        /* \"#utility.yul\":1427:1431   */\n      0x20\n        /* \"#utility.yul\":1420:1425   */\n      dup7\n        /* \"#utility.yul\":1416:1432   */\n      add\n        /* \"#utility.yul\":1394:1446   */\n      tag_388\n      jump\t// in\n    tag_467:\n        /* \"#utility.yul\":1471:1500   */\n      tag_468\n        /* \"#utility.yul\":1493:1499   */\n      dup2\n        /* \"#utility.yul\":1471:1500   */\n      tag_389\n      jump\t// in\n    tag_468:\n        /* \"#utility.yul\":1466:1469   */\n      dup5\n        /* \"#utility.yul\":1462:1501   */\n      add\n        /* \"#utility.yul\":1455:1501   */\n      swap2\n      pop\n        /* \"#utility.yul\":1235:1507   */\n      pop\n        /* \"#utility.yul\":1143:1507   */\n      swap3\n      swap2\n      pop\n      pop\n      jump\t// out\n        /* \"#utility.yul\":1513:1826   */\n    tag_43:\n        /* \"#utility.yul\":1626:1630   */\n      0x00\n        /* \"#utility.yul\":1664:1666   */\n      0x20\n        /* \"#utility.yul\":1653:1662   */\n      dup3\n        /* \"#utility.yul\":1649:1667   */\n      add\n        /* \"#utility.yul\":1641:1667   */\n      swap1\n      pop\n        /* \"#utility.yul\":1713:1722   */\n      dup2\n        /* \"#utility.yul\":1707:1711   */\n      dup2\n        /* \"#utility.yul\":1703:1723   */\n      sub\n        /* \"#utility.yul\":1699:1700   */\n      0x00\n        /* \"#utility.yul\":1688:1697   */\n      dup4\n        /* \"#utility.yul\":1684:1701   */\n      add\n        /* \"#utility.yul\":1677:1724   */\n      mstore\n        /* \"#utility.yul\":1741:1819   */\n      tag_470\n        /* \"#utility.yul\":1814:1818   */\n      dup2\n        /* \"#utility.yul\":1805:1811   */\n      dup5\n        /* \"#utility.yul\":1741:1819   */\n      tag_390\n      jump\t// in\n    tag_470:\n        /* \"#utility.yul\":1733:1819   */\n      swap1\n      pop\n        /* \"#utility.yul\":1513:1826   */\n      swap3\n      swap2\n      pop\n      pop\n      jump\t// out\n        /* \"#utility.yul\":1832:1907   */\n    tag_391:\n        /* \"#utility.yul\":1865:1871   */\n      0x00\n        /* \"#utility.yul\":1898:1900   */\n      0x40\n        /* \"#utility.yul\":1892:1901   */\n      mload\n        /* \"#utility.yul\":1882:1901   */\n      swap1\n      pop\n        /* \"#utility.yul\":1832:1907   */\n      swap1\n      jump\t// out\n        /* \"#utility.yul\":1913:2030   */\n    tag_392:\n        /* \"#utility.yul\":2022:2023   */\n      0x00\n        /* \"#utility.yul\":2019:2020   */\n      dup1\n        /* \"#utility.yul\":2012:2024   */\n      revert\n        /* \"#utility.yul\":2036:2153   */\n    tag_393:\n        /* \"#utility.yul\":2145:2146   */\n      0x00\n        /* \"#utility.yul\":2142:2143   */\n      dup1\n        /* \"#utility.yul\":2135:2147   */\n      revert\n        /* \"#utility.yul\":2159:2281   */\n    tag_394:\n        /* \"#utility.yul\":2232:2256   */\n      tag_475\n        /* \"#utility.yul\":2250:2255   */\n      dup2\n        /* \"#utility.yul\":2232:2256   */\n      tag_384\n      jump\t// in\n    tag_475:\n        /* \"#utility.yul\":2225:2230   */\n      dup2\n        /* \"#utility.yul\":2222:2257   */\n      eq\n        /* \"#utility.yul\":2212:2275   */\n      tag_476\n      jumpi\n        /* \"#utility.yul\":2271:2272   */\n      0x00\n        /* \"#utility.yul\":2268:2269   */\n      dup1\n        /* \"#utility.yul\":2261:2273   */\n      revert\n        /* \"#utility.yul\":2212:2275   */\n    tag_476:\n        /* \"#utility.yul\":2159:2281   */\n      pop\n      jump\t// out\n        /* \"#utility.yul\":2287:2426   */\n    tag_395:\n        /* \"#utility.yul\":2333:2338   */\n      0x00\n        /* \"#utility.yul\":2371:2377   */\n      dup2\n        /* \"#utility.yul\":2358:2378   */\n      calldataload\n        /* \"#utility.yul\":2349:2378   */\n      swap1\n      pop\n        /* \"#utility.yul\":2387:2420   */\n      tag_478\n        /* \"#utility.yul\":2414:2419   */\n      dup2\n        /* \"#utility.yul\":2387:2420   */\n      tag_394\n      jump\t// in\n    tag_478:\n        /* \"#utility.yul\":2287:2426   */\n      swap3\n      swap2\n      pop\n      pop\n      jump\t// out\n        /* \"#utility.yul\":2432:2761   */\n    tag_46:\n        /* \"#utility.yul\":2491:2497   */\n      0x00\n        /* \"#utility.yul\":2540:2542   */\n      0x20\n        /* \"#utility.yul\":2528:2537   */\n      dup3\n        /* \"#utility.yul\":2519:2526   */\n      dup5\n        /* \"#utility.yul\":2515:2538   */\n      sub\n        /* \"#utility.yul\":2511:2543   */\n      slt\n        /* \"#utility.yul\":2508:2627   */\n      iszero\n      tag_480\n      jumpi\n        /* \"#utility.yul\":2546:2625   */\n      tag_481\n      tag_392\n      jump\t// in\n    tag_481:\n        /* \"#utility.yul\":2508:2627   */\n    tag_480:\n        /* \"#utility.yul\":2666:2667   */\n      0x00\n        /* \"#utility.yul\":2691:2744   */\n      tag_482\n        /* \"#utility.yul\":2736:2743   */\n      dup5\n        /* \"#utility.yul\":2727:2733   */\n      dup3\n        /* \"#utility.yul\":2716:2725   */\n      dup6\n        /* \"#utility.yul\":2712:2734   */\n      add\n        /* \"#utility.yul\":2691:2744   */\n      tag_395\n      jump\t// in\n    tag_482:\n        /* \"#utility.yul\":2681:2744   */\n      swap2\n      pop\n        /* \"#utility.yul\":2637:2754   */\n      pop\n        /* \"#utility.yul\":2432:2761   */\n      swap3\n      swap2\n      pop\n      pop\n      jump\t// out\n        /* \"#utility.yul\":2767:2893   */\n    tag_396:\n        /* \"#utility.yul\":2804:2811   */\n      0x00\n        /* \"#utility.yul\":2844:2886   */\n      0xffffffffffffffffffffffffffffffffffffffff\n        /* \"#utility.yul\":2837:2842   */\n      dup3\n        /* \"#utility.yul\":2833:2887   */\n      and\n        /* \"#utility.yul\":2822:2887   */\n      swap1\n      pop\n        /* \"#utility.yul\":2767:2893   */\n      swap2\n      swap1\n      pop\n      jump\t// out\n        /* \"#utility.yul\":2899:2995   */\n    tag_397:\n        /* \"#utility.yul\":2936:2943   */\n      0x00\n        /* \"#utility.yul\":2965:2989   */\n      tag_485\n        /* \"#utility.yul\":2983:2988   */\n      dup3\n        /* \"#utility.yul\":2965:2989   */\n      tag_396\n      jump\t// in\n    tag_485:\n        /* \"#utility.yul\":2954:2989   */\n      swap1\n      pop\n        /* \"#utility.yul\":2899:2995   */\n      swap2\n      swap1\n      pop\n      jump\t// out\n        /* \"#utility.yul\":3001:3123   */\n    tag_398:\n        /* \"#utility.yul\":3074:3098   */\n      tag_487\n        /* \"#utility.yul\":3092:3097   */\n      dup2\n        /* \"#utility.yul\":3074:3098   */\n      tag_397\n      jump\t// in\n    tag_487:\n        /* \"#utility.yul\":3067:3072   */\n      dup2\n        /* \"#utility.yul\":3064:3099   */\n      eq\n        /* \"#utility.yul\":3054:3117   */\n      tag_488\n      jumpi\n        /* \"#utility.yul\":3113:3114   */\n      0x00\n        /* \"#utility.yul\":3110:3111   */\n      dup1\n        /* \"#utility.yul\":3103:3115   */\n      revert\n        /* \"#utility.yul\":3054:3117   */\n    tag_488:\n        /* \"#utility.yul\":3001:3123   */\n      pop\n      jump\t// out\n        /* \"#utility.yul\":3129:3268   */\n    tag_399:\n        /* \"#utility.yul\":3175:3180   */\n      0x00\n        /* \"#utility.yul\":3213:3219   */\n      dup2\n        /* \"#utility.yul\":3200:3220   */\n      calldataload\n        /* \"#utility.yul\":3191:3220   */\n      swap1\n      pop\n        /* \"#utility.yul\":3229:3262   */\n      tag_490\n        /* \"#utility.yul\":3256:3261   */\n      dup2\n        /* \"#utility.yul\":3229:3262   */\n      tag_398\n      jump\t// in\n    tag_490:\n        /* \"#utility.yul\":3129:3268   */\n      swap3\n      swap2\n      pop\n      pop\n      jump\t// out\n        /* \"#utility.yul\":3274:3748   */\n    tag_53:\n        /* \"#utility.yul\":3342:3348   */\n      0x00\n        /* \"#utility.yul\":3350:3356   */\n      dup1\n        /* \"#utility.yul\":3399:3401   */\n      0x40\n        /* \"#utility.yul\":3387:3396   */\n      dup4\n        /* \"#utility.yul\":3378:3385   */\n      dup6\n        /* \"#utility.yul\":3374:3397   */\n      sub\n        /* \"#utility.yul\":3370:3402   */\n      slt\n        /* \"#utility.yul\":3367:3486   */\n      iszero\n      tag_492\n      jumpi\n        /* \"#utility.yul\":3405:3484   */\n      tag_493\n      tag_392\n      jump\t// in\n    tag_493:\n        /* \"#utility.yul\":3367:3486   */\n    tag_492:\n        /* \"#utility.yul\":3525:3526   */\n      0x00\n        /* \"#utility.yul\":3550:3603   */\n      tag_494\n        /* \"#utility.yul\":3595:3602   */\n      dup6\n        /* \"#utility.yul\":3586:3592   */\n      dup3\n        /* \"#utility.yul\":3575:3584   */\n      dup7\n        /* \"#utility.yul\":3571:3593   */\n      add\n        /* \"#utility.yul\":3550:3603   */\n      tag_399\n      jump\t// in\n    tag_494:\n        /* \"#utility.yul\":3540:3603   */\n      swap3\n      pop\n        /* \"#utility.yul\":3496:3613   */\n      pop\n        /* \"#utility.yul\":3652:3654   */\n      0x20\n        /* \"#utility.yul\":3678:3731   */\n      tag_495\n        /* \"#utility.yul\":3723:3730   */\n      dup6\n        /* \"#utility.yul\":3714:3720   */\n      dup3\n        /* \"#utility.yul\":3703:3712   */\n      dup7\n        /* \"#utility.yul\":3699:3721   */\n      add\n        /* \"#utility.yul\":3678:3731   */\n      tag_395\n      jump\t// in\n    tag_495:\n        /* \"#utility.yul\":3668:3731   */\n      swap2\n      pop\n        /* \"#utility.yul\":3623:3741   */\n      pop\n        /* \"#utility.yul\":3274:3748   */\n      swap3\n      pop\n      swap3\n      swap1\n      pop\n      jump\t// out\n        /* \"#utility.yul\":3754:3830   */\n    tag_400:\n        /* \"#utility.yul\":3790:3797   */\n      0x00\n        /* \"#utility.yul\":3819:3824   */\n      dup2\n        /* \"#utility.yul\":3808:3824   */\n      swap1\n      pop\n        /* \"#utility.yul\":3754:3830   */\n      swap2\n      swap1\n      pop\n      jump\t// out\n        /* \"#utility.yul\":3836:3951   */\n    tag_401:\n        /* \"#utility.yul\":3921:3944   */\n      tag_498\n        /* \"#utility.yul\":3938:3943   */\n      dup2\n        /* \"#utility.yul\":3921:3944   */\n      tag_400\n      jump\t// in\n    tag_498:\n        /* \"#utility.yul\":3916:3919   */\n      dup3\n        /* \"#utility.yul\":3909:3945   */\n      mstore\n        /* \"#utility.yul\":3836:3951   */\n      pop\n      pop\n      jump\t// out\n        /* \"#utility.yul\":3957:4391   */\n    tag_70:\n        /* \"#utility.yul\":4102:4106   */\n      0x00\n        /* \"#utility.yul\":4140:4142   */\n      0x60\n        /* \"#utility.yul\":4129:4138   */\n      dup3\n        /* \"#utility.yul\":4125:4143   */\n      add\n        /* \"#utility.yul\":4117:4143   */\n      swap1\n      pop\n        /* \"#utility.yul\":4153:4222   */\n      tag_500\n        /* \"#utility.yul\":4219:4220   */\n      0x00\n        /* \"#utility.yul\":4208:4217   */\n      dup4\n        /* \"#utility.yul\":4204:4221   */\n      add\n        /* \"#utility.yul\":4195:4201   */\n      dup7\n        /* \"#utility.yul\":4153:4222   */\n      tag_401\n      jump\t// in\n    tag_500:\n        /* \"#utility.yul\":4232:4302   */\n      tag_501\n        /* \"#utility.yul\":4298:4300   */\n      0x20\n        /* \"#utility.yul\":4287:4296   */\n      dup4\n        /* \"#utility.yul\":4283:4301   */\n      add\n        /* \"#utility.yul\":4274:4280   */\n      dup6\n        /* \"#utility.yul\":4232:4302   */\n      tag_401\n      jump\t// in\n    tag_501:\n        /* \"#utility.yul\":4312:4384   */\n      tag_502\n        /* \"#utility.yul\":4380:4382   */\n      0x40\n        /* \"#utility.yul\":4369:4378   */\n      dup4\n        /* \"#utility.yul\":4365:4383   */\n      add\n        /* \"#utility.yul\":4356:4362   */\n      dup5\n        /* \"#utility.yul\":4312:4384   */\n      tag_385\n      jump\t// in\n    tag_502:\n        /* \"#utility.yul\":3957:4391   */\n      swap5\n      swap4\n      pop\n      pop\n      pop\n      pop\n      jump\t// out\n        /* \"#utility.yul\":4397:4726   */\n    tag_79:\n        /* \"#utility.yul\":4456:4462   */\n      0x00\n        /* \"#utility.yul\":4505:4507   */\n      0x20\n        /* \"#utility.yul\":4493:4502   */\n      dup3\n        /* \"#utility.yul\":4484:4491   */\n      dup5\n        /* \"#utility.yul\":4480:4503   */\n      sub\n        /* \"#utility.yul\":4476:4508   */\n      slt\n        /* \"#utility.yul\":4473:4592   */\n      iszero\n      tag_504\n      jumpi\n        /* \"#utility.yul\":4511:4590   */\n      tag_505\n      tag_392\n      jump\t// in\n    tag_505:\n        /* \"#utility.yul\":4473:4592   */\n    tag_504:\n        /* \"#utility.yul\":4631:4632   */\n      0x00\n        /* \"#utility.yul\":4656:4709   */\n      tag_506\n        /* \"#utility.yul\":4701:4708   */\n      dup5\n        /* \"#utility.yul\":4692:4698   */\n      dup3\n        /* \"#utility.yul\":4681:4690   */\n      dup6\n        /* \"#utility.yul\":4677:4699   */\n      add\n        /* \"#utility.yul\":4656:4709   */\n      tag_399\n      jump\t// in\n    tag_506:\n        /* \"#utility.yul\":4646:4709   */\n      swap2\n      pop\n        /* \"#utility.yul\":4602:4719   */\n      pop\n        /* \"#utility.yul\":4397:4726   */\n      swap3\n      swap2\n      pop\n      pop\n      jump\t// out\n        /* \"#utility.yul\":4732:5351   */\n    tag_87:\n        /* \"#utility.yul\":4809:4815   */\n      0x00\n        /* \"#utility.yul\":4817:4823   */\n      dup1\n        /* \"#utility.yul\":4825:4831   */\n      0x00\n        /* \"#utility.yul\":4874:4876   */\n      0x60\n        /* \"#utility.yul\":4862:4871   */\n      dup5\n        /* \"#utility.yul\":4853:4860   */\n      dup7\n        /* \"#utility.yul\":4849:4872   */\n      sub\n        /* \"#utility.yul\":4845:4877   */\n      slt\n        /* \"#utility.yul\":4842:4961   */\n      iszero\n      tag_508\n      jumpi\n        /* \"#utility.yul\":4880:4959   */\n      tag_509\n      tag_392\n      jump\t// in\n    tag_509:\n        /* \"#utility.yul\":4842:4961   */\n    tag_508:\n        /* \"#utility.yul\":5000:5001   */\n      0x00\n        /* \"#utility.yul\":5025:5078   */\n      tag_510\n        /* \"#utility.yul\":5070:5077   */\n      dup7\n        /* \"#utility.yul\":5061:5067   */\n      dup3\n        /* \"#utility.yul\":5050:5059   */\n      dup8\n        /* \"#utility.yul\":5046:5068   */\n      add\n        /* \"#utility.yul\":5025:5078   */\n      tag_399\n      jump\t// in\n    tag_510:\n        /* \"#utility.yul\":5015:5078   */\n      swap4\n      pop\n        /* \"#utility.yul\":4971:5088   */\n      pop\n        /* \"#utility.yul\":5127:5129   */\n      0x20\n        /* \"#utility.yul\":5153:5206   */\n      tag_511\n        /* \"#utility.yul\":5198:5205   */\n      dup7\n        /* \"#utility.yul\":5189:5195   */\n      dup3\n        /* \"#utility.yul\":5178:5187   */\n      dup8\n        /* \"#utility.yul\":5174:5196   */\n      add\n        /* \"#utility.yul\":5153:5206   */\n      tag_395\n      jump\t// in\n    tag_511:\n        /* \"#utility.yul\":5143:5206   */\n      swap3\n      pop\n        /* \"#utility.yul\":5098:5216   */\n      pop\n        /* \"#utility.yul\":5255:5257   */\n      0x40\n        /* \"#utility.yul\":5281:5334   */\n      tag_512\n        /* \"#utility.yul\":5326:5333   */\n      dup7\n        /* \"#utility.yul\":5317:5323   */\n      dup3\n        /* \"#utility.yul\":5306:5315   */\n      dup8\n        /* \"#utility.yul\":5302:5324   */\n      add\n        /* \"#utility.yul\":5281:5334   */\n      tag_395\n      jump\t// in\n    tag_512:\n        /* \"#utility.yul\":5271:5334   */\n      swap2\n      pop\n        /* \"#utility.yul\":5226:5344   */\n      pop\n        /* \"#utility.yul\":4732:5351   */\n      swap3\n      pop\n      swap3\n      pop\n      swap3\n      jump\t// out\n        /* \"#utility.yul\":5357:5465   */\n    tag_402:\n        /* \"#utility.yul\":5406:5413   */\n      0x00\n        /* \"#utility.yul\":5435:5459   */\n      tag_514\n        /* \"#utility.yul\":5453:5458   */\n      dup3\n        /* \"#utility.yul\":5435:5459   */\n      tag_397\n      jump\t// in\n    tag_514:\n        /* \"#utility.yul\":5424:5459   */\n      swap1\n      pop\n        /* \"#utility.yul\":5357:5465   */\n      swap2\n      swap1\n      pop\n      jump\t// out\n        /* \"#utility.yul\":5471:5617   */\n    tag_403:\n        /* \"#utility.yul\":5556:5592   */\n      tag_516\n        /* \"#utility.yul\":5586:5591   */\n      dup2\n        /* \"#utility.yul\":5556:5592   */\n      tag_402\n      jump\t// in\n    tag_516:\n        /* \"#utility.yul\":5549:5554   */\n      dup2\n        /* \"#utility.yul\":5546:5593   */\n      eq\n        /* \"#utility.yul\":5536:5611   */\n      tag_517\n      jumpi\n        /* \"#utility.yul\":5607:5608   */\n      0x00\n        /* \"#utility.yul\":5604:5605   */\n      dup1\n        /* \"#utility.yul\":5597:5609   */\n      revert\n        /* \"#utility.yul\":5536:5611   */\n    tag_517:\n        /* \"#utility.yul\":5471:5617   */\n      pop\n      jump\t// out\n        /* \"#utility.yul\":5623:5786   */\n    tag_404:\n        /* \"#utility.yul\":5681:5686   */\n      0x00\n        /* \"#utility.yul\":5719:5725   */\n      dup2\n        /* \"#utility.yul\":5706:5726   */\n      calldataload\n        /* \"#utility.yul\":5697:5726   */\n      swap1\n      pop\n        /* \"#utility.yul\":5735:5780   */\n      tag_519\n        /* \"#utility.yul\":5774:5779   */\n      dup2\n        /* \"#utility.yul\":5735:5780   */\n      tag_403\n      jump\t// in\n    tag_519:\n        /* \"#utility.yul\":5623:5786   */\n      swap3\n      swap2\n      pop\n      pop\n      jump\t// out\n        /* \"#utility.yul\":5792:5909   */\n    tag_405:\n        /* \"#utility.yul\":5901:5902   */\n      0x00\n        /* \"#utility.yul\":5898:5899   */\n      dup1\n        /* \"#utility.yul\":5891:5903   */\n      revert\n        /* \"#utility.yul\":5915:6032   */\n    tag_406:\n        /* \"#utility.yul\":6024:6025   */\n      0x00\n        /* \"#utility.yul\":6021:6022   */\n      dup1\n        /* \"#utility.yul\":6014:6026   */\n      revert\n        /* \"#utility.yul\":6038:6218   */\n    tag_407:\n        /* \"#utility.yul\":6086:6163   */\n      0x4e487b7100000000000000000000000000000000000000000000000000000000\n        /* \"#utility.yul\":6083:6084   */\n      0x00\n        /* \"#utility.yul\":6076:6164   */\n      mstore\n        /* \"#utility.yul\":6183:6187   */\n      0x41\n        /* \"#utility.yul\":6180:6181   */\n      0x04\n        /* \"#utility.yul\":6173:6188   */\n      mstore\n        /* \"#utility.yul\":6207:6211   */\n      0x24\n        /* \"#utility.yul\":6204:6205   */\n      0x00\n        /* \"#utility.yul\":6197:6212   */\n      revert\n        /* \"#utility.yul\":6224:6505   */\n    tag_408:\n        /* \"#utility.yul\":6307:6334   */\n      tag_524\n        /* \"#utility.yul\":6329:6333   */\n      dup3\n        /* \"#utility.yul\":6307:6334   */\n      tag_389\n      jump\t// in\n    tag_524:\n        /* \"#utility.yul\":6299:6305   */\n      dup2\n        /* \"#utility.yul\":6295:6335   */\n      add\n        /* \"#utility.yul\":6437:6443   */\n      dup2\n        /* \"#utility.yul\":6425:6435   */\n      dup2\n        /* \"#utility.yul\":6422:6444   */\n      lt\n        /* \"#utility.yul\":6401:6419   */\n      0xffffffffffffffff\n        /* \"#utility.yul\":6389:6399   */\n      dup3\n        /* \"#utility.yul\":6386:6420   */\n      gt\n        /* \"#utility.yul\":6383:6445   */\n      or\n        /* \"#utility.yul\":6380:6468   */\n      iszero\n      tag_525\n      jumpi\n        /* \"#utility.yul\":6448:6466   */\n      tag_526\n      tag_407\n      jump\t// in\n    tag_526:\n        /* \"#utility.yul\":6380:6468   */\n    tag_525:\n        /* \"#utility.yul\":6488:6498   */\n      dup1\n        /* \"#utility.yul\":6484:6486   */\n      0x40\n        /* \"#utility.yul\":6477:6499   */\n      mstore\n        /* \"#utility.yul\":6267:6505   */\n      pop\n        /* \"#utility.yul\":6224:6505   */\n      pop\n      pop\n      jump\t// out\n        /* \"#utility.yul\":6511:6640   */\n    tag_409:\n        /* \"#utility.yul\":6545:6551   */\n      0x00\n        /* \"#utility.yul\":6572:6592   */\n      tag_528\n      tag_391\n      jump\t// in\n    tag_528:\n        /* \"#utility.yul\":6562:6592   */\n      swap1\n      pop\n        /* \"#utility.yul\":6601:6634   */\n      tag_529\n        /* \"#utility.yul\":6629:6633   */\n      dup3\n        /* \"#utility.yul\":6621:6627   */\n      dup3\n        /* \"#utility.yul\":6601:6634   */\n      tag_408\n      jump\t// in\n    tag_529:\n        /* \"#utility.yul\":6511:6640   */\n      swap2\n      swap1\n      pop\n      jump\t// out\n        /* \"#utility.yul\":6646:6954   */\n    tag_410:\n        /* \"#utility.yul\":6708:6712   */\n      0x00\n        /* \"#utility.yul\":6798:6816   */\n      0xffffffffffffffff\n        /* \"#utility.yul\":6790:6796   */\n      dup3\n        /* \"#utility.yul\":6787:6817   */\n      gt\n        /* \"#utility.yul\":6784:6840   */\n      iszero\n      tag_531\n      jumpi\n        /* \"#utility.yul\":6820:6838   */\n      tag_532\n      tag_407\n      jump\t// in\n    tag_532:\n        /* \"#utility.yul\":6784:6840   */\n    tag_531:\n        /* \"#utility.yul\":6858:6887   */\n      tag_533\n        /* \"#utility.yul\":6880:6886   */\n      dup3\n        /* \"#utility.yul\":6858:6887   */\n      tag_389\n      jump\t// in\n    tag_533:\n        /* \"#utility.yul\":6850:6887   */\n      swap1\n      pop\n        /* \"#utility.yul\":6942:6946   */\n      0x20\n        /* \"#utility.yul\":6936:6940   */\n      dup2\n        /* \"#utility.yul\":6932:6947   */\n      add\n        /* \"#utility.yul\":6924:6947   */\n      swap1\n      pop\n        /* \"#utility.yul\":6646:6954   */\n      swap2\n      swap1\n      pop\n      jump\t// out\n        /* \"#utility.yul\":6960:7114   */\n    tag_411:\n        /* \"#utility.yul\":7044:7050   */\n      dup3\n        /* \"#utility.yul\":7039:7042   */\n      dup2\n        /* \"#utility.yul\":7034:7037   */\n      dup4\n        /* \"#utility.yul\":7021:7051   */\n      calldatacopy\n        /* \"#utility.yul\":7106:7107   */\n      0x00\n        /* \"#utility.yul\":7097:7103   */\n      dup4\n        /* \"#utility.yul\":7092:7095   */\n      dup4\n        /* \"#utility.yul\":7088:7104   */\n      add\n        /* \"#utility.yul\":7081:7108   */\n      mstore\n        /* \"#utility.yul\":6960:7114   */\n      pop\n      pop\n      pop\n      jump\t// out\n        /* \"#utility.yul\":7120:7532   */\n    tag_412:\n        /* \"#utility.yul\":7198:7203   */\n      0x00\n        /* \"#utility.yul\":7223:7289   */\n      tag_536\n        /* \"#utility.yul\":7239:7288   */\n      tag_537\n        /* \"#utility.yul\":7281:7287   */\n      dup5\n        /* \"#utility.yul\":7239:7288   */\n      tag_410\n      jump\t// in\n    tag_537:\n        /* \"#utility.yul\":7223:7289   */\n      tag_409\n      jump\t// in\n    tag_536:\n        /* \"#utility.yul\":7214:7289   */\n      swap1\n      pop\n        /* \"#utility.yul\":7312:7318   */\n      dup3\n        /* \"#utility.yul\":7305:7310   */\n      dup2\n        /* \"#utility.yul\":7298:7319   */\n      mstore\n        /* \"#utility.yul\":7350:7354   */\n      0x20\n        /* \"#utility.yul\":7343:7348   */\n      dup2\n        /* \"#utility.yul\":7339:7355   */\n      add\n        /* \"#utility.yul\":7388:7391   */\n      dup5\n        /* \"#utility.yul\":7379:7385   */\n      dup5\n        /* \"#utility.yul\":7374:7377   */\n      dup5\n        /* \"#utility.yul\":7370:7386   */\n      add\n        /* \"#utility.yul\":7367:7392   */\n      gt\n        /* \"#utility.yul\":7364:7476   */\n      iszero\n      tag_538\n      jumpi\n        /* \"#utility.yul\":7395:7474   */\n      tag_539\n      tag_406\n      jump\t// in\n    tag_539:\n        /* \"#utility.yul\":7364:7476   */\n    tag_538:\n        /* \"#utility.yul\":7485:7526   */\n      tag_540\n        /* \"#utility.yul\":7519:7525   */\n      dup5\n        /* \"#utility.yul\":7514:7517   */\n      dup3\n        /* \"#utility.yul\":7509:7512   */\n      dup6\n        /* \"#utility.yul\":7485:7526   */\n      tag_411\n      jump\t// in\n    tag_540:\n        /* \"#utility.yul\":7204:7532   */\n      pop\n        /* \"#utility.yul\":7120:7532   */\n      swap4\n      swap3\n      pop\n      pop\n      pop\n      jump\t// out\n        /* \"#utility.yul\":7552:7892   */\n    tag_413:\n        /* \"#utility.yul\":7608:7613   */\n      0x00\n        /* \"#utility.yul\":7657:7660   */\n      dup3\n        /* \"#utility.yul\":7650:7654   */\n      0x1f\n        /* \"#utility.yul\":7642:7648   */\n      dup4\n        /* \"#utility.yul\":7638:7655   */\n      add\n        /* \"#utility.yul\":7634:7661   */\n      slt\n        /* \"#utility.yul\":7624:7746   */\n      tag_542\n      jumpi\n        /* \"#utility.yul\":7665:7744   */\n      tag_543\n      tag_405\n      jump\t// in\n    tag_543:\n        /* \"#utility.yul\":7624:7746   */\n    tag_542:\n        /* \"#utility.yul\":7782:7788   */\n      dup2\n        /* \"#utility.yul\":7769:7789   */\n      calldataload\n        /* \"#utility.yul\":7807:7886   */\n      tag_544\n        /* \"#utility.yul\":7882:7885   */\n      dup5\n        /* \"#utility.yul\":7874:7880   */\n      dup3\n        /* \"#utility.yul\":7867:7871   */\n      0x20\n        /* \"#utility.yul\":7859:7865   */\n      dup7\n        /* \"#utility.yul\":7855:7872   */\n      add\n        /* \"#utility.yul\":7807:7886   */\n      tag_412\n      jump\t// in\n    tag_544:\n        /* \"#utility.yul\":7798:7886   */\n      swap2\n      pop\n        /* \"#utility.yul\":7614:7892   */\n      pop\n        /* \"#utility.yul\":7552:7892   */\n      swap3\n      swap2\n      pop\n      pop\n      jump\t// out\n        /* \"#utility.yul\":7898:8901   */\n    tag_116:\n        /* \"#utility.yul\":8007:8013   */\n      0x00\n        /* \"#utility.yul\":8015:8021   */\n      dup1\n        /* \"#utility.yul\":8023:8029   */\n      0x00\n        /* \"#utility.yul\":8072:8074   */\n      0x60\n        /* \"#utility.yul\":8060:8069   */\n      dup5\n        /* \"#utility.yul\":8051:8058   */\n      dup7\n        /* \"#utility.yul\":8047:8070   */\n      sub\n        /* \"#utility.yul\":8043:8075   */\n      slt\n        /* \"#utility.yul\":8040:8159   */\n      iszero\n      tag_546\n      jumpi\n        /* \"#utility.yul\":8078:8157   */\n      tag_547\n      tag_392\n      jump\t// in\n    tag_547:\n        /* \"#utility.yul\":8040:8159   */\n    tag_546:\n        /* \"#utility.yul\":8198:8199   */\n      0x00\n        /* \"#utility.yul\":8223:8288   */\n      tag_548\n        /* \"#utility.yul\":8280:8287   */\n      dup7\n        /* \"#utility.yul\":8271:8277   */\n      dup3\n        /* \"#utility.yul\":8260:8269   */\n      dup8\n        /* \"#utility.yul\":8256:8278   */\n      add\n        /* \"#utility.yul\":8223:8288   */\n      tag_404\n      jump\t// in\n    tag_548:\n        /* \"#utility.yul\":8213:8288   */\n      swap4\n      pop\n        /* \"#utility.yul\":8169:8298   */\n      pop\n        /* \"#utility.yul\":8365:8367   */\n      0x20\n        /* \"#utility.yul\":8354:8363   */\n      dup5\n        /* \"#utility.yul\":8350:8368   */\n      add\n        /* \"#utility.yul\":8337:8369   */\n      calldataload\n        /* \"#utility.yul\":8396:8414   */\n      0xffffffffffffffff\n        /* \"#utility.yul\":8388:8394   */\n      dup2\n        /* \"#utility.yul\":8385:8415   */\n      gt\n        /* \"#utility.yul\":8382:8499   */\n      iszero\n      tag_549\n      jumpi\n        /* \"#utility.yul\":8418:8497   */\n      tag_550\n      tag_393\n      jump\t// in\n    tag_550:\n        /* \"#utility.yul\":8382:8499   */\n    tag_549:\n        /* \"#utility.yul\":8523:8586   */\n      tag_551\n        /* \"#utility.yul\":8578:8585   */\n      dup7\n        /* \"#utility.yul\":8569:8575   */\n      dup3\n        /* \"#utility.yul\":8558:8567   */\n      dup8\n        /* \"#utility.yul\":8554:8576   */\n      add\n        /* \"#utility.yul\":8523:8586   */\n      tag_413\n      jump\t// in\n    tag_551:\n        /* \"#utility.yul\":8513:8586   */\n      swap3\n      pop\n        /* \"#utility.yul\":8308:8596   */\n      pop\n        /* \"#utility.yul\":8663:8665   */\n      0x40\n        /* \"#utility.yul\":8652:8661   */\n      dup5\n        /* \"#utility.yul\":8648:8666   */\n      add\n        /* \"#utility.yul\":8635:8667   */\n      calldataload\n        /* \"#utility.yul\":8694:8712   */\n      0xffffffffffffffff\n        /* \"#utility.yul\":8686:8692   */\n      dup2\n        /* \"#utility.yul\":8683:8713   */\n      gt\n        /* \"#utility.yul\":8680:8797   */\n      iszero\n      tag_552\n      jumpi\n        /* \"#utility.yul\":8716:8795   */\n      tag_553\n      tag_393\n      jump\t// in\n    tag_553:\n        /* \"#utility.yul\":8680:8797   */\n    tag_552:\n        /* \"#utility.yul\":8821:8884   */\n      tag_554\n        /* \"#utility.yul\":8876:8883   */\n      dup7\n        /* \"#utility.yul\":8867:8873   */\n      dup3\n        /* \"#utility.yul\":8856:8865   */\n      dup8\n        /* \"#utility.yul\":8852:8874   */\n      add\n        /* \"#utility.yul\":8821:8884   */\n      tag_413\n      jump\t// in\n    tag_554:\n        /* \"#utility.yul\":8811:8884   */\n      swap2\n      pop\n        /* \"#utility.yul\":8606:8894   */\n      pop\n        /* \"#utility.yul\":7898:8901   */\n      swap3\n      pop\n      swap3\n      pop\n      swap3\n      jump\t// out\n        /* \"#utility.yul\":8907:9381   */\n    tag_120:\n        /* \"#utility.yul\":8975:8981   */\n      0x00\n        /* \"#utility.yul\":8983:8989   */\n      dup1\n        /* \"#utility.yul\":9032:9034   */\n      0x40\n        /* \"#utility.yul\":9020:9029   */\n      dup4\n        /* \"#utility.yul\":9011:9018   */\n      dup6\n        /* \"#utility.yul\":9007:9030   */\n      sub\n        /* \"#utility.yul\":9003:9035   */\n      slt\n        /* \"#utility.yul\":9000:9119   */\n      iszero\n      tag_556\n      jumpi\n        /* \"#utility.yul\":9038:9117   */\n      tag_557\n      tag_392\n      jump\t// in\n    tag_557:\n        /* \"#utility.yul\":9000:9119   */\n    tag_556:\n        /* \"#utility.yul\":9158:9159   */\n      0x00\n        /* \"#utility.yul\":9183:9236   */\n      tag_558\n        /* \"#utility.yul\":9228:9235   */\n      dup6\n        /* \"#utility.yul\":9219:9225   */\n      dup3\n        /* \"#utility.yul\":9208:9217   */\n      dup7\n        /* \"#utility.yul\":9204:9226   */\n      add\n        /* \"#utility.yul\":9183:9236   */\n      tag_395\n      jump\t// in\n    tag_558:\n        /* \"#utility.yul\":9173:9236   */\n      swap3\n      pop\n        /* \"#utility.yul\":9129:9246   */\n      pop\n        /* \"#utility.yul\":9285:9287   */\n      0x20\n        /* \"#utility.yul\":9311:9364   */\n      tag_559\n        /* \"#utility.yul\":9356:9363   */\n      dup6\n        /* \"#utility.yul\":9347:9353   */\n      dup3\n        /* \"#utility.yul\":9336:9345   */\n      dup7\n        /* \"#utility.yul\":9332:9354   */\n      add\n        /* \"#utility.yul\":9311:9364   */\n      tag_395\n      jump\t// in\n    tag_559:\n        /* \"#utility.yul\":9301:9364   */\n      swap2\n      pop\n        /* \"#utility.yul\":9256:9374   */\n      pop\n        /* \"#utility.yul\":8907:9381   */\n      swap3\n      pop\n      swap3\n      swap1\n      pop\n      jump\t// out\n        /* \"#utility.yul\":9387:9719   */\n    tag_126:\n        /* \"#utility.yul\":9508:9512   */\n      0x00\n        /* \"#utility.yul\":9546:9548   */\n      0x40\n        /* \"#utility.yul\":9535:9544   */\n      dup3\n        /* \"#utility.yul\":9531:9549   */\n      add\n        /* \"#utility.yul\":9523:9549   */\n      swap1\n      pop\n        /* \"#utility.yul\":9559:9630   */\n      tag_561\n        /* \"#utility.yul\":9627:9628   */\n      0x00\n        /* \"#utility.yul\":9616:9625   */\n      dup4\n        /* \"#utility.yul\":9612:9629   */\n      add\n        /* \"#utility.yul\":9603:9609   */\n      dup6\n        /* \"#utility.yul\":9559:9630   */\n      tag_385\n      jump\t// in\n    tag_561:\n        /* \"#utility.yul\":9640:9712   */\n      tag_562\n        /* \"#utility.yul\":9708:9710   */\n      0x20\n        /* \"#utility.yul\":9697:9706   */\n      dup4\n        /* \"#utility.yul\":9693:9711   */\n      add\n        /* \"#utility.yul\":9684:9690   */\n      dup5\n        /* \"#utility.yul\":9640:9712   */\n      tag_385\n      jump\t// in\n    tag_562:\n        /* \"#utility.yul\":9387:9719   */\n      swap4\n      swap3\n      pop\n      pop\n      pop\n      jump\t// out\n        /* \"#utility.yul\":9725:9943   */\n    tag_131:\n        /* \"#utility.yul\":9816:9820   */\n      0x00\n        /* \"#utility.yul\":9854:9856   */\n      0x20\n        /* \"#utility.yul\":9843:9852   */\n      dup3\n        /* \"#utility.yul\":9839:9857   */\n      add\n        /* \"#utility.yul\":9831:9857   */\n      swap1\n      pop\n        /* \"#utility.yul\":9867:9936   */\n      tag_564\n        /* \"#utility.yul\":9933:9934   */\n      0x00\n        /* \"#utility.yul\":9922:9931   */\n      dup4\n        /* \"#utility.yul\":9918:9935   */\n      add\n        /* \"#utility.yul\":9909:9915   */\n      dup5\n        /* \"#utility.yul\":9867:9936   */\n      tag_401\n      jump\t// in\n    tag_564:\n        /* \"#utility.yul\":9725:9943   */\n      swap3\n      swap2\n      pop\n      pop\n      jump\t// out\n        /* \"#utility.yul\":9949:10067   */\n    tag_414:\n        /* \"#utility.yul\":10036:10060   */\n      tag_566\n        /* \"#utility.yul\":10054:10059   */\n      dup2\n        /* \"#utility.yul\":10036:10060   */\n      tag_397\n      jump\t// in\n    tag_566:\n        /* \"#utility.yul\":10031:10034   */\n      dup3\n        /* \"#utility.yul\":10024:10061   */\n      mstore\n        /* \"#utility.yul\":9949:10067   */\n      pop\n      pop\n      jump\t// out\n        /* \"#utility.yul\":10073:10295   */\n    tag_135:\n        /* \"#utility.yul\":10166:10170   */\n      0x00\n        /* \"#utility.yul\":10204:10206   */\n      0x20\n        /* \"#utility.yul\":10193:10202   */\n      dup3\n        /* \"#utility.yul\":10189:10207   */\n      add\n        /* \"#utility.yul\":10181:10207   */\n      swap1\n      pop\n        /* \"#utility.yul\":10217:10288   */\n      tag_568\n        /* \"#utility.yul\":10285:10286   */\n      0x00\n        /* \"#utility.yul\":10274:10283   */\n      dup4\n        /* \"#utility.yul\":10270:10287   */\n      add\n        /* \"#utility.yul\":10261:10267   */\n      dup5\n        /* \"#utility.yul\":10217:10288   */\n      tag_414\n      jump\t// in\n    tag_568:\n        /* \"#utility.yul\":10073:10295   */\n      swap3\n      swap2\n      pop\n      pop\n      jump\t// out\n        /* \"#utility.yul\":10301:10361   */\n    tag_415:\n        /* \"#utility.yul\":10329:10332   */\n      0x00\n        /* \"#utility.yul\":10350:10355   */\n      dup2\n        /* \"#utility.yul\":10343:10355   */\n      swap1\n      pop\n        /* \"#utility.yul\":10301:10361   */\n      swap2\n      swap1\n      pop\n      jump\t// out\n        /* \"#utility.yul\":10367:10509   */\n    tag_416:\n        /* \"#utility.yul\":10417:10426   */\n      0x00\n        /* \"#utility.yul\":10450:10503   */\n      tag_571\n        /* \"#utility.yul\":10468:10502   */\n      tag_572\n        /* \"#utility.yul\":10477:10501   */\n      tag_573\n        /* \"#utility.yul\":10495:10500   */\n      dup5\n        /* \"#utility.yul\":10477:10501   */\n      tag_396\n      jump\t// in\n    tag_573:\n        /* \"#utility.yul\":10468:10502   */\n      tag_415\n      jump\t// in\n    tag_572:\n        /* \"#utility.yul\":10450:10503   */\n      tag_396\n      jump\t// in\n    tag_571:\n        /* \"#utility.yul\":10437:10503   */\n      swap1\n      pop\n        /* \"#utility.yul\":10367:10509   */\n      swap2\n      swap1\n      pop\n      jump\t// out\n        /* \"#utility.yul\":10515:10641   */\n    tag_417:\n        /* \"#utility.yul\":10565:10574   */\n      0x00\n        /* \"#utility.yul\":10598:10635   */\n      tag_575\n        /* \"#utility.yul\":10629:10634   */\n      dup3\n        /* \"#utility.yul\":10598:10635   */\n      tag_416\n      jump\t// in\n    tag_575:\n        /* \"#utility.yul\":10585:10635   */\n      swap1\n      pop\n        /* \"#utility.yul\":10515:10641   */\n      swap2\n      swap1\n      pop\n      jump\t// out\n        /* \"#utility.yul\":10647:10785   */\n    tag_418:\n        /* \"#utility.yul\":10709:10718   */\n      0x00\n        /* \"#utility.yul\":10742:10779   */\n      tag_577\n        /* \"#utility.yul\":10773:10778   */\n      dup3\n        /* \"#utility.yul\":10742:10779   */\n      tag_417\n      jump\t// in\n    tag_577:\n        /* \"#utility.yul\":10729:10779   */\n      swap1\n      pop\n        /* \"#utility.yul\":10647:10785   */\n      swap2\n      swap1\n      pop\n      jump\t// out\n        /* \"#utility.yul\":10791:10946   */\n    tag_419:\n        /* \"#utility.yul\":10890:10939   */\n      tag_579\n        /* \"#utility.yul\":10933:10938   */\n      dup2\n        /* \"#utility.yul\":10890:10939   */\n      tag_418\n      jump\t// in\n    tag_579:\n        /* \"#utility.yul\":10885:10888   */\n      dup3\n        /* \"#utility.yul\":10878:10940   */\n      mstore\n        /* \"#utility.yul\":10791:10946   */\n      pop\n      pop\n      jump\t// out\n        /* \"#utility.yul\":10952:11198   */\n    tag_139:\n        /* \"#utility.yul\":11057:11061   */\n      0x00\n        /* \"#utility.yul\":11095:11097   */\n      0x20\n        /* \"#utility.yul\":11084:11093   */\n      dup3\n        /* \"#utility.yul\":11080:11098   */\n      add\n        /* \"#utility.yul\":11072:11098   */\n      swap1\n      pop\n        /* \"#utility.yul\":11108:11191   */\n      tag_581\n        /* \"#utility.yul\":11188:11189   */\n      0x00\n        /* \"#utility.yul\":11177:11186   */\n      dup4\n        /* \"#utility.yul\":11173:11190   */\n      add\n        /* \"#utility.yul\":11164:11170   */\n      dup5\n        /* \"#utility.yul\":11108:11191   */\n      tag_419\n      jump\t// in\n    tag_581:\n        /* \"#utility.yul\":10952:11198   */\n      swap3\n      swap2\n      pop\n      pop\n      jump\t// out\n        /* \"#utility.yul\":11204:11384   */\n    tag_420:\n        /* \"#utility.yul\":11252:11329   */\n      0x4e487b7100000000000000000000000000000000000000000000000000000000\n        /* \"#utility.yul\":11249:11250   */\n      0x00\n        /* \"#utility.yul\":11242:11330   */\n      mstore\n        /* \"#utility.yul\":11349:11353   */\n      0x22\n        /* \"#utility.yul\":11346:11347   */\n      0x04\n        /* \"#utility.yul\":11339:11354   */\n      mstore\n        /* \"#utility.yul\":11373:11377   */\n      0x24\n        /* \"#utility.yul\":11370:11371   */\n      0x00\n        /* \"#utility.yul\":11363:11378   */\n      revert\n        /* \"#utility.yul\":11390:11710   */\n    tag_141:\n        /* \"#utility.yul\":11434:11440   */\n      0x00\n        /* \"#utility.yul\":11471:11472   */\n      0x02\n        /* \"#utility.yul\":11465:11469   */\n      dup3\n        /* \"#utility.yul\":11461:11473   */\n      div\n        /* \"#utility.yul\":11451:11473   */\n      swap1\n      pop\n        /* \"#utility.yul\":11518:11519   */\n      0x01\n        /* \"#utility.yul\":11512:11516   */\n      dup3\n        /* \"#utility.yul\":11508:11520   */\n      and\n        /* \"#utility.yul\":11539:11557   */\n      dup1\n        /* \"#utility.yul\":11529:11610   */\n      tag_584\n      jumpi\n        /* \"#utility.yul\":11595:11599   */\n      0x7f\n        /* \"#utility.yul\":11587:11593   */\n      dup3\n        /* \"#utility.yul\":11583:11600   */\n      and\n        /* \"#utility.yul\":11573:11600   */\n      swap2\n      pop\n        /* \"#utility.yul\":11529:11610   */\n    tag_584:\n        /* \"#utility.yul\":11657:11659   */\n      0x20\n        /* \"#utility.yul\":11649:11655   */\n      dup3\n        /* \"#utility.yul\":11646:11660   */\n      lt\n        /* \"#utility.yul\":11626:11644   */\n      dup2\n        /* \"#utility.yul\":11623:11661   */\n      sub\n        /* \"#utility.yul\":11620:11704   */\n      tag_585\n      jumpi\n        /* \"#utility.yul\":11676:11694   */\n      tag_586\n      tag_420\n      jump\t// in\n    tag_586:\n        /* \"#utility.yul\":11620:11704   */\n    tag_585:\n        /* \"#utility.yul\":11441:11710   */\n      pop\n        /* \"#utility.yul\":11390:11710   */\n      swap2\n      swap1\n      pop\n      jump\t// out\n        /* \"#utility.yul\":11716:11879   */\n    tag_421:\n        /* \"#utility.yul\":11856:11871   */\n      0x696e76616c69642076616c756500000000000000000000000000000000000000\n        /* \"#utility.yul\":11852:11853   */\n      0x00\n        /* \"#utility.yul\":11844:11850   */\n      dup3\n        /* \"#utility.yul\":11840:11854   */\n      add\n        /* \"#utility.yul\":11833:11872   */\n      mstore\n        /* \"#utility.yul\":11716:11879   */\n      pop\n      jump\t// out\n        /* \"#utility.yul\":11885:12251   */\n    tag_422:\n        /* \"#utility.yul\":12027:12030   */\n      0x00\n        /* \"#utility.yul\":12048:12115   */\n      tag_589\n        /* \"#utility.yul\":12112:12114   */\n      0x0d\n        /* \"#utility.yul\":12107:12110   */\n      dup4\n        /* \"#utility.yul\":12048:12115   */\n      tag_387\n      jump\t// in\n    tag_589:\n        /* \"#utility.yul\":12041:12115   */\n      swap2\n      pop\n        /* \"#utility.yul\":12124:12217   */\n      tag_590\n        /* \"#utility.yul\":12213:12216   */\n      dup3\n        /* \"#utility.yul\":12124:12217   */\n      tag_421\n      jump\t// in\n    tag_590:\n        /* \"#utility.yul\":12242:12244   */\n      0x20\n        /* \"#utility.yul\":12237:12240   */\n      dup3\n        /* \"#utility.yul\":12233:12245   */\n      add\n        /* \"#utility.yul\":12226:12245   */\n      swap1\n      pop\n        /* \"#utility.yul\":11885:12251   */\n      swap2\n      swap1\n      pop\n      jump\t// out\n        /* \"#utility.yul\":12257:12676   */\n    tag_151:\n        /* \"#utility.yul\":12423:12427   */\n      0x00\n        /* \"#utility.yul\":12461:12463   */\n      0x20\n        /* \"#utility.yul\":12450:12459   */\n      dup3\n        /* \"#utility.yul\":12446:12464   */\n      add\n        /* \"#utility.yul\":12438:12464   */\n      swap1\n      pop\n        /* \"#utility.yul\":12510:12519   */\n      dup2\n        /* \"#utility.yul\":12504:12508   */\n      dup2\n        /* \"#utility.yul\":12500:12520   */\n      sub\n        /* \"#utility.yul\":12496:12497   */\n      0x00\n        /* \"#utility.yul\":12485:12494   */\n      dup4\n        /* \"#utility.yul\":12481:12498   */\n      add\n        /* \"#utility.yul\":12474:12521   */\n      mstore\n        /* \"#utility.yul\":12538:12669   */\n      tag_592\n        /* \"#utility.yul\":12664:12668   */\n      dup2\n        /* \"#utility.yul\":12538:12669   */\n      tag_422\n      jump\t// in\n    tag_592:\n        /* \"#utility.yul\":12530:12669   */\n      swap1\n      pop\n        /* \"#utility.yul\":12257:12676   */\n      swap2\n      swap1\n      pop\n      jump\t// out\n        /* \"#utility.yul\":12682:12854   */\n    tag_423:\n        /* \"#utility.yul\":12822:12846   */\n      0x4e6f206578697374696e67206c6f636b20666f756e6400000000000000000000\n        /* \"#utility.yul\":12818:12819   */\n      0x00\n        /* \"#utility.yul\":12810:12816   */\n      dup3\n        /* \"#utility.yul\":12806:12820   */\n      add\n        /* \"#utility.yul\":12799:12847   */\n      mstore\n        /* \"#utility.yul\":12682:12854   */\n      pop\n      jump\t// out\n        /* \"#utility.yul\":12860:13226   */\n    tag_424:\n        /* \"#utility.yul\":13002:13005   */\n      0x00\n        /* \"#utility.yul\":13023:13090   */\n      tag_595\n        /* \"#utility.yul\":13087:13089   */\n      0x16\n        /* \"#utility.yul\":13082:13085   */\n      dup4\n        /* \"#utility.yul\":13023:13090   */\n      tag_387\n      jump\t// in\n    tag_595:\n        /* \"#utility.yul\":13016:13090   */\n      swap2\n      pop\n        /* \"#utility.yul\":13099:13192   */\n      tag_596\n        /* \"#utility.yul\":13188:13191   */\n      dup3\n        /* \"#utility.yul\":13099:13192   */\n      tag_423\n      jump\t// in\n    tag_596:\n        /* \"#utility.yul\":13217:13219   */\n      0x20\n        /* \"#utility.yul\":13212:13215   */\n      dup3\n        /* \"#utility.yul\":13208:13220   */\n      add\n        /* \"#utility.yul\":13201:13220   */\n      swap1\n      pop\n        /* \"#utility.yul\":12860:13226   */\n      swap2\n      swap1\n      pop\n      jump\t// out\n        /* \"#utility.yul\":13232:13651   */\n    tag_154:\n        /* \"#utility.yul\":13398:13402   */\n      0x00\n        /* \"#utility.yul\":13436:13438   */\n      0x20\n        /* \"#utility.yul\":13425:13434   */\n      dup3\n        /* \"#utility.yul\":13421:13439   */\n      add\n        /* \"#utility.yul\":13413:13439   */\n      swap1\n      pop\n        /* \"#utility.yul\":13485:13494   */\n      dup2\n        /* \"#utility.yul\":13479:13483   */\n      dup2\n        /* \"#utility.yul\":13475:13495   */\n      sub\n        /* \"#utility.yul\":13471:13472   */\n      0x00\n        /* \"#utility.yul\":13460:13469   */\n      dup4\n        /* \"#utility.yul\":13456:13473   */\n      add\n        /* \"#utility.yul\":13449:13496   */\n      mstore\n        /* \"#utility.yul\":13513:13644   */\n      tag_598\n        /* \"#utility.yul\":13639:13643   */\n      dup2\n        /* \"#utility.yul\":13513:13644   */\n      tag_424\n      jump\t// in\n    tag_598:\n        /* \"#utility.yul\":13505:13644   */\n      swap1\n      pop\n        /* \"#utility.yul\":13232:13651   */\n      swap2\n      swap1\n      pop\n      jump\t// out\n        /* \"#utility.yul\":13657:13880   */\n    tag_425:\n        /* \"#utility.yul\":13797:13831   */\n      0x43616e6e6f742061646420746f2065787069726564206c6f636b2e2057697468\n        /* \"#utility.yul\":13793:13794   */\n      0x00\n        /* \"#utility.yul\":13785:13791   */\n      dup3\n        /* \"#utility.yul\":13781:13795   */\n      add\n        /* \"#utility.yul\":13774:13832   */\n      mstore\n        /* \"#utility.yul\":13866:13872   */\n      0x6472617700000000000000000000000000000000000000000000000000000000\n        /* \"#utility.yul\":13861:13863   */\n      0x20\n        /* \"#utility.yul\":13853:13859   */\n      dup3\n        /* \"#utility.yul\":13849:13864   */\n      add\n        /* \"#utility.yul\":13842:13873   */\n      mstore\n        /* \"#utility.yul\":13657:13880   */\n      pop\n      jump\t// out\n        /* \"#utility.yul\":13886:14252   */\n    tag_426:\n        /* \"#utility.yul\":14028:14031   */\n      0x00\n        /* \"#utility.yul\":14049:14116   */\n      tag_601\n        /* \"#utility.yul\":14113:14115   */\n      0x24\n        /* \"#utility.yul\":14108:14111   */\n      dup4\n        /* \"#utility.yul\":14049:14116   */\n      tag_387\n      jump\t// in\n    tag_601:\n        /* \"#utility.yul\":14042:14116   */\n      swap2\n      pop\n        /* \"#utility.yul\":14125:14218   */\n      tag_602\n        /* \"#utility.yul\":14214:14217   */\n      dup3\n        /* \"#utility.yul\":14125:14218   */\n      tag_425\n      jump\t// in\n    tag_602:\n        /* \"#utility.yul\":14243:14245   */\n      0x40\n        /* \"#utility.yul\":14238:14241   */\n      dup3\n        /* \"#utility.yul\":14234:14246   */\n      add\n        /* \"#utility.yul\":14227:14246   */\n      swap1\n      pop\n        /* \"#utility.yul\":13886:14252   */\n      swap2\n      swap1\n      pop\n      jump\t// out\n        /* \"#utility.yul\":14258:14677   */\n    tag_157:\n        /* \"#utility.yul\":14424:14428   */\n      0x00\n        /* \"#utility.yul\":14462:14464   */\n      0x20\n        /* \"#utility.yul\":14451:14460   */\n      dup3\n        /* \"#utility.yul\":14447:14465   */\n      add\n        /* \"#utility.yul\":14439:14465   */\n      swap1\n      pop\n        /* \"#utility.yul\":14511:14520   */\n      dup2\n        /* \"#utility.yul\":14505:14509   */\n      dup2\n        /* \"#utility.yul\":14501:14521   */\n      sub\n        /* \"#utility.yul\":14497:14498   */\n      0x00\n        /* \"#utility.yul\":14486:14495   */\n      dup4\n        /* \"#utility.yul\":14482:14499   */\n      add\n        /* \"#utility.yul\":14475:14522   */\n      mstore\n        /* \"#utility.yul\":14539:14670   */\n      tag_604\n        /* \"#utility.yul\":14665:14669   */\n      dup2\n        /* \"#utility.yul\":14539:14670   */\n      tag_426\n      jump\t// in\n    tag_604:\n        /* \"#utility.yul\":14531:14670   */\n      swap1\n      pop\n        /* \"#utility.yul\":14258:14677   */\n      swap2\n      swap1\n      pop\n      jump\t// out\n        /* \"#utility.yul\":14683:14863   */\n    tag_427:\n        /* \"#utility.yul\":14731:14808   */\n      0x4e487b7100000000000000000000000000000000000000000000000000000000\n        /* \"#utility.yul\":14728:14729   */\n      0x00\n        /* \"#utility.yul\":14721:14809   */\n      mstore\n        /* \"#utility.yul\":14828:14832   */\n      0x11\n        /* \"#utility.yul\":14825:14826   */\n      0x04\n        /* \"#utility.yul\":14818:14833   */\n      mstore\n        /* \"#utility.yul\":14852:14856   */\n      0x24\n        /* \"#utility.yul\":14849:14850   */\n      0x00\n        /* \"#utility.yul\":14842:14857   */\n      revert\n        /* \"#utility.yul\":14869:15217   */\n    tag_165:\n        /* \"#utility.yul\":14909:14916   */\n      0x00\n        /* \"#utility.yul\":14932:14952   */\n      tag_607\n        /* \"#utility.yul\":14950:14951   */\n      dup3\n        /* \"#utility.yul\":14932:14952   */\n      tag_384\n      jump\t// in\n    tag_607:\n        /* \"#utility.yul\":14927:14952   */\n      swap2\n      pop\n        /* \"#utility.yul\":14966:14986   */\n      tag_608\n        /* \"#utility.yul\":14984:14985   */\n      dup4\n        /* \"#utility.yul\":14966:14986   */\n      tag_384\n      jump\t// in\n    tag_608:\n        /* \"#utility.yul\":14961:14986   */\n      swap3\n      pop\n        /* \"#utility.yul\":15154:15155   */\n      dup2\n        /* \"#utility.yul\":15086:15152   */\n      0xffffffffffffffffffffffffffffffffffffffffffffffffffffffffffffffff\n        /* \"#utility.yul\":15082:15156   */\n      div\n        /* \"#utility.yul\":15079:15080   */\n      dup4\n        /* \"#utility.yul\":15076:15157   */\n      gt\n        /* \"#utility.yul\":15071:15072   */\n      dup3\n        /* \"#utility.yul\":15064:15073   */\n      iszero\n        /* \"#utility.yul\":15057:15074   */\n      iszero\n        /* \"#utility.yul\":15053:15158   */\n      and\n        /* \"#utility.yul\":15050:15181   */\n      iszero\n      tag_609\n      jumpi\n        /* \"#utility.yul\":15161:15179   */\n      tag_610\n      tag_427\n      jump\t// in\n    tag_610:\n        /* \"#utility.yul\":15050:15181   */\n    tag_609:\n        /* \"#utility.yul\":15209:15210   */\n      dup3\n        /* \"#utility.yul\":15206:15207   */\n      dup3\n        /* \"#utility.yul\":15202:15211   */\n      mul\n        /* \"#utility.yul\":15191:15211   */\n      swap1\n      pop\n        /* \"#utility.yul\":14869:15217   */\n      swap3\n      swap2\n      pop\n      pop\n      jump\t// out\n        /* \"#utility.yul\":15223:15528   */\n    tag_167:\n        /* \"#utility.yul\":15263:15266   */\n      0x00\n        /* \"#utility.yul\":15282:15302   */\n      tag_612\n        /* \"#utility.yul\":15300:15301   */\n      dup3\n        /* \"#utility.yul\":15282:15302   */\n      tag_384\n      jump\t// in\n    tag_612:\n        /* \"#utility.yul\":15277:15302   */\n      swap2\n      pop\n        /* \"#utility.yul\":15316:15336   */\n      tag_613\n        /* \"#utility.yul\":15334:15335   */\n      dup4\n        /* \"#utility.yul\":15316:15336   */\n      tag_384\n      jump\t// in\n    tag_613:\n        /* \"#utility.yul\":15311:15336   */\n      swap3\n      pop\n        /* \"#utility.yul\":15470:15471   */\n      dup3\n        /* \"#utility.yul\":15402:15468   */\n      0xffffffffffffffffffffffffffffffffffffffffffffffffffffffffffffffff\n        /* \"#utility.yul\":15398:15472   */\n      sub\n        /* \"#utility.yul\":15395:15396   */\n      dup3\n        /* \"#utility.yul\":15392:15473   */\n      gt\n        /* \"#utility.yul\":15389:15496   */\n      iszero\n      tag_614\n      jumpi\n        /* \"#utility.yul\":15476:15494   */\n      tag_615\n      tag_427\n      jump\t// in\n    tag_615:\n        /* \"#utility.yul\":15389:15496   */\n    tag_614:\n        /* \"#utility.yul\":15520:15521   */\n      dup3\n        /* \"#utility.yul\":15517:15518   */\n      dup3\n        /* \"#utility.yul\":15513:15522   */\n      add\n        /* \"#utility.yul\":15506:15522   */\n      swap1\n      pop\n        /* \"#utility.yul\":15223:15528   */\n      swap3\n      swap2\n      pop\n      pop\n      jump\t// out\n        /* \"#utility.yul\":15534:15714   */\n    tag_428:\n        /* \"#utility.yul\":15582:15659   */\n      0x4e487b7100000000000000000000000000000000000000000000000000000000\n        /* \"#utility.yul\":15579:15580   */\n      0x00\n        /* \"#utility.yul\":15572:15660   */\n      mstore\n        /* \"#utility.yul\":15679:15683   */\n      0x12\n        /* \"#utility.yul\":15676:15677   */\n      0x04\n        /* \"#utility.yul\":15669:15684   */\n      mstore\n        /* \"#utility.yul\":15703:15707   */\n      0x24\n        /* \"#utility.yul\":15700:15701   */\n      0x00\n        /* \"#utility.yul\":15693:15708   */\n      revert\n        /* \"#utility.yul\":15720:15905   */\n    tag_170:\n        /* \"#utility.yul\":15760:15761   */\n      0x00\n        /* \"#utility.yul\":15777:15797   */\n      tag_618\n        /* \"#utility.yul\":15795:15796   */\n      dup3\n        /* \"#utility.yul\":15777:15797   */\n      tag_384\n      jump\t// in\n    tag_618:\n        /* \"#utility.yul\":15772:15797   */\n      swap2\n      pop\n        /* \"#utility.yul\":15811:15831   */\n      tag_619\n        /* \"#utility.yul\":15829:15830   */\n      dup4\n        /* \"#utility.yul\":15811:15831   */\n      tag_384\n      jump\t// in\n    tag_619:\n        /* \"#utility.yul\":15806:15831   */\n      swap3\n      pop\n        /* \"#utility.yul\":15850:15851   */\n      dup3\n        /* \"#utility.yul\":15840:15875   */\n      tag_620\n      jumpi\n        /* \"#utility.yul\":15855:15873   */\n      tag_621\n      tag_428\n      jump\t// in\n    tag_621:\n        /* \"#utility.yul\":15840:15875   */\n    tag_620:\n        /* \"#utility.yul\":15897:15898   */\n      dup3\n        /* \"#utility.yul\":15894:15895   */\n      dup3\n        /* \"#utility.yul\":15890:15899   */\n      div\n        /* \"#utility.yul\":15885:15899   */\n      swap1\n      pop\n        /* \"#utility.yul\":15720:15905   */\n      swap3\n      swap2\n      pop\n      pop\n      jump\t// out\n        /* \"#utility.yul\":15911:16083   */\n    tag_429:\n        /* \"#utility.yul\":16051:16075   */\n      0x546865206c6f636b206469646e27742065787069726500000000000000000000\n        /* \"#utility.yul\":16047:16048   */\n      0x00\n        /* \"#utility.yul\":16039:16045   */\n      dup3\n        /* \"#utility.yul\":16035:16049   */\n      add\n        /* \"#utility.yul\":16028:16076   */\n      mstore\n        /* \"#utility.yul\":15911:16083   */\n      pop\n      jump\t// out\n        /* \"#utility.yul\":16089:16455   */\n    tag_430:\n        /* \"#utility.yul\":16231:16234   */\n      0x00\n        /* \"#utility.yul\":16252:16319   */\n      tag_624\n        /* \"#utility.yul\":16316:16318   */\n      0x16\n        /* \"#utility.yul\":16311:16314   */\n      dup4\n        /* \"#utility.yul\":16252:16319   */\n      tag_387\n      jump\t// in\n    tag_624:\n        /* \"#utility.yul\":16245:16319   */\n      swap2\n      pop\n        /* \"#utility.yul\":16328:16421   */\n      tag_625\n        /* \"#utility.yul\":16417:16420   */\n      dup3\n        /* \"#utility.yul\":16328:16421   */\n      tag_429\n      jump\t// in\n    tag_625:\n        /* \"#utility.yul\":16446:16448   */\n      0x20\n        /* \"#utility.yul\":16441:16444   */\n      dup3\n        /* \"#utility.yul\":16437:16449   */\n      add\n        /* \"#utility.yul\":16430:16449   */\n      swap1\n      pop\n        /* \"#utility.yul\":16089:16455   */\n      swap2\n      swap1\n      pop\n      jump\t// out\n        /* \"#utility.yul\":16461:16880   */\n    tag_190:\n        /* \"#utility.yul\":16627:16631   */\n      0x00\n        /* \"#utility.yul\":16665:16667   */\n      0x20\n        /* \"#utility.yul\":16654:16663   */\n      dup3\n        /* \"#utility.yul\":16650:16668   */\n      add\n        /* \"#utility.yul\":16642:16668   */\n      swap1\n      pop\n        /* \"#utility.yul\":16714:16723   */\n      dup2\n        /* \"#utility.yul\":16708:16712   */\n      dup2\n        /* \"#utility.yul\":16704:16724   */\n      sub\n        /* \"#utility.yul\":16700:16701   */\n      0x00\n        /* \"#utility.yul\":16689:16698   */\n      dup4\n        /* \"#utility.yul\":16685:16702   */\n      add\n        /* \"#utility.yul\":16678:16725   */\n      mstore\n        /* \"#utility.yul\":16742:16873   */\n      tag_627\n        /* \"#utility.yul\":16868:16872   */\n      dup2\n        /* \"#utility.yul\":16742:16873   */\n      tag_430\n      jump\t// in\n    tag_627:\n        /* \"#utility.yul\":16734:16873   */\n      swap1\n      pop\n        /* \"#utility.yul\":16461:16880   */\n      swap2\n      swap1\n      pop\n      jump\t// out\n        /* \"#utility.yul\":16886:17077   */\n    tag_192:\n        /* \"#utility.yul\":16926:16930   */\n      0x00\n        /* \"#utility.yul\":16946:16966   */\n      tag_629\n        /* \"#utility.yul\":16964:16965   */\n      dup3\n        /* \"#utility.yul\":16946:16966   */\n      tag_384\n      jump\t// in\n    tag_629:\n        /* \"#utility.yul\":16941:16966   */\n      swap2\n      pop\n        /* \"#utility.yul\":16980:17000   */\n      tag_630\n        /* \"#utility.yul\":16998:16999   */\n      dup4\n        /* \"#utility.yul\":16980:17000   */\n      tag_384\n      jump\t// in\n    tag_630:\n        /* \"#utility.yul\":16975:17000   */\n      swap3\n      pop\n        /* \"#utility.yul\":17019:17020   */\n      dup3\n        /* \"#utility.yul\":17016:17017   */\n      dup3\n        /* \"#utility.yul\":17013:17021   */\n      lt\n        /* \"#utility.yul\":17010:17044   */\n      iszero\n      tag_631\n      jumpi\n        /* \"#utility.yul\":17024:17042   */\n      tag_632\n      tag_427\n      jump\t// in\n    tag_632:\n        /* \"#utility.yul\":17010:17044   */\n    tag_631:\n        /* \"#utility.yul\":17069:17070   */\n      dup3\n        /* \"#utility.yul\":17066:17067   */\n      dup3\n        /* \"#utility.yul\":17062:17071   */\n      sub\n        /* \"#utility.yul\":17054:17071   */\n      swap1\n      pop\n        /* \"#utility.yul\":16886:17077   */\n      swap3\n      swap2\n      pop\n      pop\n      jump\t// out\n        /* \"#utility.yul\":17083:17415   */\n    tag_196:\n        /* \"#utility.yul\":17204:17208   */\n      0x00\n        /* \"#utility.yul\":17242:17244   */\n      0x40\n        /* \"#utility.yul\":17231:17240   */\n      dup3\n        /* \"#utility.yul\":17227:17245   */\n      add\n        /* \"#utility.yul\":17219:17245   */\n      swap1\n      pop\n        /* \"#utility.yul\":17255:17326   */\n      tag_634\n        /* \"#utility.yul\":17323:17324   */\n      0x00\n        /* \"#utility.yul\":17312:17321   */\n      dup4\n        /* \"#utility.yul\":17308:17325   */\n      add\n        /* \"#utility.yul\":17299:17305   */\n      dup6\n        /* \"#utility.yul\":17255:17326   */\n      tag_414\n      jump\t// in\n    tag_634:\n        /* \"#utility.yul\":17336:17408   */\n      tag_635\n        /* \"#utility.yul\":17404:17406   */\n      0x20\n        /* \"#utility.yul\":17393:17402   */\n      dup4\n        /* \"#utility.yul\":17389:17407   */\n      add\n        /* \"#utility.yul\":17380:17386   */\n      dup5\n        /* \"#utility.yul\":17336:17408   */\n      tag_385\n      jump\t// in\n    tag_635:\n        /* \"#utility.yul\":17083:17415   */\n      swap4\n      swap3\n      pop\n      pop\n      pop\n      jump\t// out\n        /* \"#utility.yul\":17421:17511   */\n    tag_431:\n        /* \"#utility.yul\":17455:17462   */\n      0x00\n        /* \"#utility.yul\":17498:17503   */\n      dup2\n        /* \"#utility.yul\":17491:17504   */\n      iszero\n        /* \"#utility.yul\":17484:17505   */\n      iszero\n        /* \"#utility.yul\":17473:17505   */\n      swap1\n      pop\n        /* \"#utility.yul\":17421:17511   */\n      swap2\n      swap1\n      pop\n      jump\t// out\n        /* \"#utility.yul\":17517:17633   */\n    tag_432:\n        /* \"#utility.yul\":17587:17608   */\n      tag_638\n        /* \"#utility.yul\":17602:17607   */\n      dup2\n        /* \"#utility.yul\":17587:17608   */\n      tag_431\n      jump\t// in\n    tag_638:\n        /* \"#utility.yul\":17580:17585   */\n      dup2\n        /* \"#utility.yul\":17577:17609   */\n      eq\n        /* \"#utility.yul\":17567:17627   */\n      tag_639\n      jumpi\n        /* \"#utility.yul\":17623:17624   */\n      0x00\n        /* \"#utility.yul\":17620:17621   */\n      dup1\n        /* \"#utility.yul\":17613:17625   */\n      revert\n        /* \"#utility.yul\":17567:17627   */\n    tag_639:\n        /* \"#utility.yul\":17517:17633   */\n      pop\n      jump\t// out\n        /* \"#utility.yul\":17639:17776   */\n    tag_433:\n        /* \"#utility.yul\":17693:17698   */\n      0x00\n        /* \"#utility.yul\":17724:17730   */\n      dup2\n        /* \"#utility.yul\":17718:17731   */\n      mload\n        /* \"#utility.yul\":17709:17731   */\n      swap1\n      pop\n        /* \"#utility.yul\":17740:17770   */\n      tag_641\n        /* \"#utility.yul\":17764:17769   */\n      dup2\n        /* \"#utility.yul\":17740:17770   */\n      tag_432\n      jump\t// in\n    tag_641:\n        /* \"#utility.yul\":17639:17776   */\n      swap3\n      swap2\n      pop\n      pop\n      jump\t// out\n        /* \"#utility.yul\":17782:18127   */\n    tag_200:\n        /* \"#utility.yul\":17849:17855   */\n      0x00\n        /* \"#utility.yul\":17898:17900   */\n      0x20\n        /* \"#utility.yul\":17886:17895   */\n      dup3\n        /* \"#utility.yul\":17877:17884   */\n      dup5\n        /* \"#utility.yul\":17873:17896   */\n      sub\n        /* \"#utility.yul\":17869:17901   */\n      slt\n        /* \"#utility.yul\":17866:17985   */\n      iszero\n      tag_643\n      jumpi\n        /* \"#utility.yul\":17904:17983   */\n      tag_644\n      tag_392\n      jump\t// in\n    tag_644:\n        /* \"#utility.yul\":17866:17985   */\n    tag_643:\n        /* \"#utility.yul\":18024:18025   */\n      0x00\n        /* \"#utility.yul\":18049:18110   */\n      tag_645\n        /* \"#utility.yul\":18102:18109   */\n      dup5\n        /* \"#utility.yul\":18093:18099   */\n      dup3\n        /* \"#utility.yul\":18082:18091   */\n      dup6\n        /* \"#utility.yul\":18078:18100   */\n      add\n        /* \"#utility.yul\":18049:18110   */\n      tag_433\n      jump\t// in\n    tag_645:\n        /* \"#utility.yul\":18039:18110   */\n      swap2\n      pop\n        /* \"#utility.yul\":17995:18120   */\n      pop\n        /* \"#utility.yul\":17782:18127   */\n      swap3\n      swap2\n      pop\n      pop\n      jump\t// out\n        /* \"#utility.yul\":18133:18366   */\n    tag_218:\n        /* \"#utility.yul\":18172:18175   */\n      0x00\n        /* \"#utility.yul\":18195:18219   */\n      tag_647\n        /* \"#utility.yul\":18213:18218   */\n      dup3\n        /* \"#utility.yul\":18195:18219   */\n      tag_384\n      jump\t// in\n    tag_647:\n        /* \"#utility.yul\":18186:18219   */\n      swap2\n      pop\n        /* \"#utility.yul\":18241:18307   */\n      0xffffffffffffffffffffffffffffffffffffffffffffffffffffffffffffffff\n        /* \"#utility.yul\":18234:18239   */\n      dup3\n        /* \"#utility.yul\":18231:18308   */\n      sub\n        /* \"#utility.yul\":18228:18331   */\n      tag_648\n      jumpi\n        /* \"#utility.yul\":18311:18329   */\n      tag_649\n      tag_427\n      jump\t// in\n    tag_649:\n        /* \"#utility.yul\":18228:18331   */\n    tag_648:\n        /* \"#utility.yul\":18358:18359   */\n      0x01\n        /* \"#utility.yul\":18351:18356   */\n      dup3\n        /* \"#utility.yul\":18347:18360   */\n      add\n        /* \"#utility.yul\":18340:18360   */\n      swap1\n      pop\n        /* \"#utility.yul\":18133:18366   */\n      swap2\n      swap1\n      pop\n      jump\t// out\n        /* \"#utility.yul\":18372:18553   */\n    tag_434:\n        /* \"#utility.yul\":18512:18545   */\n      0x43616e206f6e6c7920696e637265617365206c6f636b206475726174696f6e00\n        /* \"#utility.yul\":18508:18509   */\n      0x00\n        /* \"#utility.yul\":18500:18506   */\n      dup3\n        /* \"#utility.yul\":18496:18510   */\n      add\n        /* \"#utility.yul\":18489:18546   */\n      mstore\n        /* \"#utility.yul\":18372:18553   */\n      pop\n      jump\t// out\n        /* \"#utility.yul\":18559:18925   */\n    tag_435:\n        /* \"#utility.yul\":18701:18704   */\n      0x00\n        /* \"#utility.yul\":18722:18789   */\n      tag_652\n        /* \"#utility.yul\":18786:18788   */\n      0x1f\n        /* \"#utility.yul\":18781:18784   */\n      dup4\n        /* \"#utility.yul\":18722:18789   */\n      tag_387\n      jump\t// in\n    tag_652:\n        /* \"#utility.yul\":18715:18789   */\n      swap2\n      pop\n        /* \"#utility.yul\":18798:18891   */\n      tag_653\n        /* \"#utility.yul\":18887:18890   */\n      dup3\n        /* \"#utility.yul\":18798:18891   */\n      tag_434\n      jump\t// in\n    tag_653:\n        /* \"#utility.yul\":18916:18918   */\n      0x20\n        /* \"#utility.yul\":18911:18914   */\n      dup3\n        /* \"#utility.yul\":18907:18919   */\n      add\n        /* \"#utility.yul\":18900:18919   */\n      swap1\n      pop\n        /* \"#utility.yul\":18559:18925   */\n      swap2\n      swap1\n      pop\n      jump\t// out\n        /* \"#utility.yul\":18931:19350   */\n    tag_235:\n        /* \"#utility.yul\":19097:19101   */\n      0x00\n        /* \"#utility.yul\":19135:19137   */\n      0x20\n        /* \"#utility.yul\":19124:19133   */\n      dup3\n        /* \"#utility.yul\":19120:19138   */\n      add\n        /* \"#utility.yul\":19112:19138   */\n      swap1\n      pop\n        /* \"#utility.yul\":19184:19193   */\n      dup2\n        /* \"#utility.yul\":19178:19182   */\n      dup2\n        /* \"#utility.yul\":19174:19194   */\n      sub\n        /* \"#utility.yul\":19170:19171   */\n      0x00\n        /* \"#utility.yul\":19159:19168   */\n      dup4\n        /* \"#utility.yul\":19155:19172   */\n      add\n        /* \"#utility.yul\":19148:19195   */\n      mstore\n        /* \"#utility.yul\":19212:19343   */\n      tag_655\n        /* \"#utility.yul\":19338:19342   */\n      dup2\n        /* \"#utility.yul\":19212:19343   */\n      tag_435\n      jump\t// in\n    tag_655:\n        /* \"#utility.yul\":19204:19343   */\n      swap1\n      pop\n        /* \"#utility.yul\":18931:19350   */\n      swap2\n      swap1\n      pop\n      jump\t// out\n        /* \"#utility.yul\":19356:19536   */\n    tag_436:\n        /* \"#utility.yul\":19496:19528   */\n      0x566f74696e67206c6f636b2063616e2062652034207965617273206d61780000\n        /* \"#utility.yul\":19492:19493   */\n      0x00\n        /* \"#utility.yul\":19484:19490   */\n      dup3\n        /* \"#utility.yul\":19480:19494   */\n      add\n        /* \"#utility.yul\":19473:19529   */\n      mstore\n        /* \"#utility.yul\":19356:19536   */\n      pop\n      jump\t// out\n        /* \"#utility.yul\":19542:19908   */\n    tag_437:\n        /* \"#utility.yul\":19684:19687   */\n      0x00\n        /* \"#utility.yul\":19705:19772   */\n      tag_658\n        /* \"#utility.yul\":19769:19771   */\n      0x1e\n        /* \"#utility.yul\":19764:19767   */\n      dup4\n        /* \"#utility.yul\":19705:19772   */\n      tag_387\n      jump\t// in\n    tag_658:\n        /* \"#utility.yul\":19698:19772   */\n      swap2\n      pop\n        /* \"#utility.yul\":19781:19874   */\n      tag_659\n        /* \"#utility.yul\":19870:19873   */\n      dup3\n        /* \"#utility.yul\":19781:19874   */\n      tag_436\n      jump\t// in\n    tag_659:\n        /* \"#utility.yul\":19899:19901   */\n      0x20\n        /* \"#utility.yul\":19894:19897   */\n      dup3\n        /* \"#utility.yul\":19890:19902   */\n      add\n        /* \"#utility.yul\":19883:19902   */\n      swap1\n      pop\n        /* \"#utility.yul\":19542:19908   */\n      swap2\n      swap1\n      pop\n      jump\t// out\n        /* \"#utility.yul\":19914:20333   */\n    tag_240:\n        /* \"#utility.yul\":20080:20084   */\n      0x00\n        /* \"#utility.yul\":20118:20120   */\n      0x20\n        /* \"#utility.yul\":20107:20116   */\n      dup3\n        /* \"#utility.yul\":20103:20121   */\n      add\n        /* \"#utility.yul\":20095:20121   */\n      swap1\n      pop\n        /* \"#utility.yul\":20167:20176   */\n      dup2\n        /* \"#utility.yul\":20161:20165   */\n      dup2\n        /* \"#utility.yul\":20157:20177   */\n      sub\n        /* \"#utility.yul\":20153:20154   */\n      0x00\n        /* \"#utility.yul\":20142:20151   */\n      dup4\n        /* \"#utility.yul\":20138:20155   */\n      add\n        /* \"#utility.yul\":20131:20178   */\n      mstore\n        /* \"#utility.yul\":20195:20326   */\n      tag_661\n        /* \"#utility.yul\":20321:20325   */\n      dup2\n        /* \"#utility.yul\":20195:20326   */\n      tag_437\n      jump\t// in\n    tag_661:\n        /* \"#utility.yul\":20187:20326   */\n      swap1\n      pop\n        /* \"#utility.yul\":19914:20333   */\n      swap2\n      swap1\n      pop\n      jump\t// out\n        /* \"#utility.yul\":20339:20482   */\n    tag_438:\n        /* \"#utility.yul\":20396:20401   */\n      0x00\n        /* \"#utility.yul\":20427:20433   */\n      dup2\n        /* \"#utility.yul\":20421:20434   */\n      mload\n        /* \"#utility.yul\":20412:20434   */\n      swap1\n      pop\n        /* \"#utility.yul\":20443:20476   */\n      tag_663\n        /* \"#utility.yul\":20470:20475   */\n      dup2\n        /* \"#utility.yul\":20443:20476   */\n      tag_394\n      jump\t// in\n    tag_663:\n        /* \"#utility.yul\":20339:20482   */\n      swap3\n      swap2\n      pop\n      pop\n      jump\t// out\n        /* \"#utility.yul\":20488:20839   */\n    tag_269:\n        /* \"#utility.yul\":20558:20564   */\n      0x00\n        /* \"#utility.yul\":20607:20609   */\n      0x20\n        /* \"#utility.yul\":20595:20604   */\n      dup3\n        /* \"#utility.yul\":20586:20593   */\n      dup5\n        /* \"#utility.yul\":20582:20605   */\n      sub\n        /* \"#utility.yul\":20578:20610   */\n      slt\n        /* \"#utility.yul\":20575:20694   */\n      iszero\n      tag_665\n      jumpi\n        /* \"#utility.yul\":20613:20692   */\n      tag_666\n      tag_392\n      jump\t// in\n    tag_666:\n        /* \"#utility.yul\":20575:20694   */\n    tag_665:\n        /* \"#utility.yul\":20733:20734   */\n      0x00\n        /* \"#utility.yul\":20758:20822   */\n      tag_667\n        /* \"#utility.yul\":20814:20821   */\n      dup5\n        /* \"#utility.yul\":20805:20811   */\n      dup3\n        /* \"#utility.yul\":20794:20803   */\n      dup6\n        /* \"#utility.yul\":20790:20812   */\n      add\n        /* \"#utility.yul\":20758:20822   */\n      tag_438\n      jump\t// in\n    tag_667:\n        /* \"#utility.yul\":20748:20822   */\n      swap2\n      pop\n        /* \"#utility.yul\":20704:20832   */\n      pop\n        /* \"#utility.yul\":20488:20839   */\n      swap3\n      swap2\n      pop\n      pop\n      jump\t// out\n        /* \"#utility.yul\":20845:21020   */\n    tag_439:\n        /* \"#utility.yul\":20985:21012   */\n      0x5769746864726177206f6c6420746f6b656e7320666972737400000000000000\n        /* \"#utility.yul\":20981:20982   */\n      0x00\n        /* \"#utility.yul\":20973:20979   */\n      dup3\n        /* \"#utility.yul\":20969:20983   */\n      add\n        /* \"#utility.yul\":20962:21013   */\n      mstore\n        /* \"#utility.yul\":20845:21020   */\n      pop\n      jump\t// out\n        /* \"#utility.yul\":21026:21392   */\n    tag_440:\n        /* \"#utility.yul\":21168:21171   */\n      0x00\n        /* \"#utility.yul\":21189:21256   */\n      tag_670\n        /* \"#utility.yul\":21253:21255   */\n      0x19\n        /* \"#utility.yul\":21248:21251   */\n      dup4\n        /* \"#utility.yul\":21189:21256   */\n      tag_387\n      jump\t// in\n    tag_670:\n        /* \"#utility.yul\":21182:21256   */\n      swap2\n      pop\n        /* \"#utility.yul\":21265:21358   */\n      tag_671\n        /* \"#utility.yul\":21354:21357   */\n      dup3\n        /* \"#utility.yul\":21265:21358   */\n      tag_439\n      jump\t// in\n    tag_671:\n        /* \"#utility.yul\":21383:21385   */\n      0x20\n        /* \"#utility.yul\":21378:21381   */\n      dup3\n        /* \"#utility.yul\":21374:21386   */\n      add\n        /* \"#utility.yul\":21367:21386   */\n      swap1\n      pop\n        /* \"#utility.yul\":21026:21392   */\n      swap2\n      swap1\n      pop\n      jump\t// out\n        /* \"#utility.yul\":21398:21817   */\n    tag_286:\n        /* \"#utility.yul\":21564:21568   */\n      0x00\n        /* \"#utility.yul\":21602:21604   */\n      0x20\n        /* \"#utility.yul\":21591:21600   */\n      dup3\n        /* \"#utility.yul\":21587:21605   */\n      add\n        /* \"#utility.yul\":21579:21605   */\n      swap1\n      pop\n        /* \"#utility.yul\":21651:21660   */\n      dup2\n        /* \"#utility.yul\":21645:21649   */\n      dup2\n        /* \"#utility.yul\":21641:21661   */\n      sub\n        /* \"#utility.yul\":21637:21638   */\n      0x00\n        /* \"#utility.yul\":21626:21635   */\n      dup4\n        /* \"#utility.yul\":21622:21639   */\n      add\n        /* \"#utility.yul\":21615:21662   */\n      mstore\n        /* \"#utility.yul\":21679:21810   */\n      tag_673\n        /* \"#utility.yul\":21805:21809   */\n      dup2\n        /* \"#utility.yul\":21679:21810   */\n      tag_440\n      jump\t// in\n    tag_673:\n        /* \"#utility.yul\":21671:21810   */\n      swap1\n      pop\n        /* \"#utility.yul\":21398:21817   */\n      swap2\n      swap1\n      pop\n      jump\t// out\n        /* \"#utility.yul\":21823:22048   */\n    tag_441:\n        /* \"#utility.yul\":21963:21997   */\n      0x43616e206f6e6c79206c6f636b20756e74696c2074696d6520696e2074686520\n        /* \"#utility.yul\":21959:21960   */\n      0x00\n        /* \"#utility.yul\":21951:21957   */\n      dup3\n        /* \"#utility.yul\":21947:21961   */\n      add\n        /* \"#utility.yul\":21940:21998   */\n      mstore\n        /* \"#utility.yul\":22032:22040   */\n      0x6675747572650000000000000000000000000000000000000000000000000000\n        /* \"#utility.yul\":22027:22029   */\n      0x20\n        /* \"#utility.yul\":22019:22025   */\n      dup3\n        /* \"#utility.yul\":22015:22030   */\n      add\n        /* \"#utility.yul\":22008:22041   */\n      mstore\n        /* \"#utility.yul\":21823:22048   */\n      pop\n      jump\t// out\n        /* \"#utility.yul\":22054:22420   */\n    tag_442:\n        /* \"#utility.yul\":22196:22199   */\n      0x00\n        /* \"#utility.yul\":22217:22284   */\n      tag_676\n        /* \"#utility.yul\":22281:22283   */\n      0x26\n        /* \"#utility.yul\":22276:22279   */\n      dup4\n        /* \"#utility.yul\":22217:22284   */\n      tag_387\n      jump\t// in\n    tag_676:\n        /* \"#utility.yul\":22210:22284   */\n      swap2\n      pop\n        /* \"#utility.yul\":22293:22386   */\n      tag_677\n        /* \"#utility.yul\":22382:22385   */\n      dup3\n        /* \"#utility.yul\":22293:22386   */\n      tag_441\n      jump\t// in\n    tag_677:\n        /* \"#utility.yul\":22411:22413   */\n      0x40\n        /* \"#utility.yul\":22406:22409   */\n      dup3\n        /* \"#utility.yul\":22402:22414   */\n      add\n        /* \"#utility.yul\":22395:22414   */\n      swap1\n      pop\n        /* \"#utility.yul\":22054:22420   */\n      swap2\n      swap1\n      pop\n      jump\t// out\n        /* \"#utility.yul\":22426:22845   */\n    tag_289:\n        /* \"#utility.yul\":22592:22596   */\n      0x00\n        /* \"#utility.yul\":22630:22632   */\n      0x20\n        /* \"#utility.yul\":22619:22628   */\n      dup3\n        /* \"#utility.yul\":22615:22633   */\n      add\n        /* \"#utility.yul\":22607:22633   */\n      swap1\n      pop\n        /* \"#utility.yul\":22679:22688   */\n      dup2\n        /* \"#utility.yul\":22673:22677   */\n      dup2\n        /* \"#utility.yul\":22669:22689   */\n      sub\n        /* \"#utility.yul\":22665:22666   */\n      0x00\n        /* \"#utility.yul\":22654:22663   */\n      dup4\n        /* \"#utility.yul\":22650:22667   */\n      add\n        /* \"#utility.yul\":22643:22690   */\n      mstore\n        /* \"#utility.yul\":22707:22838   */\n      tag_679\n        /* \"#utility.yul\":22833:22837   */\n      dup2\n        /* \"#utility.yul\":22707:22838   */\n      tag_442\n      jump\t// in\n    tag_679:\n        /* \"#utility.yul\":22699:22838   */\n      swap1\n      pop\n        /* \"#utility.yul\":22426:22845   */\n      swap2\n      swap1\n      pop\n      jump\t// out\n        /* \"#utility.yul\":22851:23293   */\n    tag_301:\n        /* \"#utility.yul\":23000:23004   */\n      0x00\n        /* \"#utility.yul\":23038:23040   */\n      0x60\n        /* \"#utility.yul\":23027:23036   */\n      dup3\n        /* \"#utility.yul\":23023:23041   */\n      add\n        /* \"#utility.yul\":23015:23041   */\n      swap1\n      pop\n        /* \"#utility.yul\":23051:23122   */\n      tag_681\n        /* \"#utility.yul\":23119:23120   */\n      0x00\n        /* \"#utility.yul\":23108:23117   */\n      dup4\n        /* \"#utility.yul\":23104:23121   */\n      add\n        /* \"#utility.yul\":23095:23101   */\n      dup7\n        /* \"#utility.yul\":23051:23122   */\n      tag_414\n      jump\t// in\n    tag_681:\n        /* \"#utility.yul\":23132:23204   */\n      tag_682\n        /* \"#utility.yul\":23200:23202   */\n      0x20\n        /* \"#utility.yul\":23189:23198   */\n      dup4\n        /* \"#utility.yul\":23185:23203   */\n      add\n        /* \"#utility.yul\":23176:23182   */\n      dup6\n        /* \"#utility.yul\":23132:23204   */\n      tag_414\n      jump\t// in\n    tag_682:\n        /* \"#utility.yul\":23214:23286   */\n      tag_683\n        /* \"#utility.yul\":23282:23284   */\n      0x40\n        /* \"#utility.yul\":23271:23280   */\n      dup4\n        /* \"#utility.yul\":23267:23285   */\n      add\n        /* \"#utility.yul\":23258:23264   */\n      dup5\n        /* \"#utility.yul\":23214:23286   */\n      tag_385\n      jump\t// in\n    tag_683:\n        /* \"#utility.yul\":22851:23293   */\n      swap5\n      swap4\n      pop\n      pop\n      pop\n      pop\n      jump\t// out\n        /* \"#utility.yul\":23299:23469   */\n    tag_443:\n        /* \"#utility.yul\":23439:23461   */\n      0x4552433230207472616e73666572206572726f72000000000000000000000000\n        /* \"#utility.yul\":23435:23436   */\n      0x00\n        /* \"#utility.yul\":23427:23433   */\n      dup3\n        /* \"#utility.yul\":23423:23437   */\n      add\n        /* \"#utility.yul\":23416:23462   */\n      mstore\n        /* \"#utility.yul\":23299:23469   */\n      pop\n      jump\t// out\n        /* \"#utility.yul\":23475:23841   */\n    tag_444:\n        /* \"#utility.yul\":23617:23620   */\n      0x00\n        /* \"#utility.yul\":23638:23705   */\n      tag_686\n        /* \"#utility.yul\":23702:23704   */\n      0x14\n        /* \"#utility.yul\":23697:23700   */\n      dup4\n        /* \"#utility.yul\":23638:23705   */\n      tag_387\n      jump\t// in\n    tag_686:\n        /* \"#utility.yul\":23631:23705   */\n      swap2\n      pop\n        /* \"#utility.yul\":23714:23807   */\n      tag_687\n        /* \"#utility.yul\":23803:23806   */\n      dup3\n        /* \"#utility.yul\":23714:23807   */\n      tag_443\n      jump\t// in\n    tag_687:\n        /* \"#utility.yul\":23832:23834   */\n      0x20\n        /* \"#utility.yul\":23827:23830   */\n      dup3\n        /* \"#utility.yul\":23823:23835   */\n      add\n        /* \"#utility.yul\":23816:23835   */\n      swap1\n      pop\n        /* \"#utility.yul\":23475:23841   */\n      swap2\n      swap1\n      pop\n      jump\t// out\n        /* \"#utility.yul\":23847:24266   */\n    tag_307:\n        /* \"#utility.yul\":24013:24017   */\n      0x00\n        /* \"#utility.yul\":24051:24053   */\n      0x20\n        /* \"#utility.yul\":24040:24049   */\n      dup3\n        /* \"#utility.yul\":24036:24054   */\n      add\n        /* \"#utility.yul\":24028:24054   */\n      swap1\n      pop\n        /* \"#utility.yul\":24100:24109   */\n      dup2\n        /* \"#utility.yul\":24094:24098   */\n      dup2\n        /* \"#utility.yul\":24090:24110   */\n      sub\n        /* \"#utility.yul\":24086:24087   */\n      0x00\n        /* \"#utility.yul\":24075:24084   */\n      dup4\n        /* \"#utility.yul\":24071:24088   */\n      add\n        /* \"#utility.yul\":24064:24111   */\n      mstore\n        /* \"#utility.yul\":24128:24259   */\n      tag_689\n        /* \"#utility.yul\":24254:24258   */\n      dup2\n        /* \"#utility.yul\":24128:24259   */\n      tag_444\n      jump\t// in\n    tag_689:\n        /* \"#utility.yul\":24120:24259   */\n      swap1\n      pop\n        /* \"#utility.yul\":23847:24266   */\n      swap2\n      swap1\n      pop\n      jump\t// out\n        /* \"#utility.yul\":24272:24452   */\n    tag_445:\n        /* \"#utility.yul\":24320:24397   */\n      0x4e487b7100000000000000000000000000000000000000000000000000000000\n        /* \"#utility.yul\":24317:24318   */\n      0x00\n        /* \"#utility.yul\":24310:24398   */\n      mstore\n        /* \"#utility.yul\":24417:24421   */\n      0x21\n        /* \"#utility.yul\":24414:24415   */\n      0x04\n        /* \"#utility.yul\":24407:24422   */\n      mstore\n        /* \"#utility.yul\":24441:24445   */\n      0x24\n        /* \"#utility.yul\":24438:24439   */\n      0x00\n        /* \"#utility.yul\":24431:24446   */\n      revert\n        /* \"#utility.yul\":24458:24576   */\n    tag_446:\n        /* \"#utility.yul\":24544:24545   */\n      0x04\n        /* \"#utility.yul\":24537:24542   */\n      dup2\n        /* \"#utility.yul\":24534:24546   */\n      lt\n        /* \"#utility.yul\":24524:24570   */\n      tag_692\n      jumpi\n        /* \"#utility.yul\":24550:24568   */\n      tag_693\n      tag_445\n      jump\t// in\n    tag_693:\n        /* \"#utility.yul\":24524:24570   */\n    tag_692:\n        /* \"#utility.yul\":24458:24576   */\n      pop\n      jump\t// out\n        /* \"#utility.yul\":24582:24719   */\n    tag_447:\n        /* \"#utility.yul\":24632:24639   */\n      0x00\n        /* \"#utility.yul\":24661:24666   */\n      dup2\n        /* \"#utility.yul\":24650:24666   */\n      swap1\n      pop\n        /* \"#utility.yul\":24667:24713   */\n      tag_695\n        /* \"#utility.yul\":24707:24712   */\n      dup3\n        /* \"#utility.yul\":24667:24713   */\n      tag_446\n      jump\t// in\n    tag_695:\n        /* \"#utility.yul\":24582:24719   */\n      swap2\n      swap1\n      pop\n      jump\t// out\n        /* \"#utility.yul\":24725:24862   */\n    tag_448:\n        /* \"#utility.yul\":24786:24795   */\n      0x00\n        /* \"#utility.yul\":24819:24856   */\n      tag_697\n        /* \"#utility.yul\":24850:24855   */\n      dup3\n        /* \"#utility.yul\":24819:24856   */\n      tag_447\n      jump\t// in\n    tag_697:\n        /* \"#utility.yul\":24806:24856   */\n      swap1\n      pop\n        /* \"#utility.yul\":24725:24862   */\n      swap2\n      swap1\n      pop\n      jump\t// out\n        /* \"#utility.yul\":24868:25021   */\n    tag_449:\n        /* \"#utility.yul\":24966:25014   */\n      tag_699\n        /* \"#utility.yul\":25008:25013   */\n      dup2\n        /* \"#utility.yul\":24966:25014   */\n      tag_448\n      jump\t// in\n    tag_699:\n        /* \"#utility.yul\":24961:24964   */\n      dup3\n        /* \"#utility.yul\":24954:25015   */\n      mstore\n        /* \"#utility.yul\":24868:25021   */\n      pop\n      pop\n      jump\t// out\n        /* \"#utility.yul\":25027:25491   */\n    tag_309:\n        /* \"#utility.yul\":25187:25191   */\n      0x00\n        /* \"#utility.yul\":25225:25227   */\n      0x60\n        /* \"#utility.yul\":25214:25223   */\n      dup3\n        /* \"#utility.yul\":25210:25228   */\n      add\n        /* \"#utility.yul\":25202:25228   */\n      swap1\n      pop\n        /* \"#utility.yul\":25238:25309   */\n      tag_701\n        /* \"#utility.yul\":25306:25307   */\n      0x00\n        /* \"#utility.yul\":25295:25304   */\n      dup4\n        /* \"#utility.yul\":25291:25308   */\n      add\n        /* \"#utility.yul\":25282:25288   */\n      dup7\n        /* \"#utility.yul\":25238:25309   */\n      tag_385\n      jump\t// in\n    tag_701:\n        /* \"#utility.yul\":25319:25402   */\n      tag_702\n        /* \"#utility.yul\":25398:25400   */\n      0x20\n        /* \"#utility.yul\":25387:25396   */\n      dup4\n        /* \"#utility.yul\":25383:25401   */\n      add\n        /* \"#utility.yul\":25374:25380   */\n      dup6\n        /* \"#utility.yul\":25319:25402   */\n      tag_449\n      jump\t// in\n    tag_702:\n        /* \"#utility.yul\":25412:25484   */\n      tag_703\n        /* \"#utility.yul\":25480:25482   */\n      0x40\n        /* \"#utility.yul\":25469:25478   */\n      dup4\n        /* \"#utility.yul\":25465:25483   */\n      add\n        /* \"#utility.yul\":25456:25462   */\n      dup5\n        /* \"#utility.yul\":25412:25484   */\n      tag_385\n      jump\t// in\n    tag_703:\n        /* \"#utility.yul\":25027:25491   */\n      swap5\n      swap4\n      pop\n      pop\n      pop\n      pop\n      jump\t// out\n        /* \"#utility.yul\":25497:26024   */\n    tag_320:\n        /* \"#utility.yul\":25536:25540   */\n      0x00\n        /* \"#utility.yul\":25556:25575   */\n      tag_705\n        /* \"#utility.yul\":25573:25574   */\n      dup3\n        /* \"#utility.yul\":25556:25575   */\n      tag_400\n      jump\t// in\n    tag_705:\n        /* \"#utility.yul\":25551:25575   */\n      swap2\n      pop\n        /* \"#utility.yul\":25589:25608   */\n      tag_706\n        /* \"#utility.yul\":25606:25607   */\n      dup4\n        /* \"#utility.yul\":25589:25608   */\n      tag_400\n      jump\t// in\n    tag_706:\n        /* \"#utility.yul\":25584:25608   */\n      swap3\n      pop\n        /* \"#utility.yul\":25778:25779   */\n      dup3\n        /* \"#utility.yul\":25710:25776   */\n      0x8000000000000000000000000000000000000000000000000000000000000000\n        /* \"#utility.yul\":25706:25780   */\n      add\n        /* \"#utility.yul\":25703:25704   */\n      dup3\n        /* \"#utility.yul\":25699:25781   */\n      slt\n        /* \"#utility.yul\":25694:25695   */\n      0x00\n        /* \"#utility.yul\":25691:25692   */\n      dup5\n        /* \"#utility.yul\":25687:25696   */\n      slt\n        /* \"#utility.yul\":25680:25697   */\n      iszero\n        /* \"#utility.yul\":25676:25782   */\n      and\n        /* \"#utility.yul\":25673:25805   */\n      iszero\n      tag_707\n      jumpi\n        /* \"#utility.yul\":25785:25803   */\n      tag_708\n      tag_427\n      jump\t// in\n    tag_708:\n        /* \"#utility.yul\":25673:25805   */\n    tag_707:\n        /* \"#utility.yul\":25964:25965   */\n      dup3\n        /* \"#utility.yul\":25896:25962   */\n      0x7fffffffffffffffffffffffffffffffffffffffffffffffffffffffffffffff\n        /* \"#utility.yul\":25892:25966   */\n      add\n        /* \"#utility.yul\":25889:25890   */\n      dup3\n        /* \"#utility.yul\":25885:25967   */\n      sgt\n        /* \"#utility.yul\":25881:25882   */\n      0x00\n        /* \"#utility.yul\":25878:25879   */\n      dup5\n        /* \"#utility.yul\":25874:25883   */\n      slt\n        /* \"#utility.yul\":25870:25968   */\n      and\n        /* \"#utility.yul\":25867:25991   */\n      iszero\n      tag_709\n      jumpi\n        /* \"#utility.yul\":25971:25989   */\n      tag_710\n      tag_427\n      jump\t// in\n    tag_710:\n        /* \"#utility.yul\":25867:25991   */\n    tag_709:\n        /* \"#utility.yul\":26016:26017   */\n      dup3\n        /* \"#utility.yul\":26013:26014   */\n      dup3\n        /* \"#utility.yul\":26009:26018   */\n      sub\n        /* \"#utility.yul\":26001:26018   */\n      swap1\n      pop\n        /* \"#utility.yul\":25497:26024   */\n      swap3\n      swap2\n      pop\n      pop\n      jump\t// out\n        /* \"#utility.yul\":26030:27021   */\n    tag_322:\n        /* \"#utility.yul\":26069:26076   */\n      0x00\n        /* \"#utility.yul\":26092:26111   */\n      tag_712\n        /* \"#utility.yul\":26109:26110   */\n      dup3\n        /* \"#utility.yul\":26092:26111   */\n      tag_400\n      jump\t// in\n    tag_712:\n        /* \"#utility.yul\":26087:26111   */\n      swap2\n      pop\n        /* \"#utility.yul\":26125:26144   */\n      tag_713\n        /* \"#utility.yul\":26142:26143   */\n      dup4\n        /* \"#utility.yul\":26125:26144   */\n      tag_400\n      jump\t// in\n    tag_713:\n        /* \"#utility.yul\":26120:26144   */\n      swap3\n      pop\n        /* \"#utility.yul\":26326:26327   */\n      dup3\n        /* \"#utility.yul\":26258:26324   */\n      0x7fffffffffffffffffffffffffffffffffffffffffffffffffffffffffffffff\n        /* \"#utility.yul\":26254:26328   */\n      div\n        /* \"#utility.yul\":26251:26252   */\n      dup3\n        /* \"#utility.yul\":26248:26329   */\n      gt\n        /* \"#utility.yul\":26243:26244   */\n      0x00\n        /* \"#utility.yul\":26240:26241   */\n      dup5\n        /* \"#utility.yul\":26236:26245   */\n      sgt\n        /* \"#utility.yul\":26232:26233   */\n      0x00\n        /* \"#utility.yul\":26229:26230   */\n      dup5\n        /* \"#utility.yul\":26225:26234   */\n      sgt\n        /* \"#utility.yul\":26221:26246   */\n      and\n        /* \"#utility.yul\":26217:26330   */\n      and\n        /* \"#utility.yul\":26214:26353   */\n      iszero\n      tag_714\n      jumpi\n        /* \"#utility.yul\":26333:26351   */\n      tag_715\n      tag_427\n      jump\t// in\n    tag_715:\n        /* \"#utility.yul\":26214:26353   */\n    tag_714:\n        /* \"#utility.yul\":26537:26538   */\n      dup2\n        /* \"#utility.yul\":26469:26535   */\n      0x8000000000000000000000000000000000000000000000000000000000000000\n        /* \"#utility.yul\":26464:26539   */\n      sdiv\n        /* \"#utility.yul\":26461:26462   */\n      dup4\n        /* \"#utility.yul\":26457:26540   */\n      slt\n        /* \"#utility.yul\":26452:26453   */\n      0x00\n        /* \"#utility.yul\":26449:26450   */\n      dup5\n        /* \"#utility.yul\":26445:26454   */\n      slt\n        /* \"#utility.yul\":26441:26442   */\n      0x00\n        /* \"#utility.yul\":26438:26439   */\n      dup5\n        /* \"#utility.yul\":26434:26443   */\n      sgt\n        /* \"#utility.yul\":26430:26455   */\n      and\n        /* \"#utility.yul\":26426:26541   */\n      and\n        /* \"#utility.yul\":26423:26564   */\n      iszero\n      tag_716\n      jumpi\n        /* \"#utility.yul\":26544:26562   */\n      tag_717\n      tag_427\n      jump\t// in\n    tag_717:\n        /* \"#utility.yul\":26423:26564   */\n    tag_716:\n        /* \"#utility.yul\":26748:26749   */\n      dup3\n        /* \"#utility.yul\":26680:26746   */\n      0x8000000000000000000000000000000000000000000000000000000000000000\n        /* \"#utility.yul\":26675:26750   */\n      sdiv\n        /* \"#utility.yul\":26672:26673   */\n      dup3\n        /* \"#utility.yul\":26668:26751   */\n      slt\n        /* \"#utility.yul\":26663:26664   */\n      0x00\n        /* \"#utility.yul\":26660:26661   */\n      dup5\n        /* \"#utility.yul\":26656:26665   */\n      sgt\n        /* \"#utility.yul\":26652:26653   */\n      0x00\n        /* \"#utility.yul\":26649:26650   */\n      dup5\n        /* \"#utility.yul\":26645:26654   */\n      slt\n        /* \"#utility.yul\":26641:26666   */\n      and\n        /* \"#utility.yul\":26637:26752   */\n      and\n        /* \"#utility.yul\":26634:26775   */\n      iszero\n      tag_718\n      jumpi\n        /* \"#utility.yul\":26755:26773   */\n      tag_719\n      tag_427\n      jump\t// in\n    tag_719:\n        /* \"#utility.yul\":26634:26775   */\n    tag_718:\n        /* \"#utility.yul\":26958:26959   */\n      dup3\n        /* \"#utility.yul\":26890:26956   */\n      0x7fffffffffffffffffffffffffffffffffffffffffffffffffffffffffffffff\n        /* \"#utility.yul\":26885:26960   */\n      sdiv\n        /* \"#utility.yul\":26882:26883   */\n      dup3\n        /* \"#utility.yul\":26878:26961   */\n      slt\n        /* \"#utility.yul\":26873:26874   */\n      0x00\n        /* \"#utility.yul\":26870:26871   */\n      dup5\n        /* \"#utility.yul\":26866:26875   */\n      slt\n        /* \"#utility.yul\":26862:26863   */\n      0x00\n        /* \"#utility.yul\":26859:26860   */\n      dup5\n        /* \"#utility.yul\":26855:26864   */\n      slt\n        /* \"#utility.yul\":26851:26876   */\n      and\n        /* \"#utility.yul\":26847:26962   */\n      and\n        /* \"#utility.yul\":26844:26985   */\n      iszero\n      tag_720\n      jumpi\n        /* \"#utility.yul\":26965:26983   */\n      tag_721\n      tag_427\n      jump\t// in\n    tag_721:\n        /* \"#utility.yul\":26844:26985   */\n    tag_720:\n        /* \"#utility.yul\":27013:27014   */\n      dup3\n        /* \"#utility.yul\":27010:27011   */\n      dup3\n        /* \"#utility.yul\":27006:27015   */\n      mul\n        /* \"#utility.yul\":26995:27015   */\n      swap1\n      pop\n        /* \"#utility.yul\":26030:27021   */\n      swap3\n      swap2\n      pop\n      pop\n      jump\t// out\n        /* \"#utility.yul\":27027:27552   */\n    tag_327:\n        /* \"#utility.yul\":27066:27069   */\n      0x00\n        /* \"#utility.yul\":27085:27104   */\n      tag_723\n        /* \"#utility.yul\":27102:27103   */\n      dup3\n        /* \"#utility.yul\":27085:27104   */\n      tag_400\n      jump\t// in\n    tag_723:\n        /* \"#utility.yul\":27080:27104   */\n      swap2\n      pop\n        /* \"#utility.yul\":27118:27137   */\n      tag_724\n        /* \"#utility.yul\":27135:27136   */\n      dup4\n        /* \"#utility.yul\":27118:27137   */\n      tag_400\n      jump\t// in\n    tag_724:\n        /* \"#utility.yul\":27113:27137   */\n      swap3\n      pop\n        /* \"#utility.yul\":27306:27307   */\n      dup2\n        /* \"#utility.yul\":27238:27304   */\n      0x7fffffffffffffffffffffffffffffffffffffffffffffffffffffffffffffff\n        /* \"#utility.yul\":27234:27308   */\n      sub\n        /* \"#utility.yul\":27231:27232   */\n      dup4\n        /* \"#utility.yul\":27227:27309   */\n      sgt\n        /* \"#utility.yul\":27222:27223   */\n      0x00\n        /* \"#utility.yul\":27219:27220   */\n      dup4\n        /* \"#utility.yul\":27215:27224   */\n      slt\n        /* \"#utility.yul\":27208:27225   */\n      iszero\n        /* \"#utility.yul\":27204:27310   */\n      and\n        /* \"#utility.yul\":27201:27333   */\n      iszero\n      tag_725\n      jumpi\n        /* \"#utility.yul\":27313:27331   */\n      tag_726\n      tag_427\n      jump\t// in\n    tag_726:\n        /* \"#utility.yul\":27201:27333   */\n    tag_725:\n        /* \"#utility.yul\":27493:27494   */\n      dup2\n        /* \"#utility.yul\":27425:27491   */\n      0x8000000000000000000000000000000000000000000000000000000000000000\n        /* \"#utility.yul\":27421:27495   */\n      sub\n        /* \"#utility.yul\":27418:27419   */\n      dup4\n        /* \"#utility.yul\":27414:27496   */\n      slt\n        /* \"#utility.yul\":27410:27411   */\n      0x00\n        /* \"#utility.yul\":27407:27408   */\n      dup4\n        /* \"#utility.yul\":27403:27412   */\n      slt\n        /* \"#utility.yul\":27399:27497   */\n      and\n        /* \"#utility.yul\":27396:27520   */\n      iszero\n      tag_727\n      jumpi\n        /* \"#utility.yul\":27500:27518   */\n      tag_728\n      tag_427\n      jump\t// in\n    tag_728:\n        /* \"#utility.yul\":27396:27520   */\n    tag_727:\n        /* \"#utility.yul\":27544:27545   */\n      dup3\n        /* \"#utility.yul\":27541:27542   */\n      dup3\n        /* \"#utility.yul\":27537:27546   */\n      add\n        /* \"#utility.yul\":27530:27546   */\n      swap1\n      pop\n        /* \"#utility.yul\":27027:27552   */\n      swap3\n      swap2\n      pop\n      pop\n      jump\t// out\n\n    auxdata: 0xa26469706673582212203485ae3b92f2cc82462314d9632c05170ae120d846847906d8811a6e10ef3c4e64736f6c634300080e0033\n}\n",
				"bytecode": {
					"linkReferences": {},
					"object": "60806040523480156200001157600080fd5b506040516200377d3803806200377d8339818101604052810190620000379190620004d7565b6200004a8383836200005360201b60201c565b505050620006a9565b600073ffffffffffffffffffffffffffffffffffffffff1660008054906101000a900473ffffffffffffffffffffffffffffffffffffffff1673ffffffffffffffffffffffffffffffffffffffff1614620000ad57600080fd5b336000806101000a81548173ffffffffffffffffffffffffffffffffffffffff021916908373ffffffffffffffffffffffffffffffffffffffff16021790555082600460006101000a81548173ffffffffffffffffffffffffffffffffffffffff021916908373ffffffffffffffffffffffffffffffffffffffff1602179055508273ffffffffffffffffffffffffffffffffffffffff1663313ce5676040518163ffffffff1660e01b8152600401602060405180830381865afa1580156200017a573d6000803e3d6000fd5b505050506040513d601f19601f82011682018060405250810190620001a09190620005ac565b6003819055508160019080519060200190620001be92919062000211565b508060029080519060200190620001d792919062000211565b5062093a8042620001e991906200060d565b6007819055504260086000600754815260200190815260200160002060020181905550505050565b8280546200021f9062000674565b90600052602060002090601f0160209004810192826200024357600085556200028f565b82601f106200025e57805160ff19168380011785556200028f565b828001600101855582156200028f579182015b828111156200028e57825182559160200191906001019062000271565b5b5090506200029e9190620002a2565b5090565b5b80821115620002bd576000816000905550600101620002a3565b5090565b6000604051905090565b600080fd5b600080fd5b600073ffffffffffffffffffffffffffffffffffffffff82169050919050565b60006200030282620002d5565b9050919050565b60006200031682620002f5565b9050919050565b620003288162000309565b81146200033457600080fd5b50565b60008151905062000348816200031d565b92915050565b600080fd5b600080fd5b6000601f19601f8301169050919050565b7f4e487b7100000000000000000000000000000000000000000000000000000000600052604160045260246000fd5b620003a38262000358565b810181811067ffffffffffffffff82111715620003c557620003c462000369565b5b80604052505050565b6000620003da620002c1565b9050620003e8828262000398565b919050565b600067ffffffffffffffff8211156200040b576200040a62000369565b5b620004168262000358565b9050602081019050919050565b60005b838110156200044357808201518184015260208101905062000426565b8381111562000453576000848401525b50505050565b6000620004706200046a84620003ed565b620003ce565b9050828152602081018484840111156200048f576200048e62000353565b5b6200049c84828562000423565b509392505050565b600082601f830112620004bc57620004bb6200034e565b5b8151620004ce84826020860162000459565b91505092915050565b600080600060608486031215620004f357620004f2620002cb565b5b6000620005038682870162000337565b935050602084015167ffffffffffffffff811115620005275762000526620002d0565b5b6200053586828701620004a4565b925050604084015167ffffffffffffffff811115620005595762000558620002d0565b5b6200056786828701620004a4565b9150509250925092565b6000819050919050565b620005868162000571565b81146200059257600080fd5b50565b600081519050620005a6816200057b565b92915050565b600060208284031215620005c557620005c4620002cb565b5b6000620005d58482850162000595565b91505092915050565b7f4e487b7100000000000000000000000000000000000000000000000000000000600052601260045260246000fd5b60006200061a8262000571565b9150620006278362000571565b9250826200063a5762000639620005de565b5b828204905092915050565b7f4e487b7100000000000000000000000000000000000000000000000000000000600052602260045260246000fd5b600060028204905060018216806200068d57607f821691505b602082108103620006a357620006a262000645565b5b50919050565b6130c480620006b96000396000f3fe608060405234801561001057600080fd5b50600436106101a95760003560e01c80637db830ff116100f9578063a95dbd8e11610097578063cbf9fe5f11610071578063cbf9fe5f146104e4578063f52a36f714610515578063f851a44014610545578063fc0c546a14610563576101a9565b8063a95dbd8e14610490578063b2b45df5146104ac578063b52c05fe146104c8576101a9565b8063900cf0cf116100d3578063900cf0cf146103f457806395d89b4114610412578063981b24d01461043057806398ec095514610460576101a9565b80637db830ff1461037657806381fc83bb146103925780638ad4c447146103c2576101a9565b80632f4f21e2116101665780633ccfd60b116101405780633ccfd60b146102f05780634ee2cd7e146102fa57806370a082311461032a5780637c616fe61461035a576101a9565b80632f4f21e214610284578063313ce567146102a057806334d901a4146102be576101a9565b8063047fc9aa146101ae57806306fdde03146101cc57806315456eba146101ea57806318160ddd146102065780632c80b15e146102245780632d8695d114610254575b600080fd5b6101b6610581565b6040516101c39190612090565b60405180910390f35b6101d4610587565b6040516101e19190612144565b60405180910390f35b61020460048036038101906101ff91906121a6565b610615565b005b61020e61078e565b60405161021b9190612090565b60405180910390f35b61023e60048036038101906102399190612231565b6107b8565b60405161024b9190612090565b60405180910390f35b61026e600480360381019061026991906121a6565b6107dd565b60405161027b9190612090565b60405180910390f35b61029e60048036038101906102999190612231565b61086f565b005b6102a86109e9565b6040516102b59190612090565b60405180910390f35b6102d860048036038101906102d39190612231565b6109ef565b6040516102e79392919061228a565b60405180910390f35b6102f8610a26565b005b610314600480360381019061030f9190612231565b610c82565b6040516103219190612090565b60405180910390f35b610344600480360381019061033f91906122c1565b610e3f565b6040516103519190612090565b60405180910390f35b610374600480360381019061036f91906121a6565b610e52565b005b610390600480360381019061038b91906122ee565b611044565b005b6103ac60048036038101906103a791906122c1565b6111db565b6040516103b99190612090565b60405180910390f35b6103dc60048036038101906103d791906121a6565b6111f3565b6040516103eb9392919061228a565b60405180910390f35b6103fc61121d565b6040516104099190612090565b60405180910390f35b61041a611223565b6040516104279190612144565b60405180910390f35b61044a600480360381019061044591906121a6565b6112b1565b6040516104579190612090565b60405180910390f35b61047a60048036038101906104759190612231565b6112cf565b6040516104879190612090565b60405180910390f35b6104aa60048036038101906104a59190612231565b61139d565b005b6104c660048036038101906104c191906124b4565b6113ff565b005b6104e260048036038101906104dd919061253f565b6115b3565b005b6104fe60048036038101906104f991906122c1565b6117c6565b60405161050c92919061257f565b60405180910390f35b61052f600480360381019061052a91906121a6565b6117ea565b60405161053c91906125a8565b60405180910390f35b61054d611802565b60405161055a91906125d2565b60405180910390f35b61056b611826565b604051610578919061264c565b60405180910390f35b60055481565b6001805461059490612696565b80601f01602080910402602001604051908101604052809291908181526020018280546105c090612696565b801561060d5780601f106105e25761010080835404028352916020019161060d565b820191906000526020600020905b8154815290600101906020018083116105f057829003601f168201915b505050505081565b600d60009054906101000a900460ff161561062f57600080fd5b6001600d60006101000a81548160ff0219169083151502179055506000600660003373ffffffffffffffffffffffffffffffffffffffff1673ffffffffffffffffffffffffffffffffffffffff1681526020019081526020016000209050600082116106d0576040517f08c379a00000000000000000000000000000000000000000000000000000000081526004016106c790612713565b60405180910390fd5b6000816000015411610717576040517f08c379a000000000000000000000000000000000000000000000000000000000815260040161070e9061277f565b60405180910390fd5b4281600101541161075d576040517f08c379a000000000000000000000000000000000000000000000000000000000815260040161075490612811565b60405180910390fd5b61076f3383836001015484600261184c565b506000600d60006101000a81548160ff02191690831515021790555050565b60008060086000600754815260200190815260200160002090506107b28142611a1f565b91505090565b600c602052816000526040600020602052806000526040600020600091509150505481565b600062093a8060d06107ef9190612860565b426107fa91906128ba565b82111561080a576000905061086a565b600062093a808361081b919061293f565b905060075481111561082d5760075490505b6000600860008381526020019081526020016000209050600081600201540361085b5760009250505061086a565b6108658185611a1f565b925050505b919050565b600d60009054906101000a900460ff161561088957600080fd5b6001600d60006101000a81548160ff0219169083151502179055506000600660008473ffffffffffffffffffffffffffffffffffffffff1673ffffffffffffffffffffffffffffffffffffffff16815260200190815260200160002090506000821161092a576040517f08c379a000000000000000000000000000000000000000000000000000000000815260040161092190612713565b60405180910390fd5b6000816000015411610971576040517f08c379a00000000000000000000000000000000000000000000000000000000081526004016109689061277f565b60405180910390fd5b428160010154116109b7576040517f08c379a00000000000000000000000000000000000000000000000000000000081526004016109ae90612811565b60405180910390fd5b6109c98383836001015484600061184c565b506000600d60006101000a81548160ff0219169083151502179055505050565b60035481565b600a602052816000526040600020602052806000526040600020600091509150508060000154908060010154908060020154905083565b600d60009054906101000a900460ff1615610a4057600080fd5b6001600d60006101000a81548160ff0219169083151502179055506000600660003373ffffffffffffffffffffffffffffffffffffffff1673ffffffffffffffffffffffffffffffffffffffff16815260200190815260200160002090508060010154421015610ae5576040517f08c379a0000000000000000000000000000000000000000000000000000000008152600401610adc906129bc565b60405180910390fd5b600081600001549050600060055490508181610b0191906129dc565b600581905550600060405180604001604052806000815260200160008152509050610b2d338583611b01565b600460009054906101000a900473ffffffffffffffffffffffffffffffffffffffff1673ffffffffffffffffffffffffffffffffffffffff1663a9059cbb33856040518363ffffffff1660e01b8152600401610b8a929190612a10565b6020604051808303816000875af1158015610ba9573d6000803e3d6000fd5b505050506040513d601f19601f82011682018060405250810190610bcd9190612a71565b610bd657600080fd5b3373ffffffffffffffffffffffffffffffffffffffff167ff279e6a1f5e320cca91135676d9cb6e44ca8a08c0b88342bcdb1144f6511b5688442604051610c1e92919061257f565b60405180910390a27f5e2aa66efd74cce82b21852e317e5490d9ecc9e6bb953ae24d90851258cc2f5c82600554604051610c5992919061257f565b60405180910390a1505050506000600d60006101000a81548160ff021916908315150217905550565b6000428210610c9057600080fd5b6000600c60008573ffffffffffffffffffffffffffffffffffffffff1673ffffffffffffffffffffffffffffffffffffffff16815260200190815260200160002060008481526020019081526020016000205490506000811115610cf75780915050610e39565b6000600a60008673ffffffffffffffffffffffffffffffffffffffff1673ffffffffffffffffffffffffffffffffffffffff16815260200190815260200160002090506000806000600b60008973ffffffffffffffffffffffffffffffffffffffff1673ffffffffffffffffffffffffffffffffffffffff16815260200190815260200160002054905060005b6080811015610e025781841015610e0257600260018386610da591906128ba565b610daf91906128ba565b610db9919061293f565b9250878560008581526020019081526020016000206002015411610ddf57829350610def565b600183610dec91906129dc565b91505b8080610dfa90612a9e565b915050610d84565b5080831015610e1057600080fd5b60008460008581526020019081526020016000209050610e308189611e52565b96505050505050505b92915050565b6000610e4b82426112cf565b9050919050565b600d60009054906101000a900460ff1615610e6c57600080fd5b6001600d60006101000a81548160ff0219169083151502179055506000600660003373ffffffffffffffffffffffffffffffffffffffff1673ffffffffffffffffffffffffffffffffffffffff168152602001908152602001600020905062093a808083610eda919061293f565b610ee49190612860565b91506000816000015411610f2d576040517f08c379a0000000000000000000000000000000000000000000000000000000008152600401610f249061277f565b60405180910390fd5b42816001015411610f73576040517f08c379a0000000000000000000000000000000000000000000000000000000008152600401610f6a90612811565b60405180910390fd5b80600101548211610fb9576040517f08c379a0000000000000000000000000000000000000000000000000000000008152600401610fb090612b32565b60405180910390fd5b62093a8060d0610fc99190612860565b42610fd491906128ba565b821115611016576040517f08c379a000000000000000000000000000000000000000000000000000000000815260040161100d90612b9e565b60405180910390fd5b6110253360008484600361184c565b506000600d60006101000a81548160ff02191690831515021790555050565b6000600b60008573ffffffffffffffffffffffffffffffffffffffff1673ffffffffffffffffffffffffffffffffffffffff1681526020019081526020016000205490508082111561109557600080fd5b600042905081831461110457600a60008673ffffffffffffffffffffffffffffffffffffffff1673ffffffffffffffffffffffffffffffffffffffff16815260200190815260200160002060006001856110ef91906128ba565b81526020019081526020016000206002015490505b80841061111057600080fd5b6000600a60008773ffffffffffffffffffffffffffffffffffffffff1673ffffffffffffffffffffffffffffffffffffffff16815260200190815260200160002060008581526020019081526020016000209050806002015485101561117557600080fd5b61117f8186611e52565b600c60008873ffffffffffffffffffffffffffffffffffffffff1673ffffffffffffffffffffffffffffffffffffffff168152602001908152602001600020600087815260200190815260200160002081905550505050505050565b600b6020528060005260406000206000915090505481565b60086020528060005260406000206000915090508060000154908060010154908060020154905083565b60075481565b6002805461123090612696565b80601f016020809104026020016040519081016040528092919081815260200182805461125c90612696565b80156112a95780601f1061127e576101008083540402835291602001916112a9565b820191906000526020600020905b81548152906001019060200180831161128c57829003601f168201915b505050505081565b60004282106112bf57600080fd5b6112c8826107dd565b9050919050565b6000428210156112de57600080fd5b6000600b60008573ffffffffffffffffffffffffffffffffffffffff1673ffffffffffffffffffffffffffffffffffffffff16815260200190815260200160002054905060008103611334576000915050611397565b6000600a60008673ffffffffffffffffffffffffffffffffffffffff1673ffffffffffffffffffffffffffffffffffffffff168152602001908152602001600020600083815260200190815260200160002090506113928185611e52565b925050505b92915050565b6113a78282610c82565b600c60008473ffffffffffffffffffffffffffffffffffffffff1673ffffffffffffffffffffffffffffffffffffffff1681526020019081526020016000206000838152602001908152602001600020819055505050565b600073ffffffffffffffffffffffffffffffffffffffff1660008054906101000a900473ffffffffffffffffffffffffffffffffffffffff1673ffffffffffffffffffffffffffffffffffffffff161461145857600080fd5b336000806101000a81548173ffffffffffffffffffffffffffffffffffffffff021916908373ffffffffffffffffffffffffffffffffffffffff16021790555082600460006101000a81548173ffffffffffffffffffffffffffffffffffffffff021916908373ffffffffffffffffffffffffffffffffffffffff1602179055508273ffffffffffffffffffffffffffffffffffffffff1663313ce5676040518163ffffffff1660e01b8152600401602060405180830381865afa158015611524573d6000803e3d6000fd5b505050506040513d601f19601f820116820180604052508101906115489190612bd3565b6003819055508160019080519060200190611564929190611fd4565b50806002908051906020019061157b929190611fd4565b5062093a804261158b919061293f565b6007819055504260086000600754815260200190815260200160002060020181905550505050565b600d60009054906101000a900460ff16156115cd57600080fd5b6001600d60006101000a81548160ff0219169083151502179055506116073373ffffffffffffffffffffffffffffffffffffffff16611ea3565b61161057600080fd5b62093a808082611620919061293f565b61162a9190612860565b90506000600660003373ffffffffffffffffffffffffffffffffffffffff1673ffffffffffffffffffffffffffffffffffffffff1681526020019081526020016000209050600083116116b2576040517f08c379a00000000000000000000000000000000000000000000000000000000081526004016116a990612713565b60405180910390fd5b60008160000154146116f9576040517f08c379a00000000000000000000000000000000000000000000000000000000081526004016116f090612c4c565b60405180910390fd5b42821161173b576040517f08c379a000000000000000000000000000000000000000000000000000000000815260040161173290612cde565b60405180910390fd5b62093a8060d061174b9190612860565b4261175691906128ba565b821115611798576040517f08c379a000000000000000000000000000000000000000000000000000000000815260040161178f90612b9e565b60405180910390fd5b6117a633848484600161184c565b506000600d60006101000a81548160ff0219169083151502179055505050565b60066020528060005260406000206000915090508060000154908060010154905082565b60096020528060005260406000206000915090505481565b60008054906101000a900473ffffffffffffffffffffffffffffffffffffffff1681565b600460009054906101000a900473ffffffffffffffffffffffffffffffffffffffff1681565b60006005549050848161185f91906128ba565b600581905550600085846000015461187791906128ba565b90506000604051806040016040528083815260200187815250905061189d888683611b01565b6000871461198757600460009054906101000a900473ffffffffffffffffffffffffffffffffffffffff1673ffffffffffffffffffffffffffffffffffffffff166323b872dd33308a6040518463ffffffff1660e01b815260040161190493929190612cfe565b6020604051808303816000875af1158015611923573d6000803e3d6000fd5b505050506040513d601f19601f820116820180604052508101906119479190612a71565b611986576040517f08c379a000000000000000000000000000000000000000000000000000000000815260040161197d90612d81565b60405180910390fd5b5b858873ffffffffffffffffffffffffffffffffffffffff167fbe9cf0e939c614fad640a623a53ba0a807c8cb503c4c4c8dacabe27b86ff2dd58487426040516119d293929190612e18565b60405180910390a37f5e2aa66efd74cce82b21852e317e5490d9ecc9e6bb953ae24d90851258cc2f5c83600554604051611a0d92919061257f565b60405180910390a15050505050505050565b60008083600001549050600084600101549050600085600201549050600062093a808083611a4d919061293f565b611a579190612860565b905060005b60ff811015611af35762093a8082611a7491906128ba565b915086821115611a82578691505b8282611a8e9190612e4f565b84611a999190612ee3565b85611aa49190612e4f565b945086820315611af3576009600062093a8084611ac1919061293f565b81526020019081526020016000205484611adb9190612ffa565b93508192508080611aeb90612a9e565b915050611a5c565b508394505050505092915050565b6000611b0b611eb6565b9050806002015442611b1d91906129dc565b8160010154611b2c9190612ee3565b816000016000828254611b3f9190612e4f565b925050819055504281600201819055504283600101541115611c1257600062093a8060d0611b6d9190612860565b8460000154611b7c919061293f565b90506000428560010154611b9091906129dc565b82611b9b9190612ee3565b905080836000016000828254611bb19190612e4f565b9250508190555081836001016000828254611bcc9190612e4f565b92505081905550816009600062093a808860010154611beb919061293f565b81526020019081526020016000206000828254611c089190612ffa565b9250508190555050505b6000804284602001511115611cd25762093a8060d0611c319190612860565b8460000151611c40919061293f565b9150428460200151611c5291906129dc565b82611c5d9190612ee3565b905080836000016000828254611c739190612ffa565b9250508190555081836001016000828254611c8e9190612ffa565b92505081905550816009600062093a808760200151611cad919061293f565b81526020019081526020016000206000828254611cca9190612e4f565b925050819055505b83600660008873ffffffffffffffffffffffffffffffffffffffff1673ffffffffffffffffffffffffffffffffffffffff168152602001908152602001600020600082015181600001556020820151816001015590505060006001600b60008973ffffffffffffffffffffffffffffffffffffffff1673ffffffffffffffffffffffffffffffffffffffff16815260200190815260200160002054611d7791906128ba565b905080600b60008973ffffffffffffffffffffffffffffffffffffffff1673ffffffffffffffffffffffffffffffffffffffff16815260200190815260200160002081905550604051806060016040528083815260200184815260200142815250600a60008973ffffffffffffffffffffffffffffffffffffffff1673ffffffffffffffffffffffffffffffffffffffff168152602001908152602001600020600083815260200190815260200160002060008201518160000155602082015181600101556040820151816002015590505050505050505050565b600080836002015483611e659190612e4f565b8460010154611e749190612ee3565b8460000154611e839190612e4f565b90506000811215611e98576000915050611e9d565b809150505b92915050565b600080823b905060008114915050919050565b6000806008600060075481526020019081526020016000209050600062093a8042611ee1919061293f565b905060005b60ff811015611fcb57816007541015611fcb5760076000815480929190611f0c90612a9e565b9190505550600083600001549050600084600101549050600062093a80600754611f369190612860565b90506000866002015482611f4a91906129dc565b905060086000600754815260200190815260200160002096508083611f6f9190612ee3565b84611f7a9190612e4f565b87600001819055506009600060075481526020019081526020016000205483611fa39190612ffa565b8760010181905550818760020181905550505050508080611fc390612a9e565b915050611ee6565b50819250505090565b828054611fe090612696565b90600052602060002090601f0160209004810192826120025760008555612049565b82601f1061201b57805160ff1916838001178555612049565b82800160010185558215612049579182015b8281111561204857825182559160200191906001019061202d565b5b509050612056919061205a565b5090565b5b8082111561207357600081600090555060010161205b565b5090565b6000819050919050565b61208a81612077565b82525050565b60006020820190506120a56000830184612081565b92915050565b600081519050919050565b600082825260208201905092915050565b60005b838110156120e55780820151818401526020810190506120ca565b838111156120f4576000848401525b50505050565b6000601f19601f8301169050919050565b6000612116826120ab565b61212081856120b6565b93506121308185602086016120c7565b612139816120fa565b840191505092915050565b6000602082019050818103600083015261215e818461210b565b905092915050565b6000604051905090565b600080fd5b600080fd5b61218381612077565b811461218e57600080fd5b50565b6000813590506121a08161217a565b92915050565b6000602082840312156121bc576121bb612170565b5b60006121ca84828501612191565b91505092915050565b600073ffffffffffffffffffffffffffffffffffffffff82169050919050565b60006121fe826121d3565b9050919050565b61220e816121f3565b811461221957600080fd5b50565b60008135905061222b81612205565b92915050565b6000806040838503121561224857612247612170565b5b60006122568582860161221c565b925050602061226785828601612191565b9150509250929050565b6000819050919050565b61228481612271565b82525050565b600060608201905061229f600083018661227b565b6122ac602083018561227b565b6122b96040830184612081565b949350505050565b6000602082840312156122d7576122d6612170565b5b60006122e58482850161221c565b91505092915050565b60008060006060848603121561230757612306612170565b5b60006123158682870161221c565b935050602061232686828701612191565b925050604061233786828701612191565b9150509250925092565b600061234c826121f3565b9050919050565b61235c81612341565b811461236757600080fd5b50565b60008135905061237981612353565b92915050565b600080fd5b600080fd5b7f4e487b7100000000000000000000000000000000000000000000000000000000600052604160045260246000fd5b6123c1826120fa565b810181811067ffffffffffffffff821117156123e0576123df612389565b5b80604052505050565b60006123f3612166565b90506123ff82826123b8565b919050565b600067ffffffffffffffff82111561241f5761241e612389565b5b612428826120fa565b9050602081019050919050565b82818337600083830152505050565b600061245761245284612404565b6123e9565b90508281526020810184848401111561247357612472612384565b5b61247e848285612435565b509392505050565b600082601f83011261249b5761249a61237f565b5b81356124ab848260208601612444565b91505092915050565b6000806000606084860312156124cd576124cc612170565b5b60006124db8682870161236a565b935050602084013567ffffffffffffffff8111156124fc576124fb612175565b5b61250886828701612486565b925050604084013567ffffffffffffffff81111561252957612528612175565b5b61253586828701612486565b9150509250925092565b6000806040838503121561255657612555612170565b5b600061256485828601612191565b925050602061257585828601612191565b9150509250929050565b60006040820190506125946000830185612081565b6125a16020830184612081565b9392505050565b60006020820190506125bd600083018461227b565b92915050565b6125cc816121f3565b82525050565b60006020820190506125e760008301846125c3565b92915050565b6000819050919050565b600061261261260d612608846121d3565b6125ed565b6121d3565b9050919050565b6000612624826125f7565b9050919050565b600061263682612619565b9050919050565b6126468161262b565b82525050565b6000602082019050612661600083018461263d565b92915050565b7f4e487b7100000000000000000000000000000000000000000000000000000000600052602260045260246000fd5b600060028204905060018216806126ae57607f821691505b6020821081036126c1576126c0612667565b5b50919050565b7f696e76616c69642076616c756500000000000000000000000000000000000000600082015250565b60006126fd600d836120b6565b9150612708826126c7565b602082019050919050565b6000602082019050818103600083015261272c816126f0565b9050919050565b7f4e6f206578697374696e67206c6f636b20666f756e6400000000000000000000600082015250565b60006127696016836120b6565b915061277482612733565b602082019050919050565b600060208201905081810360008301526127988161275c565b9050919050565b7f43616e6e6f742061646420746f2065787069726564206c6f636b2e205769746860008201527f6472617700000000000000000000000000000000000000000000000000000000602082015250565b60006127fb6024836120b6565b91506128068261279f565b604082019050919050565b6000602082019050818103600083015261282a816127ee565b9050919050565b7f4e487b7100000000000000000000000000000000000000000000000000000000600052601160045260246000fd5b600061286b82612077565b915061287683612077565b9250817fffffffffffffffffffffffffffffffffffffffffffffffffffffffffffffffff04831182151516156128af576128ae612831565b5b828202905092915050565b60006128c582612077565b91506128d083612077565b9250827fffffffffffffffffffffffffffffffffffffffffffffffffffffffffffffffff0382111561290557612904612831565b5b828201905092915050565b7f4e487b7100000000000000000000000000000000000000000000000000000000600052601260045260246000fd5b600061294a82612077565b915061295583612077565b92508261296557612964612910565b5b828204905092915050565b7f546865206c6f636b206469646e27742065787069726500000000000000000000600082015250565b60006129a66016836120b6565b91506129b182612970565b602082019050919050565b600060208201905081810360008301526129d581612999565b9050919050565b60006129e782612077565b91506129f283612077565b925082821015612a0557612a04612831565b5b828203905092915050565b6000604082019050612a2560008301856125c3565b612a326020830184612081565b9392505050565b60008115159050919050565b612a4e81612a39565b8114612a5957600080fd5b50565b600081519050612a6b81612a45565b92915050565b600060208284031215612a8757612a86612170565b5b6000612a9584828501612a5c565b91505092915050565b6000612aa982612077565b91507fffffffffffffffffffffffffffffffffffffffffffffffffffffffffffffffff8203612adb57612ada612831565b5b600182019050919050565b7f43616e206f6e6c7920696e637265617365206c6f636b206475726174696f6e00600082015250565b6000612b1c601f836120b6565b9150612b2782612ae6565b602082019050919050565b60006020820190508181036000830152612b4b81612b0f565b9050919050565b7f566f74696e67206c6f636b2063616e2062652034207965617273206d61780000600082015250565b6000612b88601e836120b6565b9150612b9382612b52565b602082019050919050565b60006020820190508181036000830152612bb781612b7b565b9050919050565b600081519050612bcd8161217a565b92915050565b600060208284031215612be957612be8612170565b5b6000612bf784828501612bbe565b91505092915050565b7f5769746864726177206f6c6420746f6b656e7320666972737400000000000000600082015250565b6000612c366019836120b6565b9150612c4182612c00565b602082019050919050565b60006020820190508181036000830152612c6581612c29565b9050919050565b7f43616e206f6e6c79206c6f636b20756e74696c2074696d6520696e207468652060008201527f6675747572650000000000000000000000000000000000000000000000000000602082015250565b6000612cc86026836120b6565b9150612cd382612c6c565b604082019050919050565b60006020820190508181036000830152612cf781612cbb565b9050919050565b6000606082019050612d1360008301866125c3565b612d2060208301856125c3565b612d2d6040830184612081565b949350505050565b7f4552433230207472616e73666572206572726f72000000000000000000000000600082015250565b6000612d6b6014836120b6565b9150612d7682612d35565b602082019050919050565b60006020820190508181036000830152612d9a81612d5e565b9050919050565b7f4e487b7100000000000000000000000000000000000000000000000000000000600052602160045260246000fd5b60048110612de157612de0612da1565b5b50565b6000819050612df282612dd0565b919050565b6000612e0282612de4565b9050919050565b612e1281612df7565b82525050565b6000606082019050612e2d6000830186612081565b612e3a6020830185612e09565b612e476040830184612081565b949350505050565b6000612e5a82612271565b9150612e6583612271565b9250827f800000000000000000000000000000000000000000000000000000000000000001821260008412151615612ea057612e9f612831565b5b827f7fffffffffffffffffffffffffffffffffffffffffffffffffffffffffffffff018213600084121615612ed857612ed7612831565b5b828203905092915050565b6000612eee82612271565b9150612ef983612271565b9250827f7fffffffffffffffffffffffffffffffffffffffffffffffffffffffffffffff0482116000841360008413161615612f3857612f37612831565b5b817f80000000000000000000000000000000000000000000000000000000000000000583126000841260008413161615612f7557612f74612831565b5b827f80000000000000000000000000000000000000000000000000000000000000000582126000841360008412161615612fb257612fb1612831565b5b827f7fffffffffffffffffffffffffffffffffffffffffffffffffffffffffffffff0582126000841260008412161615612fef57612fee612831565b5b828202905092915050565b600061300582612271565b915061301083612271565b9250817f7fffffffffffffffffffffffffffffffffffffffffffffffffffffffffffffff0383136000831215161561304b5761304a612831565b5b817f800000000000000000000000000000000000000000000000000000000000000003831260008312161561308357613082612831565b5b82820190509291505056fea26469706673582212203485ae3b92f2cc82462314d9632c05170ae120d846847906d8811a6e10ef3c4e64736f6c634300080e0033",
					"opcodes": "PUSH1 0x80 PUSH1 0x40 MSTORE CALLVALUE DUP1 ISZERO PUSH3 0x11 JUMPI PUSH1 0x0 DUP1 REVERT JUMPDEST POP PUSH1 0x40 MLOAD PUSH3 0x377D CODESIZE SUB DUP1 PUSH3 0x377D DUP4 CODECOPY DUP2 DUP2 ADD PUSH1 0x40 MSTORE DUP2 ADD SWAP1 PUSH3 0x37 SWAP2 SWAP1 PUSH3 0x4D7 JUMP JUMPDEST PUSH3 0x4A DUP4 DUP4 DUP4 PUSH3 0x53 PUSH1 0x20 SHL PUSH1 0x20 SHR JUMP JUMPDEST POP POP POP PUSH3 0x6A9 JUMP JUMPDEST PUSH1 0x0 PUSH20 0xFFFFFFFFFFFFFFFFFFFFFFFFFFFFFFFFFFFFFFFF AND PUSH1 0x0 DUP1 SLOAD SWAP1 PUSH2 0x100 EXP SWAP1 DIV PUSH20 0xFFFFFFFFFFFFFFFFFFFFFFFFFFFFFFFFFFFFFFFF AND PUSH20 0xFFFFFFFFFFFFFFFFFFFFFFFFFFFFFFFFFFFFFFFF AND EQ PUSH3 0xAD JUMPI PUSH1 0x0 DUP1 REVERT JUMPDEST CALLER PUSH1 0x0 DUP1 PUSH2 0x100 EXP DUP2 SLOAD DUP2 PUSH20 0xFFFFFFFFFFFFFFFFFFFFFFFFFFFFFFFFFFFFFFFF MUL NOT AND SWAP1 DUP4 PUSH20 0xFFFFFFFFFFFFFFFFFFFFFFFFFFFFFFFFFFFFFFFF AND MUL OR SWAP1 SSTORE POP DUP3 PUSH1 0x4 PUSH1 0x0 PUSH2 0x100 EXP DUP2 SLOAD DUP2 PUSH20 0xFFFFFFFFFFFFFFFFFFFFFFFFFFFFFFFFFFFFFFFF MUL NOT AND SWAP1 DUP4 PUSH20 0xFFFFFFFFFFFFFFFFFFFFFFFFFFFFFFFFFFFFFFFF AND MUL OR SWAP1 SSTORE POP DUP3 PUSH20 0xFFFFFFFFFFFFFFFFFFFFFFFFFFFFFFFFFFFFFFFF AND PUSH4 0x313CE567 PUSH1 0x40 MLOAD DUP2 PUSH4 0xFFFFFFFF AND PUSH1 0xE0 SHL DUP2 MSTORE PUSH1 0x4 ADD PUSH1 0x20 PUSH1 0x40 MLOAD DUP1 DUP4 SUB DUP2 DUP7 GAS STATICCALL ISZERO DUP1 ISZERO PUSH3 0x17A JUMPI RETURNDATASIZE PUSH1 0x0 DUP1 RETURNDATACOPY RETURNDATASIZE PUSH1 0x0 REVERT JUMPDEST POP POP POP POP PUSH1 0x40 MLOAD RETURNDATASIZE PUSH1 0x1F NOT PUSH1 0x1F DUP3 ADD AND DUP3 ADD DUP1 PUSH1 0x40 MSTORE POP DUP2 ADD SWAP1 PUSH3 0x1A0 SWAP2 SWAP1 PUSH3 0x5AC JUMP JUMPDEST PUSH1 0x3 DUP2 SWAP1 SSTORE POP DUP2 PUSH1 0x1 SWAP1 DUP1 MLOAD SWAP1 PUSH1 0x20 ADD SWAP1 PUSH3 0x1BE SWAP3 SWAP2 SWAP1 PUSH3 0x211 JUMP JUMPDEST POP DUP1 PUSH1 0x2 SWAP1 DUP1 MLOAD SWAP1 PUSH1 0x20 ADD SWAP1 PUSH3 0x1D7 SWAP3 SWAP2 SWAP1 PUSH3 0x211 JUMP JUMPDEST POP PUSH3 0x93A80 TIMESTAMP PUSH3 0x1E9 SWAP2 SWAP1 PUSH3 0x60D JUMP JUMPDEST PUSH1 0x7 DUP2 SWAP1 SSTORE POP TIMESTAMP PUSH1 0x8 PUSH1 0x0 PUSH1 0x7 SLOAD DUP2 MSTORE PUSH1 0x20 ADD SWAP1 DUP2 MSTORE PUSH1 0x20 ADD PUSH1 0x0 KECCAK256 PUSH1 0x2 ADD DUP2 SWAP1 SSTORE POP POP POP POP JUMP JUMPDEST DUP3 DUP1 SLOAD PUSH3 0x21F SWAP1 PUSH3 0x674 JUMP JUMPDEST SWAP1 PUSH1 0x0 MSTORE PUSH1 0x20 PUSH1 0x0 KECCAK256 SWAP1 PUSH1 0x1F ADD PUSH1 0x20 SWAP1 DIV DUP2 ADD SWAP3 DUP3 PUSH3 0x243 JUMPI PUSH1 0x0 DUP6 SSTORE PUSH3 0x28F JUMP JUMPDEST DUP3 PUSH1 0x1F LT PUSH3 0x25E JUMPI DUP1 MLOAD PUSH1 0xFF NOT AND DUP4 DUP1 ADD OR DUP6 SSTORE PUSH3 0x28F JUMP JUMPDEST DUP3 DUP1 ADD PUSH1 0x1 ADD DUP6 SSTORE DUP3 ISZERO PUSH3 0x28F JUMPI SWAP2 DUP3 ADD JUMPDEST DUP3 DUP2 GT ISZERO PUSH3 0x28E JUMPI DUP3 MLOAD DUP3 SSTORE SWAP2 PUSH1 0x20 ADD SWAP2 SWAP1 PUSH1 0x1 ADD SWAP1 PUSH3 0x271 JUMP JUMPDEST JUMPDEST POP SWAP1 POP PUSH3 0x29E SWAP2 SWAP1 PUSH3 0x2A2 JUMP JUMPDEST POP SWAP1 JUMP JUMPDEST JUMPDEST DUP1 DUP3 GT ISZERO PUSH3 0x2BD JUMPI PUSH1 0x0 DUP2 PUSH1 0x0 SWAP1 SSTORE POP PUSH1 0x1 ADD PUSH3 0x2A3 JUMP JUMPDEST POP SWAP1 JUMP JUMPDEST PUSH1 0x0 PUSH1 0x40 MLOAD SWAP1 POP SWAP1 JUMP JUMPDEST PUSH1 0x0 DUP1 REVERT JUMPDEST PUSH1 0x0 DUP1 REVERT JUMPDEST PUSH1 0x0 PUSH20 0xFFFFFFFFFFFFFFFFFFFFFFFFFFFFFFFFFFFFFFFF DUP3 AND SWAP1 POP SWAP2 SWAP1 POP JUMP JUMPDEST PUSH1 0x0 PUSH3 0x302 DUP3 PUSH3 0x2D5 JUMP JUMPDEST SWAP1 POP SWAP2 SWAP1 POP JUMP JUMPDEST PUSH1 0x0 PUSH3 0x316 DUP3 PUSH3 0x2F5 JUMP JUMPDEST SWAP1 POP SWAP2 SWAP1 POP JUMP JUMPDEST PUSH3 0x328 DUP2 PUSH3 0x309 JUMP JUMPDEST DUP2 EQ PUSH3 0x334 JUMPI PUSH1 0x0 DUP1 REVERT JUMPDEST POP JUMP JUMPDEST PUSH1 0x0 DUP2 MLOAD SWAP1 POP PUSH3 0x348 DUP2 PUSH3 0x31D JUMP JUMPDEST SWAP3 SWAP2 POP POP JUMP JUMPDEST PUSH1 0x0 DUP1 REVERT JUMPDEST PUSH1 0x0 DUP1 REVERT JUMPDEST PUSH1 0x0 PUSH1 0x1F NOT PUSH1 0x1F DUP4 ADD AND SWAP1 POP SWAP2 SWAP1 POP JUMP JUMPDEST PUSH32 0x4E487B7100000000000000000000000000000000000000000000000000000000 PUSH1 0x0 MSTORE PUSH1 0x41 PUSH1 0x4 MSTORE PUSH1 0x24 PUSH1 0x0 REVERT JUMPDEST PUSH3 0x3A3 DUP3 PUSH3 0x358 JUMP JUMPDEST DUP2 ADD DUP2 DUP2 LT PUSH8 0xFFFFFFFFFFFFFFFF DUP3 GT OR ISZERO PUSH3 0x3C5 JUMPI PUSH3 0x3C4 PUSH3 0x369 JUMP JUMPDEST JUMPDEST DUP1 PUSH1 0x40 MSTORE POP POP POP JUMP JUMPDEST PUSH1 0x0 PUSH3 0x3DA PUSH3 0x2C1 JUMP JUMPDEST SWAP1 POP PUSH3 0x3E8 DUP3 DUP3 PUSH3 0x398 JUMP JUMPDEST SWAP2 SWAP1 POP JUMP JUMPDEST PUSH1 0x0 PUSH8 0xFFFFFFFFFFFFFFFF DUP3 GT ISZERO PUSH3 0x40B JUMPI PUSH3 0x40A PUSH3 0x369 JUMP JUMPDEST JUMPDEST PUSH3 0x416 DUP3 PUSH3 0x358 JUMP JUMPDEST SWAP1 POP PUSH1 0x20 DUP2 ADD SWAP1 POP SWAP2 SWAP1 POP JUMP JUMPDEST PUSH1 0x0 JUMPDEST DUP4 DUP2 LT ISZERO PUSH3 0x443 JUMPI DUP1 DUP3 ADD MLOAD DUP2 DUP5 ADD MSTORE PUSH1 0x20 DUP2 ADD SWAP1 POP PUSH3 0x426 JUMP JUMPDEST DUP4 DUP2 GT ISZERO PUSH3 0x453 JUMPI PUSH1 0x0 DUP5 DUP5 ADD MSTORE JUMPDEST POP POP POP POP JUMP JUMPDEST PUSH1 0x0 PUSH3 0x470 PUSH3 0x46A DUP5 PUSH3 0x3ED JUMP JUMPDEST PUSH3 0x3CE JUMP JUMPDEST SWAP1 POP DUP3 DUP2 MSTORE PUSH1 0x20 DUP2 ADD DUP5 DUP5 DUP5 ADD GT ISZERO PUSH3 0x48F JUMPI PUSH3 0x48E PUSH3 0x353 JUMP JUMPDEST JUMPDEST PUSH3 0x49C DUP5 DUP3 DUP6 PUSH3 0x423 JUMP JUMPDEST POP SWAP4 SWAP3 POP POP POP JUMP JUMPDEST PUSH1 0x0 DUP3 PUSH1 0x1F DUP4 ADD SLT PUSH3 0x4BC JUMPI PUSH3 0x4BB PUSH3 0x34E JUMP JUMPDEST JUMPDEST DUP2 MLOAD PUSH3 0x4CE DUP5 DUP3 PUSH1 0x20 DUP7 ADD PUSH3 0x459 JUMP JUMPDEST SWAP2 POP POP SWAP3 SWAP2 POP POP JUMP JUMPDEST PUSH1 0x0 DUP1 PUSH1 0x0 PUSH1 0x60 DUP5 DUP7 SUB SLT ISZERO PUSH3 0x4F3 JUMPI PUSH3 0x4F2 PUSH3 0x2CB JUMP JUMPDEST JUMPDEST PUSH1 0x0 PUSH3 0x503 DUP7 DUP3 DUP8 ADD PUSH3 0x337 JUMP JUMPDEST SWAP4 POP POP PUSH1 0x20 DUP5 ADD MLOAD PUSH8 0xFFFFFFFFFFFFFFFF DUP2 GT ISZERO PUSH3 0x527 JUMPI PUSH3 0x526 PUSH3 0x2D0 JUMP JUMPDEST JUMPDEST PUSH3 0x535 DUP7 DUP3 DUP8 ADD PUSH3 0x4A4 JUMP JUMPDEST SWAP3 POP POP PUSH1 0x40 DUP5 ADD MLOAD PUSH8 0xFFFFFFFFFFFFFFFF DUP2 GT ISZERO PUSH3 0x559 JUMPI PUSH3 0x558 PUSH3 0x2D0 JUMP JUMPDEST JUMPDEST PUSH3 0x567 DUP7 DUP3 DUP8 ADD PUSH3 0x4A4 JUMP JUMPDEST SWAP2 POP POP SWAP3 POP SWAP3 POP SWAP3 JUMP JUMPDEST PUSH1 0x0 DUP2 SWAP1 POP SWAP2 SWAP1 POP JUMP JUMPDEST PUSH3 0x586 DUP2 PUSH3 0x571 JUMP JUMPDEST DUP2 EQ PUSH3 0x592 JUMPI PUSH1 0x0 DUP1 REVERT JUMPDEST POP JUMP JUMPDEST PUSH1 0x0 DUP2 MLOAD SWAP1 POP PUSH3 0x5A6 DUP2 PUSH3 0x57B JUMP JUMPDEST SWAP3 SWAP2 POP POP JUMP JUMPDEST PUSH1 0x0 PUSH1 0x20 DUP3 DUP5 SUB SLT ISZERO PUSH3 0x5C5 JUMPI PUSH3 0x5C4 PUSH3 0x2CB JUMP JUMPDEST JUMPDEST PUSH1 0x0 PUSH3 0x5D5 DUP5 DUP3 DUP6 ADD PUSH3 0x595 JUMP JUMPDEST SWAP2 POP POP SWAP3 SWAP2 POP POP JUMP JUMPDEST PUSH32 0x4E487B7100000000000000000000000000000000000000000000000000000000 PUSH1 0x0 MSTORE PUSH1 0x12 PUSH1 0x4 MSTORE PUSH1 0x24 PUSH1 0x0 REVERT JUMPDEST PUSH1 0x0 PUSH3 0x61A DUP3 PUSH3 0x571 JUMP JUMPDEST SWAP2 POP PUSH3 0x627 DUP4 PUSH3 0x571 JUMP JUMPDEST SWAP3 POP DUP3 PUSH3 0x63A JUMPI PUSH3 0x639 PUSH3 0x5DE JUMP JUMPDEST JUMPDEST DUP3 DUP3 DIV SWAP1 POP SWAP3 SWAP2 POP POP JUMP JUMPDEST PUSH32 0x4E487B7100000000000000000000000000000000000000000000000000000000 PUSH1 0x0 MSTORE PUSH1 0x22 PUSH1 0x4 MSTORE PUSH1 0x24 PUSH1 0x0 REVERT JUMPDEST PUSH1 0x0 PUSH1 0x2 DUP3 DIV SWAP1 POP PUSH1 0x1 DUP3 AND DUP1 PUSH3 0x68D JUMPI PUSH1 0x7F DUP3 AND SWAP2 POP JUMPDEST PUSH1 0x20 DUP3 LT DUP2 SUB PUSH3 0x6A3 JUMPI PUSH3 0x6A2 PUSH3 0x645 JUMP JUMPDEST JUMPDEST POP SWAP2 SWAP1 POP JUMP JUMPDEST PUSH2 0x30C4 DUP1 PUSH3 0x6B9 PUSH1 0x0 CODECOPY PUSH1 0x0 RETURN INVALID PUSH1 0x80 PUSH1 0x40 MSTORE CALLVALUE DUP1 ISZERO PUSH2 0x10 JUMPI PUSH1 0x0 DUP1 REVERT JUMPDEST POP PUSH1 0x4 CALLDATASIZE LT PUSH2 0x1A9 JUMPI PUSH1 0x0 CALLDATALOAD PUSH1 0xE0 SHR DUP1 PUSH4 0x7DB830FF GT PUSH2 0xF9 JUMPI DUP1 PUSH4 0xA95DBD8E GT PUSH2 0x97 JUMPI DUP1 PUSH4 0xCBF9FE5F GT PUSH2 0x71 JUMPI DUP1 PUSH4 0xCBF9FE5F EQ PUSH2 0x4E4 JUMPI DUP1 PUSH4 0xF52A36F7 EQ PUSH2 0x515 JUMPI DUP1 PUSH4 0xF851A440 EQ PUSH2 0x545 JUMPI DUP1 PUSH4 0xFC0C546A EQ PUSH2 0x563 JUMPI PUSH2 0x1A9 JUMP JUMPDEST DUP1 PUSH4 0xA95DBD8E EQ PUSH2 0x490 JUMPI DUP1 PUSH4 0xB2B45DF5 EQ PUSH2 0x4AC JUMPI DUP1 PUSH4 0xB52C05FE EQ PUSH2 0x4C8 JUMPI PUSH2 0x1A9 JUMP JUMPDEST DUP1 PUSH4 0x900CF0CF GT PUSH2 0xD3 JUMPI DUP1 PUSH4 0x900CF0CF EQ PUSH2 0x3F4 JUMPI DUP1 PUSH4 0x95D89B41 EQ PUSH2 0x412 JUMPI DUP1 PUSH4 0x981B24D0 EQ PUSH2 0x430 JUMPI DUP1 PUSH4 0x98EC0955 EQ PUSH2 0x460 JUMPI PUSH2 0x1A9 JUMP JUMPDEST DUP1 PUSH4 0x7DB830FF EQ PUSH2 0x376 JUMPI DUP1 PUSH4 0x81FC83BB EQ PUSH2 0x392 JUMPI DUP1 PUSH4 0x8AD4C447 EQ PUSH2 0x3C2 JUMPI PUSH2 0x1A9 JUMP JUMPDEST DUP1 PUSH4 0x2F4F21E2 GT PUSH2 0x166 JUMPI DUP1 PUSH4 0x3CCFD60B GT PUSH2 0x140 JUMPI DUP1 PUSH4 0x3CCFD60B EQ PUSH2 0x2F0 JUMPI DUP1 PUSH4 0x4EE2CD7E EQ PUSH2 0x2FA JUMPI DUP1 PUSH4 0x70A08231 EQ PUSH2 0x32A JUMPI DUP1 PUSH4 0x7C616FE6 EQ PUSH2 0x35A JUMPI PUSH2 0x1A9 JUMP JUMPDEST DUP1 PUSH4 0x2F4F21E2 EQ PUSH2 0x284 JUMPI DUP1 PUSH4 0x313CE567 EQ PUSH2 0x2A0 JUMPI DUP1 PUSH4 0x34D901A4 EQ PUSH2 0x2BE JUMPI PUSH2 0x1A9 JUMP JUMPDEST DUP1 PUSH4 0x47FC9AA EQ PUSH2 0x1AE JUMPI DUP1 PUSH4 0x6FDDE03 EQ PUSH2 0x1CC JUMPI DUP1 PUSH4 0x15456EBA EQ PUSH2 0x1EA JUMPI DUP1 PUSH4 0x18160DDD EQ PUSH2 0x206 JUMPI DUP1 PUSH4 0x2C80B15E EQ PUSH2 0x224 JUMPI DUP1 PUSH4 0x2D8695D1 EQ PUSH2 0x254 JUMPI JUMPDEST PUSH1 0x0 DUP1 REVERT JUMPDEST PUSH2 0x1B6 PUSH2 0x581 JUMP JUMPDEST PUSH1 0x40 MLOAD PUSH2 0x1C3 SWAP2 SWAP1 PUSH2 0x2090 JUMP JUMPDEST PUSH1 0x40 MLOAD DUP1 SWAP2 SUB SWAP1 RETURN JUMPDEST PUSH2 0x1D4 PUSH2 0x587 JUMP JUMPDEST PUSH1 0x40 MLOAD PUSH2 0x1E1 SWAP2 SWAP1 PUSH2 0x2144 JUMP JUMPDEST PUSH1 0x40 MLOAD DUP1 SWAP2 SUB SWAP1 RETURN JUMPDEST PUSH2 0x204 PUSH1 0x4 DUP1 CALLDATASIZE SUB DUP2 ADD SWAP1 PUSH2 0x1FF SWAP2 SWAP1 PUSH2 0x21A6 JUMP JUMPDEST PUSH2 0x615 JUMP JUMPDEST STOP JUMPDEST PUSH2 0x20E PUSH2 0x78E JUMP JUMPDEST PUSH1 0x40 MLOAD PUSH2 0x21B SWAP2 SWAP1 PUSH2 0x2090 JUMP JUMPDEST PUSH1 0x40 MLOAD DUP1 SWAP2 SUB SWAP1 RETURN JUMPDEST PUSH2 0x23E PUSH1 0x4 DUP1 CALLDATASIZE SUB DUP2 ADD SWAP1 PUSH2 0x239 SWAP2 SWAP1 PUSH2 0x2231 JUMP JUMPDEST PUSH2 0x7B8 JUMP JUMPDEST PUSH1 0x40 MLOAD PUSH2 0x24B SWAP2 SWAP1 PUSH2 0x2090 JUMP JUMPDEST PUSH1 0x40 MLOAD DUP1 SWAP2 SUB SWAP1 RETURN JUMPDEST PUSH2 0x26E PUSH1 0x4 DUP1 CALLDATASIZE SUB DUP2 ADD SWAP1 PUSH2 0x269 SWAP2 SWAP1 PUSH2 0x21A6 JUMP JUMPDEST PUSH2 0x7DD JUMP JUMPDEST PUSH1 0x40 MLOAD PUSH2 0x27B SWAP2 SWAP1 PUSH2 0x2090 JUMP JUMPDEST PUSH1 0x40 MLOAD DUP1 SWAP2 SUB SWAP1 RETURN JUMPDEST PUSH2 0x29E PUSH1 0x4 DUP1 CALLDATASIZE SUB DUP2 ADD SWAP1 PUSH2 0x299 SWAP2 SWAP1 PUSH2 0x2231 JUMP JUMPDEST PUSH2 0x86F JUMP JUMPDEST STOP JUMPDEST PUSH2 0x2A8 PUSH2 0x9E9 JUMP JUMPDEST PUSH1 0x40 MLOAD PUSH2 0x2B5 SWAP2 SWAP1 PUSH2 0x2090 JUMP JUMPDEST PUSH1 0x40 MLOAD DUP1 SWAP2 SUB SWAP1 RETURN JUMPDEST PUSH2 0x2D8 PUSH1 0x4 DUP1 CALLDATASIZE SUB DUP2 ADD SWAP1 PUSH2 0x2D3 SWAP2 SWAP1 PUSH2 0x2231 JUMP JUMPDEST PUSH2 0x9EF JUMP JUMPDEST PUSH1 0x40 MLOAD PUSH2 0x2E7 SWAP4 SWAP3 SWAP2 SWAP1 PUSH2 0x228A JUMP JUMPDEST PUSH1 0x40 MLOAD DUP1 SWAP2 SUB SWAP1 RETURN JUMPDEST PUSH2 0x2F8 PUSH2 0xA26 JUMP JUMPDEST STOP JUMPDEST PUSH2 0x314 PUSH1 0x4 DUP1 CALLDATASIZE SUB DUP2 ADD SWAP1 PUSH2 0x30F SWAP2 SWAP1 PUSH2 0x2231 JUMP JUMPDEST PUSH2 0xC82 JUMP JUMPDEST PUSH1 0x40 MLOAD PUSH2 0x321 SWAP2 SWAP1 PUSH2 0x2090 JUMP JUMPDEST PUSH1 0x40 MLOAD DUP1 SWAP2 SUB SWAP1 RETURN JUMPDEST PUSH2 0x344 PUSH1 0x4 DUP1 CALLDATASIZE SUB DUP2 ADD SWAP1 PUSH2 0x33F SWAP2 SWAP1 PUSH2 0x22C1 JUMP JUMPDEST PUSH2 0xE3F JUMP JUMPDEST PUSH1 0x40 MLOAD PUSH2 0x351 SWAP2 SWAP1 PUSH2 0x2090 JUMP JUMPDEST PUSH1 0x40 MLOAD DUP1 SWAP2 SUB SWAP1 RETURN JUMPDEST PUSH2 0x374 PUSH1 0x4 DUP1 CALLDATASIZE SUB DUP2 ADD SWAP1 PUSH2 0x36F SWAP2 SWAP1 PUSH2 0x21A6 JUMP JUMPDEST PUSH2 0xE52 JUMP JUMPDEST STOP JUMPDEST PUSH2 0x390 PUSH1 0x4 DUP1 CALLDATASIZE SUB DUP2 ADD SWAP1 PUSH2 0x38B SWAP2 SWAP1 PUSH2 0x22EE JUMP JUMPDEST PUSH2 0x1044 JUMP JUMPDEST STOP JUMPDEST PUSH2 0x3AC PUSH1 0x4 DUP1 CALLDATASIZE SUB DUP2 ADD SWAP1 PUSH2 0x3A7 SWAP2 SWAP1 PUSH2 0x22C1 JUMP JUMPDEST PUSH2 0x11DB JUMP JUMPDEST PUSH1 0x40 MLOAD PUSH2 0x3B9 SWAP2 SWAP1 PUSH2 0x2090 JUMP JUMPDEST PUSH1 0x40 MLOAD DUP1 SWAP2 SUB SWAP1 RETURN JUMPDEST PUSH2 0x3DC PUSH1 0x4 DUP1 CALLDATASIZE SUB DUP2 ADD SWAP1 PUSH2 0x3D7 SWAP2 SWAP1 PUSH2 0x21A6 JUMP JUMPDEST PUSH2 0x11F3 JUMP JUMPDEST PUSH1 0x40 MLOAD PUSH2 0x3EB SWAP4 SWAP3 SWAP2 SWAP1 PUSH2 0x228A JUMP JUMPDEST PUSH1 0x40 MLOAD DUP1 SWAP2 SUB SWAP1 RETURN JUMPDEST PUSH2 0x3FC PUSH2 0x121D JUMP JUMPDEST PUSH1 0x40 MLOAD PUSH2 0x409 SWAP2 SWAP1 PUSH2 0x2090 JUMP JUMPDEST PUSH1 0x40 MLOAD DUP1 SWAP2 SUB SWAP1 RETURN JUMPDEST PUSH2 0x41A PUSH2 0x1223 JUMP JUMPDEST PUSH1 0x40 MLOAD PUSH2 0x427 SWAP2 SWAP1 PUSH2 0x2144 JUMP JUMPDEST PUSH1 0x40 MLOAD DUP1 SWAP2 SUB SWAP1 RETURN JUMPDEST PUSH2 0x44A PUSH1 0x4 DUP1 CALLDATASIZE SUB DUP2 ADD SWAP1 PUSH2 0x445 SWAP2 SWAP1 PUSH2 0x21A6 JUMP JUMPDEST PUSH2 0x12B1 JUMP JUMPDEST PUSH1 0x40 MLOAD PUSH2 0x457 SWAP2 SWAP1 PUSH2 0x2090 JUMP JUMPDEST PUSH1 0x40 MLOAD DUP1 SWAP2 SUB SWAP1 RETURN JUMPDEST PUSH2 0x47A PUSH1 0x4 DUP1 CALLDATASIZE SUB DUP2 ADD SWAP1 PUSH2 0x475 SWAP2 SWAP1 PUSH2 0x2231 JUMP JUMPDEST PUSH2 0x12CF JUMP JUMPDEST PUSH1 0x40 MLOAD PUSH2 0x487 SWAP2 SWAP1 PUSH2 0x2090 JUMP JUMPDEST PUSH1 0x40 MLOAD DUP1 SWAP2 SUB SWAP1 RETURN JUMPDEST PUSH2 0x4AA PUSH1 0x4 DUP1 CALLDATASIZE SUB DUP2 ADD SWAP1 PUSH2 0x4A5 SWAP2 SWAP1 PUSH2 0x2231 JUMP JUMPDEST PUSH2 0x139D JUMP JUMPDEST STOP JUMPDEST PUSH2 0x4C6 PUSH1 0x4 DUP1 CALLDATASIZE SUB DUP2 ADD SWAP1 PUSH2 0x4C1 SWAP2 SWAP1 PUSH2 0x24B4 JUMP JUMPDEST PUSH2 0x13FF JUMP JUMPDEST STOP JUMPDEST PUSH2 0x4E2 PUSH1 0x4 DUP1 CALLDATASIZE SUB DUP2 ADD SWAP1 PUSH2 0x4DD SWAP2 SWAP1 PUSH2 0x253F JUMP JUMPDEST PUSH2 0x15B3 JUMP JUMPDEST STOP JUMPDEST PUSH2 0x4FE PUSH1 0x4 DUP1 CALLDATASIZE SUB DUP2 ADD SWAP1 PUSH2 0x4F9 SWAP2 SWAP1 PUSH2 0x22C1 JUMP JUMPDEST PUSH2 0x17C6 JUMP JUMPDEST PUSH1 0x40 MLOAD PUSH2 0x50C SWAP3 SWAP2 SWAP1 PUSH2 0x257F JUMP JUMPDEST PUSH1 0x40 MLOAD DUP1 SWAP2 SUB SWAP1 RETURN JUMPDEST PUSH2 0x52F PUSH1 0x4 DUP1 CALLDATASIZE SUB DUP2 ADD SWAP1 PUSH2 0x52A SWAP2 SWAP1 PUSH2 0x21A6 JUMP JUMPDEST PUSH2 0x17EA JUMP JUMPDEST PUSH1 0x40 MLOAD PUSH2 0x53C SWAP2 SWAP1 PUSH2 0x25A8 JUMP JUMPDEST PUSH1 0x40 MLOAD DUP1 SWAP2 SUB SWAP1 RETURN JUMPDEST PUSH2 0x54D PUSH2 0x1802 JUMP JUMPDEST PUSH1 0x40 MLOAD PUSH2 0x55A SWAP2 SWAP1 PUSH2 0x25D2 JUMP JUMPDEST PUSH1 0x40 MLOAD DUP1 SWAP2 SUB SWAP1 RETURN JUMPDEST PUSH2 0x56B PUSH2 0x1826 JUMP JUMPDEST PUSH1 0x40 MLOAD PUSH2 0x578 SWAP2 SWAP1 PUSH2 0x264C JUMP JUMPDEST PUSH1 0x40 MLOAD DUP1 SWAP2 SUB SWAP1 RETURN JUMPDEST PUSH1 0x5 SLOAD DUP2 JUMP JUMPDEST PUSH1 0x1 DUP1 SLOAD PUSH2 0x594 SWAP1 PUSH2 0x2696 JUMP JUMPDEST DUP1 PUSH1 0x1F ADD PUSH1 0x20 DUP1 SWAP2 DIV MUL PUSH1 0x20 ADD PUSH1 0x40 MLOAD SWAP1 DUP2 ADD PUSH1 0x40 MSTORE DUP1 SWAP3 SWAP2 SWAP1 DUP2 DUP2 MSTORE PUSH1 0x20 ADD DUP3 DUP1 SLOAD PUSH2 0x5C0 SWAP1 PUSH2 0x2696 JUMP JUMPDEST DUP1 ISZERO PUSH2 0x60D JUMPI DUP1 PUSH1 0x1F LT PUSH2 0x5E2 JUMPI PUSH2 0x100 DUP1 DUP4 SLOAD DIV MUL DUP4 MSTORE SWAP2 PUSH1 0x20 ADD SWAP2 PUSH2 0x60D JUMP JUMPDEST DUP3 ADD SWAP2 SWAP1 PUSH1 0x0 MSTORE PUSH1 0x20 PUSH1 0x0 KECCAK256 SWAP1 JUMPDEST DUP2 SLOAD DUP2 MSTORE SWAP1 PUSH1 0x1 ADD SWAP1 PUSH1 0x20 ADD DUP1 DUP4 GT PUSH2 0x5F0 JUMPI DUP3 SWAP1 SUB PUSH1 0x1F AND DUP3 ADD SWAP2 JUMPDEST POP POP POP POP POP DUP2 JUMP JUMPDEST PUSH1 0xD PUSH1 0x0 SWAP1 SLOAD SWAP1 PUSH2 0x100 EXP SWAP1 DIV PUSH1 0xFF AND ISZERO PUSH2 0x62F JUMPI PUSH1 0x0 DUP1 REVERT JUMPDEST PUSH1 0x1 PUSH1 0xD PUSH1 0x0 PUSH2 0x100 EXP DUP2 SLOAD DUP2 PUSH1 0xFF MUL NOT AND SWAP1 DUP4 ISZERO ISZERO MUL OR SWAP1 SSTORE POP PUSH1 0x0 PUSH1 0x6 PUSH1 0x0 CALLER PUSH20 0xFFFFFFFFFFFFFFFFFFFFFFFFFFFFFFFFFFFFFFFF AND PUSH20 0xFFFFFFFFFFFFFFFFFFFFFFFFFFFFFFFFFFFFFFFF AND DUP2 MSTORE PUSH1 0x20 ADD SWAP1 DUP2 MSTORE PUSH1 0x20 ADD PUSH1 0x0 KECCAK256 SWAP1 POP PUSH1 0x0 DUP3 GT PUSH2 0x6D0 JUMPI PUSH1 0x40 MLOAD PUSH32 0x8C379A000000000000000000000000000000000000000000000000000000000 DUP2 MSTORE PUSH1 0x4 ADD PUSH2 0x6C7 SWAP1 PUSH2 0x2713 JUMP JUMPDEST PUSH1 0x40 MLOAD DUP1 SWAP2 SUB SWAP1 REVERT JUMPDEST PUSH1 0x0 DUP2 PUSH1 0x0 ADD SLOAD GT PUSH2 0x717 JUMPI PUSH1 0x40 MLOAD PUSH32 0x8C379A000000000000000000000000000000000000000000000000000000000 DUP2 MSTORE PUSH1 0x4 ADD PUSH2 0x70E SWAP1 PUSH2 0x277F JUMP JUMPDEST PUSH1 0x40 MLOAD DUP1 SWAP2 SUB SWAP1 REVERT JUMPDEST TIMESTAMP DUP2 PUSH1 0x1 ADD SLOAD GT PUSH2 0x75D JUMPI PUSH1 0x40 MLOAD PUSH32 0x8C379A000000000000000000000000000000000000000000000000000000000 DUP2 MSTORE PUSH1 0x4 ADD PUSH2 0x754 SWAP1 PUSH2 0x2811 JUMP JUMPDEST PUSH1 0x40 MLOAD DUP1 SWAP2 SUB SWAP1 REVERT JUMPDEST PUSH2 0x76F CALLER DUP4 DUP4 PUSH1 0x1 ADD SLOAD DUP5 PUSH1 0x2 PUSH2 0x184C JUMP JUMPDEST POP PUSH1 0x0 PUSH1 0xD PUSH1 0x0 PUSH2 0x100 EXP DUP2 SLOAD DUP2 PUSH1 0xFF MUL NOT AND SWAP1 DUP4 ISZERO ISZERO MUL OR SWAP1 SSTORE POP POP JUMP JUMPDEST PUSH1 0x0 DUP1 PUSH1 0x8 PUSH1 0x0 PUSH1 0x7 SLOAD DUP2 MSTORE PUSH1 0x20 ADD SWAP1 DUP2 MSTORE PUSH1 0x20 ADD PUSH1 0x0 KECCAK256 SWAP1 POP PUSH2 0x7B2 DUP2 TIMESTAMP PUSH2 0x1A1F JUMP JUMPDEST SWAP2 POP POP SWAP1 JUMP JUMPDEST PUSH1 0xC PUSH1 0x20 MSTORE DUP2 PUSH1 0x0 MSTORE PUSH1 0x40 PUSH1 0x0 KECCAK256 PUSH1 0x20 MSTORE DUP1 PUSH1 0x0 MSTORE PUSH1 0x40 PUSH1 0x0 KECCAK256 PUSH1 0x0 SWAP2 POP SWAP2 POP POP SLOAD DUP2 JUMP JUMPDEST PUSH1 0x0 PUSH3 0x93A80 PUSH1 0xD0 PUSH2 0x7EF SWAP2 SWAP1 PUSH2 0x2860 JUMP JUMPDEST TIMESTAMP PUSH2 0x7FA SWAP2 SWAP1 PUSH2 0x28BA JUMP JUMPDEST DUP3 GT ISZERO PUSH2 0x80A JUMPI PUSH1 0x0 SWAP1 POP PUSH2 0x86A JUMP JUMPDEST PUSH1 0x0 PUSH3 0x93A80 DUP4 PUSH2 0x81B SWAP2 SWAP1 PUSH2 0x293F JUMP JUMPDEST SWAP1 POP PUSH1 0x7 SLOAD DUP2 GT ISZERO PUSH2 0x82D JUMPI PUSH1 0x7 SLOAD SWAP1 POP JUMPDEST PUSH1 0x0 PUSH1 0x8 PUSH1 0x0 DUP4 DUP2 MSTORE PUSH1 0x20 ADD SWAP1 DUP2 MSTORE PUSH1 0x20 ADD PUSH1 0x0 KECCAK256 SWAP1 POP PUSH1 0x0 DUP2 PUSH1 0x2 ADD SLOAD SUB PUSH2 0x85B JUMPI PUSH1 0x0 SWAP3 POP POP POP PUSH2 0x86A JUMP JUMPDEST PUSH2 0x865 DUP2 DUP6 PUSH2 0x1A1F JUMP JUMPDEST SWAP3 POP POP POP JUMPDEST SWAP2 SWAP1 POP JUMP JUMPDEST PUSH1 0xD PUSH1 0x0 SWAP1 SLOAD SWAP1 PUSH2 0x100 EXP SWAP1 DIV PUSH1 0xFF AND ISZERO PUSH2 0x889 JUMPI PUSH1 0x0 DUP1 REVERT JUMPDEST PUSH1 0x1 PUSH1 0xD PUSH1 0x0 PUSH2 0x100 EXP DUP2 SLOAD DUP2 PUSH1 0xFF MUL NOT AND SWAP1 DUP4 ISZERO ISZERO MUL OR SWAP1 SSTORE POP PUSH1 0x0 PUSH1 0x6 PUSH1 0x0 DUP5 PUSH20 0xFFFFFFFFFFFFFFFFFFFFFFFFFFFFFFFFFFFFFFFF AND PUSH20 0xFFFFFFFFFFFFFFFFFFFFFFFFFFFFFFFFFFFFFFFF AND DUP2 MSTORE PUSH1 0x20 ADD SWAP1 DUP2 MSTORE PUSH1 0x20 ADD PUSH1 0x0 KECCAK256 SWAP1 POP PUSH1 0x0 DUP3 GT PUSH2 0x92A JUMPI PUSH1 0x40 MLOAD PUSH32 0x8C379A000000000000000000000000000000000000000000000000000000000 DUP2 MSTORE PUSH1 0x4 ADD PUSH2 0x921 SWAP1 PUSH2 0x2713 JUMP JUMPDEST PUSH1 0x40 MLOAD DUP1 SWAP2 SUB SWAP1 REVERT JUMPDEST PUSH1 0x0 DUP2 PUSH1 0x0 ADD SLOAD GT PUSH2 0x971 JUMPI PUSH1 0x40 MLOAD PUSH32 0x8C379A000000000000000000000000000000000000000000000000000000000 DUP2 MSTORE PUSH1 0x4 ADD PUSH2 0x968 SWAP1 PUSH2 0x277F JUMP JUMPDEST PUSH1 0x40 MLOAD DUP1 SWAP2 SUB SWAP1 REVERT JUMPDEST TIMESTAMP DUP2 PUSH1 0x1 ADD SLOAD GT PUSH2 0x9B7 JUMPI PUSH1 0x40 MLOAD PUSH32 0x8C379A000000000000000000000000000000000000000000000000000000000 DUP2 MSTORE PUSH1 0x4 ADD PUSH2 0x9AE SWAP1 PUSH2 0x2811 JUMP JUMPDEST PUSH1 0x40 MLOAD DUP1 SWAP2 SUB SWAP1 REVERT JUMPDEST PUSH2 0x9C9 DUP4 DUP4 DUP4 PUSH1 0x1 ADD SLOAD DUP5 PUSH1 0x0 PUSH2 0x184C JUMP JUMPDEST POP PUSH1 0x0 PUSH1 0xD PUSH1 0x0 PUSH2 0x100 EXP DUP2 SLOAD DUP2 PUSH1 0xFF MUL NOT AND SWAP1 DUP4 ISZERO ISZERO MUL OR SWAP1 SSTORE POP POP POP JUMP JUMPDEST PUSH1 0x3 SLOAD DUP2 JUMP JUMPDEST PUSH1 0xA PUSH1 0x20 MSTORE DUP2 PUSH1 0x0 MSTORE PUSH1 0x40 PUSH1 0x0 KECCAK256 PUSH1 0x20 MSTORE DUP1 PUSH1 0x0 MSTORE PUSH1 0x40 PUSH1 0x0 KECCAK256 PUSH1 0x0 SWAP2 POP SWAP2 POP POP DUP1 PUSH1 0x0 ADD SLOAD SWAP1 DUP1 PUSH1 0x1 ADD SLOAD SWAP1 DUP1 PUSH1 0x2 ADD SLOAD SWAP1 POP DUP4 JUMP JUMPDEST PUSH1 0xD PUSH1 0x0 SWAP1 SLOAD SWAP1 PUSH2 0x100 EXP SWAP1 DIV PUSH1 0xFF AND ISZERO PUSH2 0xA40 JUMPI PUSH1 0x0 DUP1 REVERT JUMPDEST PUSH1 0x1 PUSH1 0xD PUSH1 0x0 PUSH2 0x100 EXP DUP2 SLOAD DUP2 PUSH1 0xFF MUL NOT AND SWAP1 DUP4 ISZERO ISZERO MUL OR SWAP1 SSTORE POP PUSH1 0x0 PUSH1 0x6 PUSH1 0x0 CALLER PUSH20 0xFFFFFFFFFFFFFFFFFFFFFFFFFFFFFFFFFFFFFFFF AND PUSH20 0xFFFFFFFFFFFFFFFFFFFFFFFFFFFFFFFFFFFFFFFF AND DUP2 MSTORE PUSH1 0x20 ADD SWAP1 DUP2 MSTORE PUSH1 0x20 ADD PUSH1 0x0 KECCAK256 SWAP1 POP DUP1 PUSH1 0x1 ADD SLOAD TIMESTAMP LT ISZERO PUSH2 0xAE5 JUMPI PUSH1 0x40 MLOAD PUSH32 0x8C379A000000000000000000000000000000000000000000000000000000000 DUP2 MSTORE PUSH1 0x4 ADD PUSH2 0xADC SWAP1 PUSH2 0x29BC JUMP JUMPDEST PUSH1 0x40 MLOAD DUP1 SWAP2 SUB SWAP1 REVERT JUMPDEST PUSH1 0x0 DUP2 PUSH1 0x0 ADD SLOAD SWAP1 POP PUSH1 0x0 PUSH1 0x5 SLOAD SWAP1 POP DUP2 DUP2 PUSH2 0xB01 SWAP2 SWAP1 PUSH2 0x29DC JUMP JUMPDEST PUSH1 0x5 DUP2 SWAP1 SSTORE POP PUSH1 0x0 PUSH1 0x40 MLOAD DUP1 PUSH1 0x40 ADD PUSH1 0x40 MSTORE DUP1 PUSH1 0x0 DUP2 MSTORE PUSH1 0x20 ADD PUSH1 0x0 DUP2 MSTORE POP SWAP1 POP PUSH2 0xB2D CALLER DUP6 DUP4 PUSH2 0x1B01 JUMP JUMPDEST PUSH1 0x4 PUSH1 0x0 SWAP1 SLOAD SWAP1 PUSH2 0x100 EXP SWAP1 DIV PUSH20 0xFFFFFFFFFFFFFFFFFFFFFFFFFFFFFFFFFFFFFFFF AND PUSH20 0xFFFFFFFFFFFFFFFFFFFFFFFFFFFFFFFFFFFFFFFF AND PUSH4 0xA9059CBB CALLER DUP6 PUSH1 0x40 MLOAD DUP4 PUSH4 0xFFFFFFFF AND PUSH1 0xE0 SHL DUP2 MSTORE PUSH1 0x4 ADD PUSH2 0xB8A SWAP3 SWAP2 SWAP1 PUSH2 0x2A10 JUMP JUMPDEST PUSH1 0x20 PUSH1 0x40 MLOAD DUP1 DUP4 SUB DUP2 PUSH1 0x0 DUP8 GAS CALL ISZERO DUP1 ISZERO PUSH2 0xBA9 JUMPI RETURNDATASIZE PUSH1 0x0 DUP1 RETURNDATACOPY RETURNDATASIZE PUSH1 0x0 REVERT JUMPDEST POP POP POP POP PUSH1 0x40 MLOAD RETURNDATASIZE PUSH1 0x1F NOT PUSH1 0x1F DUP3 ADD AND DUP3 ADD DUP1 PUSH1 0x40 MSTORE POP DUP2 ADD SWAP1 PUSH2 0xBCD SWAP2 SWAP1 PUSH2 0x2A71 JUMP JUMPDEST PUSH2 0xBD6 JUMPI PUSH1 0x0 DUP1 REVERT JUMPDEST CALLER PUSH20 0xFFFFFFFFFFFFFFFFFFFFFFFFFFFFFFFFFFFFFFFF AND PUSH32 0xF279E6A1F5E320CCA91135676D9CB6E44CA8A08C0B88342BCDB1144F6511B568 DUP5 TIMESTAMP PUSH1 0x40 MLOAD PUSH2 0xC1E SWAP3 SWAP2 SWAP1 PUSH2 0x257F JUMP JUMPDEST PUSH1 0x40 MLOAD DUP1 SWAP2 SUB SWAP1 LOG2 PUSH32 0x5E2AA66EFD74CCE82B21852E317E5490D9ECC9E6BB953AE24D90851258CC2F5C DUP3 PUSH1 0x5 SLOAD PUSH1 0x40 MLOAD PUSH2 0xC59 SWAP3 SWAP2 SWAP1 PUSH2 0x257F JUMP JUMPDEST PUSH1 0x40 MLOAD DUP1 SWAP2 SUB SWAP1 LOG1 POP POP POP POP PUSH1 0x0 PUSH1 0xD PUSH1 0x0 PUSH2 0x100 EXP DUP2 SLOAD DUP2 PUSH1 0xFF MUL NOT AND SWAP1 DUP4 ISZERO ISZERO MUL OR SWAP1 SSTORE POP JUMP JUMPDEST PUSH1 0x0 TIMESTAMP DUP3 LT PUSH2 0xC90 JUMPI PUSH1 0x0 DUP1 REVERT JUMPDEST PUSH1 0x0 PUSH1 0xC PUSH1 0x0 DUP6 PUSH20 0xFFFFFFFFFFFFFFFFFFFFFFFFFFFFFFFFFFFFFFFF AND PUSH20 0xFFFFFFFFFFFFFFFFFFFFFFFFFFFFFFFFFFFFFFFF AND DUP2 MSTORE PUSH1 0x20 ADD SWAP1 DUP2 MSTORE PUSH1 0x20 ADD PUSH1 0x0 KECCAK256 PUSH1 0x0 DUP5 DUP2 MSTORE PUSH1 0x20 ADD SWAP1 DUP2 MSTORE PUSH1 0x20 ADD PUSH1 0x0 KECCAK256 SLOAD SWAP1 POP PUSH1 0x0 DUP2 GT ISZERO PUSH2 0xCF7 JUMPI DUP1 SWAP2 POP POP PUSH2 0xE39 JUMP JUMPDEST PUSH1 0x0 PUSH1 0xA PUSH1 0x0 DUP7 PUSH20 0xFFFFFFFFFFFFFFFFFFFFFFFFFFFFFFFFFFFFFFFF AND PUSH20 0xFFFFFFFFFFFFFFFFFFFFFFFFFFFFFFFFFFFFFFFF AND DUP2 MSTORE PUSH1 0x20 ADD SWAP1 DUP2 MSTORE PUSH1 0x20 ADD PUSH1 0x0 KECCAK256 SWAP1 POP PUSH1 0x0 DUP1 PUSH1 0x0 PUSH1 0xB PUSH1 0x0 DUP10 PUSH20 0xFFFFFFFFFFFFFFFFFFFFFFFFFFFFFFFFFFFFFFFF AND PUSH20 0xFFFFFFFFFFFFFFFFFFFFFFFFFFFFFFFFFFFFFFFF AND DUP2 MSTORE PUSH1 0x20 ADD SWAP1 DUP2 MSTORE PUSH1 0x20 ADD PUSH1 0x0 KECCAK256 SLOAD SWAP1 POP PUSH1 0x0 JUMPDEST PUSH1 0x80 DUP2 LT ISZERO PUSH2 0xE02 JUMPI DUP2 DUP5 LT ISZERO PUSH2 0xE02 JUMPI PUSH1 0x2 PUSH1 0x1 DUP4 DUP7 PUSH2 0xDA5 SWAP2 SWAP1 PUSH2 0x28BA JUMP JUMPDEST PUSH2 0xDAF SWAP2 SWAP1 PUSH2 0x28BA JUMP JUMPDEST PUSH2 0xDB9 SWAP2 SWAP1 PUSH2 0x293F JUMP JUMPDEST SWAP3 POP DUP8 DUP6 PUSH1 0x0 DUP6 DUP2 MSTORE PUSH1 0x20 ADD SWAP1 DUP2 MSTORE PUSH1 0x20 ADD PUSH1 0x0 KECCAK256 PUSH1 0x2 ADD SLOAD GT PUSH2 0xDDF JUMPI DUP3 SWAP4 POP PUSH2 0xDEF JUMP JUMPDEST PUSH1 0x1 DUP4 PUSH2 0xDEC SWAP2 SWAP1 PUSH2 0x29DC JUMP JUMPDEST SWAP2 POP JUMPDEST DUP1 DUP1 PUSH2 0xDFA SWAP1 PUSH2 0x2A9E JUMP JUMPDEST SWAP2 POP POP PUSH2 0xD84 JUMP JUMPDEST POP DUP1 DUP4 LT ISZERO PUSH2 0xE10 JUMPI PUSH1 0x0 DUP1 REVERT JUMPDEST PUSH1 0x0 DUP5 PUSH1 0x0 DUP6 DUP2 MSTORE PUSH1 0x20 ADD SWAP1 DUP2 MSTORE PUSH1 0x20 ADD PUSH1 0x0 KECCAK256 SWAP1 POP PUSH2 0xE30 DUP2 DUP10 PUSH2 0x1E52 JUMP JUMPDEST SWAP7 POP POP POP POP POP POP POP JUMPDEST SWAP3 SWAP2 POP POP JUMP JUMPDEST PUSH1 0x0 PUSH2 0xE4B DUP3 TIMESTAMP PUSH2 0x12CF JUMP JUMPDEST SWAP1 POP SWAP2 SWAP1 POP JUMP JUMPDEST PUSH1 0xD PUSH1 0x0 SWAP1 SLOAD SWAP1 PUSH2 0x100 EXP SWAP1 DIV PUSH1 0xFF AND ISZERO PUSH2 0xE6C JUMPI PUSH1 0x0 DUP1 REVERT JUMPDEST PUSH1 0x1 PUSH1 0xD PUSH1 0x0 PUSH2 0x100 EXP DUP2 SLOAD DUP2 PUSH1 0xFF MUL NOT AND SWAP1 DUP4 ISZERO ISZERO MUL OR SWAP1 SSTORE POP PUSH1 0x0 PUSH1 0x6 PUSH1 0x0 CALLER PUSH20 0xFFFFFFFFFFFFFFFFFFFFFFFFFFFFFFFFFFFFFFFF AND PUSH20 0xFFFFFFFFFFFFFFFFFFFFFFFFFFFFFFFFFFFFFFFF AND DUP2 MSTORE PUSH1 0x20 ADD SWAP1 DUP2 MSTORE PUSH1 0x20 ADD PUSH1 0x0 KECCAK256 SWAP1 POP PUSH3 0x93A80 DUP1 DUP4 PUSH2 0xEDA SWAP2 SWAP1 PUSH2 0x293F JUMP JUMPDEST PUSH2 0xEE4 SWAP2 SWAP1 PUSH2 0x2860 JUMP JUMPDEST SWAP2 POP PUSH1 0x0 DUP2 PUSH1 0x0 ADD SLOAD GT PUSH2 0xF2D JUMPI PUSH1 0x40 MLOAD PUSH32 0x8C379A000000000000000000000000000000000000000000000000000000000 DUP2 MSTORE PUSH1 0x4 ADD PUSH2 0xF24 SWAP1 PUSH2 0x277F JUMP JUMPDEST PUSH1 0x40 MLOAD DUP1 SWAP2 SUB SWAP1 REVERT JUMPDEST TIMESTAMP DUP2 PUSH1 0x1 ADD SLOAD GT PUSH2 0xF73 JUMPI PUSH1 0x40 MLOAD PUSH32 0x8C379A000000000000000000000000000000000000000000000000000000000 DUP2 MSTORE PUSH1 0x4 ADD PUSH2 0xF6A SWAP1 PUSH2 0x2811 JUMP JUMPDEST PUSH1 0x40 MLOAD DUP1 SWAP2 SUB SWAP1 REVERT JUMPDEST DUP1 PUSH1 0x1 ADD SLOAD DUP3 GT PUSH2 0xFB9 JUMPI PUSH1 0x40 MLOAD PUSH32 0x8C379A000000000000000000000000000000000000000000000000000000000 DUP2 MSTORE PUSH1 0x4 ADD PUSH2 0xFB0 SWAP1 PUSH2 0x2B32 JUMP JUMPDEST PUSH1 0x40 MLOAD DUP1 SWAP2 SUB SWAP1 REVERT JUMPDEST PUSH3 0x93A80 PUSH1 0xD0 PUSH2 0xFC9 SWAP2 SWAP1 PUSH2 0x2860 JUMP JUMPDEST TIMESTAMP PUSH2 0xFD4 SWAP2 SWAP1 PUSH2 0x28BA JUMP JUMPDEST DUP3 GT ISZERO PUSH2 0x1016 JUMPI PUSH1 0x40 MLOAD PUSH32 0x8C379A000000000000000000000000000000000000000000000000000000000 DUP2 MSTORE PUSH1 0x4 ADD PUSH2 0x100D SWAP1 PUSH2 0x2B9E JUMP JUMPDEST PUSH1 0x40 MLOAD DUP1 SWAP2 SUB SWAP1 REVERT JUMPDEST PUSH2 0x1025 CALLER PUSH1 0x0 DUP5 DUP5 PUSH1 0x3 PUSH2 0x184C JUMP JUMPDEST POP PUSH1 0x0 PUSH1 0xD PUSH1 0x0 PUSH2 0x100 EXP DUP2 SLOAD DUP2 PUSH1 0xFF MUL NOT AND SWAP1 DUP4 ISZERO ISZERO MUL OR SWAP1 SSTORE POP POP JUMP JUMPDEST PUSH1 0x0 PUSH1 0xB PUSH1 0x0 DUP6 PUSH20 0xFFFFFFFFFFFFFFFFFFFFFFFFFFFFFFFFFFFFFFFF AND PUSH20 0xFFFFFFFFFFFFFFFFFFFFFFFFFFFFFFFFFFFFFFFF AND DUP2 MSTORE PUSH1 0x20 ADD SWAP1 DUP2 MSTORE PUSH1 0x20 ADD PUSH1 0x0 KECCAK256 SLOAD SWAP1 POP DUP1 DUP3 GT ISZERO PUSH2 0x1095 JUMPI PUSH1 0x0 DUP1 REVERT JUMPDEST PUSH1 0x0 TIMESTAMP SWAP1 POP DUP2 DUP4 EQ PUSH2 0x1104 JUMPI PUSH1 0xA PUSH1 0x0 DUP7 PUSH20 0xFFFFFFFFFFFFFFFFFFFFFFFFFFFFFFFFFFFFFFFF AND PUSH20 0xFFFFFFFFFFFFFFFFFFFFFFFFFFFFFFFFFFFFFFFF AND DUP2 MSTORE PUSH1 0x20 ADD SWAP1 DUP2 MSTORE PUSH1 0x20 ADD PUSH1 0x0 KECCAK256 PUSH1 0x0 PUSH1 0x1 DUP6 PUSH2 0x10EF SWAP2 SWAP1 PUSH2 0x28BA JUMP JUMPDEST DUP2 MSTORE PUSH1 0x20 ADD SWAP1 DUP2 MSTORE PUSH1 0x20 ADD PUSH1 0x0 KECCAK256 PUSH1 0x2 ADD SLOAD SWAP1 POP JUMPDEST DUP1 DUP5 LT PUSH2 0x1110 JUMPI PUSH1 0x0 DUP1 REVERT JUMPDEST PUSH1 0x0 PUSH1 0xA PUSH1 0x0 DUP8 PUSH20 0xFFFFFFFFFFFFFFFFFFFFFFFFFFFFFFFFFFFFFFFF AND PUSH20 0xFFFFFFFFFFFFFFFFFFFFFFFFFFFFFFFFFFFFFFFF AND DUP2 MSTORE PUSH1 0x20 ADD SWAP1 DUP2 MSTORE PUSH1 0x20 ADD PUSH1 0x0 KECCAK256 PUSH1 0x0 DUP6 DUP2 MSTORE PUSH1 0x20 ADD SWAP1 DUP2 MSTORE PUSH1 0x20 ADD PUSH1 0x0 KECCAK256 SWAP1 POP DUP1 PUSH1 0x2 ADD SLOAD DUP6 LT ISZERO PUSH2 0x1175 JUMPI PUSH1 0x0 DUP1 REVERT JUMPDEST PUSH2 0x117F DUP2 DUP7 PUSH2 0x1E52 JUMP JUMPDEST PUSH1 0xC PUSH1 0x0 DUP9 PUSH20 0xFFFFFFFFFFFFFFFFFFFFFFFFFFFFFFFFFFFFFFFF AND PUSH20 0xFFFFFFFFFFFFFFFFFFFFFFFFFFFFFFFFFFFFFFFF AND DUP2 MSTORE PUSH1 0x20 ADD SWAP1 DUP2 MSTORE PUSH1 0x20 ADD PUSH1 0x0 KECCAK256 PUSH1 0x0 DUP8 DUP2 MSTORE PUSH1 0x20 ADD SWAP1 DUP2 MSTORE PUSH1 0x20 ADD PUSH1 0x0 KECCAK256 DUP2 SWAP1 SSTORE POP POP POP POP POP POP POP JUMP JUMPDEST PUSH1 0xB PUSH1 0x20 MSTORE DUP1 PUSH1 0x0 MSTORE PUSH1 0x40 PUSH1 0x0 KECCAK256 PUSH1 0x0 SWAP2 POP SWAP1 POP SLOAD DUP2 JUMP JUMPDEST PUSH1 0x8 PUSH1 0x20 MSTORE DUP1 PUSH1 0x0 MSTORE PUSH1 0x40 PUSH1 0x0 KECCAK256 PUSH1 0x0 SWAP2 POP SWAP1 POP DUP1 PUSH1 0x0 ADD SLOAD SWAP1 DUP1 PUSH1 0x1 ADD SLOAD SWAP1 DUP1 PUSH1 0x2 ADD SLOAD SWAP1 POP DUP4 JUMP JUMPDEST PUSH1 0x7 SLOAD DUP2 JUMP JUMPDEST PUSH1 0x2 DUP1 SLOAD PUSH2 0x1230 SWAP1 PUSH2 0x2696 JUMP JUMPDEST DUP1 PUSH1 0x1F ADD PUSH1 0x20 DUP1 SWAP2 DIV MUL PUSH1 0x20 ADD PUSH1 0x40 MLOAD SWAP1 DUP2 ADD PUSH1 0x40 MSTORE DUP1 SWAP3 SWAP2 SWAP1 DUP2 DUP2 MSTORE PUSH1 0x20 ADD DUP3 DUP1 SLOAD PUSH2 0x125C SWAP1 PUSH2 0x2696 JUMP JUMPDEST DUP1 ISZERO PUSH2 0x12A9 JUMPI DUP1 PUSH1 0x1F LT PUSH2 0x127E JUMPI PUSH2 0x100 DUP1 DUP4 SLOAD DIV MUL DUP4 MSTORE SWAP2 PUSH1 0x20 ADD SWAP2 PUSH2 0x12A9 JUMP JUMPDEST DUP3 ADD SWAP2 SWAP1 PUSH1 0x0 MSTORE PUSH1 0x20 PUSH1 0x0 KECCAK256 SWAP1 JUMPDEST DUP2 SLOAD DUP2 MSTORE SWAP1 PUSH1 0x1 ADD SWAP1 PUSH1 0x20 ADD DUP1 DUP4 GT PUSH2 0x128C JUMPI DUP3 SWAP1 SUB PUSH1 0x1F AND DUP3 ADD SWAP2 JUMPDEST POP POP POP POP POP DUP2 JUMP JUMPDEST PUSH1 0x0 TIMESTAMP DUP3 LT PUSH2 0x12BF JUMPI PUSH1 0x0 DUP1 REVERT JUMPDEST PUSH2 0x12C8 DUP3 PUSH2 0x7DD JUMP JUMPDEST SWAP1 POP SWAP2 SWAP1 POP JUMP JUMPDEST PUSH1 0x0 TIMESTAMP DUP3 LT ISZERO PUSH2 0x12DE JUMPI PUSH1 0x0 DUP1 REVERT JUMPDEST PUSH1 0x0 PUSH1 0xB PUSH1 0x0 DUP6 PUSH20 0xFFFFFFFFFFFFFFFFFFFFFFFFFFFFFFFFFFFFFFFF AND PUSH20 0xFFFFFFFFFFFFFFFFFFFFFFFFFFFFFFFFFFFFFFFF AND DUP2 MSTORE PUSH1 0x20 ADD SWAP1 DUP2 MSTORE PUSH1 0x20 ADD PUSH1 0x0 KECCAK256 SLOAD SWAP1 POP PUSH1 0x0 DUP2 SUB PUSH2 0x1334 JUMPI PUSH1 0x0 SWAP2 POP POP PUSH2 0x1397 JUMP JUMPDEST PUSH1 0x0 PUSH1 0xA PUSH1 0x0 DUP7 PUSH20 0xFFFFFFFFFFFFFFFFFFFFFFFFFFFFFFFFFFFFFFFF AND PUSH20 0xFFFFFFFFFFFFFFFFFFFFFFFFFFFFFFFFFFFFFFFF AND DUP2 MSTORE PUSH1 0x20 ADD SWAP1 DUP2 MSTORE PUSH1 0x20 ADD PUSH1 0x0 KECCAK256 PUSH1 0x0 DUP4 DUP2 MSTORE PUSH1 0x20 ADD SWAP1 DUP2 MSTORE PUSH1 0x20 ADD PUSH1 0x0 KECCAK256 SWAP1 POP PUSH2 0x1392 DUP2 DUP6 PUSH2 0x1E52 JUMP JUMPDEST SWAP3 POP POP POP JUMPDEST SWAP3 SWAP2 POP POP JUMP JUMPDEST PUSH2 0x13A7 DUP3 DUP3 PUSH2 0xC82 JUMP JUMPDEST PUSH1 0xC PUSH1 0x0 DUP5 PUSH20 0xFFFFFFFFFFFFFFFFFFFFFFFFFFFFFFFFFFFFFFFF AND PUSH20 0xFFFFFFFFFFFFFFFFFFFFFFFFFFFFFFFFFFFFFFFF AND DUP2 MSTORE PUSH1 0x20 ADD SWAP1 DUP2 MSTORE PUSH1 0x20 ADD PUSH1 0x0 KECCAK256 PUSH1 0x0 DUP4 DUP2 MSTORE PUSH1 0x20 ADD SWAP1 DUP2 MSTORE PUSH1 0x20 ADD PUSH1 0x0 KECCAK256 DUP2 SWAP1 SSTORE POP POP POP JUMP JUMPDEST PUSH1 0x0 PUSH20 0xFFFFFFFFFFFFFFFFFFFFFFFFFFFFFFFFFFFFFFFF AND PUSH1 0x0 DUP1 SLOAD SWAP1 PUSH2 0x100 EXP SWAP1 DIV PUSH20 0xFFFFFFFFFFFFFFFFFFFFFFFFFFFFFFFFFFFFFFFF AND PUSH20 0xFFFFFFFFFFFFFFFFFFFFFFFFFFFFFFFFFFFFFFFF AND EQ PUSH2 0x1458 JUMPI PUSH1 0x0 DUP1 REVERT JUMPDEST CALLER PUSH1 0x0 DUP1 PUSH2 0x100 EXP DUP2 SLOAD DUP2 PUSH20 0xFFFFFFFFFFFFFFFFFFFFFFFFFFFFFFFFFFFFFFFF MUL NOT AND SWAP1 DUP4 PUSH20 0xFFFFFFFFFFFFFFFFFFFFFFFFFFFFFFFFFFFFFFFF AND MUL OR SWAP1 SSTORE POP DUP3 PUSH1 0x4 PUSH1 0x0 PUSH2 0x100 EXP DUP2 SLOAD DUP2 PUSH20 0xFFFFFFFFFFFFFFFFFFFFFFFFFFFFFFFFFFFFFFFF MUL NOT AND SWAP1 DUP4 PUSH20 0xFFFFFFFFFFFFFFFFFFFFFFFFFFFFFFFFFFFFFFFF AND MUL OR SWAP1 SSTORE POP DUP3 PUSH20 0xFFFFFFFFFFFFFFFFFFFFFFFFFFFFFFFFFFFFFFFF AND PUSH4 0x313CE567 PUSH1 0x40 MLOAD DUP2 PUSH4 0xFFFFFFFF AND PUSH1 0xE0 SHL DUP2 MSTORE PUSH1 0x4 ADD PUSH1 0x20 PUSH1 0x40 MLOAD DUP1 DUP4 SUB DUP2 DUP7 GAS STATICCALL ISZERO DUP1 ISZERO PUSH2 0x1524 JUMPI RETURNDATASIZE PUSH1 0x0 DUP1 RETURNDATACOPY RETURNDATASIZE PUSH1 0x0 REVERT JUMPDEST POP POP POP POP PUSH1 0x40 MLOAD RETURNDATASIZE PUSH1 0x1F NOT PUSH1 0x1F DUP3 ADD AND DUP3 ADD DUP1 PUSH1 0x40 MSTORE POP DUP2 ADD SWAP1 PUSH2 0x1548 SWAP2 SWAP1 PUSH2 0x2BD3 JUMP JUMPDEST PUSH1 0x3 DUP2 SWAP1 SSTORE POP DUP2 PUSH1 0x1 SWAP1 DUP1 MLOAD SWAP1 PUSH1 0x20 ADD SWAP1 PUSH2 0x1564 SWAP3 SWAP2 SWAP1 PUSH2 0x1FD4 JUMP JUMPDEST POP DUP1 PUSH1 0x2 SWAP1 DUP1 MLOAD SWAP1 PUSH1 0x20 ADD SWAP1 PUSH2 0x157B SWAP3 SWAP2 SWAP1 PUSH2 0x1FD4 JUMP JUMPDEST POP PUSH3 0x93A80 TIMESTAMP PUSH2 0x158B SWAP2 SWAP1 PUSH2 0x293F JUMP JUMPDEST PUSH1 0x7 DUP2 SWAP1 SSTORE POP TIMESTAMP PUSH1 0x8 PUSH1 0x0 PUSH1 0x7 SLOAD DUP2 MSTORE PUSH1 0x20 ADD SWAP1 DUP2 MSTORE PUSH1 0x20 ADD PUSH1 0x0 KECCAK256 PUSH1 0x2 ADD DUP2 SWAP1 SSTORE POP POP POP POP JUMP JUMPDEST PUSH1 0xD PUSH1 0x0 SWAP1 SLOAD SWAP1 PUSH2 0x100 EXP SWAP1 DIV PUSH1 0xFF AND ISZERO PUSH2 0x15CD JUMPI PUSH1 0x0 DUP1 REVERT JUMPDEST PUSH1 0x1 PUSH1 0xD PUSH1 0x0 PUSH2 0x100 EXP DUP2 SLOAD DUP2 PUSH1 0xFF MUL NOT AND SWAP1 DUP4 ISZERO ISZERO MUL OR SWAP1 SSTORE POP PUSH2 0x1607 CALLER PUSH20 0xFFFFFFFFFFFFFFFFFFFFFFFFFFFFFFFFFFFFFFFF AND PUSH2 0x1EA3 JUMP JUMPDEST PUSH2 0x1610 JUMPI PUSH1 0x0 DUP1 REVERT JUMPDEST PUSH3 0x93A80 DUP1 DUP3 PUSH2 0x1620 SWAP2 SWAP1 PUSH2 0x293F JUMP JUMPDEST PUSH2 0x162A SWAP2 SWAP1 PUSH2 0x2860 JUMP JUMPDEST SWAP1 POP PUSH1 0x0 PUSH1 0x6 PUSH1 0x0 CALLER PUSH20 0xFFFFFFFFFFFFFFFFFFFFFFFFFFFFFFFFFFFFFFFF AND PUSH20 0xFFFFFFFFFFFFFFFFFFFFFFFFFFFFFFFFFFFFFFFF AND DUP2 MSTORE PUSH1 0x20 ADD SWAP1 DUP2 MSTORE PUSH1 0x20 ADD PUSH1 0x0 KECCAK256 SWAP1 POP PUSH1 0x0 DUP4 GT PUSH2 0x16B2 JUMPI PUSH1 0x40 MLOAD PUSH32 0x8C379A000000000000000000000000000000000000000000000000000000000 DUP2 MSTORE PUSH1 0x4 ADD PUSH2 0x16A9 SWAP1 PUSH2 0x2713 JUMP JUMPDEST PUSH1 0x40 MLOAD DUP1 SWAP2 SUB SWAP1 REVERT JUMPDEST PUSH1 0x0 DUP2 PUSH1 0x0 ADD SLOAD EQ PUSH2 0x16F9 JUMPI PUSH1 0x40 MLOAD PUSH32 0x8C379A000000000000000000000000000000000000000000000000000000000 DUP2 MSTORE PUSH1 0x4 ADD PUSH2 0x16F0 SWAP1 PUSH2 0x2C4C JUMP JUMPDEST PUSH1 0x40 MLOAD DUP1 SWAP2 SUB SWAP1 REVERT JUMPDEST TIMESTAMP DUP3 GT PUSH2 0x173B JUMPI PUSH1 0x40 MLOAD PUSH32 0x8C379A000000000000000000000000000000000000000000000000000000000 DUP2 MSTORE PUSH1 0x4 ADD PUSH2 0x1732 SWAP1 PUSH2 0x2CDE JUMP JUMPDEST PUSH1 0x40 MLOAD DUP1 SWAP2 SUB SWAP1 REVERT JUMPDEST PUSH3 0x93A80 PUSH1 0xD0 PUSH2 0x174B SWAP2 SWAP1 PUSH2 0x2860 JUMP JUMPDEST TIMESTAMP PUSH2 0x1756 SWAP2 SWAP1 PUSH2 0x28BA JUMP JUMPDEST DUP3 GT ISZERO PUSH2 0x1798 JUMPI PUSH1 0x40 MLOAD PUSH32 0x8C379A000000000000000000000000000000000000000000000000000000000 DUP2 MSTORE PUSH1 0x4 ADD PUSH2 0x178F SWAP1 PUSH2 0x2B9E JUMP JUMPDEST PUSH1 0x40 MLOAD DUP1 SWAP2 SUB SWAP1 REVERT JUMPDEST PUSH2 0x17A6 CALLER DUP5 DUP5 DUP5 PUSH1 0x1 PUSH2 0x184C JUMP JUMPDEST POP PUSH1 0x0 PUSH1 0xD PUSH1 0x0 PUSH2 0x100 EXP DUP2 SLOAD DUP2 PUSH1 0xFF MUL NOT AND SWAP1 DUP4 ISZERO ISZERO MUL OR SWAP1 SSTORE POP POP POP JUMP JUMPDEST PUSH1 0x6 PUSH1 0x20 MSTORE DUP1 PUSH1 0x0 MSTORE PUSH1 0x40 PUSH1 0x0 KECCAK256 PUSH1 0x0 SWAP2 POP SWAP1 POP DUP1 PUSH1 0x0 ADD SLOAD SWAP1 DUP1 PUSH1 0x1 ADD SLOAD SWAP1 POP DUP3 JUMP JUMPDEST PUSH1 0x9 PUSH1 0x20 MSTORE DUP1 PUSH1 0x0 MSTORE PUSH1 0x40 PUSH1 0x0 KECCAK256 PUSH1 0x0 SWAP2 POP SWAP1 POP SLOAD DUP2 JUMP JUMPDEST PUSH1 0x0 DUP1 SLOAD SWAP1 PUSH2 0x100 EXP SWAP1 DIV PUSH20 0xFFFFFFFFFFFFFFFFFFFFFFFFFFFFFFFFFFFFFFFF AND DUP2 JUMP JUMPDEST PUSH1 0x4 PUSH1 0x0 SWAP1 SLOAD SWAP1 PUSH2 0x100 EXP SWAP1 DIV PUSH20 0xFFFFFFFFFFFFFFFFFFFFFFFFFFFFFFFFFFFFFFFF AND DUP2 JUMP JUMPDEST PUSH1 0x0 PUSH1 0x5 SLOAD SWAP1 POP DUP5 DUP2 PUSH2 0x185F SWAP2 SWAP1 PUSH2 0x28BA JUMP JUMPDEST PUSH1 0x5 DUP2 SWAP1 SSTORE POP PUSH1 0x0 DUP6 DUP5 PUSH1 0x0 ADD SLOAD PUSH2 0x1877 SWAP2 SWAP1 PUSH2 0x28BA JUMP JUMPDEST SWAP1 POP PUSH1 0x0 PUSH1 0x40 MLOAD DUP1 PUSH1 0x40 ADD PUSH1 0x40 MSTORE DUP1 DUP4 DUP2 MSTORE PUSH1 0x20 ADD DUP8 DUP2 MSTORE POP SWAP1 POP PUSH2 0x189D DUP9 DUP7 DUP4 PUSH2 0x1B01 JUMP JUMPDEST PUSH1 0x0 DUP8 EQ PUSH2 0x1987 JUMPI PUSH1 0x4 PUSH1 0x0 SWAP1 SLOAD SWAP1 PUSH2 0x100 EXP SWAP1 DIV PUSH20 0xFFFFFFFFFFFFFFFFFFFFFFFFFFFFFFFFFFFFFFFF AND PUSH20 0xFFFFFFFFFFFFFFFFFFFFFFFFFFFFFFFFFFFFFFFF AND PUSH4 0x23B872DD CALLER ADDRESS DUP11 PUSH1 0x40 MLOAD DUP5 PUSH4 0xFFFFFFFF AND PUSH1 0xE0 SHL DUP2 MSTORE PUSH1 0x4 ADD PUSH2 0x1904 SWAP4 SWAP3 SWAP2 SWAP1 PUSH2 0x2CFE JUMP JUMPDEST PUSH1 0x20 PUSH1 0x40 MLOAD DUP1 DUP4 SUB DUP2 PUSH1 0x0 DUP8 GAS CALL ISZERO DUP1 ISZERO PUSH2 0x1923 JUMPI RETURNDATASIZE PUSH1 0x0 DUP1 RETURNDATACOPY RETURNDATASIZE PUSH1 0x0 REVERT JUMPDEST POP POP POP POP PUSH1 0x40 MLOAD RETURNDATASIZE PUSH1 0x1F NOT PUSH1 0x1F DUP3 ADD AND DUP3 ADD DUP1 PUSH1 0x40 MSTORE POP DUP2 ADD SWAP1 PUSH2 0x1947 SWAP2 SWAP1 PUSH2 0x2A71 JUMP JUMPDEST PUSH2 0x1986 JUMPI PUSH1 0x40 MLOAD PUSH32 0x8C379A000000000000000000000000000000000000000000000000000000000 DUP2 MSTORE PUSH1 0x4 ADD PUSH2 0x197D SWAP1 PUSH2 0x2D81 JUMP JUMPDEST PUSH1 0x40 MLOAD DUP1 SWAP2 SUB SWAP1 REVERT JUMPDEST JUMPDEST DUP6 DUP9 PUSH20 0xFFFFFFFFFFFFFFFFFFFFFFFFFFFFFFFFFFFFFFFF AND PUSH32 0xBE9CF0E939C614FAD640A623A53BA0A807C8CB503C4C4C8DACABE27B86FF2DD5 DUP5 DUP8 TIMESTAMP PUSH1 0x40 MLOAD PUSH2 0x19D2 SWAP4 SWAP3 SWAP2 SWAP1 PUSH2 0x2E18 JUMP JUMPDEST PUSH1 0x40 MLOAD DUP1 SWAP2 SUB SWAP1 LOG3 PUSH32 0x5E2AA66EFD74CCE82B21852E317E5490D9ECC9E6BB953AE24D90851258CC2F5C DUP4 PUSH1 0x5 SLOAD PUSH1 0x40 MLOAD PUSH2 0x1A0D SWAP3 SWAP2 SWAP1 PUSH2 0x257F JUMP JUMPDEST PUSH1 0x40 MLOAD DUP1 SWAP2 SUB SWAP1 LOG1 POP POP POP POP POP POP POP POP JUMP JUMPDEST PUSH1 0x0 DUP1 DUP4 PUSH1 0x0 ADD SLOAD SWAP1 POP PUSH1 0x0 DUP5 PUSH1 0x1 ADD SLOAD SWAP1 POP PUSH1 0x0 DUP6 PUSH1 0x2 ADD SLOAD SWAP1 POP PUSH1 0x0 PUSH3 0x93A80 DUP1 DUP4 PUSH2 0x1A4D SWAP2 SWAP1 PUSH2 0x293F JUMP JUMPDEST PUSH2 0x1A57 SWAP2 SWAP1 PUSH2 0x2860 JUMP JUMPDEST SWAP1 POP PUSH1 0x0 JUMPDEST PUSH1 0xFF DUP2 LT ISZERO PUSH2 0x1AF3 JUMPI PUSH3 0x93A80 DUP3 PUSH2 0x1A74 SWAP2 SWAP1 PUSH2 0x28BA JUMP JUMPDEST SWAP2 POP DUP7 DUP3 GT ISZERO PUSH2 0x1A82 JUMPI DUP7 SWAP2 POP JUMPDEST DUP3 DUP3 PUSH2 0x1A8E SWAP2 SWAP1 PUSH2 0x2E4F JUMP JUMPDEST DUP5 PUSH2 0x1A99 SWAP2 SWAP1 PUSH2 0x2EE3 JUMP JUMPDEST DUP6 PUSH2 0x1AA4 SWAP2 SWAP1 PUSH2 0x2E4F JUMP JUMPDEST SWAP5 POP DUP7 DUP3 SUB ISZERO PUSH2 0x1AF3 JUMPI PUSH1 0x9 PUSH1 0x0 PUSH3 0x93A80 DUP5 PUSH2 0x1AC1 SWAP2 SWAP1 PUSH2 0x293F JUMP JUMPDEST DUP2 MSTORE PUSH1 0x20 ADD SWAP1 DUP2 MSTORE PUSH1 0x20 ADD PUSH1 0x0 KECCAK256 SLOAD DUP5 PUSH2 0x1ADB SWAP2 SWAP1 PUSH2 0x2FFA JUMP JUMPDEST SWAP4 POP DUP2 SWAP3 POP DUP1 DUP1 PUSH2 0x1AEB SWAP1 PUSH2 0x2A9E JUMP JUMPDEST SWAP2 POP POP PUSH2 0x1A5C JUMP JUMPDEST POP DUP4 SWAP5 POP POP POP POP POP SWAP3 SWAP2 POP POP JUMP JUMPDEST PUSH1 0x0 PUSH2 0x1B0B PUSH2 0x1EB6 JUMP JUMPDEST SWAP1 POP DUP1 PUSH1 0x2 ADD SLOAD TIMESTAMP PUSH2 0x1B1D SWAP2 SWAP1 PUSH2 0x29DC JUMP JUMPDEST DUP2 PUSH1 0x1 ADD SLOAD PUSH2 0x1B2C SWAP2 SWAP1 PUSH2 0x2EE3 JUMP JUMPDEST DUP2 PUSH1 0x0 ADD PUSH1 0x0 DUP3 DUP3 SLOAD PUSH2 0x1B3F SWAP2 SWAP1 PUSH2 0x2E4F JUMP JUMPDEST SWAP3 POP POP DUP2 SWAP1 SSTORE POP TIMESTAMP DUP2 PUSH1 0x2 ADD DUP2 SWAP1 SSTORE POP TIMESTAMP DUP4 PUSH1 0x1 ADD SLOAD GT ISZERO PUSH2 0x1C12 JUMPI PUSH1 0x0 PUSH3 0x93A80 PUSH1 0xD0 PUSH2 0x1B6D SWAP2 SWAP1 PUSH2 0x2860 JUMP JUMPDEST DUP5 PUSH1 0x0 ADD SLOAD PUSH2 0x1B7C SWAP2 SWAP1 PUSH2 0x293F JUMP JUMPDEST SWAP1 POP PUSH1 0x0 TIMESTAMP DUP6 PUSH1 0x1 ADD SLOAD PUSH2 0x1B90 SWAP2 SWAP1 PUSH2 0x29DC JUMP JUMPDEST DUP3 PUSH2 0x1B9B SWAP2 SWAP1 PUSH2 0x2EE3 JUMP JUMPDEST SWAP1 POP DUP1 DUP4 PUSH1 0x0 ADD PUSH1 0x0 DUP3 DUP3 SLOAD PUSH2 0x1BB1 SWAP2 SWAP1 PUSH2 0x2E4F JUMP JUMPDEST SWAP3 POP POP DUP2 SWAP1 SSTORE POP DUP2 DUP4 PUSH1 0x1 ADD PUSH1 0x0 DUP3 DUP3 SLOAD PUSH2 0x1BCC SWAP2 SWAP1 PUSH2 0x2E4F JUMP JUMPDEST SWAP3 POP POP DUP2 SWAP1 SSTORE POP DUP2 PUSH1 0x9 PUSH1 0x0 PUSH3 0x93A80 DUP9 PUSH1 0x1 ADD SLOAD PUSH2 0x1BEB SWAP2 SWAP1 PUSH2 0x293F JUMP JUMPDEST DUP2 MSTORE PUSH1 0x20 ADD SWAP1 DUP2 MSTORE PUSH1 0x20 ADD PUSH1 0x0 KECCAK256 PUSH1 0x0 DUP3 DUP3 SLOAD PUSH2 0x1C08 SWAP2 SWAP1 PUSH2 0x2FFA JUMP JUMPDEST SWAP3 POP POP DUP2 SWAP1 SSTORE POP POP POP JUMPDEST PUSH1 0x0 DUP1 TIMESTAMP DUP5 PUSH1 0x20 ADD MLOAD GT ISZERO PUSH2 0x1CD2 JUMPI PUSH3 0x93A80 PUSH1 0xD0 PUSH2 0x1C31 SWAP2 SWAP1 PUSH2 0x2860 JUMP JUMPDEST DUP5 PUSH1 0x0 ADD MLOAD PUSH2 0x1C40 SWAP2 SWAP1 PUSH2 0x293F JUMP JUMPDEST SWAP2 POP TIMESTAMP DUP5 PUSH1 0x20 ADD MLOAD PUSH2 0x1C52 SWAP2 SWAP1 PUSH2 0x29DC JUMP JUMPDEST DUP3 PUSH2 0x1C5D SWAP2 SWAP1 PUSH2 0x2EE3 JUMP JUMPDEST SWAP1 POP DUP1 DUP4 PUSH1 0x0 ADD PUSH1 0x0 DUP3 DUP3 SLOAD PUSH2 0x1C73 SWAP2 SWAP1 PUSH2 0x2FFA JUMP JUMPDEST SWAP3 POP POP DUP2 SWAP1 SSTORE POP DUP2 DUP4 PUSH1 0x1 ADD PUSH1 0x0 DUP3 DUP3 SLOAD PUSH2 0x1C8E SWAP2 SWAP1 PUSH2 0x2FFA JUMP JUMPDEST SWAP3 POP POP DUP2 SWAP1 SSTORE POP DUP2 PUSH1 0x9 PUSH1 0x0 PUSH3 0x93A80 DUP8 PUSH1 0x20 ADD MLOAD PUSH2 0x1CAD SWAP2 SWAP1 PUSH2 0x293F JUMP JUMPDEST DUP2 MSTORE PUSH1 0x20 ADD SWAP1 DUP2 MSTORE PUSH1 0x20 ADD PUSH1 0x0 KECCAK256 PUSH1 0x0 DUP3 DUP3 SLOAD PUSH2 0x1CCA SWAP2 SWAP1 PUSH2 0x2E4F JUMP JUMPDEST SWAP3 POP POP DUP2 SWAP1 SSTORE POP JUMPDEST DUP4 PUSH1 0x6 PUSH1 0x0 DUP9 PUSH20 0xFFFFFFFFFFFFFFFFFFFFFFFFFFFFFFFFFFFFFFFF AND PUSH20 0xFFFFFFFFFFFFFFFFFFFFFFFFFFFFFFFFFFFFFFFF AND DUP2 MSTORE PUSH1 0x20 ADD SWAP1 DUP2 MSTORE PUSH1 0x20 ADD PUSH1 0x0 KECCAK256 PUSH1 0x0 DUP3 ADD MLOAD DUP2 PUSH1 0x0 ADD SSTORE PUSH1 0x20 DUP3 ADD MLOAD DUP2 PUSH1 0x1 ADD SSTORE SWAP1 POP POP PUSH1 0x0 PUSH1 0x1 PUSH1 0xB PUSH1 0x0 DUP10 PUSH20 0xFFFFFFFFFFFFFFFFFFFFFFFFFFFFFFFFFFFFFFFF AND PUSH20 0xFFFFFFFFFFFFFFFFFFFFFFFFFFFFFFFFFFFFFFFF AND DUP2 MSTORE PUSH1 0x20 ADD SWAP1 DUP2 MSTORE PUSH1 0x20 ADD PUSH1 0x0 KECCAK256 SLOAD PUSH2 0x1D77 SWAP2 SWAP1 PUSH2 0x28BA JUMP JUMPDEST SWAP1 POP DUP1 PUSH1 0xB PUSH1 0x0 DUP10 PUSH20 0xFFFFFFFFFFFFFFFFFFFFFFFFFFFFFFFFFFFFFFFF AND PUSH20 0xFFFFFFFFFFFFFFFFFFFFFFFFFFFFFFFFFFFFFFFF AND DUP2 MSTORE PUSH1 0x20 ADD SWAP1 DUP2 MSTORE PUSH1 0x20 ADD PUSH1 0x0 KECCAK256 DUP2 SWAP1 SSTORE POP PUSH1 0x40 MLOAD DUP1 PUSH1 0x60 ADD PUSH1 0x40 MSTORE DUP1 DUP4 DUP2 MSTORE PUSH1 0x20 ADD DUP5 DUP2 MSTORE PUSH1 0x20 ADD TIMESTAMP DUP2 MSTORE POP PUSH1 0xA PUSH1 0x0 DUP10 PUSH20 0xFFFFFFFFFFFFFFFFFFFFFFFFFFFFFFFFFFFFFFFF AND PUSH20 0xFFFFFFFFFFFFFFFFFFFFFFFFFFFFFFFFFFFFFFFF AND DUP2 MSTORE PUSH1 0x20 ADD SWAP1 DUP2 MSTORE PUSH1 0x20 ADD PUSH1 0x0 KECCAK256 PUSH1 0x0 DUP4 DUP2 MSTORE PUSH1 0x20 ADD SWAP1 DUP2 MSTORE PUSH1 0x20 ADD PUSH1 0x0 KECCAK256 PUSH1 0x0 DUP3 ADD MLOAD DUP2 PUSH1 0x0 ADD SSTORE PUSH1 0x20 DUP3 ADD MLOAD DUP2 PUSH1 0x1 ADD SSTORE PUSH1 0x40 DUP3 ADD MLOAD DUP2 PUSH1 0x2 ADD SSTORE SWAP1 POP POP POP POP POP POP POP POP POP JUMP JUMPDEST PUSH1 0x0 DUP1 DUP4 PUSH1 0x2 ADD SLOAD DUP4 PUSH2 0x1E65 SWAP2 SWAP1 PUSH2 0x2E4F JUMP JUMPDEST DUP5 PUSH1 0x1 ADD SLOAD PUSH2 0x1E74 SWAP2 SWAP1 PUSH2 0x2EE3 JUMP JUMPDEST DUP5 PUSH1 0x0 ADD SLOAD PUSH2 0x1E83 SWAP2 SWAP1 PUSH2 0x2E4F JUMP JUMPDEST SWAP1 POP PUSH1 0x0 DUP2 SLT ISZERO PUSH2 0x1E98 JUMPI PUSH1 0x0 SWAP2 POP POP PUSH2 0x1E9D JUMP JUMPDEST DUP1 SWAP2 POP POP JUMPDEST SWAP3 SWAP2 POP POP JUMP JUMPDEST PUSH1 0x0 DUP1 DUP3 EXTCODESIZE SWAP1 POP PUSH1 0x0 DUP2 EQ SWAP2 POP POP SWAP2 SWAP1 POP JUMP JUMPDEST PUSH1 0x0 DUP1 PUSH1 0x8 PUSH1 0x0 PUSH1 0x7 SLOAD DUP2 MSTORE PUSH1 0x20 ADD SWAP1 DUP2 MSTORE PUSH1 0x20 ADD PUSH1 0x0 KECCAK256 SWAP1 POP PUSH1 0x0 PUSH3 0x93A80 TIMESTAMP PUSH2 0x1EE1 SWAP2 SWAP1 PUSH2 0x293F JUMP JUMPDEST SWAP1 POP PUSH1 0x0 JUMPDEST PUSH1 0xFF DUP2 LT ISZERO PUSH2 0x1FCB JUMPI DUP2 PUSH1 0x7 SLOAD LT ISZERO PUSH2 0x1FCB JUMPI PUSH1 0x7 PUSH1 0x0 DUP2 SLOAD DUP1 SWAP3 SWAP2 SWAP1 PUSH2 0x1F0C SWAP1 PUSH2 0x2A9E JUMP JUMPDEST SWAP2 SWAP1 POP SSTORE POP PUSH1 0x0 DUP4 PUSH1 0x0 ADD SLOAD SWAP1 POP PUSH1 0x0 DUP5 PUSH1 0x1 ADD SLOAD SWAP1 POP PUSH1 0x0 PUSH3 0x93A80 PUSH1 0x7 SLOAD PUSH2 0x1F36 SWAP2 SWAP1 PUSH2 0x2860 JUMP JUMPDEST SWAP1 POP PUSH1 0x0 DUP7 PUSH1 0x2 ADD SLOAD DUP3 PUSH2 0x1F4A SWAP2 SWAP1 PUSH2 0x29DC JUMP JUMPDEST SWAP1 POP PUSH1 0x8 PUSH1 0x0 PUSH1 0x7 SLOAD DUP2 MSTORE PUSH1 0x20 ADD SWAP1 DUP2 MSTORE PUSH1 0x20 ADD PUSH1 0x0 KECCAK256 SWAP7 POP DUP1 DUP4 PUSH2 0x1F6F SWAP2 SWAP1 PUSH2 0x2EE3 JUMP JUMPDEST DUP5 PUSH2 0x1F7A SWAP2 SWAP1 PUSH2 0x2E4F JUMP JUMPDEST DUP8 PUSH1 0x0 ADD DUP2 SWAP1 SSTORE POP PUSH1 0x9 PUSH1 0x0 PUSH1 0x7 SLOAD DUP2 MSTORE PUSH1 0x20 ADD SWAP1 DUP2 MSTORE PUSH1 0x20 ADD PUSH1 0x0 KECCAK256 SLOAD DUP4 PUSH2 0x1FA3 SWAP2 SWAP1 PUSH2 0x2FFA JUMP JUMPDEST DUP8 PUSH1 0x1 ADD DUP2 SWAP1 SSTORE POP DUP2 DUP8 PUSH1 0x2 ADD DUP2 SWAP1 SSTORE POP POP POP POP POP DUP1 DUP1 PUSH2 0x1FC3 SWAP1 PUSH2 0x2A9E JUMP JUMPDEST SWAP2 POP POP PUSH2 0x1EE6 JUMP JUMPDEST POP DUP2 SWAP3 POP POP POP SWAP1 JUMP JUMPDEST DUP3 DUP1 SLOAD PUSH2 0x1FE0 SWAP1 PUSH2 0x2696 JUMP JUMPDEST SWAP1 PUSH1 0x0 MSTORE PUSH1 0x20 PUSH1 0x0 KECCAK256 SWAP1 PUSH1 0x1F ADD PUSH1 0x20 SWAP1 DIV DUP2 ADD SWAP3 DUP3 PUSH2 0x2002 JUMPI PUSH1 0x0 DUP6 SSTORE PUSH2 0x2049 JUMP JUMPDEST DUP3 PUSH1 0x1F LT PUSH2 0x201B JUMPI DUP1 MLOAD PUSH1 0xFF NOT AND DUP4 DUP1 ADD OR DUP6 SSTORE PUSH2 0x2049 JUMP JUMPDEST DUP3 DUP1 ADD PUSH1 0x1 ADD DUP6 SSTORE DUP3 ISZERO PUSH2 0x2049 JUMPI SWAP2 DUP3 ADD JUMPDEST DUP3 DUP2 GT ISZERO PUSH2 0x2048 JUMPI DUP3 MLOAD DUP3 SSTORE SWAP2 PUSH1 0x20 ADD SWAP2 SWAP1 PUSH1 0x1 ADD SWAP1 PUSH2 0x202D JUMP JUMPDEST JUMPDEST POP SWAP1 POP PUSH2 0x2056 SWAP2 SWAP1 PUSH2 0x205A JUMP JUMPDEST POP SWAP1 JUMP JUMPDEST JUMPDEST DUP1 DUP3 GT ISZERO PUSH2 0x2073 JUMPI PUSH1 0x0 DUP2 PUSH1 0x0 SWAP1 SSTORE POP PUSH1 0x1 ADD PUSH2 0x205B JUMP JUMPDEST POP SWAP1 JUMP JUMPDEST PUSH1 0x0 DUP2 SWAP1 POP SWAP2 SWAP1 POP JUMP JUMPDEST PUSH2 0x208A DUP2 PUSH2 0x2077 JUMP JUMPDEST DUP3 MSTORE POP POP JUMP JUMPDEST PUSH1 0x0 PUSH1 0x20 DUP3 ADD SWAP1 POP PUSH2 0x20A5 PUSH1 0x0 DUP4 ADD DUP5 PUSH2 0x2081 JUMP JUMPDEST SWAP3 SWAP2 POP POP JUMP JUMPDEST PUSH1 0x0 DUP2 MLOAD SWAP1 POP SWAP2 SWAP1 POP JUMP JUMPDEST PUSH1 0x0 DUP3 DUP3 MSTORE PUSH1 0x20 DUP3 ADD SWAP1 POP SWAP3 SWAP2 POP POP JUMP JUMPDEST PUSH1 0x0 JUMPDEST DUP4 DUP2 LT ISZERO PUSH2 0x20E5 JUMPI DUP1 DUP3 ADD MLOAD DUP2 DUP5 ADD MSTORE PUSH1 0x20 DUP2 ADD SWAP1 POP PUSH2 0x20CA JUMP JUMPDEST DUP4 DUP2 GT ISZERO PUSH2 0x20F4 JUMPI PUSH1 0x0 DUP5 DUP5 ADD MSTORE JUMPDEST POP POP POP POP JUMP JUMPDEST PUSH1 0x0 PUSH1 0x1F NOT PUSH1 0x1F DUP4 ADD AND SWAP1 POP SWAP2 SWAP1 POP JUMP JUMPDEST PUSH1 0x0 PUSH2 0x2116 DUP3 PUSH2 0x20AB JUMP JUMPDEST PUSH2 0x2120 DUP2 DUP6 PUSH2 0x20B6 JUMP JUMPDEST SWAP4 POP PUSH2 0x2130 DUP2 DUP6 PUSH1 0x20 DUP7 ADD PUSH2 0x20C7 JUMP JUMPDEST PUSH2 0x2139 DUP2 PUSH2 0x20FA JUMP JUMPDEST DUP5 ADD SWAP2 POP POP SWAP3 SWAP2 POP POP JUMP JUMPDEST PUSH1 0x0 PUSH1 0x20 DUP3 ADD SWAP1 POP DUP2 DUP2 SUB PUSH1 0x0 DUP4 ADD MSTORE PUSH2 0x215E DUP2 DUP5 PUSH2 0x210B JUMP JUMPDEST SWAP1 POP SWAP3 SWAP2 POP POP JUMP JUMPDEST PUSH1 0x0 PUSH1 0x40 MLOAD SWAP1 POP SWAP1 JUMP JUMPDEST PUSH1 0x0 DUP1 REVERT JUMPDEST PUSH1 0x0 DUP1 REVERT JUMPDEST PUSH2 0x2183 DUP2 PUSH2 0x2077 JUMP JUMPDEST DUP2 EQ PUSH2 0x218E JUMPI PUSH1 0x0 DUP1 REVERT JUMPDEST POP JUMP JUMPDEST PUSH1 0x0 DUP2 CALLDATALOAD SWAP1 POP PUSH2 0x21A0 DUP2 PUSH2 0x217A JUMP JUMPDEST SWAP3 SWAP2 POP POP JUMP JUMPDEST PUSH1 0x0 PUSH1 0x20 DUP3 DUP5 SUB SLT ISZERO PUSH2 0x21BC JUMPI PUSH2 0x21BB PUSH2 0x2170 JUMP JUMPDEST JUMPDEST PUSH1 0x0 PUSH2 0x21CA DUP5 DUP3 DUP6 ADD PUSH2 0x2191 JUMP JUMPDEST SWAP2 POP POP SWAP3 SWAP2 POP POP JUMP JUMPDEST PUSH1 0x0 PUSH20 0xFFFFFFFFFFFFFFFFFFFFFFFFFFFFFFFFFFFFFFFF DUP3 AND SWAP1 POP SWAP2 SWAP1 POP JUMP JUMPDEST PUSH1 0x0 PUSH2 0x21FE DUP3 PUSH2 0x21D3 JUMP JUMPDEST SWAP1 POP SWAP2 SWAP1 POP JUMP JUMPDEST PUSH2 0x220E DUP2 PUSH2 0x21F3 JUMP JUMPDEST DUP2 EQ PUSH2 0x2219 JUMPI PUSH1 0x0 DUP1 REVERT JUMPDEST POP JUMP JUMPDEST PUSH1 0x0 DUP2 CALLDATALOAD SWAP1 POP PUSH2 0x222B DUP2 PUSH2 0x2205 JUMP JUMPDEST SWAP3 SWAP2 POP POP JUMP JUMPDEST PUSH1 0x0 DUP1 PUSH1 0x40 DUP4 DUP6 SUB SLT ISZERO PUSH2 0x2248 JUMPI PUSH2 0x2247 PUSH2 0x2170 JUMP JUMPDEST JUMPDEST PUSH1 0x0 PUSH2 0x2256 DUP6 DUP3 DUP7 ADD PUSH2 0x221C JUMP JUMPDEST SWAP3 POP POP PUSH1 0x20 PUSH2 0x2267 DUP6 DUP3 DUP7 ADD PUSH2 0x2191 JUMP JUMPDEST SWAP2 POP POP SWAP3 POP SWAP3 SWAP1 POP JUMP JUMPDEST PUSH1 0x0 DUP2 SWAP1 POP SWAP2 SWAP1 POP JUMP JUMPDEST PUSH2 0x2284 DUP2 PUSH2 0x2271 JUMP JUMPDEST DUP3 MSTORE POP POP JUMP JUMPDEST PUSH1 0x0 PUSH1 0x60 DUP3 ADD SWAP1 POP PUSH2 0x229F PUSH1 0x0 DUP4 ADD DUP7 PUSH2 0x227B JUMP JUMPDEST PUSH2 0x22AC PUSH1 0x20 DUP4 ADD DUP6 PUSH2 0x227B JUMP JUMPDEST PUSH2 0x22B9 PUSH1 0x40 DUP4 ADD DUP5 PUSH2 0x2081 JUMP JUMPDEST SWAP5 SWAP4 POP POP POP POP JUMP JUMPDEST PUSH1 0x0 PUSH1 0x20 DUP3 DUP5 SUB SLT ISZERO PUSH2 0x22D7 JUMPI PUSH2 0x22D6 PUSH2 0x2170 JUMP JUMPDEST JUMPDEST PUSH1 0x0 PUSH2 0x22E5 DUP5 DUP3 DUP6 ADD PUSH2 0x221C JUMP JUMPDEST SWAP2 POP POP SWAP3 SWAP2 POP POP JUMP JUMPDEST PUSH1 0x0 DUP1 PUSH1 0x0 PUSH1 0x60 DUP5 DUP7 SUB SLT ISZERO PUSH2 0x2307 JUMPI PUSH2 0x2306 PUSH2 0x2170 JUMP JUMPDEST JUMPDEST PUSH1 0x0 PUSH2 0x2315 DUP7 DUP3 DUP8 ADD PUSH2 0x221C JUMP JUMPDEST SWAP4 POP POP PUSH1 0x20 PUSH2 0x2326 DUP7 DUP3 DUP8 ADD PUSH2 0x2191 JUMP JUMPDEST SWAP3 POP POP PUSH1 0x40 PUSH2 0x2337 DUP7 DUP3 DUP8 ADD PUSH2 0x2191 JUMP JUMPDEST SWAP2 POP POP SWAP3 POP SWAP3 POP SWAP3 JUMP JUMPDEST PUSH1 0x0 PUSH2 0x234C DUP3 PUSH2 0x21F3 JUMP JUMPDEST SWAP1 POP SWAP2 SWAP1 POP JUMP JUMPDEST PUSH2 0x235C DUP2 PUSH2 0x2341 JUMP JUMPDEST DUP2 EQ PUSH2 0x2367 JUMPI PUSH1 0x0 DUP1 REVERT JUMPDEST POP JUMP JUMPDEST PUSH1 0x0 DUP2 CALLDATALOAD SWAP1 POP PUSH2 0x2379 DUP2 PUSH2 0x2353 JUMP JUMPDEST SWAP3 SWAP2 POP POP JUMP JUMPDEST PUSH1 0x0 DUP1 REVERT JUMPDEST PUSH1 0x0 DUP1 REVERT JUMPDEST PUSH32 0x4E487B7100000000000000000000000000000000000000000000000000000000 PUSH1 0x0 MSTORE PUSH1 0x41 PUSH1 0x4 MSTORE PUSH1 0x24 PUSH1 0x0 REVERT JUMPDEST PUSH2 0x23C1 DUP3 PUSH2 0x20FA JUMP JUMPDEST DUP2 ADD DUP2 DUP2 LT PUSH8 0xFFFFFFFFFFFFFFFF DUP3 GT OR ISZERO PUSH2 0x23E0 JUMPI PUSH2 0x23DF PUSH2 0x2389 JUMP JUMPDEST JUMPDEST DUP1 PUSH1 0x40 MSTORE POP POP POP JUMP JUMPDEST PUSH1 0x0 PUSH2 0x23F3 PUSH2 0x2166 JUMP JUMPDEST SWAP1 POP PUSH2 0x23FF DUP3 DUP3 PUSH2 0x23B8 JUMP JUMPDEST SWAP2 SWAP1 POP JUMP JUMPDEST PUSH1 0x0 PUSH8 0xFFFFFFFFFFFFFFFF DUP3 GT ISZERO PUSH2 0x241F JUMPI PUSH2 0x241E PUSH2 0x2389 JUMP JUMPDEST JUMPDEST PUSH2 0x2428 DUP3 PUSH2 0x20FA JUMP JUMPDEST SWAP1 POP PUSH1 0x20 DUP2 ADD SWAP1 POP SWAP2 SWAP1 POP JUMP JUMPDEST DUP3 DUP2 DUP4 CALLDATACOPY PUSH1 0x0 DUP4 DUP4 ADD MSTORE POP POP POP JUMP JUMPDEST PUSH1 0x0 PUSH2 0x2457 PUSH2 0x2452 DUP5 PUSH2 0x2404 JUMP JUMPDEST PUSH2 0x23E9 JUMP JUMPDEST SWAP1 POP DUP3 DUP2 MSTORE PUSH1 0x20 DUP2 ADD DUP5 DUP5 DUP5 ADD GT ISZERO PUSH2 0x2473 JUMPI PUSH2 0x2472 PUSH2 0x2384 JUMP JUMPDEST JUMPDEST PUSH2 0x247E DUP5 DUP3 DUP6 PUSH2 0x2435 JUMP JUMPDEST POP SWAP4 SWAP3 POP POP POP JUMP JUMPDEST PUSH1 0x0 DUP3 PUSH1 0x1F DUP4 ADD SLT PUSH2 0x249B JUMPI PUSH2 0x249A PUSH2 0x237F JUMP JUMPDEST JUMPDEST DUP2 CALLDATALOAD PUSH2 0x24AB DUP5 DUP3 PUSH1 0x20 DUP7 ADD PUSH2 0x2444 JUMP JUMPDEST SWAP2 POP POP SWAP3 SWAP2 POP POP JUMP JUMPDEST PUSH1 0x0 DUP1 PUSH1 0x0 PUSH1 0x60 DUP5 DUP7 SUB SLT ISZERO PUSH2 0x24CD JUMPI PUSH2 0x24CC PUSH2 0x2170 JUMP JUMPDEST JUMPDEST PUSH1 0x0 PUSH2 0x24DB DUP7 DUP3 DUP8 ADD PUSH2 0x236A JUMP JUMPDEST SWAP4 POP POP PUSH1 0x20 DUP5 ADD CALLDATALOAD PUSH8 0xFFFFFFFFFFFFFFFF DUP2 GT ISZERO PUSH2 0x24FC JUMPI PUSH2 0x24FB PUSH2 0x2175 JUMP JUMPDEST JUMPDEST PUSH2 0x2508 DUP7 DUP3 DUP8 ADD PUSH2 0x2486 JUMP JUMPDEST SWAP3 POP POP PUSH1 0x40 DUP5 ADD CALLDATALOAD PUSH8 0xFFFFFFFFFFFFFFFF DUP2 GT ISZERO PUSH2 0x2529 JUMPI PUSH2 0x2528 PUSH2 0x2175 JUMP JUMPDEST JUMPDEST PUSH2 0x2535 DUP7 DUP3 DUP8 ADD PUSH2 0x2486 JUMP JUMPDEST SWAP2 POP POP SWAP3 POP SWAP3 POP SWAP3 JUMP JUMPDEST PUSH1 0x0 DUP1 PUSH1 0x40 DUP4 DUP6 SUB SLT ISZERO PUSH2 0x2556 JUMPI PUSH2 0x2555 PUSH2 0x2170 JUMP JUMPDEST JUMPDEST PUSH1 0x0 PUSH2 0x2564 DUP6 DUP3 DUP7 ADD PUSH2 0x2191 JUMP JUMPDEST SWAP3 POP POP PUSH1 0x20 PUSH2 0x2575 DUP6 DUP3 DUP7 ADD PUSH2 0x2191 JUMP JUMPDEST SWAP2 POP POP SWAP3 POP SWAP3 SWAP1 POP JUMP JUMPDEST PUSH1 0x0 PUSH1 0x40 DUP3 ADD SWAP1 POP PUSH2 0x2594 PUSH1 0x0 DUP4 ADD DUP6 PUSH2 0x2081 JUMP JUMPDEST PUSH2 0x25A1 PUSH1 0x20 DUP4 ADD DUP5 PUSH2 0x2081 JUMP JUMPDEST SWAP4 SWAP3 POP POP POP JUMP JUMPDEST PUSH1 0x0 PUSH1 0x20 DUP3 ADD SWAP1 POP PUSH2 0x25BD PUSH1 0x0 DUP4 ADD DUP5 PUSH2 0x227B JUMP JUMPDEST SWAP3 SWAP2 POP POP JUMP JUMPDEST PUSH2 0x25CC DUP2 PUSH2 0x21F3 JUMP JUMPDEST DUP3 MSTORE POP POP JUMP JUMPDEST PUSH1 0x0 PUSH1 0x20 DUP3 ADD SWAP1 POP PUSH2 0x25E7 PUSH1 0x0 DUP4 ADD DUP5 PUSH2 0x25C3 JUMP JUMPDEST SWAP3 SWAP2 POP POP JUMP JUMPDEST PUSH1 0x0 DUP2 SWAP1 POP SWAP2 SWAP1 POP JUMP JUMPDEST PUSH1 0x0 PUSH2 0x2612 PUSH2 0x260D PUSH2 0x2608 DUP5 PUSH2 0x21D3 JUMP JUMPDEST PUSH2 0x25ED JUMP JUMPDEST PUSH2 0x21D3 JUMP JUMPDEST SWAP1 POP SWAP2 SWAP1 POP JUMP JUMPDEST PUSH1 0x0 PUSH2 0x2624 DUP3 PUSH2 0x25F7 JUMP JUMPDEST SWAP1 POP SWAP2 SWAP1 POP JUMP JUMPDEST PUSH1 0x0 PUSH2 0x2636 DUP3 PUSH2 0x2619 JUMP JUMPDEST SWAP1 POP SWAP2 SWAP1 POP JUMP JUMPDEST PUSH2 0x2646 DUP2 PUSH2 0x262B JUMP JUMPDEST DUP3 MSTORE POP POP JUMP JUMPDEST PUSH1 0x0 PUSH1 0x20 DUP3 ADD SWAP1 POP PUSH2 0x2661 PUSH1 0x0 DUP4 ADD DUP5 PUSH2 0x263D JUMP JUMPDEST SWAP3 SWAP2 POP POP JUMP JUMPDEST PUSH32 0x4E487B7100000000000000000000000000000000000000000000000000000000 PUSH1 0x0 MSTORE PUSH1 0x22 PUSH1 0x4 MSTORE PUSH1 0x24 PUSH1 0x0 REVERT JUMPDEST PUSH1 0x0 PUSH1 0x2 DUP3 DIV SWAP1 POP PUSH1 0x1 DUP3 AND DUP1 PUSH2 0x26AE JUMPI PUSH1 0x7F DUP3 AND SWAP2 POP JUMPDEST PUSH1 0x20 DUP3 LT DUP2 SUB PUSH2 0x26C1 JUMPI PUSH2 0x26C0 PUSH2 0x2667 JUMP JUMPDEST JUMPDEST POP SWAP2 SWAP1 POP JUMP JUMPDEST PUSH32 0x696E76616C69642076616C756500000000000000000000000000000000000000 PUSH1 0x0 DUP3 ADD MSTORE POP JUMP JUMPDEST PUSH1 0x0 PUSH2 0x26FD PUSH1 0xD DUP4 PUSH2 0x20B6 JUMP JUMPDEST SWAP2 POP PUSH2 0x2708 DUP3 PUSH2 0x26C7 JUMP JUMPDEST PUSH1 0x20 DUP3 ADD SWAP1 POP SWAP2 SWAP1 POP JUMP JUMPDEST PUSH1 0x0 PUSH1 0x20 DUP3 ADD SWAP1 POP DUP2 DUP2 SUB PUSH1 0x0 DUP4 ADD MSTORE PUSH2 0x272C DUP2 PUSH2 0x26F0 JUMP JUMPDEST SWAP1 POP SWAP2 SWAP1 POP JUMP JUMPDEST PUSH32 0x4E6F206578697374696E67206C6F636B20666F756E6400000000000000000000 PUSH1 0x0 DUP3 ADD MSTORE POP JUMP JUMPDEST PUSH1 0x0 PUSH2 0x2769 PUSH1 0x16 DUP4 PUSH2 0x20B6 JUMP JUMPDEST SWAP2 POP PUSH2 0x2774 DUP3 PUSH2 0x2733 JUMP JUMPDEST PUSH1 0x20 DUP3 ADD SWAP1 POP SWAP2 SWAP1 POP JUMP JUMPDEST PUSH1 0x0 PUSH1 0x20 DUP3 ADD SWAP1 POP DUP2 DUP2 SUB PUSH1 0x0 DUP4 ADD MSTORE PUSH2 0x2798 DUP2 PUSH2 0x275C JUMP JUMPDEST SWAP1 POP SWAP2 SWAP1 POP JUMP JUMPDEST PUSH32 0x43616E6E6F742061646420746F2065787069726564206C6F636B2E2057697468 PUSH1 0x0 DUP3 ADD MSTORE PUSH32 0x6472617700000000000000000000000000000000000000000000000000000000 PUSH1 0x20 DUP3 ADD MSTORE POP JUMP JUMPDEST PUSH1 0x0 PUSH2 0x27FB PUSH1 0x24 DUP4 PUSH2 0x20B6 JUMP JUMPDEST SWAP2 POP PUSH2 0x2806 DUP3 PUSH2 0x279F JUMP JUMPDEST PUSH1 0x40 DUP3 ADD SWAP1 POP SWAP2 SWAP1 POP JUMP JUMPDEST PUSH1 0x0 PUSH1 0x20 DUP3 ADD SWAP1 POP DUP2 DUP2 SUB PUSH1 0x0 DUP4 ADD MSTORE PUSH2 0x282A DUP2 PUSH2 0x27EE JUMP JUMPDEST SWAP1 POP SWAP2 SWAP1 POP JUMP JUMPDEST PUSH32 0x4E487B7100000000000000000000000000000000000000000000000000000000 PUSH1 0x0 MSTORE PUSH1 0x11 PUSH1 0x4 MSTORE PUSH1 0x24 PUSH1 0x0 REVERT JUMPDEST PUSH1 0x0 PUSH2 0x286B DUP3 PUSH2 0x2077 JUMP JUMPDEST SWAP2 POP PUSH2 0x2876 DUP4 PUSH2 0x2077 JUMP JUMPDEST SWAP3 POP DUP2 PUSH32 0xFFFFFFFFFFFFFFFFFFFFFFFFFFFFFFFFFFFFFFFFFFFFFFFFFFFFFFFFFFFFFFFF DIV DUP4 GT DUP3 ISZERO ISZERO AND ISZERO PUSH2 0x28AF JUMPI PUSH2 0x28AE PUSH2 0x2831 JUMP JUMPDEST JUMPDEST DUP3 DUP3 MUL SWAP1 POP SWAP3 SWAP2 POP POP JUMP JUMPDEST PUSH1 0x0 PUSH2 0x28C5 DUP3 PUSH2 0x2077 JUMP JUMPDEST SWAP2 POP PUSH2 0x28D0 DUP4 PUSH2 0x2077 JUMP JUMPDEST SWAP3 POP DUP3 PUSH32 0xFFFFFFFFFFFFFFFFFFFFFFFFFFFFFFFFFFFFFFFFFFFFFFFFFFFFFFFFFFFFFFFF SUB DUP3 GT ISZERO PUSH2 0x2905 JUMPI PUSH2 0x2904 PUSH2 0x2831 JUMP JUMPDEST JUMPDEST DUP3 DUP3 ADD SWAP1 POP SWAP3 SWAP2 POP POP JUMP JUMPDEST PUSH32 0x4E487B7100000000000000000000000000000000000000000000000000000000 PUSH1 0x0 MSTORE PUSH1 0x12 PUSH1 0x4 MSTORE PUSH1 0x24 PUSH1 0x0 REVERT JUMPDEST PUSH1 0x0 PUSH2 0x294A DUP3 PUSH2 0x2077 JUMP JUMPDEST SWAP2 POP PUSH2 0x2955 DUP4 PUSH2 0x2077 JUMP JUMPDEST SWAP3 POP DUP3 PUSH2 0x2965 JUMPI PUSH2 0x2964 PUSH2 0x2910 JUMP JUMPDEST JUMPDEST DUP3 DUP3 DIV SWAP1 POP SWAP3 SWAP2 POP POP JUMP JUMPDEST PUSH32 0x546865206C6F636B206469646E27742065787069726500000000000000000000 PUSH1 0x0 DUP3 ADD MSTORE POP JUMP JUMPDEST PUSH1 0x0 PUSH2 0x29A6 PUSH1 0x16 DUP4 PUSH2 0x20B6 JUMP JUMPDEST SWAP2 POP PUSH2 0x29B1 DUP3 PUSH2 0x2970 JUMP JUMPDEST PUSH1 0x20 DUP3 ADD SWAP1 POP SWAP2 SWAP1 POP JUMP JUMPDEST PUSH1 0x0 PUSH1 0x20 DUP3 ADD SWAP1 POP DUP2 DUP2 SUB PUSH1 0x0 DUP4 ADD MSTORE PUSH2 0x29D5 DUP2 PUSH2 0x2999 JUMP JUMPDEST SWAP1 POP SWAP2 SWAP1 POP JUMP JUMPDEST PUSH1 0x0 PUSH2 0x29E7 DUP3 PUSH2 0x2077 JUMP JUMPDEST SWAP2 POP PUSH2 0x29F2 DUP4 PUSH2 0x2077 JUMP JUMPDEST SWAP3 POP DUP3 DUP3 LT ISZERO PUSH2 0x2A05 JUMPI PUSH2 0x2A04 PUSH2 0x2831 JUMP JUMPDEST JUMPDEST DUP3 DUP3 SUB SWAP1 POP SWAP3 SWAP2 POP POP JUMP JUMPDEST PUSH1 0x0 PUSH1 0x40 DUP3 ADD SWAP1 POP PUSH2 0x2A25 PUSH1 0x0 DUP4 ADD DUP6 PUSH2 0x25C3 JUMP JUMPDEST PUSH2 0x2A32 PUSH1 0x20 DUP4 ADD DUP5 PUSH2 0x2081 JUMP JUMPDEST SWAP4 SWAP3 POP POP POP JUMP JUMPDEST PUSH1 0x0 DUP2 ISZERO ISZERO SWAP1 POP SWAP2 SWAP1 POP JUMP JUMPDEST PUSH2 0x2A4E DUP2 PUSH2 0x2A39 JUMP JUMPDEST DUP2 EQ PUSH2 0x2A59 JUMPI PUSH1 0x0 DUP1 REVERT JUMPDEST POP JUMP JUMPDEST PUSH1 0x0 DUP2 MLOAD SWAP1 POP PUSH2 0x2A6B DUP2 PUSH2 0x2A45 JUMP JUMPDEST SWAP3 SWAP2 POP POP JUMP JUMPDEST PUSH1 0x0 PUSH1 0x20 DUP3 DUP5 SUB SLT ISZERO PUSH2 0x2A87 JUMPI PUSH2 0x2A86 PUSH2 0x2170 JUMP JUMPDEST JUMPDEST PUSH1 0x0 PUSH2 0x2A95 DUP5 DUP3 DUP6 ADD PUSH2 0x2A5C JUMP JUMPDEST SWAP2 POP POP SWAP3 SWAP2 POP POP JUMP JUMPDEST PUSH1 0x0 PUSH2 0x2AA9 DUP3 PUSH2 0x2077 JUMP JUMPDEST SWAP2 POP PUSH32 0xFFFFFFFFFFFFFFFFFFFFFFFFFFFFFFFFFFFFFFFFFFFFFFFFFFFFFFFFFFFFFFFF DUP3 SUB PUSH2 0x2ADB JUMPI PUSH2 0x2ADA PUSH2 0x2831 JUMP JUMPDEST JUMPDEST PUSH1 0x1 DUP3 ADD SWAP1 POP SWAP2 SWAP1 POP JUMP JUMPDEST PUSH32 0x43616E206F6E6C7920696E637265617365206C6F636B206475726174696F6E00 PUSH1 0x0 DUP3 ADD MSTORE POP JUMP JUMPDEST PUSH1 0x0 PUSH2 0x2B1C PUSH1 0x1F DUP4 PUSH2 0x20B6 JUMP JUMPDEST SWAP2 POP PUSH2 0x2B27 DUP3 PUSH2 0x2AE6 JUMP JUMPDEST PUSH1 0x20 DUP3 ADD SWAP1 POP SWAP2 SWAP1 POP JUMP JUMPDEST PUSH1 0x0 PUSH1 0x20 DUP3 ADD SWAP1 POP DUP2 DUP2 SUB PUSH1 0x0 DUP4 ADD MSTORE PUSH2 0x2B4B DUP2 PUSH2 0x2B0F JUMP JUMPDEST SWAP1 POP SWAP2 SWAP1 POP JUMP JUMPDEST PUSH32 0x566F74696E67206C6F636B2063616E2062652034207965617273206D61780000 PUSH1 0x0 DUP3 ADD MSTORE POP JUMP JUMPDEST PUSH1 0x0 PUSH2 0x2B88 PUSH1 0x1E DUP4 PUSH2 0x20B6 JUMP JUMPDEST SWAP2 POP PUSH2 0x2B93 DUP3 PUSH2 0x2B52 JUMP JUMPDEST PUSH1 0x20 DUP3 ADD SWAP1 POP SWAP2 SWAP1 POP JUMP JUMPDEST PUSH1 0x0 PUSH1 0x20 DUP3 ADD SWAP1 POP DUP2 DUP2 SUB PUSH1 0x0 DUP4 ADD MSTORE PUSH2 0x2BB7 DUP2 PUSH2 0x2B7B JUMP JUMPDEST SWAP1 POP SWAP2 SWAP1 POP JUMP JUMPDEST PUSH1 0x0 DUP2 MLOAD SWAP1 POP PUSH2 0x2BCD DUP2 PUSH2 0x217A JUMP JUMPDEST SWAP3 SWAP2 POP POP JUMP JUMPDEST PUSH1 0x0 PUSH1 0x20 DUP3 DUP5 SUB SLT ISZERO PUSH2 0x2BE9 JUMPI PUSH2 0x2BE8 PUSH2 0x2170 JUMP JUMPDEST JUMPDEST PUSH1 0x0 PUSH2 0x2BF7 DUP5 DUP3 DUP6 ADD PUSH2 0x2BBE JUMP JUMPDEST SWAP2 POP POP SWAP3 SWAP2 POP POP JUMP JUMPDEST PUSH32 0x5769746864726177206F6C6420746F6B656E7320666972737400000000000000 PUSH1 0x0 DUP3 ADD MSTORE POP JUMP JUMPDEST PUSH1 0x0 PUSH2 0x2C36 PUSH1 0x19 DUP4 PUSH2 0x20B6 JUMP JUMPDEST SWAP2 POP PUSH2 0x2C41 DUP3 PUSH2 0x2C00 JUMP JUMPDEST PUSH1 0x20 DUP3 ADD SWAP1 POP SWAP2 SWAP1 POP JUMP JUMPDEST PUSH1 0x0 PUSH1 0x20 DUP3 ADD SWAP1 POP DUP2 DUP2 SUB PUSH1 0x0 DUP4 ADD MSTORE PUSH2 0x2C65 DUP2 PUSH2 0x2C29 JUMP JUMPDEST SWAP1 POP SWAP2 SWAP1 POP JUMP JUMPDEST PUSH32 0x43616E206F6E6C79206C6F636B20756E74696C2074696D6520696E2074686520 PUSH1 0x0 DUP3 ADD MSTORE PUSH32 0x6675747572650000000000000000000000000000000000000000000000000000 PUSH1 0x20 DUP3 ADD MSTORE POP JUMP JUMPDEST PUSH1 0x0 PUSH2 0x2CC8 PUSH1 0x26 DUP4 PUSH2 0x20B6 JUMP JUMPDEST SWAP2 POP PUSH2 0x2CD3 DUP3 PUSH2 0x2C6C JUMP JUMPDEST PUSH1 0x40 DUP3 ADD SWAP1 POP SWAP2 SWAP1 POP JUMP JUMPDEST PUSH1 0x0 PUSH1 0x20 DUP3 ADD SWAP1 POP DUP2 DUP2 SUB PUSH1 0x0 DUP4 ADD MSTORE PUSH2 0x2CF7 DUP2 PUSH2 0x2CBB JUMP JUMPDEST SWAP1 POP SWAP2 SWAP1 POP JUMP JUMPDEST PUSH1 0x0 PUSH1 0x60 DUP3 ADD SWAP1 POP PUSH2 0x2D13 PUSH1 0x0 DUP4 ADD DUP7 PUSH2 0x25C3 JUMP JUMPDEST PUSH2 0x2D20 PUSH1 0x20 DUP4 ADD DUP6 PUSH2 0x25C3 JUMP JUMPDEST PUSH2 0x2D2D PUSH1 0x40 DUP4 ADD DUP5 PUSH2 0x2081 JUMP JUMPDEST SWAP5 SWAP4 POP POP POP POP JUMP JUMPDEST PUSH32 0x4552433230207472616E73666572206572726F72000000000000000000000000 PUSH1 0x0 DUP3 ADD MSTORE POP JUMP JUMPDEST PUSH1 0x0 PUSH2 0x2D6B PUSH1 0x14 DUP4 PUSH2 0x20B6 JUMP JUMPDEST SWAP2 POP PUSH2 0x2D76 DUP3 PUSH2 0x2D35 JUMP JUMPDEST PUSH1 0x20 DUP3 ADD SWAP1 POP SWAP2 SWAP1 POP JUMP JUMPDEST PUSH1 0x0 PUSH1 0x20 DUP3 ADD SWAP1 POP DUP2 DUP2 SUB PUSH1 0x0 DUP4 ADD MSTORE PUSH2 0x2D9A DUP2 PUSH2 0x2D5E JUMP JUMPDEST SWAP1 POP SWAP2 SWAP1 POP JUMP JUMPDEST PUSH32 0x4E487B7100000000000000000000000000000000000000000000000000000000 PUSH1 0x0 MSTORE PUSH1 0x21 PUSH1 0x4 MSTORE PUSH1 0x24 PUSH1 0x0 REVERT JUMPDEST PUSH1 0x4 DUP2 LT PUSH2 0x2DE1 JUMPI PUSH2 0x2DE0 PUSH2 0x2DA1 JUMP JUMPDEST JUMPDEST POP JUMP JUMPDEST PUSH1 0x0 DUP2 SWAP1 POP PUSH2 0x2DF2 DUP3 PUSH2 0x2DD0 JUMP JUMPDEST SWAP2 SWAP1 POP JUMP JUMPDEST PUSH1 0x0 PUSH2 0x2E02 DUP3 PUSH2 0x2DE4 JUMP JUMPDEST SWAP1 POP SWAP2 SWAP1 POP JUMP JUMPDEST PUSH2 0x2E12 DUP2 PUSH2 0x2DF7 JUMP JUMPDEST DUP3 MSTORE POP POP JUMP JUMPDEST PUSH1 0x0 PUSH1 0x60 DUP3 ADD SWAP1 POP PUSH2 0x2E2D PUSH1 0x0 DUP4 ADD DUP7 PUSH2 0x2081 JUMP JUMPDEST PUSH2 0x2E3A PUSH1 0x20 DUP4 ADD DUP6 PUSH2 0x2E09 JUMP JUMPDEST PUSH2 0x2E47 PUSH1 0x40 DUP4 ADD DUP5 PUSH2 0x2081 JUMP JUMPDEST SWAP5 SWAP4 POP POP POP POP JUMP JUMPDEST PUSH1 0x0 PUSH2 0x2E5A DUP3 PUSH2 0x2271 JUMP JUMPDEST SWAP2 POP PUSH2 0x2E65 DUP4 PUSH2 0x2271 JUMP JUMPDEST SWAP3 POP DUP3 PUSH32 0x8000000000000000000000000000000000000000000000000000000000000000 ADD DUP3 SLT PUSH1 0x0 DUP5 SLT ISZERO AND ISZERO PUSH2 0x2EA0 JUMPI PUSH2 0x2E9F PUSH2 0x2831 JUMP JUMPDEST JUMPDEST DUP3 PUSH32 0x7FFFFFFFFFFFFFFFFFFFFFFFFFFFFFFFFFFFFFFFFFFFFFFFFFFFFFFFFFFFFFFF ADD DUP3 SGT PUSH1 0x0 DUP5 SLT AND ISZERO PUSH2 0x2ED8 JUMPI PUSH2 0x2ED7 PUSH2 0x2831 JUMP JUMPDEST JUMPDEST DUP3 DUP3 SUB SWAP1 POP SWAP3 SWAP2 POP POP JUMP JUMPDEST PUSH1 0x0 PUSH2 0x2EEE DUP3 PUSH2 0x2271 JUMP JUMPDEST SWAP2 POP PUSH2 0x2EF9 DUP4 PUSH2 0x2271 JUMP JUMPDEST SWAP3 POP DUP3 PUSH32 0x7FFFFFFFFFFFFFFFFFFFFFFFFFFFFFFFFFFFFFFFFFFFFFFFFFFFFFFFFFFFFFFF DIV DUP3 GT PUSH1 0x0 DUP5 SGT PUSH1 0x0 DUP5 SGT AND AND ISZERO PUSH2 0x2F38 JUMPI PUSH2 0x2F37 PUSH2 0x2831 JUMP JUMPDEST JUMPDEST DUP2 PUSH32 0x8000000000000000000000000000000000000000000000000000000000000000 SDIV DUP4 SLT PUSH1 0x0 DUP5 SLT PUSH1 0x0 DUP5 SGT AND AND ISZERO PUSH2 0x2F75 JUMPI PUSH2 0x2F74 PUSH2 0x2831 JUMP JUMPDEST JUMPDEST DUP3 PUSH32 0x8000000000000000000000000000000000000000000000000000000000000000 SDIV DUP3 SLT PUSH1 0x0 DUP5 SGT PUSH1 0x0 DUP5 SLT AND AND ISZERO PUSH2 0x2FB2 JUMPI PUSH2 0x2FB1 PUSH2 0x2831 JUMP JUMPDEST JUMPDEST DUP3 PUSH32 0x7FFFFFFFFFFFFFFFFFFFFFFFFFFFFFFFFFFFFFFFFFFFFFFFFFFFFFFFFFFFFFFF SDIV DUP3 SLT PUSH1 0x0 DUP5 SLT PUSH1 0x0 DUP5 SLT AND AND ISZERO PUSH2 0x2FEF JUMPI PUSH2 0x2FEE PUSH2 0x2831 JUMP JUMPDEST JUMPDEST DUP3 DUP3 MUL SWAP1 POP SWAP3 SWAP2 POP POP JUMP JUMPDEST PUSH1 0x0 PUSH2 0x3005 DUP3 PUSH2 0x2271 JUMP JUMPDEST SWAP2 POP PUSH2 0x3010 DUP4 PUSH2 0x2271 JUMP JUMPDEST SWAP3 POP DUP2 PUSH32 0x7FFFFFFFFFFFFFFFFFFFFFFFFFFFFFFFFFFFFFFFFFFFFFFFFFFFFFFFFFFFFFFF SUB DUP4 SGT PUSH1 0x0 DUP4 SLT ISZERO AND ISZERO PUSH2 0x304B JUMPI PUSH2 0x304A PUSH2 0x2831 JUMP JUMPDEST JUMPDEST DUP2 PUSH32 0x8000000000000000000000000000000000000000000000000000000000000000 SUB DUP4 SLT PUSH1 0x0 DUP4 SLT AND ISZERO PUSH2 0x3083 JUMPI PUSH2 0x3082 PUSH2 0x2831 JUMP JUMPDEST JUMPDEST DUP3 DUP3 ADD SWAP1 POP SWAP3 SWAP2 POP POP JUMP INVALID LOG2 PUSH5 0x6970667358 0x22 SLT KECCAK256 CALLVALUE DUP6 0xAE EXTCODESIZE SWAP3 CALLCODE 0xCC DUP3 CHAINID 0x23 EQ 0xD9 PUSH4 0x2C05170A 0xE1 KECCAK256 0xD8 CHAINID DUP5 PUSH26 0x6D8811A6E10EF3C4E64736F6C634300080E0033000000000000 "
				},
				"gasEstimates": {
					"creation": {
						"codeDepositCost": "2496800",
						"executionCost": "infinite",
						"totalCost": "infinite"
					},
					"external": {
						"admin()": "2599",
						"balanceOf(address)": "infinite",
						"balanceOfAt(address,uint256)": "infinite",
						"balanceOfAtFuture(address,uint256)": "infinite",
						"balanceSnapshot(address,uint256)": "infinite",
						"balanceSnapshot(address,uint256,uint256)": "infinite",
						"createLock(uint256,uint256)": "infinite",
						"decimals()": "2497",
						"depositFor(address,uint256)": "infinite",
						"epoch()": "2474",
						"increaseAmount(uint256)": "infinite",
						"increaseUnlockTime(uint256)": "infinite",
						"init(address,string,string)": "infinite",
						"locked(address)": "infinite",
						"name()": "infinite",
						"pointHistory(uint256)": "infinite",
						"slopeChanges(uint256)": "2831",
						"supply()": "2453",
						"symbol()": "infinite",
						"token()": "infinite",
						"totalSupply()": "infinite",
						"totalSupplyAt(uint256)": "infinite",
						"totalSupplyAtFuture(uint256)": "infinite",
						"userBalanceSnapshot(address,uint256)": "infinite",
						"userPointEpoch(address)": "2882",
						"userPointHistory(address,uint256)": "infinite",
						"withdraw()": "infinite"
					},
					"internal": {
						"_checkPoint()": "infinite",
						"_checkUserPoint(address,struct vcDORA.LockedBalance storage pointer,struct vcDORA.LockedBalance memory)": "infinite",
						"_depositFor(address,uint256,uint256,struct vcDORA.LockedBalance storage pointer,enum vcDORA.LockedType)": "infinite",
						"_posInterpolation(struct vcDORA.Point storage pointer,uint256)": "infinite",
						"_supplyAt(struct vcDORA.Point storage pointer,uint256)": "infinite"
					}
				},
				"methodIdentifiers": {
					"admin()": "f851a440",
					"balanceOf(address)": "70a08231",
					"balanceOfAt(address,uint256)": "4ee2cd7e",
					"balanceOfAtFuture(address,uint256)": "98ec0955",
					"balanceSnapshot(address,uint256)": "a95dbd8e",
					"balanceSnapshot(address,uint256,uint256)": "7db830ff",
					"createLock(uint256,uint256)": "b52c05fe",
					"decimals()": "313ce567",
					"depositFor(address,uint256)": "2f4f21e2",
					"epoch()": "900cf0cf",
					"increaseAmount(uint256)": "15456eba",
					"increaseUnlockTime(uint256)": "7c616fe6",
					"init(address,string,string)": "b2b45df5",
					"locked(address)": "cbf9fe5f",
					"name()": "06fdde03",
					"pointHistory(uint256)": "8ad4c447",
					"slopeChanges(uint256)": "f52a36f7",
					"supply()": "047fc9aa",
					"symbol()": "95d89b41",
					"token()": "fc0c546a",
					"totalSupply()": "18160ddd",
					"totalSupplyAt(uint256)": "981b24d0",
					"totalSupplyAtFuture(uint256)": "2d8695d1",
					"userBalanceSnapshot(address,uint256)": "2c80b15e",
					"userPointEpoch(address)": "81fc83bb",
					"userPointHistory(address,uint256)": "34d901a4",
					"withdraw()": "3ccfd60b"
				}
			},
			"storageLayout": {
				"storage": [
					{
						"astId": 101,
						"contract": "contracts/vcDORA.sol:vcDORA",
						"label": "admin",
						"offset": 0,
						"slot": "0",
						"type": "t_address"
					},
					{
						"astId": 103,
						"contract": "contracts/vcDORA.sol:vcDORA",
						"label": "name",
						"offset": 0,
						"slot": "1",
						"type": "t_string_storage"
					},
					{
						"astId": 105,
						"contract": "contracts/vcDORA.sol:vcDORA",
						"label": "symbol",
						"offset": 0,
						"slot": "2",
						"type": "t_string_storage"
					},
					{
						"astId": 107,
						"contract": "contracts/vcDORA.sol:vcDORA",
						"label": "decimals",
						"offset": 0,
						"slot": "3",
						"type": "t_uint256"
					},
					{
						"astId": 110,
						"contract": "contracts/vcDORA.sol:vcDORA",
						"label": "token",
						"offset": 0,
						"slot": "4",
						"type": "t_contract(ERC20)44"
					},
					{
						"astId": 112,
						"contract": "contracts/vcDORA.sol:vcDORA",
						"label": "supply",
						"offset": 0,
						"slot": "5",
						"type": "t_uint256"
					},
					{
						"astId": 117,
						"contract": "contracts/vcDORA.sol:vcDORA",
						"label": "locked",
						"offset": 0,
						"slot": "6",
						"type": "t_mapping(t_address,t_struct(LockedBalance)72_storage)"
					},
					{
						"astId": 119,
						"contract": "contracts/vcDORA.sol:vcDORA",
						"label": "epoch",
						"offset": 0,
						"slot": "7",
						"type": "t_uint256"
					},
					{
						"astId": 124,
						"contract": "contracts/vcDORA.sol:vcDORA",
						"label": "pointHistory",
						"offset": 0,
						"slot": "8",
						"type": "t_mapping(t_uint256,t_struct(Point)67_storage)"
					},
					{
						"astId": 128,
						"contract": "contracts/vcDORA.sol:vcDORA",
						"label": "slopeChanges",
						"offset": 0,
						"slot": "9",
						"type": "t_mapping(t_uint256,t_int256)"
					},
					{
						"astId": 135,
						"contract": "contracts/vcDORA.sol:vcDORA",
						"label": "userPointHistory",
						"offset": 0,
						"slot": "10",
						"type": "t_mapping(t_address,t_mapping(t_uint256,t_struct(Point)67_storage))"
					},
					{
						"astId": 139,
						"contract": "contracts/vcDORA.sol:vcDORA",
						"label": "userPointEpoch",
						"offset": 0,
						"slot": "11",
						"type": "t_mapping(t_address,t_uint256)"
					},
					{
						"astId": 145,
						"contract": "contracts/vcDORA.sol:vcDORA",
						"label": "userBalanceSnapshot",
						"offset": 0,
						"slot": "12",
						"type": "t_mapping(t_address,t_mapping(t_uint256,t_uint256))"
					},
					{
						"astId": 147,
						"contract": "contracts/vcDORA.sol:vcDORA",
						"label": "_rentrancyLock",
						"offset": 0,
						"slot": "13",
						"type": "t_bool"
					}
				],
				"types": {
					"t_address": {
						"encoding": "inplace",
						"label": "address",
						"numberOfBytes": "20"
					},
					"t_bool": {
						"encoding": "inplace",
						"label": "bool",
						"numberOfBytes": "1"
					},
					"t_contract(ERC20)44": {
						"encoding": "inplace",
						"label": "contract ERC20",
						"numberOfBytes": "20"
					},
					"t_int256": {
						"encoding": "inplace",
						"label": "int256",
						"numberOfBytes": "32"
					},
					"t_mapping(t_address,t_mapping(t_uint256,t_struct(Point)67_storage))": {
						"encoding": "mapping",
						"key": "t_address",
						"label": "mapping(address => mapping(uint256 => struct vcDORA.Point))",
						"numberOfBytes": "32",
						"value": "t_mapping(t_uint256,t_struct(Point)67_storage)"
					},
					"t_mapping(t_address,t_mapping(t_uint256,t_uint256))": {
						"encoding": "mapping",
						"key": "t_address",
						"label": "mapping(address => mapping(uint256 => uint256))",
						"numberOfBytes": "32",
						"value": "t_mapping(t_uint256,t_uint256)"
					},
					"t_mapping(t_address,t_struct(LockedBalance)72_storage)": {
						"encoding": "mapping",
						"key": "t_address",
						"label": "mapping(address => struct vcDORA.LockedBalance)",
						"numberOfBytes": "32",
						"value": "t_struct(LockedBalance)72_storage"
					},
					"t_mapping(t_address,t_uint256)": {
						"encoding": "mapping",
						"key": "t_address",
						"label": "mapping(address => uint256)",
						"numberOfBytes": "32",
						"value": "t_uint256"
					},
					"t_mapping(t_uint256,t_int256)": {
						"encoding": "mapping",
						"key": "t_uint256",
						"label": "mapping(uint256 => int256)",
						"numberOfBytes": "32",
						"value": "t_int256"
					},
					"t_mapping(t_uint256,t_struct(Point)67_storage)": {
						"encoding": "mapping",
						"key": "t_uint256",
						"label": "mapping(uint256 => struct vcDORA.Point)",
						"numberOfBytes": "32",
						"value": "t_struct(Point)67_storage"
					},
					"t_mapping(t_uint256,t_uint256)": {
						"encoding": "mapping",
						"key": "t_uint256",
						"label": "mapping(uint256 => uint256)",
						"numberOfBytes": "32",
						"value": "t_uint256"
					},
					"t_string_storage": {
						"encoding": "bytes",
						"label": "string",
						"numberOfBytes": "32"
					},
					"t_struct(LockedBalance)72_storage": {
						"encoding": "inplace",
						"label": "struct vcDORA.LockedBalance",
						"members": [
							{
								"astId": 69,
								"contract": "contracts/vcDORA.sol:vcDORA",
								"label": "amount",
								"offset": 0,
								"slot": "0",
								"type": "t_uint256"
							},
							{
								"astId": 71,
								"contract": "contracts/vcDORA.sol:vcDORA",
								"label": "end",
								"offset": 0,
								"slot": "1",
								"type": "t_uint256"
							}
						],
						"numberOfBytes": "64"
					},
					"t_struct(Point)67_storage": {
						"encoding": "inplace",
						"label": "struct vcDORA.Point",
						"members": [
							{
								"astId": 62,
								"contract": "contracts/vcDORA.sol:vcDORA",
								"label": "bias",
								"offset": 0,
								"slot": "0",
								"type": "t_int256"
							},
							{
								"astId": 64,
								"contract": "contracts/vcDORA.sol:vcDORA",
								"label": "slope",
								"offset": 0,
								"slot": "1",
								"type": "t_int256"
							},
							{
								"astId": 66,
								"contract": "contracts/vcDORA.sol:vcDORA",
								"label": "ts",
								"offset": 0,
								"slot": "2",
								"type": "t_uint256"
							}
						],
						"numberOfBytes": "96"
					},
					"t_uint256": {
						"encoding": "inplace",
						"label": "uint256",
						"numberOfBytes": "32"
					}
				}
			},
			"userdoc": {
				"kind": "user",
				"methods": {},
				"version": 1
			}
		}
	}
}